:100000006F00004B130000001300000013000000FD
:100010001300000013000000130000001300000094
:100020001300000013000000130000001300000084
:08003000130000007300100032
:100038000000000000000000A8020000AC02000060
:1000480000000000F60300000000000000000000AF
:10005800F8030000FA0300000000000000000000A0
:10006800FC03000000000000FE0300000000000088
:10007800000400000204000004040000060400005C
:10008800080400000A0400000C0400000E0400002C
:1000980010040000120400001404000016040000FC
:1000A800180400001A0400001C0400001E040000CC
:1000B800200400002204000024040000260400009C
:1000C800280400002A0400002C0400002E0400006C
:1000D800300400003204000034040000360400003C
:1000E80038040000A0440000E04500003E04000081
:1000F80040040000420400004404000046040000DC
:10010800480400004A0400004E4700004E04000066
:10011800500400005204000054040000560400007B
:10012800580400005A0400005C0400005E0400004B
:10013800600400006204000064040000660400001B
:10014800680400006A0400006C0400006E040000EB
:1001580070040000720400007404000076040000BB
:10016800780400007A0400007C0400007E0400008B
:10017800800400008204000084040000860400005B
:10018800880400008A0400008C0400008E0400002B
:1001980090040000920400009404000096040000FB
:1001A800980400009A0400009C0400009E040000CB
:1001B800A0040000A2040000A4040000A60400009B
:1001C800A8040000AA040000AC040000AE0400006B
:1001D8000000000000000000000000000000000017
:1001E8000000000000000000000000000000000007
:0801F8000000000000000000FF
:100200003D432A876373C3029377F700BDEFADE5E3
:10021000937606FF3D8ABA960CC34CC30CC74CC7F5
:100220004107E36BD7FE11E28280B306C3408A0622
:100230009702000096966780A6002307B700A306E2
:10024000B7002306B700A305B7002305B700A30432
:10025000B7002304B700A303B7002303B700A3022A
:10026000B7002302B700A301B7002301B700A30022
:10027000B7002300B700828093F5F50F93968500B1
:10028000D58D93960501D58D61B79396270097027A
:10029000000096968682E78086FA9680C1171D8FA9
:1002A0003E96E374C3F8A5B77300203001A0411156
:1002B000094506C6EF00B032EF40D0761305500D69
:1002C000EF402064716513050520EF40107FB707EC
:1002D000002083A5870B379500001305058BEF5091
:1002E000907E379500001305058CEF600000EF400D
:1002F000306EEF401073F5BFB71702409843B70652
:10030000FFF041111367170098C3D8433706020066
:10031000758FD8C39843B706F7FEFD16758F98C33F
:100320009843B706FCFFFD16758F98C3D843B706F0
:1003300001FFFD16758FD8C39843B70600ECFD1674
:10034000758F98C33707FF0098C723A6070202C41A
:1003500002C69843C166558F98C3B7160240056719
:100360009C42F18F3EC6A24785073EC4B24781E753
:10037000A247E397E7FEB71702409C431397E700B5
:100380006357070685473EC632478547631FF70414
:10039000B7170240D843B706C1FFFD16D8C3D843EC
:1003A000D8C3D84313670740D8C3D843758FD8C381
:1003B000D843B7061D00558FD8C39843B706000130
:1003C000558F98C3984393166700E3DD06FED84324
:1003D000B7160240719BD8C3D84313672700D8C310
:1003E0002147DC42B18BE39EE7FE4101828002C6D9
:1003F00061BF01A001A001A001A001A001A001A076
:1004000001A001A001A001A001A001A001A001A0E4
:1004100001A001A001A001A001A001A001A001A0D4
:1004200001A001A001A001A001A001A001A001A0C4
:1004300001A001A001A001A001A001A001A001A0B4
:1004400001A001A001A001A001A001A001A001A0A4
:1004500001A001A001A001A001A001A001A001A094
:1004600001A001A001A001A001A001A001A001A084
:1004700001A001A001A001A001A001A001A001A074
:1004800001A001A001A001A001A001A001A001A064
:1004900001A001A001A001A001A001A001A001A054
:1004A00001A001A001A001A001A001A001A001A044
:1004B000970100209381814017810020130181B4AE
:1004C000179500001305C55097050020938585B347
:1004D0001386818163FAC5008322050023A055009D
:1004E00011059105E3EAC5FE138581819385C1BDA0
:1004F0006377B500232005001105E36DB5FEFD42CD
:10050000739002BCED4273904280B7620000938208
:10051000820873A0023097020000938222B293E215
:10052000320073905230EFF03FDD9702000093826B
:1005300042D873901234730020304111B727014024
:1005400006C693870740631EF50085451305002006
:10055000EF00702C814513050020B24041016F006F
:10056000902BB737014093870780631BF5008545C3
:1005700013050040EF00302A814513050040F1BF0C
:10058000B240410182805C413707F1E01307F7EF89
:10059000944D7D8F9C41D58FD44DD58FD441A206EB
:1005A000D58FD98F5CC11C4537F7F1FF1307D77F73
:1005B000D4457D8F9C49D58F94458606D58FD98F9C
:1005C0001CC55C55370710FF7D177D8F83C745011C
:1005D000FD1793F7F70FD207D98F5CD582801C45A2
:1005E00089C593E717001CC58280F99BEDBF1C45A8
:1005F00089C593E707101CC5828093F7F7EFE5BF25
:100600001C4593E787001CC5828008450D8105893C
:1006100082801C4593E747001CC5828008450981FC
:10062000058982801C4591C537075000D98F1CC5AC
:1006300082803707B0FF7D17F98FD5BFA54763F7D5
:10064000B7048D47138765FF3307F7020328C500FA
:100650009D47B397E70093C7F7FFB3F70701B3963A
:10066000E600DD8E54C5994763E3C70495477D16C0
:100670003306F6025859FD47B397C70093C7F7FFF3
:10068000F98F3396C5005D8E50D982800D47338730
:10069000E502032805019D47B397E70093C7F7FFDD
:1006A000B3F70701B396E600DD8E14C96DBFB147FD
:1006B00063E2C702954765163306F6021859FD47EF
:1006C000B397C70093C7F7FFF98F3396C5005D8EC8
:1006D00010D9828095474D163306F6025855FD47CE
:1006E000B397C70093C7F7FFF98FB395C500DD8DAA
:1006F0004CD582805C4191C537070004D98F5CC11D
:100700008280370700FC7D17F98FD5BF797122D41D
:1007100026D206D62A8423040100A54483478100FB
:1007200063F1F40623040100A546214683478100B6
:1007300063F7F6082315010023040100954683475B
:10074000810063F5F6100357A1008357A100994675
:100750000D46B3F7D7020565B25022541305058044
:100760009254B3D7C7023357D702BA97C207C1838F
:100770002315F1008357A10045611D8D4205418578
:1007800082801C4493E787001CC42285BD3D75FD13
:100790001C4493E747001CC42285493575FD784405
:1007A0008347810014108607B6972396E7FE834798
:1007B0008100850793F7F70F2304F10085B7A304A1
:1007C000010083479100637AF60083478100850723
:1007D00093F7F70F2304F10091BF0347910083477C
:1007E00091000C100607850786072E97AE970357D2
:1007F000C7FE83D7C7FE63F3E704834791008607EC
:10080000AE9783D7C7FE2315F100834791000347B6
:10081000910085078607AE9783D5C7FE931717000B
:100820001810BA972396B7FE834791000357A1008B
:100830000C1085078607AE972396E7FE8347910045
:10084000850793F7F70FA304F100A5BF8347810045
:1008500010100357A10089078607B29783D7C7FEF8
:10086000BA97C207C1832315F1008347810085072A
:1008700093F7F70F2304F100D9B51C4141677917AD
:10088000F98F1CC123200500232205002324050025
:10089000B707024023260500138787006317E5008A
:1008A000D8431367F700D8C382801387C701631644
:1008B000E500D8431367070FFDB7138707036318D5
:1008C000E500D8438566938606F0558FE9BF138708
:1008D00047046315E500D843BD66C5BF1387870588
:1008E0006316E500D843B7060F00C5B71387C706E0
:1008F0006316E500D843B706F000C1BF13870708A9
:100900006316E500D843B706000FC1B713878740C9
:100910006319E50003A747401367F70023A2E740E8
:1009200082801387C7416317E50003A74740136719
:10093000070FEDB793870743631BF500B707024026
:1009400003A747408566938606F0558FC1BFB7075A
:100950000240138747446316E50003A74740BD667E
:10096000EDB7138787456317E50003A74740B70630
:100970000F00E1BF1387C7466317E50003A7474091
:10098000B706F000D9B7138707486317E50003A738
:100990004740B706000F55BF138707496319E500A5
:1009A00003A7474D1367F70023AAE74C82801387FC
:1009B000074A6317E50003A7474D1367070FEDB715
:1009C0001387074B6319E50003A7474D8566938698
:1009D00006F0558FD1BF1387074CE319E5FC03A739
:1009E000474DBD66FDB71C4161773D0794517D8F32
:1009F0009C45D58F9449D58FD449D58F944DD58FAB
:100A0000D44DD58FD451D58F9455D58FD98F1CC146
:100A1000DC455CC19C411CC5DC415CC582801C413D
:100A200089C593E717001CC1828041677917F98F48
:100A3000DDBF5C45ED8F99C34CC982800CC98280B3
:100A40009C4513F7070113F8F70001C7D841336835
:100A5000E80083D5050013F7F50F39C31841814627
:100A6000854E3D4F930F800293028004214E3396B2
:100A7000DE00B3F8C5006311160393982600331304
:100A80001F011343F3FF3377E300B318180133E773
:100A9000E800639FF70550C98506E39AC6FD18C1B3
:100AA0001307F00F6375B70454412146854E3D4F3F
:100AB000930F800293028004414EB398CE0033F727
:100AC00015016392E8021317260001173313EF0094
:100AD0001343F3FFB376D3003317E800D98E639D39
:100AE000F701232A15010506E319C6FD54C18280CA
:100AF000E39457FA10C94DB7E39757FE2328150121
:100B0000DDB708456D8D3335A00082800CC9828029
:100B100019C20CC982804CC98280B7070140635753
:100B20000504DC4F135705019376F70013160501F2
:100B30003707300041823378E500635C05046319B0
:100B4000E802138706018D46B396E60093C6F6FFCA
:100B5000F58F89C91357550112073317E600D98F4E
:100B600063570504370701405CCF8280DC435DBFDB
:100B70001317B500635607000D47B316D700F9B732
:100B80001357550112073317E6001347F7FFF98F84
:100B9000C9B76312E80237080140832648003707C7
:100BA00000F17D17F98F758F2322E800C5F537070F
:100BB00001405CC382801317B500635C07000D47DA
:100BC0003317D7001347F7FF7D8FB707000FD98F73
:100BD000F1BF1357550112073317E600E5B7397116
:100BE00022DC26DA2A848354450068082EC606DEF5
:100BF0007D2C925737470F001307072433D7E7029E
:100C0000C204C18093F404FCC204C180B245616592
:100C10001305056A131607014182D18C2312940033
:100C200083560400C206C182F99AC206C18223100B
:100C3000D40094416366D5068606B3D7D7029146A1
:100C4000139707014183BA876373D700914705065D
:100C50004206C2074182C1832310C402231EF4004E
:100C60008357040003D7450083D6A50093E71700F8
:100C70002310F40083570400558FF250C207C1833C
:100C800093F757BFD98F2310F40003D7850083D77C
:100C9000C500D254D98F2314F4006254216182809C
:100CA00003D5650031667D16631EC5020D46B38609
:100CB000C602B3D7D702C207C1839396470199E210
:100CC00093E71700A166D58F9306C0123307D702AA
:100CD0009306803E3347D70205074207418323101E
:100CE000E402ADBF6546B386C602B3D7D7029166AC
:100CF000C207C183D58FD1B78357050091C593E74C
:100D000017002310F5008280C207C183F99BC20738
:100D1000C183C5BF8357050091C593E70710231012
:100D2000F5008280C207C18393F7F7EFC207C18342
:100D3000FDB78357050091C593E707202310F50001
:100D40008280C207C18393F7F7DFC207C183FDB773
:100D50008357050091C593E707402310F500828073
:100D6000C207C18393F7F7BFC207C183FDB723183A
:100D7000B5008280035505011375F50F828093F746
:100D8000E50F19C293E71500C207C1832318F500C8
:100D90008280835745010355850142055D8D6D8D28
:100DA000220521810D8D133515008280411102C469
:100DB00002C693D7C5012AC63EC4A247A205A18197
:100DC00099CBB247D1073EC6B247884341016D8DEA
:100DD0003335A0008280B247C181E107EDB723AC73
:100DE000A18082809387818194430347050089E62F
:100DF00083472500920731A8944305466391C604B2
:100E0000834725000346150092076314D60093E735
:100E100007F8B7E600E093F7F70FBA962380F6409D
:100E20008546935757003397E6005441ADC69387E4
:100E300007048A07B7E600E0B69798C382808C4320
:100E400089466393D5028346150083472500636571
:100E5000D6008A06B69779BF9386E6038A06B697C8
:100E600093F7F70F920765B790438D46631ED60040
:100E700083461500834725006364D6008606D9BFE4
:100E80009386C6078606E1BF94439147E39AF6F836
:100E90008347150085B79387070661BFB7160240E1
:100EA000DC4251777D17F98F5D8DC8C2828037177C
:100EB00002405C439146B18B6385D700A1466386AF
:100EC000D706B7177A00938707201CC13716024050
:100ED0005C4237070020130707009183BD8BBA9748
:100EE00083C607001C41B3D7D7005CC15442A1821E
:100EF0009D8ABA9683C60600B3D6D70014C554425D
:100F0000AD829D8A369703470700B3D7E7005CC5DB
:100F100058423983937637001387418036970347C9
:100F20000700B3D7E7021CC982805C435443416782
:100F3000C983F98E37F7FF1F0327C770BD8B890759
:100F40001316170163480600454601476392C7021E
:100F5000C94739A809476389E7023D476388E70223
:100F600041476388E702454601476393C700C1478D
:100F700085E6B746024083A60680C18A8DC6B716AD
:100F80007A009386062025A00147D9B70547B547C3
:100F9000C5B70147BD47E9BFB7160240D442139613
:100FA000E600E35E06FCB7163D0093860690B38725
:100FB000D7021CC101DF1C41858301BF99C53717CA
:100FC00002405C4B5D8D48CB8280B7170240D84B06
:100FD0001345F5FF798DC8CB828099C5371702403C
:100FE0001C4F5D8D08CF8280B7170240984F134584
:100FF000F5FF798D88CF828099C5371702405C4F05
:101000005D8D48CF8280B7170240D84F1345F5FF5A
:10101000798DC8CF828099C5371702405C475D8DB6
:1010200048C78280B7170240D8471345F5FF798D2E
:10103000C8C782808357050037370140930607C031
:10104000C207C1836300D504B7060040630CD50214
:10105000938606406308D502B716004013860680C3
:101060006302C502938606C0630ED50013070740CE
:10107000630AE50037570140930607C06304D500B3
:101080006317E50003D7250093F7F7F8D98F3717D3
:101090000040630DE500130707406309E50093F77F
:1010A000F7CF03D76500C207C183D98F2310F5009E
:1010B00083D745002316F50283D705002314F502D4
:1010C000B7370140138707C0630EE50093870740D9
:1010D000630AF500B7570140138707C06304E500B2
:1010E0006316F50083C785002318F5028547231A88
:1010F000F50082808357050203D6050003D825003A
:10110000C207C183F99BC207C1832310F50283572D
:1011100005028356450003578501C207C183420774
:1011200041831377C7F8518F03D68500F59BC2061C
:1011300033660601D18F37360140130806C0C182DD
:10114000630E050113060640630AC50037560140C9
:10115000130806C0630405016313C50203D6A50086
:10116000DD9B03D8E500D18F03D64500ED9B93F6B8
:10117000F6CFD18F03D6C50033660601D18E231278
:10118000D500231CE50003D76500231AE5022310D0
:10119000F50282808357050265771307F7CFC207F0
:1011A000C183BD9BC207C1832310F502835705028B
:1011B0008356450003D88500C2071396060183565F
:1011C0008501C18393F7F7FD758F83D605004182B2
:1011D000A206558F83D6250042074183B3E6060158
:1011E0009206D58FB7360140C207138806C0C18367
:1011F000630E050193860640630AD500B756014089
:10120000138806C0630405016311D50483D6A500C5
:1012100093F7F7F703D8C5009206D58F83D645001C
:10122000C207C183920693F7F7FBD58FFD769386AD
:10123000F63FF18E03D6E500C207C183336606018F
:101240000A06D18E1396060141822312C500231C83
:10125000E50003D76500231CE5022310F502828018
:101260008357050203D88500C207C18393F7F7EFC0
:10127000C207C1832310F502835705028356450038
:101280000357C501C20713960601420783D605001E
:1012900041831377C7F8558F83D62500C18393F711
:1012A000F7DFB3E60601A206D58FB7360140C207C5
:1012B000138806C04182C183630E050193860640F0
:1012C000630AD500B7560140138806C063040501C0
:1012D0006312D504FD769386F67FF58F83D6A5003D
:1012E00003D8C500A206D58F83D64500C207C183A7
:1012F000A20693F7F7BFD58FF576FD16F18E03D6CC
:10130000E500C207C183336606011206D18E13962B
:10131000060141822312C500231EE50003D76500A4
:10132000231EE5022310F502828003570502FD7794
:10133000FD17F98F2310F502035805028356450067
:101340008357C50165771396060183D605001307F9
:10135000F7CF7D8FF977A206FD17558FB3F70701F9
:1013600083D6250003D8850042074182B3E60601F3
:10137000B206D58FB7360140C207138806C0418335
:10138000C183630E050193860640630AD500B756F4
:101390000140138806C063040501631CD500F17683
:1013A000FD16F18E03D6C5001A06D18E13960601DE
:1013B00041822312C500231EE50003D765002310D8
:1013C000E5042310F50282808357050091C593E759
:1013D00017002310F5008280C207C183F99BC20762
:1013E000C183C5BF8357450491C52167D98F231297
:1013F000F5048280C607C583DDBF8357C50009C6D3
:10140000DD8D2316B500828093C5F5FFFD8DD5BF18
:101410008357050091C593E707082310F5008280E4
:10142000C207C18393F7F7F7C207C183FDB783579C
:101430008501C207C183DD9BDD8D231CB500828041
:1014400003578501FD779387F77FF98FA205CD8F2D
:10145000C207C183231CF50082808357C501C207E0
:10146000C183DD9BDD8D231EB50082800357C5013E
:10147000FD779387F77FF98FA205CD8FC207C183D0
:10148000231EF5008280231AB5028280231CB50238
:101490008280231EB50282802310B504828003550A
:1014A000450382800355850382800355C5038280EE
:1014B00003550504828093C5F5FFC205C181231839
:1014C000B500828083560501F577FD17F58F83D629
:1014D0006500397122DC06DED58F03D7C5002318DD
:1014E000F5008356C500FD779387379FF58F83D628
:1014F00045002A842EC6D58F83D68500D58F83D606
:10150000A500D58F2316F50083574501C207C18377
:1015100093F7F7CFD98F231AF5006808493AB747F0
:10152000014093870780B245631EF404A257835697
:10153000C4006547B387E702C206C186984163D5F8
:10154000060406070356C4004206B3D7E702130792
:1015500040064186B3D6E702B3F7E7029206635727
:1015600006028E0793872703B3D7E70213F77700A6
:10157000B367D700C207C1832314F400F25062544A
:1015800021618280925765B70A076DBF92079387E2
:101590002703B3D7E702BD8BD58FE9BF81C9835736
:1015A000C5000967D98F2316F50082800357C5004F
:1015B000F977FD17F98FC5BF13F7F50F8547158329
:1015C000B395B7006319F7009307C500984301CEA0
:1015D000D98D8CC38280894693074501E318D7FED5
:1015E00093070501E5B793C5F5FFF98DDDB793F5D1
:1015F000F51F2312B5008280035545001375F51FB2
:101600008280035505006D8D3335A000828093C51F
:10161000F5FFC205C1812310B500828013F7F50FD5
:1016200085461583B397B6006313D7020357C500E9
:10163000F98F0357050001454207418381CB0545DA
:10164000A181B315B5006D8F3335E00082808946E6
:101650006315D70003570501E1BF03574501C9BF13
:10166000797122D43704002026D285479304C4011F
:1016700098402312F100DC4006D64AD04ECE52CC20
:10168000AA892E8903C50700834527015400328AA1
:101690000946EF2040471305800CEF30B03E9840DC
:1016A000DC40230201008345F70003C50700540016
:1016B0000546EF2040459840DC40540083455700E4
:1016C00003C5070005461304C401EF20C04398403A
:1016D000DC4054008345270103C507000546EF2081
:1016E00080429840DC4054008345770103C50700E1
:1016F0000546EF2040419840DC40540083454700B8
:1017000003C507000546EF200040B1472302F10062
:101710009840DC4054008345470003C50700054658
:10172000EF20603E3D45EF30F0359C54984054002A
:1017300083C7970005462302F100DC40834527005C
:1017400003C50700EF20203C9C549840540083C7F9
:10175000870005462302F100DC408345170003C5DE
:101760000700EF20403A1C5483C7A70063040A0017
:1017700093E7070E2302F10018405C4054008345B4
:10178000670003C507000546EF20E037E147630720
:101790000A001C5483C7B70093E7070E2302F10029
:1017A00018405C4054008345770003C50700054698
:1017B000EF20603563060A001305800CEF30902C93
:1017C000930700042302F10018405C405400834555
:1017D000470003C5070005468144EF20C032930748
:1017E00080072302F10018405C40540083455700F5
:1017F00003C507000546EF20003113052003EF3035
:10180000702818405C40230201008345570003C53F
:10181000070054000546EF20002F5C40184054009C
:1018200003C507008345A7000946EF20604E034A21
:1018300041008347510023A40900220A336AFA00B9
:10184000B147335AFA0223A2090023A00900232436
:1018500009002322090023200900137AFA0F639656
:10186000441503A509001306300881469357F54136
:10187000C20793550501DD8D4205EF40502C2686A9
:101880008146EF40D02B23A0A90003A549001306F1
:10189000300881469357F541C20793550501DD8D08
:1018A0004205EF40D02926868146EF40502923A2E9
:1018B000A90003A589001306300881469357F54116
:1018C000C20793550501DD8D4205EF40502726865E
:1018D0008146EF40D02623A4A900032509002686CF
:1018E00081469355F54193570501139705015D8F87
:1018F0009355F741420593F5F57FB387A500B3B53E
:10190000B700BA95AD83139555015D8DAD85EF4058
:1019100010232320A90003254900268681469355DC
:10192000F54193570501139705015D8F9355F741D5
:10193000420593F5F57FB387A500B3B5B700BA9517
:10194000AD83139555015D8DAD85EF40501F23226A
:10195000A90003258900268681469355F5419357B2
:101960000501139705015D8F9355F741420593F5E6
:10197000F57FB387A500B3B5B700BA95AD831395CE
:1019800055015D8DAD85EF40901BC1776343A0008D
:10199000C167B25022543E952324A90092540259A3
:1019A000F249624A01454561828018405C4054001A
:1019B0008345B70003C5070031468504EF20403555
:1019C00003476100834771008346910022075D8FC2
:1019D00083478100034651004207A207D58F834603
:1019E00041004187C207A206D18E03260900C20624
:1019F000C186B2962320D90083264900C1870346B9
:101A0000B10036972322E900032789008346F100BD
:101A100093F4F40FBA970347C1002324F9008347D6
:101A2000D10022075D8F8347E10042074187A2076B
:101A3000D58F8346A100C207C187A206D18E03A617
:101A40000900C206C186B29623A0D90083A6490028
:101A5000369723A2E90003A78900BA9723A4F900C7
:101A6000FDBB011122CC370400209307C40106CE30
:101A700083C747021304C40195CB11C10945A307CD
:101A8000A1005C4018409306F10003C507008345A0
:101A9000F7000546EF2020078347F100A308F40074
:101AA0008147F24062443E85056182800347A4007D
:101AB000FD5765DB09C90347140181477DF385475D
:101AC000A307F1007DBFA307010065BF011122CC70
:101AD0003704002006CE9307C40183C7A7007D55B5
:101AE0006381070E1304C40118405C40A307010082
:101AF0008345F70003C507009306F1000546EF2074
:101B0000800018405C409306F1008345570003C5F0
:101B100007000546EF10307F5C4018409306F10047
:101B200003C50700834547000546EF10D07D834776
:101B30004402C1CFB147A307F10018405C409306AF
:101B4000F1008345470003C507000546EF10B07B51
:101B500013052003EF300073930700FCA307F10087
:101B60008347A400858B81C78157A307F1005C40A0
:101B700018409306F10003C507008345470005465A
:101B8000EF1070788347140191C38947A307F100D0
:101B900018405C409306F1008345F70003C5070039
:101BA0000546EF10507618405C40A30701009306ED
:101BB000F10003C50700834557000546EF10B074D8
:101BC0000145F2406244056182809147A307F1001C
:101BD00018405C409306F1008345470003C50700A9
:101BE0000546EF105072834724011307000499E75C
:101BF0008347A400858B99C3130700065C40A307A5
:101C0000E100184003C507009306F1008345470033
:101C10000546EF10506F13052003EF30A066834791
:101C2000140118409306F100B337F000A307F10048
:101C30005C408345F700054603C50700EF10B06C14
:101C400018405C4093060401ADB7B707002083C776
:101C5000470205476382E70291CB09476381E702A8
:101C60000D476381E7022310050029A09307A00F09
:101C70002310F500014582809307401FD5BF9307CD
:101C8000803EFDB79307007DE5B7011122CC3704F4
:101C9000002006CE9307C40183C7A70089CF93070E
:101CA000401F1304C4016303F50663E8A70093070C
:101CB000A00F630EF5007D55B1A09307803E630B26
:101CC000F5049307007DE318F5FEE14789A0A3071B
:101CD00001008347F1000347840001458D836303BE
:101CE000F7025C4018409306F10003C507008345E6
:101CF00067000546EF1030618347F10001458D8391
:101D00002304F400F240624405618280A147A307E6
:101D1000F100C1B7C147E5BF370700209306C701EF
:101D200083C696000546AA871307C7016388C602C3
:101D300089CA09466386C6020D466385C6027D557B
:101D4000828089462380D70003473701014511C7A8
:101D500003C7070006072380E70082809146DDB7AE
:101D6000A146CDB7C146F9BF011122CC37040020EE
:101D700006CE9307C40183C7A70099CB91471304EC
:101D8000C4016300F50663E7A7008947630CF5000B
:101D90007D55A1A0A147630AF504C147E31AF5FEEA
:101DA000E14789A0A30701008347F100034794009E
:101DB00001458D836303F7025C4018409306F100F0
:101DC00003C50700834577000546EF10D0538347CE
:101DD000F10001458D83A304F400F24062440561E3
:101DE0008280A147A307F100C1B7C147E5BFB7078C
:101DF000002083C777021547FD1793F7F70F636B32
:101E0000F70225678A071307878DBA979C43828755
:101E10009307C00B2310F50001458280930720062D
:101E2000D5BF9307A002FDB7D147EDB7A947DDB7EE
:101E30009547CDB723100500C5B7011122CC370453
:101E4000002006CE9307C40183C7A700ADCF930738
:101E5000B00B1304C40163F0A7048547A307F10086
:101E60000347B4008347F10001456302F7025C4079
:101E700018409306F10003C5070083452700054677
:101E8000EF1070488347F1000145A305F400F240CC
:101E90006244056182809307100663F4A7008947B6
:101EA00075BF9307900263F4A7008D4745BFCD47E8
:101EB00063F4A70091475DB7A54763F4A700954772
:101EC00071BF994761BF7D55D9B7B7070020938788
:101ED000C70103C7470219E783D7E7002310F500BE
:101EE000014582807D558280B707002083C7470265
:101EF00005476382E70289CB09476383E7020D4701
:101F00006385E7027D558280B797000087A7C79158
:101F10001CE101458280B797000087A70792CDBFDB
:101F2000B797000087A74792E5B7B797000087A744
:101F30008792F9BF370700209306C70183C6960032
:101F40000546AA871307C7016388C60289CA0946DE
:101F50006388C6020D466387C6027D5582809166FE
:101F60002390D70003473701014511C703D7070066
:101F700005832390E700828089669386C6F9CDB7F2
:101F80008566F9BF856693860680D9BF011122CC8C
:101F9000370400201304C401834744024AC806CE14
:101FA00026CA4EC60149A1E38347A4007D5985CFC7
:101FB0009374E50FE58F834904012308F400858FAE
:101FC000B337F0003309F04083474401C58F91CB0C
:101FD0000545413C89C8DD3C19C5230834017D59BC
:101FE00019A00145BD3CF24062444A85D2444249B1
:101FF000B2490561828079714ECEB709002026D2A0
:102000009384C90183C7440206D622D44AD052CC55
:1020100056CA85CF03C7A400FD572DC3DC409840A6
:10202000AE8A2A898345A70003C50700328A740057
:102030000946EF10F04D8347C1000344D100A207C9
:102040005D8C6376240123000A00FD5705A8D84063
:102050009389C90183572700858363FB87029C40CE
:1020600003450700740083C517010546EF10504A69
:102070008347C100C18B89CF913CF957B25022549C
:1020800092540259F249624AD24A3E8545618280A1
:1020900083A7490003A70900D68603C50700834527
:1020A000B7001376F90FEF10B0463354240381477D
:1020B0007D1423008A00D9B7011122CC37040020F7
:1020C00006CE26CA9307C40183C72701638CA70CD9
:1020D0001304C4015C40AA849306F10003C5070001
:1020E0001C40054683C54700B9C8EF1070428347BE
:1020F000F10018409306F10093F7F7FDA307F100F4
:102100005C4083454700054603C50700EF10B01F3C
:102110000D45EF3020178947A307F10083472402BC
:1021200089C7930720F8A307F10083473402B1CF92
:102130008347F10093E70703A307F100B9A0EF106D
:10214000303D8347A4008346F100858B13F7F60DDD
:1021500099C313E706025C40A307E100184003C5DA
:1021600007009306F100834547000546EF10B019BC
:102170000D45EF3020118347240299C393070008CF
:1021800003473402A307F10055F718405C4093065B
:10219000F1008345470103C507000546EF10B0165F
:1021A00023099400F2406244D244014505618280D3
:1021B000011122CC3704002006CE26CA9307C401A1
:1021C00083C737026388A7041304C401814719C178
:1021D0009307000303472401A307F10009C793E70E
:1021E0002700A307F1008347240299C78347F10022
:1021F00093E707F8A307F10018405C40AA848345E1
:10220000470103C507009306F1000546EF10B00F24
:10221000A3019402F2406244D244014505618280E8
:102220009307800263EFA70A011122CC26CA370464
:10223000002006CEAA841304C40105E9953F930744
:1022400000702316F10018405C407400834527019C
:1022500003C507000946EF10100B230A0400F240E3
:102260006244D24401450561828005459137930758
:1022700000022306F10085476392F404A3060100DF
:102280001545653E8347D100184074009A0793E7CF
:102290007700A306F1005C4083452701094603C58A
:1022A0000700EF105006A1472305F40001458547BC
:1022B00023060400230AF400D13955B71547636596
:1022C0009700A306F1006DBFD14763E797008947E8
:1022D000A306F100294575B78D47A306F1005145C6
:1022E0004DB77D558280011122CC3704002006CEE7
:1022F00026CA9307C40103C7A70051CB03C74702EF
:10230000AA847D5515E383C747011304C40185C71B
:102310009387F4FFC207C18313077002636BF70052
:1023200013F5F40FF53D0145F2406244D2440561D6
:1023300082800145F5351307803EA68763749700B8
:102340009307803E13970701418391466373D7003B
:102350009147C2079304803EC183B3C7F40218407B
:102360009306F100054683451700FD17A307F1000A
:102370005C4003C50700EF1000790345F100050537
:1023800033C5A4022317A4000581453C69BF7D55D0
:1023900061BF011122CC06CE26CA4AC89377050731
:1023A0002A8489C78547A307F10021A05DC9A30737
:1023B0000100B70400201389C401832749000327C3
:1023C00009009306F10003C5070083452701054670
:1023D0009384C401EF1020738347F10093F7F7FB58
:1023E0002306F90093770404C1C3A3070100937780
:1023F000040299E78347F10093E72700A307F10060
:102400009377040199E78347F10093E71700A30747
:10241000F1009377840099E78347F10093E78703FE
:10242000A307F100DC4098409306F10003C50700C4
:10243000834537010546EF10006D9377740F99C3FC
:102440000145BD331305200323858400238A04003E
:10245000EF205063F2406244D24442490145056195
:1024600082809307000481B79147A307F10041B729
:10247000011122CC3704002026CA930700F89304E8
:10248000C40198402304F100DC4006CE83452701B7
:1024900003C5070034000546EF10E066130540064B
:1024A000EF20505E9840DC40230401008345270163
:1024B00003C5070034000546EF10E0649840DC4097
:1024C00034008345670103C5070019461304C4019E
:1024D000EF1010048347D1000347B1008A070607B5
:1024E000098B918BD98F03479100058BD98FC9CF69
:1024F000054793F5F70F6395E700A309F40031A0B2
:1025000089476396F506A3090400FD572317F400D5
:102510002308F4002309F400FD571CC4231A040007
:10252000854731468145130564012306F400EFD049
:102530003FCD85472311F402232204021305007DB9
:10254000EFF0AFF41DE90945EFF01F821DE513051B
:10255000A002EFF09F8E15E113052003693311ED02
:10256000353401ED913E2A8409E9253501A83795D6
:1025700000001305C592EF3010557D542285F240BE
:102580006244D24405618280DC409840340003C537
:102590000700834537000546EF10807783478100A9
:1025A000BD8B81EB3795000013054595EF30F05357
:1025B000E9B71147E399E7F4379500001305059A49
:1025C000EF30B052854715BF11EA7D5582807D55A9
:1025D000F2406244D244424905618280011122CC1A
:1025E000370400201304C4018347A40006CE26CA82
:1025F0004AC8F1DF1357850093178500D98F23163A
:10260000F1005C401375F50F2E9503D7A700E3404A
:10261000A7FC184003C50700AE84834587013289B3
:1026200074000946EF10204E18405C40CA8683456E
:10263000570103C5070013F6F40FEF10C04C014516
:1026400041BF11EA7D5582807D55F2406244D244FB
:10265000424905618280011122CC37040020130415
:10266000C4018347A40006CE26CA4AC8F1DF135727
:10267000850093178500D98F2316F1005C401375F0
:10268000F50F2E9503D7A700E340A7FC184003C51C
:102690000700AE8483458701328974000946EF1034
:1026A000804618405C40CA868345570103C5070031
:1026B00013F6F40FEF10C065014541BF5D71A6C26E
:1026C000B704002086C6A2C4CAC04EDE52DC56DA69
:1026D0005AD85ED662D466D26AD09387C40183C7C3
:1026E000570285C37D55B640264496440649F259A3
:1026F000625AD25A425BB25B225C925C025D6161BB
:102700008280EDD1C16B9384C401368B32892E8ACD
:10271000AA890144C14CFD1B636B34031316890065
:10272000DC409840135989003369260123162101A2
:1027300003C507008345A70174000946EF10A03CBC
:102740008547A382F40223936403014569BFB38ADA
:10275000894063D35C01C14A139C0A01135C0C01DC
:10276000330D8A006A86E2852285B93D25FD100871
:10277000E2852285F9353DF533F67A010C086A8544
:10278000EF60400209E562944204418071B77955D7
:1027900099BF011122CC370400201304C401034760
:1027A000440206CE6304A70439C5834754027D550D
:1027B0009DCF0145EFF0EFAA0145EFF0FF8F0355E4
:1027C000640215365C40A30701009306F10003C5BF
:1027D0000700054693053002EF10E03285470545B6
:1027E0002302F402EFF0EFA7EFF04FAE0145F24005
:1027F000624405618280EFF0CFA68347040193060F
:10280000F1000546A307F1005C409305300203C5C3
:102810000700EF10402F23020402F9B75971A2D428
:1028200037040020CAD0D6CA9307C40186D6A6D2E0
:10283000CECED2CCDAC8DEC683C447022A89AE8A9D
:102840001304C40181C40145A93785441305E1007F
:10285000EFF0AFBF1305D100EFF00FCC130521014E
:10286000EFF0EFD80808EFF04FE60146D6854A852D
:10287000034AA40083490401EFE09FDE6314051AB4
:1028800005462C106808EFE0BFDD631405205C40AE
:102890003408114603C50700B545EF10604783466D
:1028A000B101034781014C1893D746400D878D8BAA
:1028B000718B5D8F230AE1000347910193D7264076
:1028C0008D8B0D87718B5D8F8347A101A30AE1007A
:1028D000379700008D870727479C379700008D8A20
:1028E000F18B8726879CD58F230BF100540890002D
:1028F000AE872E8B03C706006314071A23A00700B8
:1029000091078506E318F6FEB797000087A5879D17
:10291000B797000007A5C79DB7970000B79B0000B9
:1029200007A0079DB797000087A6CB9C530600F031
:1029300087A0479D38100146814605450D4893976D
:102940002600D697832807009C439861B3871741D8
:1029500093D8F741B3C7F800B3871741D3F707D02F
:10296000D327C7A0D3F7D71063990714D3F7E71875
:10297000D3F70708D3A7F720D397F0A081C7B317E1
:10298000D5005D8E850611079105E39A06FB5C4034
:10299000DA86B54503C50700937AF60F0D46EF10AA
:1029A000203783476103035741038966FD8B230B5F
:1029B000F102B797000007A6879EB797000087A58A
:1029C000C79EB797000007A5079EB797000007A00E
:1029D000079DB79700009386F6F187A6CB9C87A04A
:1029E000479E758F231AE10274080145014785450A
:1029F000B79800000D4893172700CA9790429C4350
:102A0000918F13D6F741B18F918FD3F707D0B307CA
:102A1000EB0003C60700D3F7D7106308060E07A71D
:102A2000089C6DA00146D6854A85EFE07FC3E30987
:102A300005E40149FD570355E1002317F40023087D
:102A4000F400FD571CC485472306F400EFF0EFA304
:102A50000345D100EFF04FB103552101EFF0EFBD79
:102A600003550101EFF03F885285EFF09F924E85AC
:102A7000EFF0CFD199C00545293BB65026544A8581
:102A800096540659F649664AD64A464BB64B656196
:102A9000828005462C106808EFE09FBC59F9C5BB41
:102AA00098E37D171377F70F01E72380060089BDB0
:102AB0009C63D3F7D7109CE3EDB7D397B7A0E3900F
:102AC00007ECD317F5A05DBD5377A7107D161376DD
:102AD000F60F7DFAD3F7E71823800700D3F707082E
:102AE000D3A7F720D397F0A081C7B397E5005D8DFA
:102AF00005079106E31107F11375F50F133915005A
:102B0000E39A0AF21369290035B7D397C7A0F1FFFA
:102B1000D397F5A0D1BF828079714C08280006D6E2
:102B2000F5390D4785476315E5064800EFF0CFBB43
:102B3000A2479266280053F707D05377D710D317D0
:102B400007C03EC4B24753F707D05377D710D31707
:102B500007C03EC6C247D3F707D0D3F7D710D397E5
:102B600007C03EC8752E13052100EFF0AFBC035718
:102B70002100D2474808B387E7023ECAE247B3873D
:102B8000E7023ECCF247B387E7023ECE55218147AC
:102B9000B2503E854561828003070500814763434B
:102BA000E002914705E3030715008547634CE00009
:102BB000954709EB0307250089476345E0009337F4
:102BC000170099073E858280411106C622C426C29D
:102BD0004AC0AA84D1372A8913853400753F2A84D4
:102BE00013856400553F931734001A05B240224400
:102BF0005D8D3365250142059244024941814101C1
:102C00008280411122C406C6EFF09F86294449E51F
:102C100013058007EFF0EFF71375F50F05442DED61
:102C200013058007EFF08FB61375F50F09442DE5F6
:102C300013052003EFF02FEB1375F50F0D4429ED6D
:102C400055221375F50F114421E9370500201305AE
:102C500005019D3F65221375F50F154415ED13050C
:102C60003017EF00B0091375F50F194415E513057A
:102C70002003C1291375F50F1D4419ED713D214441
:102C800001ED054539361374F50F01EC3795000059
:102C900013058590EF3060652285B24022444101E2
:102CA00082802544D5BF1D71A2CCA6CACAC8AE84F5
:102CB0002A893284930791001307A1007400101031
:102CC0002C08080886CEA2E6A6E4CAE2CEE052FEB0
:102CD00056FC5AFAEF00502279E98357A1000945C2
:102CE00093F70710C5CB8257D3F407D0B7970000EE
:102CF00087A7C78F9257D3F4F41053F407D0A25785
:102D00005374F41053F907D0B25753FB940053791E
:102D1000F910D3F907D0B797000007AA0790D3F9A5
:102D2000F91053752B11537A441143753A51EF2022
:102D3000A063B797000087AA4790537B8B10B79783
:102D40000000537555112720A90053752901D3752B
:102D50002511437535B1477A8A5887A5079DD375E4
:102D6000BA00EF20406C53755511D375841088E07C
:102D7000C3F5945853F53411CB7529594375245133
:102D8000CBF539595375A500EF20E06953755511FE
:102D9000014508E0F6406644D64446493664A664D8
:102DA00016698669727AE27A527B256182800545CE
:102DB000D5B7B7B7B38D0111938787AB3EC2B7A71D
:102DC0000D359387478B3EC450009307D005A5452A
:102DD0001305804B06CE2306F100EFF0EFFEF24024
:102DE00005618280A56505659306800C1306004089
:102DF000938545A3130565BF6FF05F8CF5770111CF
:102E00001387C7D49387C7902316F1009307C00296
:102E10002314E1002307F1001307C0069376350061
:102E20001C0822CC06CE2305E100BE9683C786FF90
:102E3000135735000D8B2300F1001C083E97834784
:102E400087FF100883C6C6FFA300F10093576500F3
:102E50008D8BB29703C687FF0347C7FF83C7C7FFA2
:102E60002A842301C1008D450A861305604223028E
:102E7000D100A302E1002303F100EFF0EFF411C54C
:102E80007D55F24062440561828050008D451305F6
:102E9000A042EFF06FF36DF595679387676323109A
:102EA000F100930760072301F10091679387676240
:102EB0002312F100930760062303F1009377440087
:102EC00089CB930770032300F1009307700223025C
:102ED000F1009377040289CB93077005A300F100FA
:102EE00093077004A302F1009377041089CB930732
:102EF00070072301F100930770062303F1000A868F
:102F00008D4513050044EFF02FEC3DF950008D4541
:102F100013051043EFF04FEB25F52394818495B70B
:102F200083D78184011106CE13F737000A072A9749
:102F30000C4322CC26CA13F7470019C3B305B0408F
:102F400013D71700318B2A97104313F7070219C3C1
:102F50003306C04013D74700318B3A9593F70710DB
:102F6000184199C33307E040B7E6CA02938696300A
:102F7000B387D5021305003DB395D502F983330419
:102F8000D7028A05CD8F91453317D7027980B304D4
:102F9000D6020A07598C13D787412306E10013D7BD
:102FA0000741A306E10013978700C207C1833316C8
:102FB000D602F980A183D98F2317F1000A06D18C9C
:102FC0007000EFF06FE019C57D55F2406244D244C5
:102FD0000561828093D784412306F10093D7044191
:102FE000A306F10093978400C204C180A180DD8C08
:102FF000700091451305403D23179100EFF0CFDCA1
:1030000061F5935784412306F10093570441A306C9
:10301000F100931784004204418021805D8C700090
:1030200091451305803D23178100EFF0EFD971BF63
:10303000011122CC2A841305210006CEEFE09FEF78
:1030400083D781840356210013F737000A0722979C
:1030500093F647003E06184399C23307E04093D6E3
:103060001700B18AA2968C4293F6070299C2B30563
:10307000B04093D64700B18A369493F707100840C2
:1030800099C33305A0409357F741B306C702B387EE
:10309000C702F9823337C702BA978A07DD8E93D702
:1030A000F5413387C502B387C7027983B3B5C5023B
:1030B000AE978A079355F5415D8FB385C502B30777
:1030C000C5023336C502F983130540292E960A0638
:1030D000D18F13D686412302C10013D60641A30225
:1030E000C10013968600C206C182A182D18E23132D
:1030F000D100935687412304D10093560741A3047E
:10310000D10093168700420741832183558F2315F1
:10311000E10013D787412306E10013D70741A30637
:10312000E10013978700C207C183A183D98F5000A4
:10313000B1452317F100EFF02FC9F2406244056159
:1031400082807971A56522D431462A8493850588C9
:10315000480806D6EF5060679307800C63F7870036
:103160007D55B250225445618280B3C787027000FA
:1031700089451305602123060100FD17A306F10010
:10318000EFF08FC471FD05655008B145130515AC0E
:10319000EFF08FC371F523968184E1B793777500C3
:1031A00099E37D55828093070064E3ECB7FE797163
:1031B000B797000087A7C76222EE53F415D022D438
:1031C0002A841305B10006D65374F418EFE0DFB477
:1031D0008347B1001147638DE70C636BF700094724
:1031E000638DE7027D55B25022547264456182803E
:1031F0002147638EE70C4147E396E7FEB79700004F
:1032000087A78764B7970000D377F410539717C048
:1032100087A7C7644207418339A8B797000087A7EB
:103220000763B7970000D377F410539717C087A7A9
:103230004763420741835374F41093168700218338
:10324000558F2316E100D31714C0C207C18313970B
:103250008700A183D98F2317F10093771400D9E752
:103260009377240085C3700089451305801DEFF016
:10327000AFB52DF91306E100894513058012EFF073
:10328000AFB42DF11188014539DC70008945130573
:10329000C01DEFF06FB339F51306E1008945130542
:1032A000C012EFF06FB23335A0003305A04025BF48
:1032B000B797000087A78763B7970000D377F4100C
:1032C000539717C087A7C76342074183ADB7B79726
:1032D000000087A70764B7970000D377F4105397CF
:1032E00017C087A7476442074183B1B7700089457B
:1032F0001305401DEFF04FADE31605EE1306E10098
:10330000894513054012EFF02FAC39D9E1BD011109
:1033100006CE9377150095EFA3070100937725005C
:1033200099C78347F10093E7C700A307F10011890C
:1033300019C58347F10093E73700A307F10013068F
:10334000F100854513058014EFF00FA8F2400561E8
:10335000828093070003A307F100C9B7011106CECD
:10336000854719C511479377F50F6373A7009147F8
:10337000FD171306F10085451305F014A307F100AE
:10338000EFF08FA4F2400561828095473355F50236
:1033900001117000894506CE9317850021815D8D4E
:1033A0002316A1001305E01DEFF00FA2F240056106
:1033B000828095473355F50201117000894506CE8C
:1033C0009317850021815D8D2316A1001305A01D93
:1033D000EFF08F9FF240056182809307803E334576
:1033E000F5020111700006CEB305B5021305C01534
:1033F00093D785412306F10093D70541A306F10039
:1034000093978500C205C181A181DD8D2317B1008D
:103410009145EFF06F9BF2400561828095473355EF
:10342000F50201117000894506CE931785002181B0
:103430005D8D2316A1001305A015EFF0EF98F24063
:103440000561828095473355F50201117000894569
:1034500006CE9317850021815D8D2316A1001305EB
:103460008015EFF06F96F24005618280011106CE63
:1034700011C5EFF01F94F24005618280A5652546D5
:103480009385C5884800EF5040345000A54513058A
:10349000804BEFF06F93C5B7011106CE15C1B7C7CA
:1034A000C4C69387072C056570009145130585A94F
:1034B0003EC6EFF06F91EFE06FE1F2400561828070
:1034C000B7978B8B9387B7B8F9BF011106CE15C19B
:1034D000B73730389387078205657000914513052B
:1034E000E5A93EC6EFF04F8EEFE04FDEF2400561FA
:1034F0008280B7A7A3A39387373AF9BF7971B7D76B
:10350000E309938727A022D450002A84914513050C
:10351000800652CC3EC206D626D24AD04ECEEFF01E
:10352000AF8A930730FA2302F100137A0404630F81
:103530000A16930700FCA302F100F1779387872C0A
:103540002313F1001379041863080916F57793879C
:1035500047CC2314F100930760FC2305F100930787
:1035600030FAA305F1000565E9779387373A5000F3
:10357000A945130575AA2316F10093793400EFF0DD
:10358000AF849307800D63840900930700020565EB
:1035900050008545130565AB2302F100EFF0CF82A3
:1035A0009377040263820712EFF0BF80630209027F
:1035B00093770410638D0710B797B69B938727BB4B
:1035C000056550009145130525AA3EC2EFE0DFFFD7
:1035D00093771400638207100565E1575000854515
:1035E0001305058B2302F100EFE01FFE9305A00FEA
:1035F0001D456D361D45213B05458D3313054006A0
:1036000069331305401F753337E5CA029305800CF3
:1036100013059530D93313058002093529451D3529
:1036200093772400B337F0009387870D50008545CA
:103630001305D0732302F100EFE01FF993774400E4
:10364000054591E30145893D93770401054591E3E3
:103650000145A53D93870184136784002395E70006
:10366000EFE0CFC69387018463140A08238707001D
:103670006307090003C7E70019072387E70051889C
:1036800011C403C7E70041072387E70063870900E8
:1036900003C7E70011072387E700B2502254925472
:1036A0000259F249624A014545618280A302F10054
:1036B000E9779387373A69B5E9779387373A2314DF
:1036C000F100930730FA51BD01454D33C5B5B787B9
:1036D000B4909387070BEDB50565930780FD500007
:1036E00085451305058B2302F100EFE0FFED0DBFCB
:1036F00019472387E700ADBF5D7156DA5ED6938B1D
:103700000184CAC02A8903C5EB00A6C24EDE52DC82
:103710005AD886C6A2C4AE89328B231007003E86D3
:103720008A85B6843A8AEFE01F8D61E503D7AB0046
:103730002A84938A018493774701638E071A83470B
:1037400001008346110003465100E207C206D58FEF
:1037500083463100420683458100D58F8346210090
:10376000E2050345D100A206D58F83464100232000
:10377000FB00C187E206D18E03467100B387F702D2
:103780004205D18E034661002206D18E0346910088
:103790002322DB00C1864206D18D0346B100B386E9
:1037A000D602D18D0346A1002206D18D0346C10069
:1037B0002324BB00C1856206498E0345F100BE96F5
:1037C000B387B502498E0345E1002205498E2326C1
:1037D000CB0041863306C602B697B70600F1B29712
:1037E000B697B706000263F8F600EFE02FAE23109D
:1037F0000A007D54EDA083570A0093E707102310B9
:10380000FA00C14793760704A1C61410BE9603C6FA
:1038100006FE83C516FE990722064D8E2390C90029
:1038200003C626FE83C536FE93F7F70F22064D8E9C
:103830002391C90003C646FE83C656FE2206D18EDA
:103840002392D90083560A0093E686002310DA00FB
:1038500093760718A1C61410BE9603C606FE83C54C
:1038600016FE990722064D8E2310C90003C626FEB8
:1038700083C536FE93F7F70F22064D8E2311C9003C
:1038800003C646FE83C656FE2206D18E2312D900F9
:1038900083560A0093E606072310DA000D8B0DCF3E
:1038A0003309F1008347190083493900858B99CB8F
:1038B00083A70A0081CB93F5790013D539008505DC
:1038C0001D89829783471900A18B99C783A74A0056
:1038D00081C713D5690082972685EFF0CFA3228593
:1038E000B640264496440649F259625AD25A425B7F
:1038F000B25B61618280814731B7011106CE22CC73
:103900002A84EF00E0681305C00EEF00206BEF0083
:1039100040732285EF00806AEF00A072EF004067DD
:103920001305D00EEF008069EF00A071EF00C06CAE
:103930002AC6EF006067F24062443245056182802A
:10394000011106CE2EC622CC2A84EF006064130536
:10395000C00EEF00A066EF00C06E2285EF0000668B
:10396000EF00206EB2452E85EF004065EF00606DE0
:103970006244F24005616F0020634C411C41960592
:103980008A07DD8D1C451305400FDD8D93F5F50F7E
:1039900045BF0C415C4196058A07DD8D1C4513052A
:1039A000500FDD8D93F5F50F61BF797106D622D4E6
:1039B00026D2792B130580088937AA84130590082D
:1039C000138481801D3F1C40220526952390A7006B
:1039D0001305A0081D37AA841305B008393F1C4001
:1039E000220526952391A7001305C0083937AA841C
:1039F0001305D00819371C40220526952392A700ED
:103A00001305E008DD3DAA841305F008FD351C40D0
:103A1000220526952393A70013050009F93DAA84E2
:103A200013051009D93D1C40220526952394A700B3
:103A300013052009D935AA84130530097D3D1C40A2
:103A4000220526952395A700130540097D35AA84F4
:103A5000130550095D351C40220526952396A700C5
:103A600013056009593DAA841305700979351C4076
:103A7000220526952397A70013058009BD3DAA843A
:103A8000130590099D3D1C40220526952398A7000B
:103A90001305A0099D35AA841305B009B93D1C4042
:103AA000220526952399A7001305C009B935AA84D4
:103AB0001305D00999351C4022052695239AA700A5
:103AC0001305E0091D3DAA841305F0093D351C408E
:103AD00022052695239BA7009305600B1305000E76
:103AE00085358D47054728003EC43AC63EC8713526
:103AF0009147480802CA3ECC02CE613DB2502254E2
:103B0000925445618280011126CAB764004022CCDC
:103B10004AC84EC652C456C206CE5AC0AA8A2E8A77
:103B20003289368493890480B70502004E85EFD030
:103B3000EFA77DF9138504808545B7040300B769B5
:103B40000040EFD02F9D8504138B0980A6855A85F0
:103B5000EFD02FA465DDD685138509800146B70413
:103B60000700B7690040EFD08FA193842408938A9F
:103B70000980A6855685EFD0CFA165DD1385098024
:103B8000D285B7090700B7640040EFD04F9E9389F4
:103B9000490893840480CE852685EFD08F9F65DD0C
:103BA000B7640040B7090700229993840480938981
:103BB0004908631289026244F240D2444249B24940
:103BC000224A924A024B376500408545130505801D
:103BD00005616FD00F9605048345F4FF2685EFD06D
:103BE0000F99CE852685EFD0CF9A65DDD9B7011123
:103BF000A307B1009306F100AA8505461305000D41
:103C000006CE1137F240056182807971854537050E
:103C1000400006D622D402C202C402C602C802CAAA
:103C200002CC02CEEFD04FBD85452145EFD0EFBA93
:103C30008567938707C02312F10037150140F147CC
:103C40003EC64C008D47130505C03EC4EFC05FDF84
:103C5000B7270600938707A83EC8B707FFBF37649A
:103C600000403ECAB70700043ECC0C08916713051C
:103C70000480231EF100EFC09FF6130504808545E4
:103C8000EFD08F87854513050480EFD06F8C130527
:103C90002003EF10205F930500081305B006813F55
:103CA00013054006EF10005E81451305B00681370D
:103CB000CD4565452D3F91456945153F8145714588
:103CC0003D37E1456D4525378145130580030537AF
:103CD00081451305A006213F814513053002013FB0
:103CE0009305000813057003193785451305B006C1
:103CF000FD3DEFE01FF12A84AA85379500001305EA
:103D00000565EF20405C2285B250225445618280D7
:103D1000011126CAB764004022CC4AC84EC652C41C
:103D200056C206CE5AC02A8AAE8A32843689938910
:103D30000480B70502004E85EFD04F877DF91385CB
:103D400004808545B7040300B7690040EFC09FFCBD
:103D50008504138B0980A6855A85EFD08F8365DD96
:103D6000138509800146D285B7040700B769004072
:103D7000EFD0EF8093842408138B0980A6855A85A1
:103D8000EFD02F8165DDD68513850980B704070044
:103D9000B7690040EFC0BFFD93844408938A09804F
:103DA000A6855685EFC0FFFE65DD13850980854534
:103DB000B7040300B7690040EFC0DFF58504938ABC
:103DC0000980A6855685EFC0DFFC65DD1385098077
:103DD0000546D285B7090300B7640040EFC03FFA3B
:103DE000890993840480CE852685EFC09FFA65DD1E
:103DF000B7640040B7090300130AF00F93840480EE
:103E0000938909047D141374F40F63174403376412
:103E10000040130504808545EFC0BFF11305048001
:103E20006244F240D2444249B249224A924A024B89
:103E3000854505616FC0DFF109E481452685EFC046
:103E40003FF1CE852685EFC0DFF465DD2685EFC026
:103E50007FF22300A900050975B7011122CC930652
:103E6000E1002A84AA8505461305000D06CE4D35CE
:103E7000930514009306F1001305000D054693F514
:103E8000F50F79358347E1000345F100F2406244C4
:103E9000A2075D8D05618280011170002C00480031
:103EA00006CE22CC26CAEFE01FE0B267138401855C
:103EB0001CE09267AA84130570045CE0A2671CE40E
:103EC000693F2316A40013053004413F2317A400C3
:103ED00013055004593731152318A400F2406244E9
:103EE0002685D244056182802A863715014041111A
:103EF000130505C09305000406C6EFC07FC1B2409C
:103F0000294541016F10A0342A863715014041111F
:103F1000130505C09305000806C6EFC07FBFB24079
:103F2000294541016F10A032371501404111930519
:103F30000008130505C006C622C4EFC09FBC2A8432
:103F40002945EF10C0302285B240224441018280D1
:103F500001118545214506CE22CCEFD00F88D147EF
:103F60003EC6371401409307000C2312F1004C00A9
:103F70008D47130504C03EC4EFC09FAC130504C0B9
:103F80009305000CEFC09FB8F24062440561828047
:103F90004111054506C68D3F0545B9370145AD3789
:103FA000B2400145410189B74111014506C6A93F0B
:103FB00005451D3FB24005454101B9B7011122CC6D
:103FC00026CA4AC84EC606CE2A890144930900086B
:103FD000A14433D58940337525013D37054529373F
:103FE000014505041137E31694FEF2406244D244C1
:103FF0004249B249056182800111054522CC26CA99
:104000004AC84EC606CE81440137014493090008D0
:1040100021490545D13D093F85476317F500B3D7D1
:1040200099405D8C1374F40F01458504753DE3924E
:1040300024FF2285F2406244D2444249B2490561DC
:1040400082804111054506C622C47D3D0545693D76
:10405000E13D2A840145493D2285B2402244410187
:1040600082803971130600028145080806DE22DCD1
:1040700026DAEFC0EF988545114502C202C402C698
:10408000EFC0BFF5854513050020EFC01FF5316572
:10409000EFC0DFE037150140C1474C001305058034
:1040A000372401402312F10002C6EFC07F991305A7
:1040B0000440EFC08FC885473ECCB7070E003ECE08
:1040C0000C089147130504402302F10202C802CAFA
:1040D00002D0EFC04FCB854513050440EFC02FD170
:1040E000854513050440EFC08FCF8145130504407B
:1040F000EFC04FE013050440EFC08FD0930404409D
:104100002685EFC08FD06DFD130504403724014094
:10411000EFC02FD0930404402685EFC02FD06DFD53
:1041200013050440EFC08FDEF2506254239EA1803D
:10413000D254216182805D71A2C4A6C2CAC02A8401
:104140002E89B28481451306C002480886C636C649
:10415000EFC00F8B85450545EFC05FE62285EFC0B8
:10416000CFF1930700083ED493070010B2463ED625
:10417000930700403ED8930700023EDA4C088D6753
:1041800022854ACA26CC02CE36D002D23EDC02DEDE
:10419000EFC07F85B640264496440649616182801F
:1041A000411106C622C426C2EFF0BFEB8395C18140
:1041B000379500001305C566EF20E0103724014055
:1041C000B704024085461386018C9305C4441385C9
:1041D00044049537138544048545EFC05F84130577
:1041E000044091459D460546EFC04FC51305044068
:1041F0002244B2409244854541016FC0AFC20111D3
:104200008545114506CE22CC02C202C402C6EFC0CB
:10421000DFDC930700102312F10037140140C1477F
:104220003EC64C008D47130504803EC4EFC05F813D
:1042300013050480054693050010EFC07F8DF24002
:104240006244056182805D71A6C2AA8437050800B8
:10425000A2C4130515022E84854586C632C602D235
:1042600002D402D602D802DA02DC02DE02CC02CE8E
:1042700023100102EFC07FD6370513808545410525
:10428000EFC0BF89ED77938707A02312F10237159E
:104290000140E1473ED64C108D47130505403ED402
:1042A000EFC00FFA231C8100375401402C0813057E
:1042B00004C0231E9100231F0100231D0100EFC035
:1042C0007FD73246C167938707060C18130504C0D1
:1042D0003ED8231BC102231C0102EFC0BFE10C1812
:1042E000130504C0EFC01FEB0C18130504C0EFC08A
:1042F0003FF70C18130504C0EFD02F83130504C03B
:104300008545EFD02F8E130504C08145EFD02F9245
:10431000130504C08145EFD0AF92130504C0814559
:10432000EFD0AF93130504C08145EFD02F94130550
:1043300004C08545EFD0CF8D130504C08545EFD06F
:10434000AF88B64026449644616182801D65411164
:104350001306803E930510031305050806C622C404
:10436000EFF07FEE37540140130504C09305005A67
:10437000EFD06F91130504C09305005AEFD00F9151
:10438000130504C09305005AEFD0AF90130504C085
:104390002244B2409305005A41016FD0EF8F93073A
:1043A000005A63FBA70085671387F7B36361A70211
:1043B0009307805C63E4A7001305005A894763896B
:1043C000F50263E9B7008547638DF50082801385A8
:1043D00007B4EDB78D476384F50291476388F50212
:1043E0008280AA8537550140130505C06FD0AF897B
:1043F000AA8537550140130505C06FD02F89AA85BE
:1044000037550140130505C06FD0AF88AA853755D1
:104410000140130505C06FD02F8801119307D012FA
:10442000231501002314F10089472305F10028001A
:10443000854706CE3EC6EFC0FF9AF24005618280F6
:10444000011122CC26CA2E84AA848545094506CEB0
:10445000EFC09FBA2312810037040040C1474C00CF
:10446000130504402313F1002314910023150100C8
:10447000EFC05FBC0546130504408545EFC0FFF75C
:10448000130504408545EFC0BFF81305044085457A
:10449000EFC09FF35937F2406244D24405618280F5
:1044A000370500401D7185451305054082E686E409
:1044B0008AE28EE012FE16FC1AFA1EF82AF62EF494
:1044C00032F236F03AEE3EEC42EA46E872E676E444
:1044D0007AE27EE0A2CEEFC01FFEEF00F017EFF011
:1044E000BF9B09ED83C7D180ADE703D54183930717
:1044F000F06363FDA702EF00D025E12C764436601F
:10450000A660166186617272E2725273C27332756E
:10451000A275127682767267E2675268C268326E5E
:10452000A26E126F826F2561730020308545EFF017
:104530001FE703D541838945EFF07FE603D541832B
:104540008D45EFF0DFE503D541839145EFF03FE581
:104550006DB7EF00503555B701119307E0222315D1
:1045600001002314F10089472305F1002800854745
:1045700006CE3EC6EFC01F87F24005618280011162
:1045800022CC26CA2E84AA848545114506CEEFC0CA
:10459000BFA62312810037140040C1474C00130509
:1045A00004802313F1002314910023150100EFC0B0
:1045B0007FA80546130504808545EFC01FE4130559
:1045C00004808545EFC0DFE4130504808545EFC016
:1045D000BFDFEFF07FF8F2406244D2440561828091
:1045E000371500405D7185451305058082E686E438
:1045F0008AE28EE012FE16FC1AFA1EF82AF62EF453
:1046000032F236F03AEE3EEC42EA46E872E676E402
:104610007AE27EE0EFC03FEA3715014093050010D3
:1046200013050580EFC0EFC03660A6601661866195
:104630007272E2725273C2733275A275127682760A
:104640007267E2675268C268326EA26E126F826F42
:10465000616173002030397185453705020006DE3F
:1046600022DC02CA02CC02CE02D002D202D402D68E
:1046700002C602C8EFC05F9885451145EFC0FF959F
:104680009147231AF100371401408D473ECC4C0866
:10469000E147130504803ECEEFC08FBAA1474C0816
:1046A000231AF1001305048091473ECEEFC04FB9A5
:1046B000B77706009387078A3ED0B7070C003ED431
:1046C000930760032316F100680085473EC837440E
:1046D000004002D22316010223070100EFC08FF031
:1046E000130504408545EFC07FEB0C101305044013
:1046F000EFC05FDD13050440054693055052EFC03F
:10470000BFEBF250625421618280411122C406C67F
:104710002A84EFC07FEE03C7419C1386419D930717
:10472000170093F7F70F32972300A7002382F19C1D
:10473000130700046394E7002382019C3929228532
:104740002244B2409305505241016FC05FEC1D718D
:10475000A2CE37440040930550521305044082E630
:1047600086E48AE28EE012FE16FC1AFA1EF82AF699
:104770002EF432F236F03AEE3EEC42EA46E872E6C9
:1047800076E47AE27EE0EFC07FE901CD9305000296
:1047900013050440EFC0FFE609C513050440EFF020
:1047A000DFF676443660A660166186617272E27248
:1047B0005273C2733275A275127682767267E2679F
:1047C0005268C268326EA26E126F826F25617300EA
:1047D0002030411122C407A5018506C61384018536
:1047E000EF3010342A8637950000AE8613054568F1
:1047F000EF10702D4860EF30B0322A8637950000F8
:10480000AE8613050569EF10102C0864EF305031A7
:104810002A8637950000AE861305C569EF10B02AC9
:104820008315C400379500001305856AEF10B02981
:104830008315E400379500001305456BEF10B02891
:1048400083150401379500001305456CEF10B02760
:1048500037540140130504C0EFC07FC4AA853795C3
:1048600000001305456DEF101026130504C0EFC0BE
:104870007FC3AA85379500001305056EEF10B0249D
:10488000130504C0EFC07FC2AA8537950000130549
:10489000C56EEF105023130504C0EFC07FC1AA8579
:1048A000379500001305856FEF10F02183C7C18095
:1048B00009476399E7003795000013054570EF102D
:1048C000D02211A805476394E7023795000013052D
:1048D0008571EF10501F83C7D18099EF3795000085
:1048E000130505742244B24041016F101020379522
:1048F00000001305C572E1B7379500001305457533
:10490000D5B7B706002001479386C61713080010D5
:104910009377F70F214693951700E207E187FD870C
:10492000E98F93F5E50F7D16AD8F75F63306D70049
:104930002300F6000507E31D07FD828037070020EE
:10494000AA9581471307C7176314B5003E85828077
:1049500005058346F5FFB58FBA9783C70700EDB706
:1049600083C7419C6365F5002382019C8280898F07
:1049700093F7F70F2382F19C9386419D01473306FD
:10498000A7003696834506003306D70005072300A7
:10499000B600E316F7FE82800347450083463500E4
:1049A0001D8B2207558F23A2E1860347450093877D
:1049B000418693563700034755001377F7031607D0
:1049C000558FD8C3834655000347650099820A076F
:1049D000D98E03477500058B2A07558F98C7034763
:1049E000750093561700034785003D8B1E07558FB2
:1049F000D8C70347850093564700034795001377B0
:104A0000F7071207558F98CB834695000347A500FB
:104A10009D820607D98E0347B5000D8B2607558F5B
:104A2000D8CB0347B500935627000347C5007D8BBD
:104A30001A07558F98CF0347C50093565700034771
:104A4000D5000E07558FD8CF0347F5008346E50004
:104A50001D8B2207558F98D30347F50093563700D7
:104A6000034705011377F7031607558FD8D38346FD
:104A700005010347150199820A07D98E03472501CD
:104A8000058B2A07558F98D70347250193561700A2
:104A9000034735013D8B1E07558FD8D70347350196
:104AA00093564700034745011377F7071207558FC1
:104AB00098DB83464501034755019D820607D98E41
:104AC000034765010D8B2607558FD8DB034765012A
:104AD00093562700034775017D8B1A07558F98DF82
:104AE0000347750193565700034785010E07558FFD
:104AF000D8DF8280011106CE034745008347350089
:104B00006C0022075D8F834755002946C2075D8FE1
:104B1000834765001385819CE207D98F3EC6EF303D
:104B2000D04AF2400561828003C7419D9307800C03
:104B30006314F7029387419D83C727005147638918
:104B4000E7005947639AE7001385419D6FF0DFE462
:104B50001385419D6FF01FFA8280011126CA4AC851
:104B60004EC652C456C206CE22CC5AC08549938442
:104B7000419D130AB00303C7419C63F6E90403C4D3
:104B800014009307D4FF93F7F70F6376FA000545F7
:104B9000EFF01FDDCDB79307140063D6E702A697A9
:104BA00003CB07009305F4FF93F5F50F1385619D83
:104BB000EFF0DFD8E31DABFCEFF01FF71305240087
:104BC0001375F50FF1B7F2406244D2444249B2493D
:104BD000224A924A024B05618280397122DC3704F5
:104BE0000020832784044AD806DE26DA22F626F43B
:104BF0004AF24EF052EE56EC5AEA5EE862E613854F
:104C000001A68297B797000087A7477737970000DC
:104C1000072987773797000027A0F1A68727C7774E
:104C200037970000872A077837970000072A4778C8
:104C30003797000087248778379700000724C778C4
:104C4000938701A6930484049CE727A2270127AA3F
:104C5000570127AC4701C4E780EBDC40138501A670
:104C6000829783278404138581AF8297B7970000CA
:104C700087A7077937970000938781AF27ACF1AEFC
:104C8000872747793797000087298779379700006A
:104C900027A227010729C7799CE727AA370127AC54
:104CA0002701C4E780EBDC40138581AF829783271F
:104CB00084041385C1AA829737970000072C077ACE
:104CC000B797000087A7879E9387C1AA27A487016B
:104CD00027AA570127AC4701C4E780EB23A20700AE
:104CE000DC4027A6F1AA1385C1AA829783278404F2
:104CF000138501B9829737970000072B877AB797FA
:104D0000000087AB477A938701B927A4670127AAD8
:104D1000370127AC2701C4E780EB23A20700DC4062
:104D200027A871B9138501B9829783278404138555
:104D300041B48297B797000087A7C77A938741B499
:104D400027A4870127AA570127AC4701C4E780EBB6
:104D500023A20700DC4027A2F1B4138541B4829757
:104D600083278404138541A18297938741A127AAB1
:104D700071A1138541A1625427A4670127AA3701B5
:104D800027AC2701C4E780EB03A34400F250D254C0
:104D900042593274A27412798279726AE26A526B51
:104DA000C26B326C23A20700216102839307803E0D
:104DB00063DDA700130585C1B7970000537505D0C3
:104DC00087A787765375F51082809307803D53053A
:104DD00000F0E3CBA7FE130575C2F9BF9307800C63
:104DE00063F7A702130585F3B7970000420587A66E
:104DF000C7764181B7970000D37705D007A707771B
:104E0000C3F7D770539517C04205418182801305BF
:104E10006054828083A741879387779093B7070177
:104E200093C71700A386F180828003A7C187BD4680
:104E3000130677909387C18063E6C60009472380F5
:104E4000E7008280130727C2D14663E4E6000547E6
:104E5000FDB7238007008280411126C222C413843B
:104E60004186484406C6EFF07FF403A5418627AC8F
:104E7000A182EFF0BFF3484027A8A182EFF01FF313
:104E8000084427A6A182EFF07FF5239AA182EFF0D4
:104E90007FF82244B240924441016FF01FF987A786
:104EA0000183530500F0B707002003A3470553759E
:104EB000F50087A58185138541B402838397018618
:104EC0003707002003234705D3F507D007A581B690
:104ED000138541A1028307A5818387A70182B707B4
:104EE000002003A347055375F50087A501851385A9
:104EF00001A602838397C185370700200323470556
:104F0000B307F040D3F507D007A541A8138581AFBB
:104F1000028387A5418587A7C182530500F0B707A3
:104F2000002003A347055375F500D395B5201385DD
:104F3000C1AA02838397E185370700200323470531
:104F4000B307F040D3F507D007A501AD138501B92C
:104F50000283411106C622C426C24AC0EFF03FF4C4
:104F6000EFF0DFF5EFF0FFFAEFF0DFFCEFF0BFF668
:104F7000EFF05FF887A7018527A0F18283D74183EF
:104F8000D3F707D007A541BB87A581A353F7A70097
:104F900007A6C1B1D3F7A708D376B7005377B708F0
:104FA0000565130505B4D3F6C6005377C708D39536
:104FB00016C0531717C053F7F500D3F7B708C2054B
:104FC0004207C1815377C708D3F7C70841832392AB
:104FD000B1822393E182D31617C0D39717C01386EB
:104FE0004182C206C207C182C1832394D182239524
:104FF000F18213896182938481821384A182637216
:10500000B5062310A6008565938505B463F4E5060F
:105010002310B9000567130707B46376D7062390FA
:10502000E4000567130707B46376F7062310E4006E
:10503000035506008545EFF08FB6035509008945F5
:10504000EFF0EFB503D504008D45EFF04FB50355F4
:1050500004002244B24092440249914541016FF05C
:105060000FB41305F059E360B5FA9305005A231005
:10507000B60051BF9305F059E3EEE5F81307005A67
:105080002310E90041BF1307F059E36CD7F8130769
:10509000005A71B71307F059E36CF7F89307005AF9
:1050A0002310F40071B7411185451305005A06C657
:1050B000EFF0EFAE89451305005AEFF04FAE8D4586
:1050C0001305005AEFF0AFADB24091451305005AF9
:1050D00041016FF0CFAC23200500232205002324DB
:1050E00005002326050023280500232C0500232A7C
:1050F0000500232205022324050223260502232876
:1051000005028280232E0502232C0502232A050294
:105110002322050223280502232605022324050253
:10512000232405042322050423200504828023244C
:1051300005042322050423200504232E0502232C25
:105140000502232A0502232805022326050223241B
:10515000050223220502232E05002320050282805A
:105160007C610CF1D375B508346150753CE558612C
:105170001C612CE143F7E560D3F7F510D3F5D508B2
:10518000107D48ED086574E150FD546950794CF983
:10519000D3F5A510D397E6A01CF558F510FD0CF932
:1051A00099C354F529A0146DD317D7A0FDFB5875EA
:1051B000D3F7E700D3F5B7005C65D397B7A04CF100
:1051C00099C35CF129A01C69D397F5A0FDFB8280EF
:1051D000411106C622C4EFF00FC8EFE01FA375FD12
:1051E000EFF0CF960964EFE04FFCEFE07FFBEFF0CC
:1051F000DF9EEFF0CF809305F4C11305F031EFF09F
:105200002FA405659305F4C113057538EFF02FB78A
:105210002244B240379500001305057B41016F1011
:10522000C00C8280B707002083A7870B37177A004E
:1052300013070720B3D7E70293F7F70F238FF18205
:105240001307803EB387E702239EF1828280B7F77F
:1052500000E0D8438146799BD8C303C7E183330676
:10526000A70290CBD4CB98431367070198C3984308
:105270001367170298C3D843058B75DF9843799B52
:1052800098C38280B7F700E0D8438146799BD8C3A2
:1052900003D7C1833306A70290CBD4CB98431367BF
:1052A000070198C398431367170298C3D843058B27
:1052B00075DF9843799B98C38280797122D42A84C0
:1052C00011658545110506D6EFB03FD19307002043
:1052D0002312F100371501408D473EC44C00E147D1
:1052E000130505803EC6EFB0AFF522C83744014034
:1052F000B70708000C08130504803ECC02CA231E21
:105300000100EFC02F9C130504808545EFC00FA955
:10531000B250225445618280011126CAB74401402F
:1053200022CC4AC84EC606CEAE8932890144938447
:105330000480634A2401F24062444A85D2444249CF
:10534000B24905618280930500042685EFC06FABEA
:105350007DD9B38789008385070026850504C205AA
:10536000C181EFC0CFA8F1B75D71A2C422FE26FCB7
:1053700086C6138401815304A5207D201840FD5763
:10538000D304A520630FF700D32784A099CB53053E
:10539000842061279737000087A7C763D397A7A00A
:1053A00089EBB6402644538594207274E27461619F
:1053B00082805305842085473EC497470000938729
:1053C000A7403EC602D4EF20B0752A8717450000DB
:1053D000130545303ACC3AC82ECE2ECA3523184094
:1053E0002AD02ED289476305F7022800212B0DC150
:1053F000A2578DE702559255EF300001D304A52046
:10540000B6402644538594207274E27461618280B0
:10541000EF30C038930710021CC1D9BFEF300038FD
:10542000A2571CC1C1BF91ACD30705E0011122CC2A
:105430001394170006CE26CA22E626E44AE24EE07E
:105440003707803F05806304E412634D87103707F8
:10545000003FBE84635EE412370700326356E418EF
:105460001747000087274737D377F5001737000025
:10547000872947565397F9A069EF538507F0712D97
:1054800053F5A9089747000007A4872E9747000007
:1054900007A607359747000087A7473497470000BE
:1054A00087A44734537485109747000007A7C73473
:1054B0009747000087A547339747000007A9873320
:1054C0009747000007A58733C377F46043792471B9
:1054D0009747000087A687319747000007A7473105
:1054E0009747000007A6C731C3F48748437989501E
:1054F00053058420C3F4845843798960C3F48468D5
:1055000043798998C3F48470052E37A7793F130730
:105510009799D30705E0D3F4841063508708D3F438
:105520002419D38607F0174700000727A72D174730
:1055300000008727672D174700000725A729C3F418
:105540009668C3F4E4785375950863449000531546
:10555000A520F2406244D2443264A2641269826996
:10556000056182805375A5085375A518DDB7D387EB
:1055700007F0174700000725A725538707F053F5C5
:10558000A710174700008727E7244375F750D1B7C6
:105590001737000087290744CDB57D777D8FD30766
:1055A00007F0530707F0D3F424194BF4F740D375F1
:1055B000E5009746000087A6E6249746000007A668
:1055C0002621D377A5009747000007A527244B770E
:1055D000D7505374B4184B74D460C7F49740D3F4C5
:1055E000E4085375950895B75377A5101747000041
:1055F0008725071F174700008727471E174700000A
:105600008726471E174700000726071EC377F7584F
:10561000174700000725071E174700008725C71DED
:105620004375A758174700000720471DC3F7E768D1
:10563000174700008725871B174700008726471B51
:105640004375E500174700000720871BC3F7E76095
:1056500017370000072607384375E500C3F7E758FA
:105660004375E560C3F7E768D3F7E71053F5A7186C
:10567000D38707F043F5A778E9BD538705E0B7075F
:10568000008093C7F7FFB3F5E7003706807FD306A6
:1056900005E06349B604F58FB6886345F60437081C
:1056A000803F63090711411122C41354E74109885F
:1056B00013D8F60106C63364040195EF89476300E9
:1056C000F40C8D47530605E06318F400974700007B
:1056D00087A74714538607E0B2402244530506F0DB
:1056E00041018280D30707F0538706F0D3F7E70024
:1056F0005385F7208280ADC5638AC5086382C706DB
:105700008D8FDD871306C0036347F60A63580700D1
:10571000930540FC1306000063CCB700538506F0E8
:10572000D30707F05375F518CD2EF522530605E083
:105730008547630AF40C89476306F40A51DC530772
:1057400006F09747000087A7270ED377F700974703
:10575000000007A7E70BD3F7E708538607E0ADBFC4
:105760009747000087A70707538607E0E3D608F6A8
:105770009747000087A7470A538607E0B1BF9747BE
:10578000000087A7E708538607E0B9B7638CB70224
:105790008947E306F4FE8D47E30AF4F285471306D2
:1057A0000000E31BF4F29747000087A727FD53860C
:1057B00007E01DB78DA29747000087A7A701538672
:1057C00007E0BDB789476302F4068D476308F40418
:1057D0008547630EF4029747000087A72703538687
:1057E00007E0DDBD530706F09747000087A7C70312
:1057F000D377F7009747000007A78701D377F7080B
:10580000538607E0D1BDB70700803D8EF1B59747BD
:10581000000087A72701538607E07DBD974700005A
:1058200087A70700538607E045BD9747000087A775
:10583000E7FE538607E04DB5D30605E03707807FC6
:1058400093971600858363F9E708530505E0D1C3F4
:10585000B68763CD06083376D70013D7764105E2C5
:1058600013968600634D0608814611A0B28686070E
:105870009395870013861600E3DA05FE158FB706A9
:1058800080001386F6FFF18F130717F8DD8E13766D
:1058900017009397160021EA13581740E546014573
:1058A0008145370700013386E500FD1663C6C70052
:1058B000B305E600918F3A9586070583EDF699C307
:1058C000050579990585B707003F3E9513177801BF
:1058D0003A95530505F08280C377A550538507E0BC
:1058E000530505F08280939726007DB7D377A508EE
:1058F000D3F7F718538507E0530505F08280FD566E
:10590000158FB5BF0145828097470000938707F246
:105910008843CC438280D30705E0411122C413940D
:10592000170026C206C6370780500580BE84634133
:10593000E4023707807F634387109747000007A57D
:1059400067E963539012B24022449244410182803D
:105950003707E03E635AE412370700316347E40E2D
:105960007D57538707F09746000087A566ED974659
:10597000000007A666EED376E7109746000007A55D
:10598000E6EB9746000087A7E6EC9746000007A2E3
:1059900066EB9746000087A166EC53F7D610974652
:1059A000000007A166EA9746000087A066EB9746CD
:1059B000000007A0A6E94375A758C377F76097468C
:1059C000000087A526EA9746000007A666E8FD5670
:1059D0004375E520C3F7E7184375E510C3F7E708FB
:1059E0004375E500C3F7E7584375E560D3F7E71063
:1059F0004375D578D38707F05375F510630FD70635
:105A00000A0797460000938626E7BA969C6253875A
:105A100007F097460000938626E55375F5083697FC
:105A20001C635375E50853F5A708E3DE04F0B240A4
:105A3000224492445315A52041018280B240224461
:105A400092445375A50041018280174700008727C3
:105A5000A7D8D377F500173700000727A7F7531704
:105A6000F7A0E30F07EEC5B5B24022449747000008
:105A700007A587DA924441018280B24022449244D1
:105A800053F5A708410182804928B707983F63581A
:105A9000F402B707303F6354F4069747000007A7A6
:105AA00067D69747000087A7E7D8C377E57853758F
:105AB000E5000147D3F7A718D38707E05DB5B7071F
:105AC0001C406354F4029747000087A7E7D6973736
:105AD000000087A627F05377F5084375F568094756
