:100000006F00805B1300000013000000130000006D
:100010001300000013000000130000001300000094
:100020001300000013000000130000001300000084
:08003000130000007300100032
:100038000000000000000000A8020000AC02000060
:1000480000000000FE0400000000000000000000A6
:10005800000500000205000000000000000000008C
:100068000405000000000000060500000000000074
:10007800080500000A0500000C0500000E05000038
:100088001005000012050000140500001605000008
:10009800180500001A0500001C0500001E050000D8
:1000A80020050000220500002405000026050000A8
:1000B800280500002A0500002C0500002E05000078
:1000C8003005000032050000340500003605000048
:1000D800380500003A0500003C0500003E05000018
:1000E800400500009E4800004C47000046050000FF
:1000F800480500004A0500004C0500004E050000B8
:1001080050050000520500005E4A00005605000038
:10011800580500005A0500005C0500005E05000057
:100128006005000062050000640500006605000027
:10013800680500006A0500006C0500006E050000F7
:1001480070050000720500007405000076050000C7
:10015800780500007A0500007C0500007E05000097
:100168008005000082050000840500008605000067
:10017800880500008A0500008C0500008E05000037
:100188009005000092050000940500009605000007
:10019800980500009A0500009C0500009E050000D7
:1001A800A0050000A2050000A4050000A6050000A7
:1001B800A8050000AA050000AC050000AE05000077
:1001C800B0050000B2050000B4050000B605000047
:1001D8000000000000000000000000000000000017
:1001E8000000000000000000000000000000000007
:0801F8000000000000000000FF
:100200003D432A876373C3029377F700BDEFADE5E3
:10021000937606FF3D8ABA960CC34CC30CC74CC7F5
:100220004107E36BD7FE11E28280B306C3408A0622
:100230009702000096966780A6002307B700A306E2
:10024000B7002306B700A305B7002305B700A30432
:10025000B7002304B700A303B7002303B700A3022A
:10026000B7002302B700A301B7002301B700A30022
:10027000B7002300B700828093F5F50F93968500B1
:10028000D58D93960501D58D61B79396270097027A
:10029000000096968682E78086FA9680C1171D8FA9
:1002A0003E96E374C3F8A5B77300203001A07971BE
:1002B00022D483C7D18106D626D24AD04ECE52CC84
:1002C00056CA22E626E4CDEB9384418098408547C8
:1002D0006319F70C37950000130505C5EF60403A28
:1002E000094723ACE180BE89B797000087A487C483
:1002F000B797000007A4C7C423A00400B70A0020D2
:100300008144130A803ED3F704D013898A0B8545B4
:10031000C3F797408504539517C02720F90042057D
:100320004181EF40202A872709008945539517C04E
:1003300042054181EF400029872709008D455395EB
:1003400017C042054181EF40E0278727090091450A
:10035000539517C042054181EF40C0260545EF5037
:10036000C02BE39244FB37950000130545C6EF60B0
:100370002031854723ACF18083C7D1810547639243
:10038000E702225423A2F180B25092540259F2495A
:10039000624AD24A3264A26423ACF18045616F5054
:1003A000600AB250225492540259F249624AD24A27
:1003B0003264A264456182804111094506C6EF009E
:1003C0009032EF50C01F1305500DEF40300871659B
:1003D00013050520EF50C02783A5818037950000C5
:1003E000130545C7EF60802737950000130545C802
:1003F000EF600029EF50A017EF50401C4D3DEDBFBE
:10040000B71702409843B706FFF041111367170072
:1004100098C3D84337060200758FD8C39843B706F0
:10042000F7FEFD16758F98C39843B706FCFFFD16BF
:10043000758F98C3D843B70601FFFD16758FD8C3D3
:100440009843B70600ECFD16758F98C33707FF0079
:1004500098C723A6070202C402C69843C166558FF7
:1004600098C3B716024005679C42F18F3EC6A2476B
:1004700085073EC4B24781E7A247E397E7FEB71777
:1004800002409C431397E7006357070685473EC623
:1004900032478547631FF704B7170240D843B706B2
:1004A000C1FFFD16D8C3D843D8C3D843136707404C
:1004B000D8C3D843758FD8C3D843B7061D00558F0E
:1004C000D8C39843B7060001558F98C39843931635
:1004D0006700E3DD06FED843B7160240719BD8C320
:1004E000D84313672700D8C32147DC42B18BE39E72
:1004F000E7FE4101828002C661BF01A001A001A008
:1005000001A001A001A001A001A001A001A001A0E3
:1005100001A001A001A001A001A001A001A001A0D3
:1005200001A001A001A001A001A001A001A001A0C3
:1005300001A001A001A001A001A001A001A001A0B3
:1005400001A001A001A001A001A001A001A001A0A3
:1005500001A001A001A001A001A001A001A001A093
:1005600001A001A001A001A001A001A001A001A083
:1005700001A001A001A001A001A001A001A001A073
:1005800001A001A001A001A001A001A001A001A063
:1005900001A001A001A001A001A001A001A001A053
:1005A00001A001A001A001A001A001A001A001A043
:1005B00001A001A001A001A09701002093810130BA
:1005C00017810020130101A417A500001305C581A0
:1005D00097050020938505A31386818263FAC500E1
:1005E0008322050023A0550011059105E3EAC5FE0D
:1005F000138581829385010E6377B5002320050062
:100600001105E36DB5FEFD42739002BCED4273909F
:100610004280B76200009382820873A00230970282
:1006200000009382A2A193E2320073905230EFF067
:100630003FDD97020000938262D8739012347300FA
:1006400020304111B727014006C693870740631E3B
:10065000F500854513050020EF00702C814513053A
:100660000020B24041016F00902BB73701409387C3
:100670000780631BF500854513050040EF00302A15
:10068000814513050040F1BFB240410182805C41C9
:100690003707F1E01307F7EF944D7D8F9C41D58F1D
:1006A000D44DD58FD441A206D58FD98F5CC11C45BE
:1006B00037F7F1FF1307D77FD4457D8F9C49D58F3E
:1006C00094458606D58FD98F1CC55C55370710FF1A
:1006D0007D177D8F83C74501FD1793F7F70FD2076D
:1006E000D98F5CD582801C4589C593E717001CC54E
:1006F0008280F99BEDBF1C4589C593E707101CC597
:10070000828093F7F7EFE5BF1C4593E787001CC590
:10071000828008450D81058982801C4593E747004A
:100720001CC5828008450981058982801C4591C5C8
:1007300037075000D98F1CC582803707B0FF7D175F
:10074000F98FD5BFA54763F7B7048D47138765FFBA
:100750003307F7020328C5009D47B397E70093C707
:10076000F7FFB3F70701B396E600DD8E54C599474E
:1007700063E3C70495477D163306F6025859FD47D3
:10078000B397C70093C7F7FFF98F3396C5005D8E07
:1007900050D982800D473387E502032805019D4724
:1007A000B397E70093C7F7FFB3F70701B396E600E7
:1007B000DD8E14C96DBFB14763E2C7029547651668
:1007C0003306F6021859FD47B397C70093C7F7FFE2
:1007D000F98F3396C5005D8E10D9828095474D16EE
:1007E0003306F6025855FD47B397C70093C7F7FF86
:1007F000F98FB395C500DD8D4CD582805C4191C5E4
:1008000037070004D98F5CC18280370700FC7D1751
:10081000F98FD5BF797122D426D206D62A84230433
:100820000100A5448347810063F1F406230401001D
:10083000A54621468347810063F7F608231501008A
:100840002304010095468347810063F5F6100357A2
:10085000A1008357A10099460D46B3F7D70205655D
:10086000B2502254130505809254B3D7C7023357B0
:10087000D702BA97C207C1832315F1008357A1009D
:1008800045611D8D4205418582801C4493E78700A8
:100890001CC42285BD3D75FD1C4493E747001CC464
:1008A0002285493575FD78448347810014108607F9
:1008B000B6972396E7FE83478100850793F7F70FE6
:1008C0002304F10085B7A304010083479100637AF4
:1008D000F60083478100850793F7F70F2304F100A3
:1008E00091BF03479100834791000C1006078507CD
:1008F00086072E97AE970357C7FE83D7C7FE63F3CD
:10090000E704834791008607AE9783D7C7FE231578
:10091000F100834791000347910085078607AE9752
:1009200083D5C7FE931717001810BA972396B7FE02
:10093000834791000357A1000C1085078607AE97E7
:100940002396E7FE83479100850793F7F70FA304EB
:10095000F100A5BF8347810010100357A10089074C
:100960008607B29783D7C7FEBA97C207C1832315FC
:10097000F10083478100850793F7F70F2304F10007
:10098000D9B51C4141677917F98F1CC12320050097
:100990002322050023240500B70702402326050073
:1009A000138787006317E500D8431367F700D8C3A0
:1009B00082801387C7016316E500D8431367070FCA
:1009C000FDB7138707036318E500D8438566938650
:1009D00006F0558FE9BF138747046315E500D84338
:1009E000BD66C5BF138787056316E500D843B70604
:1009F0000F00C5B71387C7066316E500D843B706CF
:100A0000F000C1BF138707086316E500D843B70697
:100A1000000FC1B7138787406319E50003A747405C
:100A20001367F70023A2E74082801387C74163174B
:100A3000E50003A747401367070FEDB79387074308
:100A4000631BF500B707024003A7474085669386FE
:100A500006F0558FC1BFB70702401387474463169E
:100A6000E50003A74740BD66EDB7138787456317C9
:100A7000E50003A74740B7060F00E1BF1387C7464D
:100A80006317E50003A74740B706F000D9B71387FF
:100A900007486317E50003A74740B706000F55BF97
:100AA000138707496319E50003A7474D1367F7004C
:100AB00023AAE74C82801387074A6317E50003A740
:100AC000474D1367070FEDB71387074B6319E50011
:100AD00003A7474D8566938606F0558FD1BF1387D0
:100AE000074CE319E5FC03A7474DBD66FDB71C4164
:100AF00061773D0794517D8F9C45D58F9449D58F63
:100B0000D449D58F944DD58FD44DD58FD451D58F11
:100B10009455D58FD98F1CC1DC455CC19C411CC547
:100B2000DC415CC582801C4189C593E717001CC16C
:100B3000828041677917F98FDDBF5C45ED8F99C3DE
:100B40004CC982800CC982809C4513F7070113F8B9
:100B5000F70001C7D8413368E80083D5050013F7D3
:100B6000F50F39C318418146854E3D4F930F8002E2
:100B700093028004214E3396DE00B3F8C500631162
:100B800016039398260033131F011343F3FF3377A3
:100B9000E300B318180133E7E800639FF70550C975
:100BA0008506E39AC6FD18C11307F00F6375B704F5
:100BB00054412146854E3D4F930F8002930280049D
:100BC000414EB398CE0033F715016392E802131734
:100BD000260001173313EF001343F3FFB376D3005E
:100BE0003317E800D98E639DF701232A1501050606
:100BF000E319C6FD54C18280E39457FA10C94DB77A
:100C0000E39757FE23281501DDB708456D8D333571
:100C1000A00082800CC9828019C20CC982804CC994
:100C20008280B707014063570504DC4F1357050165
:100C30009376F700131605013707300041823378A9
:100C4000E500635C05046319E802138706018D461D
:100C5000B396E60093C6F6FFF58F89C91357550181
:100C600012073317E600D98F635705043707014091
:100C70005CCF8280DC435DBF1317B500635607006D
:100C80000D47B316D700F9B713575501120733179D
:100C9000E6001347F7FFF98FC9B76312E802370878
:100CA000014083264800370700F17D17F98F758FC3
:100CB0002322E800C5F5370701405CC38280131783
:100CC000B500635C07000D473317D7001347F7FFE4
:100CD0007D8FB707000FD98FF1BF1357550112074A
:100CE0003317E600E5B7397122DC26DA2A8483540B
:100CF000450068082EC606DE7D2C925737470F0048
:100D00001307072433D7E702C204C18093F404FC1D
:100D1000C204C180B24561651305056A1316070157
:100D20004182D18C2312940083560400C206C182F2
:100D3000F99AC206C1822310D40094416366D50695
:100D40008606B3D7D7029146139707014183BA8726
:100D50006373D700914705064206C2074182C183EB
:100D60002310C402231EF4008357040003D7450058
:100D700083D6A50093E717002310F40083570400DF
:100D8000558FF250C207C18393F757BFD98F2310F5
:100D9000F40003D7850083D7C500D254D98F23141C
:100DA000F40062542161828003D5650031667D16AE
:100DB000631EC5020D46B386C602B3D7D702C2076B
:100DC000C1839396470199E293E71700A166D58FF7
:100DD0009306C0123307D7029306803E3347D702EB
:100DE0000507420741832310E402ADBF6546B38681
:100DF000C602B3D7D7029166C207C183D58FD1B7D8
:100E00008357050091C593E717002310F5008280F2
:100E1000C207C183F99BC207C183C5BF83570500C1
:100E200091C593E707102310F5008280C207C183A4
:100E300093F7F7EFC207C183FDB78357050091C54C
:100E400093E707202310F5008280C207C18393F740
:100E5000F7DFC207C183FDB78357050091C593E74C
:100E600007402310F5008280C207C18393F7F7BFC4
:100E7000C207C183FDB72318B50082800355050161
:100E80001375F50F828093F7E50F19C293E71500EC
:100E9000C207C1832318F50082808357450103559B
:100EA000850142055D8D6D8D220521810D8D1335E6
:100EB00015008280411102C402C693D7C5012AC61B
:100EC0003EC4A247A205A18199CBB247D1073EC635
:100ED000B247884341016D8D3335A0008280B2470F
:100EE000C181E107EDB723A4A1828280938781822B
:100EF00094430347050089E683472500920731A8FC
:100F0000944305466391C6048347250003461500B4
:100F100092076314D60093E707F8B7E600E093F76B
:100F2000F70FBA962380F6408546935757003397BC
:100F3000E6005441ADC6938707048A07B7E600E090
:100F4000B69798C382808C4389466393D5028346C3
:100F50001500834725006365D6008A06B69779BFDA
:100F60009386E6038A06B69793F7F70F920765B75D
:100F700090438D46631ED6008346150083472500A7
:100F80006364D6008606D9BF9386C6078606E1BF8E
:100F900094439147E39AF6F88347150085B7938702
:100FA000070661BFB7160240DC4251777D17F98F03
:100FB0005D8DC8C28280371702405C439146B18B79
:100FC0006385D700A1466386D706B7177A00938753
:100FD00007201CC1371602405C4237070020130768
:100FE00007009183BD8BBA9783C607001C41B3D716
:100FF000D7005CC15442A1829D8ABA9683C606007E
:10100000B3D6D70014C55442AD829D8A36970347A4
:101010000700B3D7E7005CC55842398393763700A1
:101020001387C180369703470700B3D7E7021CC96F
:1010300082805C4354434167C983F98E37F7FF1FB1
:101040000327C770BD8B8907131617016348060075
:10105000454601476392C702C94739A809476389D2
:10106000E7023D476388E70241476388E702454658
:1010700001476393C700C14785E6B746024083A690
:101080000680C18A8DC6B7167A009386062025A0F1
:101090000147D9B70547B547C5B70147BD47E9BFC0
:1010A000B7160240D4421396E600E35E06FCB7167C
:1010B0003D0093860690B387D7021CC101DF1C4117
:1010C000858301BF99C5371702405C4B5D8D48CBC6
:1010D0008280B7170240D84B1345F5FF798DC8CBF6
:1010E000828099C5371702401C4F5D8D08CF8280E2
:1010F000B7170240984F1345F5FF798D88CF82804E
:1011000099C5371702405C4F5D8D48CF8280B71775
:101110000240D84F1345F5FF798DC8CF828099C51D
:10112000371702405C475D8D48C78280B717024081
:10113000D8471345F5FF798DC8C7828083570500CE
:1011400037370140930607C0C207C1836300D50447
:10115000B7060040630CD502938606406308D502AB
:10116000B7160040138606806302C502938606C048
:10117000630ED50013070740630AE50037570140A7
:10118000930607C06304D5006317E50003D7250065
:1011900093F7F7F8D98F37170040630DE500130771
:1011A00007406309E50093F7F7CF03D76500C2074F
:1011B000C183D98F2310F50083D745002316F5028C
:1011C00083D705002314F502B7370140138707C002
:1011D000630EE50093870740630AF500B7570140A7
:1011E000138707C06304E5006316F50083C7850015
:1011F0002318F5028547231AF500828083570502DC
:1012000003D6050003D82500C207C183F99BC20796
:10121000C1832310F5028357050283564500035707
:101220008501C207C183420741831377C7F8518FF5
:1012300003D68500F59BC20633660601D18F37368B
:101240000140130806C0C182630E05011306064063
:10125000630AC50037560140130806C06304050140
:101260006313C50203D6A500DD9B03D8E500D18F2B
:1012700003D64500ED9B93F6F6CFD18F03D6C5007C
:1012800033660601D18E2312D500231CE50003D757
:101290006500231AE5022310F502828083570502B8
:1012A00065771307F7CFC207C183BD9BC207C18310
:1012B0002310F502835705028356450003D88500A5
:1012C000C2071396060183568501C18393F7F7FD84
:1012D000758F83D605004182A206558F83D62500DF
:1012E00042074183B3E606019206D58FB736014027
:1012F000C207138806C0C183630E050193860640AA
:10130000630AD500B7560140138806C0630405017F
:101310006311D50483D6A50093F7F7F703D8C5006A
:101320009206D58F83D64500C207C183920693F7F4
:10133000F7FBD58FFD769386F63FF18E03D6E50059
:10134000C207C183336606010A06D18E13960601D1
:1013500041822312C500231CE50003D76500231C2E
:10136000E5022310F50282808357050203D8850029
:10137000C207C18393F7F7EFC207C1832310F502B9
:1013800083570502835645000357C501C2071396CC
:101390000601420783D6050041831377C7F8558FAE
:1013A00083D62500C18393F7F7DFB3E60601A206D3
:1013B000D58FB7360140C207138806C04182C1836A
:1013C000630E050193860640630AD500B7560140B7
:1013D000138806C0630405016312D504FD76938665
:1013E000F67FF58F83D6A50003D8C500A206D58F5A
:1013F00083D64500C207C183A20693F7F7BFD58FF6
:10140000F576FD16F18E03D6E500C207C18333667B
:1014100006011206D18E1396060141822312C500E1
:10142000231EE50003D76500231EE5022310F50205
:10143000828003570502FD77FD17F98F2310F5020F
:1014400003580502835645008357C50165771396F7
:10145000060183D605001307F7CF7D8FF977A20623
:10146000FD17558FB3F7070183D6250003D88500F4
:1014700042074182B3E60601B206D58FB736014076
:10148000C207138806C04183C183630E050193869A
:101490000640630AD500B7560140138806C06304AE
:1014A0000501631CD500F176FD16F18E03D6C5004B
:1014B0001A06D18E1396060141822312C500231EFF
:1014C000E50003D765002310E5042310F5028280B0
:1014D0008357050091C593E717002310F50082801C
:1014E000C207C183F99BC207C183C5BF83574504A7
:1014F00091C52167D98F2312F5048280C607C58361
:10150000DDBF8357C50009C6DD8D2316B500828077
:1015100093C5F5FFFD8DD5BF8357050091C593E7B2
:1015200007082310F5008280C207C18393F7F7F7FD
:10153000C207C183FDB783578501C207C183DD9B05
:10154000DD8D231CB500828003578501FD779387CD
:10155000F77FF98FA205CD8FC207C183231CF50049
:1015600082808357C501C207C183DD9BDD8D231EA9
:10157000B50082800357C501FD779387F77FF98F08
:10158000A205CD8FC207C183231EF5008280231AD6
:10159000B5028280231CB5028280231EB5028280A0
:1015A0002310B504828003554503828003558503CB
:1015B00082800355C503828003550504828093C54C
:1015C000F5FFC205C1812318B5008280835605014D
:1015D000F577FD17F58F83D66500397122DC06DEBD
:1015E000D58F03D7C5002318F5008356C500FD77B6
:1015F0009387379FF58F83D645002A842EC6D58FD3
:1016000083D68500D58F83D6A500D58F2316F50008
:1016100083574501C207C18393F7F7CFD98F231AA8
:10162000F5006808493AB747014093870780B245FB
:10163000631EF404A2578356C4006547B387E702CC
:10164000C206C186984163D5060406070356C40046
:101650004206B3D7E702130740064186B3D6E70236
:10166000B3F7E7029206635706028E0793872703B4
:10167000B3D7E70213F77700B367D700C207C18378
:101680002314F400F250625421618280925765B7AE
:101690000A076DBF920793872703B3D7E702BD8B75
:1016A000D58FE9BF81C98357C5000967D98F231634
:1016B000F50082800357C500F977FD17F98FC5BF84
:1016C00013F7F50F85471583B395B7006319F70036
:1016D0009307C500984301CED98D8CC3828089467B
:1016E00093074501E318D7FE93070501E5B793C5B6
:1016F000F5FFF98DDDB793F5F51F2312B500828054
:10170000035545001375F51F8280035505006D8D47
:101710003335A000828093C5F5FFC205C181231037
:10172000B500828013F7F50F85461583B397B60091
:101730006313D7020357C500F98F0357050001450E
:101740004207418381CB0545A181B315B5006D8F5B
:101750003335E000828089466315D70003570501C1
:10176000E1BF03574501C9BF797122D43704002076
:1017700026D285479304C40198402312F100DC402F
:1017800006D64AD04ECE52CCAA892E8903C5070070
:10179000834527015400328A0946EF20604713052C
:1017A000800CEF3090679840DC40230201008345B5
:1017B000F70003C5070054000546EF206045984038
:1017C000DC4054008345570003C507000546130459
:1017D000C401EF20E0439840DC40540083452701DA
:1017E00003C507000546EF20A0429840DC405400A6
:1017F0008345770103C507000546EF206041984007
:10180000DC4054008345470003C507000546EF2030
:101810002040B1472302F1009840DC40540083454A
:10182000470003C507000546EF20803E3D45EF30E9
:10183000D05E9C549840540083C79700054623020D
:10184000F100DC408345270003C50700EF20403C42
:101850009C549840540083C7870005462302F1003A
:10186000DC408345170003C50700EF20603A1C5495
:1018700083C7A70063040A0093E7070E2302F10061
:1018800018405C4054008345670003C507000546C7
:10189000EF200038E14763070A001C5483C7B700F4
:1018A00093E7070E2302F10018405C405400834583
:1018B000770003C507000546EF20803563060A0060
:1018C0001305800CEF307055930700042302F100DC
:1018D00018405C4054008345470003C50700054697
:1018E0008144EF20E032930780072302F100184083
:1018F0005C4054008345570003C507000546EF20B0
:10190000203113052003EF30505118405C40230272
:1019100001008345570003C5070054000546EF202A
:10192000202F5C401840540003C507008345A700E2
:101930000946EF20804E034A41008347510023A40B
:101940000900220A336AFA00B147335AFA0223A285
:10195000090023A0090023240900232209002320D1
:101960000900137AFA0F6396441503A509001306BC
:10197000300881469357F541C20793550501DD8D27
:101980004205EF40305526868146EF40B05423A0F3
:10199000A90003A549001306300881469357F54175
:1019A000C20793550501DD8D4205EF40B0522686F2
:1019B0008146EF40305223A2A90003A589001306F7
:1019C000300881469357F541C20793550501DD8DD7
:1019D0004205EF40305026868146EF40B04F23A4A9
:1019E000A90003250900268681469355F5419357A2
:1019F0000501139705015D8F9355F741420593F556
:101A0000F57FB387A500B3B5B700BA95AD8313953D
:101A100055015D8DAD85EF40F04B2320A9000325D6
:101A20004900268681469355F54193570501139742
:101A300005015D8F9355F741420593F5F57FB38717
:101A4000A500B3B5B700BA95AD83139555015D8D6B
:101A5000AD85EF4030482322A90003258900268662
:101A600081469355F54193570501139705015D8F05
:101A70009355F741420593F5F57FB387A500B3B5BC
:101A8000B700BA95AD83139555015D8DAD85EF40D7
:101A90007044C1776343A000C167B25022543E95A1
:101AA0002324A90092540259F249624A0145456132
:101AB000828018405C4054008345B70003C507008E
:101AC00031468504EF20603503476100834771008C
:101AD0008346910022075D8F8347810003465100B2
:101AE0004207A207D58F834641004187C207A2065D
:101AF000D18E03260900C206C186B2962320D900E2
:101B000083264900C1870346B10036972322E900A6
:101B1000032789008346F10093F4F40FBA97034733
:101B2000C1002324F9008347D10022075D8F83473A
:101B3000E10042074187A207D58F8346A100C20773
:101B4000C187A206D18E03A60900C206C186B2963D
:101B500023A0D90083A64900369723A2E90003A752
:101B60008900BA9723A4F900FDBB011122CC3704E8
:101B700000209307C40106CE83C747021304C401A3
:101B800095CB11C10945A307A1005C4018409306FD
:101B9000F10003C507008345F7000546EF20400725
:101BA0008347F100A308F4008147F24062443E8578
:101BB000056182800347A400FD5765DB09C903471F
:101BC000140181477DF38547A307F1007DBFA3077B
:101BD000010065BF011122CC3704002006CE930717
:101BE000C40183C7A7007D556381070E1304C40198
:101BF00018405C40A30701008345F70003C50700B8
:101C00009306F1000546EF20A00018405C409306C3
:101C1000F1008345570003C507000546EF10507FCC
:101C20005C4018409306F10003C507008345470058
:101C30000546EF10F07D83474402C1CFB147A307AB
:101C4000F10018405C409306F1008345470003C54E
:101C500007000546EF10D07B13052003EF30F01B83
:101C6000930700FCA307F1008347A400858B81C77D
:101C70008157A307F1005C4018409306F10003C5AB
:101C80000700834547000546EF109078834714010D
:101C900091C38947A307F10018405C409306F10007
:101CA0008345F70003C507000546EF10707618401E
:101CB0005C40A30701009306F10003C507008345BC
:101CC00057000546EF10D0740145F24062440561AB
:101CD00082809147A307F10018405C409306F10011
:101CE0008345470003C507000546EF107072834720
:101CF00024011307000499E78347A400858B99C347
:101D0000130700065C40A307E100184003C5070065
:101D10009306F100834547000546EF10706F1305E9
:101D20002003EF30900F8347140118409306F10011
:101D3000B337F000A307F1005C408345F700054688
:101D400003C50700EF10D06C18405C4093060401F7
:101D5000ADB7B707002083C7470205476382E70294
:101D600091CB09476381E7020D476381E7022310A6
:101D7000050029A09307A00F2310F50001458280DC
:101D80009307401FD5BF9307803EFDB79307007DA3
:101D9000E5B7011122CC3704002006CE9307C40119
:101DA00083C7A70089CF9307401F1304C4016303AF
:101DB000F50663E8A7009307A00F630EF5007D55B5
:101DC000B1A09307803E630BF5049307007DE318F1
:101DD000F5FEE14789A0A30701008347F10003470F
:101DE000840001458D836303F7025C40184093062D
:101DF000F10003C50700834567000546EF105061F9
:101E00008347F10001458D832304F400F2406244CE
:101E100005618280A147A307F100C1B7C147E5BFB3
:101E2000370700209306C70183C696000546AA8798
:101E30001307C7016388C60289CA09466386C602BA
:101E40000D466385C6027D55828089462380D70072
:101E500003473701014511C703C707000607238061
:101E6000E70082809146DDB7A146CDB7C146F9BFF4
:101E7000011122CC3704002006CE9307C40183C78A
:101E8000A70099CB91471304C4016300F50663E7EB
:101E9000A7008947630CF5007D55A1A0A147630AFF
:101EA000F504C147E31AF5FEE14789A0A307010045
:101EB0008347F1000347940001458D836303F702D4
:101EC0005C4018409306F10003C507008345770086
:101ED0000546EF10F0538347F10001458D83A304BD
:101EE000F400F240624405618280A147A307F1003B
:101EF000C1B7C147E5BFB707002083C777021547C1
:101F0000FD1793F7F70F636BF70225678A0713072F
:101F1000C7C9BA979C4382879307C00B2310F5006B
:101F20000145828093072006D5BF9307A002FDB725
:101F3000D147EDB7A947DDB79547CDB723100500C9
:101F4000C5B7011122CC3704002006CE9307C40187
:101F500083C7A700ADCF9307B00B1304C40163F090
:101F6000A7048547A307F1000347B4008347F100A6
:101F700001456302F7025C4018409306F10003C577
:101F80000700834527000546EF1090488347F1007E
:101F90000145A305F400F240624405618280930785
:101FA000100663F4A700894775BF9307900263F496
:101FB000A7008D4745BFCD4763F4A70091475DB7A4
:101FC000A54763F4A700954771BF994761BF7D5549
:101FD000D9B7B70700209387C70103C7470219E79E
:101FE00083D7E7002310F500014582807D5582806C
:101FF000B707002083C7470205476382E70289CB02
:1020000009476383E7020D476385E7027D558280B8
:10201000B797000087A707CE1CE101458280B797DC
:10202000000087A747CECDBFB797000087A787CE10
:10203000E5B7B797000087A7C7CEF9BF37070020DD
:102040009306C70183C696000546AA871307C701F2
:102050006388C60289CA09466388C6020D4663873B
:10206000C6027D55828091662390D70003473701D1
:10207000014511C703D7070005832390E70082803D
:1020800089669386C6F9CDB78566F9BF856693865E
:102090000680D9BF011122CC370400201304C401EB
:1020A000834744024AC806CE26CA4EC60149A1E368
:1020B0008347A4007D5985CF9374E50FE58F83494D
:1020C00004012308F400858FB337F0003309F04092
:1020D00083474401C58F91CB0545413C89C8DD3C10
:1020E00019C5230834017D5919A00145BD3CF240B2
:1020F00062444A85D2444249B2490561828079717D
:102100004ECEB709002026D29384C90183C744026A
:1021100006D622D44AD052CC56CA85CF03C7A400D3
:10212000FD572DC3DC409840AE8A2A898345A7001D
:1021300003C50700328A74000946EF10104E83472A
:10214000C1000344D100A2075D8C63762401230003
:102150000A00FD5705A8D8409389C9018357270075
:10216000858363FB87029C4003450700740083C599
:1021700017010546EF10704A8347C100C18B89CF14
:10218000913CF957B250225492540259F249624A92
:10219000D24A3E854561828083A7490003A7090092
:1021A000D68603C507008345B7001376F90FEF10F5
:1021B000D0463354240381477D1423008A00D9B7C5
:1021C000011122CC3704002006CE26CA9307C40191
:1021D00083C72701638CA70C1304C4015C40AA8445
:1021E0009306F10003C507001C40054683C5470060
:1021F000B9C8EF1090428347F10018409306F100F0
:1022000093F7F7FDA307F1005C40834547000546BF
:1022100003C50700EF10D01F0D45EF300040894780
:10222000A307F1008347240289C7930720F8A30777
:10223000F10083473402B1CF8347F10093E70703EE
:10224000A307F100B9A0EF10503D8347A4008346D7
:10225000F100858B13F7F60D99C313E706025C4076
:10226000A307E100184003C507009306F10083456A
:1022700047000546EF10D0190D45EF30003A83476F
:10228000240299C39307000803473402A307F1000F
:1022900055F718405C409306F1008345470103C59C
:1022A00007000546EF10D01623099400F24062445F
:1022B000D244014505618280011122CC37040020FF
:1022C00006CE26CA9307C40183C737026388A704D2
:1022D0001304C401814719C1930700030347240174
:1022E000A307F10009C793E72700A307F10083477D
:1022F000240299C78347F10093E707F8A307F10089
:1023000018405C40AA848345470103C50700930633
:10231000F1000546EF10D00FA3019402F240624491
:10232000D2440145056182809307800263EFA70ACA
:10233000011122CC26CA3704002006CEAA84130439
:10234000C40105E9953F930700702316F10018407A
:102350005C4074008345270103C507000946EF1060
:10236000300B230A0400F2406244D2440145056167
:10237000828005459137930700022306F1008547C7
:102380006392F404A30601001545653E8347D1001E
:10239000184074009A0793E77700A306F1005C40A9
:1023A00083452701094603C50700EF107006A147C2
:1023B0002305F4000145854723060400230AF400A1
:1023C000D13955B7154763659700A306F1006DBF76
:1023D000D14763E797008947A306F100294575B700
:1023E0008D47A306F10051454DB77D5582800111FF
:1023F00022CC3704002006CE26CA9307C40103C7A7
:10240000A70051CB03C74702AA847D5515E383C7B4
:1024100047011304C40185C79387F4FFC207C18332
:1024200013077002636BF70013F5F40FF53D0145D8
:10243000F2406244D244056182800145F5351307BC
:10244000803EA687637497009307803E1397070129
:10245000418391466373D7009147C2079304803E3E
:10246000C183B3C7F40218409306F10005468345C3
:102470001700FD17A307F1005C4003C50700EF102C
:1024800020790345F100050533C5A4022317A400F4
:102490000581453C69BF7D5561BF011122CC06CE47
:1024A00026CA4AC8937705072A8489C78547A307A0
:1024B000F10021A05DC9A3070100B7040020138922
:1024C000C40183274900032709009306F10003C5CF
:1024D00007008345270105469384C401EF1040732C
:1024E0008347F10093F7F7FB2306F9009377040481
:1024F000C1C3A30701009377040299E78347F10062
:1025000093E72700A307F1009377040199E7834736
:10251000F10093E71700A307F1009377840099E790
:102520008347F10093E78703A307F100DC4098405D
:102530009306F10003C50700834537010546EF10F8
:10254000206D9377740F99C30145BD3313052003A4
:1025500023858400238A0400EF30200CF24062447B
:10256000D24442490145056182809307000481B746
:102570009147A307F10041B7011122CC3704002095
:1025800026CA930700F89304C40198402304F1007D
:10259000DC4006CE8345270103C50700340005460D
:1025A000EF10006713054006EF3020079840DC402D
:1025B000230401008345270103C5070034000546B5
:1025C000EF1000659840DC4034008345670103C587
:1025D000070019461304C401EF1030048347D100EB
:1025E0000347B1008A070607098B918BD98F0347F0
:1025F0009100058BD98FC9CF054793F5F70F6395E8
:10260000E700A309F40031A089476396F506A30902
:102610000400FD572317F4002308F4002309F400F5
:10262000FD571CC4231A0400854731468145130514
:1026300064012306F400EFD0BFBC85472311F402E8
:10264000232204021305007DEFF0AFF41DE90945D4
:10265000EFF01F821DE51305A002EFF09F8E15E13C
:1026600013052003693311ED353401ED913E2A84C1
:1026700009E9253501A837950000130505CFEF308E
:10268000F07D7D542285F2406244D244056182800F
:10269000DC409840340003C50700834537000546F9
:1026A000EF10A07783478100BD8B81EB3795000049
:1026B000130585D1EF30D07CE9B71147E399E7F4F2
:1026C00037950000130545D6EF30907B854715BF41
:1026D00011EA7D5582807D55F2406244D2444249E0
:1026E00005618280011122CC370400201304C4014B
:1026F0008347A40006CE26CA4AC8F1DF13578500D7
:1027000093178500D98F2316F1005C401375F50FE0
:102710002E9503D7A700E340A7FC184003C5070088
:10272000AE8483458701328974000946EF10404E1C
:1027300018405C40CA868345570103C5070013F65D
:10274000F40FEF10E04C014541BF11EA7D55828046
:102750007D55F2406244D2444249056182800111B4
:1027600022CC370400201304C4018347A40006CE02
:1027700026CA4AC8F1DF1357850093178500D98F01
:102780002316F1005C401375F50F2E9503D7A700B3
:10279000E340A7FC184003C50700AE8483458701CA
:1027A000328974000946EF10A04618405C40CA8682
:1027B0008345570103C5070013F6F40FEF10E065DA
:1027C000014541BF5D71A6C2B704002086C6A2C400
:1027D000CAC04EDE52DC56DA5AD85ED662D466D211
:1027E0006AD09387C40183C7570285C37D55B6401D
:1027F000264496440649F259625AD25A425BB25B69
:10280000225C925C025D61618280EDD1C16B938438
:10281000C401368B32892E8AAA890144C14CFD1B22
:10282000636B340313168900DC4098401359890008
:10283000336926012316210103C507008345A7013B
:1028400074000946EF10C03C8547A382F40223932D
:102850006403014569BFB38A894063D35C01C14AFF
:10286000139C0A01135C0C01330D8A006A86E28511
:102870002285B93D25FD1008E2852285F9353DF513
:1028800033F67A010C086A85EF60202B09E5629423
:102890004204418071B7795599BF011122CC3704A8
:1028A00000201304C4010347440206CE6304A704B6
:1028B00039C5834754027D559DCF0145EFF0EFAAFE
:1028C0000145EFF0FF8F0355640215365C40A30706
:1028D00001009306F10003C5070005469305300289
:1028E000EF100033854705452302F402EFF0EFA710
:1028F000EFF04FAE0145F240624405618280EFF097
:10290000CFA6834704019306F1000546A307F10013
:102910005C409305300203C50700EF10602F2302CF
:102920000402F9B75971A2D437040020CAD0D6CA1C
:102930009307C40186D6A6D2CECED2CCDAC8DEC6E4
:1029400083C447022A89AE8A1304C40181C40145A5
:10295000A93785441305E100EFF0AFBF1305D1009F
:10296000EFF00FCC13052101EFF0EFD80808EFF0DE
:102970004FE60146D6854A85034AA40083490401EF
:10298000EFE09FDE6314051A05462C106808EFE09F
:10299000BFDD631405205C403408114603C5070001
:1029A000B545EF1080478346B101034781014C18BC
:1029B00093D746400D878D8B718B5D8F230AE10085
:1029C0000347910193D726408D8B0D87718B5D8FC7
:1029D0008347A101A30AE100379700008D870727ED
:1029E00087D8379700008D8AF18B8726C7D8D58F77
:1029F000230BF10054089000AE872E8B03C706000E
:102A00006314071A23A0070091078506E318F6FE52
:102A1000B797000087A5C7D9B797000007A507DAC1
:102A2000B7970000B79B000007A047D9B7970000F1
:102A300087A60BD9530600F087A087D93810014626
:102A4000814605450D4893972600D69783280700B1
:102A50009C439861B387174193D8F741B3C7F800F7
:102A6000B3871741D3F707D0D327C7A0D3F7D71021
:102A700063990714D3F7E718D3F70708D3A7F7200C
:102A8000D397F0A081C7B317D5005D8E85061107D7
:102A90009105E39A06FB5C40DA86B54503C507005D
:102AA000937AF60F0D46EF104037834761030357C3
:102AB00041038966FD8B230BF102B797000007A63F
:102AC000C7DAB797000087A507DBB797000007A50F
:102AD00047DAB797000007A047D9B7970000938659
:102AE000F6F187A60BD987A087DA758F231AE10242
:102AF0007408014501478545B79800000D489317B4
:102B00002700CA9790429C43918F13D6F741B18F0B
:102B1000918FD3F707D0B307EB0003C60700D3F7B5
:102B2000D7106308060E07A748D86DA00146D685C2
:102B30004A85EFE07FC3E30905E40149FD570355EA
:102B4000E1002317F4002308F400FD571CC4854757
:102B50002306F400EFF0EFA30345D100EFF04FB1EF
:102B600003552101EFF0EFBD03550101EFF03F8860
:102B70005285EFF09F924E85EFF0CFD199C0054579
:102B8000293BB65026544A8596540659F649664A5A
:102B9000D64A464BB64B6561828005462C106808C4
:102BA000EFE09FBC59F9C5BB98E37D171377F70F8A
:102BB00001E72380060089BD9C63D3F7D7109CE30F
:102BC000EDB7D397B7A0E39007ECD317F5A05DBDA1
:102BD0005377A7107D161376F60F7DFAD3F7E71813
:102BE00023800700D3F70708D3A7F720D397F0A0D7
:102BF00081C7B397E5005D8D05079106E31107F1E5
:102C00001375F50F13391500E39A0AF213692900B9
:102C100035B7D397C7A0F1FFD397F5A0D1BF828076
:102C200079714C08280006D6F5390D47854763159C
:102C3000E5064800EFF0CFBBA2479266280053F7A5
:102C400007D05377D710D31707C03EC4B24753F706
:102C500007D05377D710D31707C03EC6C247D3F764
:102C600007D0D3F7D710D39707C03EC8752E1305EA
:102C70002100EFF0AFBC03572100D2474808B387CB
:102C8000E7023ECAE247B387E7023ECCF247B3878A
:102C9000E7023ECE55218147B2503E854561828094
:102CA0000307050081476343E002914705E30307FB
:102CB00015008547634CE000954709EB03072500A5
:102CC00089476345E0009337170099073E85828066
:102CD000411106C622C426C24AC0AA84D1372A8915
:102CE00013853400753F2A8413856400553F93177C
:102CF00034001A05B24022445D8D3365250142053A
:102D000092440249418141018280411122C406C698
:102D1000EFF09F86294449E513058007EFF0EFF7B0
:102D20001375F50F05442DED13058007EFF08FB6F1
:102D30001375F50F09442DE513052003EFF02FEB74
:102D40001375F50F0D4429ED55221375F50F114438
:102D500021E937050020130505019D3F6522137504
:102D6000F50F154415ED13053017EF00B009137575
:102D7000F50F194415E513052003C1291375F50F47
:102D80001D4419ED713D214401ED0545393613749B
:102D9000F50F01EC379500001305C5CCEF30500E50
:102DA0002285B2402244410182802544D5BF1D7155
:102DB000A2CCA6CACAC8AE842A89328493079100DD
:102DC0001307A100740010102C08080886CEA2E694
:102DD000A6E4CAE2CEE052FE56FC5AFAEF00702298
:102DE00079E98357A100094593F70710C5CB8257AE
:102DF000D3F407D0B797000087A707CC9257D3F436
:102E0000F41053F407D0A2575374F41053F907D0B9
:102E1000B25753FB94005379F910D3F907D0B79701
:102E2000000007AA47CCD3F9F91053752B11537A38
:102E3000441143753A51EF20900CB797000087AAD0
:102E400087CC537B8B10B797000053755511272003
:102E5000A90053752901D3752511437535B1477AFA
:102E60008A5887A547D9D375BA00EF203015537516
:102E70005511D375841088E0C3F5945853F5341177
:102E8000CB75295943752451CBF539595375A50094
:102E9000EF20D01253755511014508E0F640664405
:102EA000D64446493664A66416698669727AE27A1F
:102EB000527B256182800545D5B7B7B7B38D011127
:102EC000938787AB3EC2B7A70D359387478B3EC428
:102ED00050009307D005A5451305804B06CE230669
:102EE000F100EFF0EFFEF24005618280A565056517
:102EF0009306800C13060040938585DF130565BF9C
:102F00006FF05F8CF57701111387C7D49387C79053
:102F10002316F1009307C0022314E1002307F100F8
:102F20001307C006937635001C0822CC06CE230575
:102F3000E100BE9683C786FF135735000D8B230033
:102F4000F1001C083E97834787FF100883C6C6FF21
:102F5000A300F100935765008D8BB29703C687FFDE
:102F60000347C7FF83C7C7FF2A842301C1008D45DC
:102F70000A86130560422302D100A302E100230365
:102F8000F100EFF0EFF411C57D55F24062440561A8
:102F9000828050008D451305A042EFF06FF36DF570
:102FA0009567938767632310F100930760072301F8
:102FB000F1009167938767622312F100930760061F
:102FC0002303F1009377440089CB93077003230018
:102FD000F100930770022302F1009377040289CB7A
:102FE00093077005A300F10093077004A302F1009A
:102FF0009377041089CB930770072301F10093079F
:1030000070062303F1000A868D4513050044EFF096
:103010002FEC3DF950008D4513051043EFF04FEBB9
:1030200025F5239C818495B783D78185011106CE30
:1030300013F737000A072A970C4322CC26CA13F746
:10304000470019C3B305B04013D71700318B2A9737
:10305000104313F7070219C33306C04013D74700C4
:10306000318B3A9593F70710184199C33307E04025
:10307000B7E6CA0293869630B387D5021305003DA2
:10308000B395D502F9833304D7028A05CD8F9145D4
:103090003317D7027980B304D6020A07598C13D7A5
:1030A00087412306E10013D70741A306E1001397E8
:1030B0008700C207C1833316D602F980A183D98F56
:1030C0002317F1000A06D18C7000EFF06FE019C5EC
:1030D0007D55F2406244D2440561828093D7844199
:1030E0002306F10093D70441A306F10093978400CF
:1030F000C204C180A180DD8C700091451305403D64
:1031000023179100EFF0CFDC61F59357844123063C
:10311000F10093570441A306F10093178400420481
:10312000418021805D8C700091451305803D2317FF
:103130008100EFF0EFD971BF011122CC2A84130571
:10314000210006CEEFE09FEF83D781850356210053
:1031500013F737000A07229793F647003E061843F5
:1031600099C23307E04093D61700B18AA2968C42E9
:1031700093F6070299C2B305B04093D64700B18ACF
:10318000369493F70710084099C33305A04093572E
:10319000F741B306C702B387C702F9823337C702C4
:1031A000BA978A07DD8E93D7F5413387C502B38777
:1031B000C7027983B3B5C502AE978A079355F54127
:1031C0005D8FB385C502B307C5023336C502F983E7
:1031D000130540292E960A06D18F13D68641230265
:1031E000C10013D60641A302C10013968600C20691
:1031F000C182A182D18E2313D1009356874123042B
:10320000D10093560741A304D100931687004207CB
:1032100041832183558F2315E10013D7874123066E
:10322000E10013D70741A306E10013978700C20707
:10323000C183A183D98F5000B1452317F100EFF06E
:103240002FC9F2406244056182807971A56522D45C
:1032500031462A84938585C1480806D6EF50501020
:103260009307800C63F787007D55B2502254456167
:103270008280B3C787027000894513056021230649
:103280000100FD17A306F100EFF08FC471FD056585
:103290005008B145130515ACEFF08FC371F5239EAF
:1032A0008184E1B79377750099E37D558280930718
:1032B0000064E3ECB7FE7971B7A7000087A7079F0A
:1032C00022EE53F415D022D42A841305B10006D679
:1032D0005374F418EFE0DFB48347B1001147638DF6
:1032E000E70C636BF7000947638DE7027D55B25029
:1032F00022547264456182802147638EE70C414706
:10330000E396E7FEB7A7000087A7C7A0B7A700000E
:10331000D377F410539717C087A707A142074183BB
:1033200039A8B7A7000087A7479FB7A70000D377A2
:10333000F410539717C087A7879F420741835374A0
:10334000F410931687002183558F2316E100D317BD
:1033500014C0C207C18313978700A183D98F231795
:10336000F10093771400D9E79377240085C37000A8
:1033700089451305801DEFF0AFB52DF91306E10067
:10338000894513058012EFF0AFB42DF11188014586
:1033900039DC700089451305C01DEFF06FB339F5B6
:1033A0001306E10089451305C012EFF06FB2333503
:1033B000A0003305A04025BFB7A7000087A7C79F7F
:1033C000B7A70000D377F410539717C087A707A0BB
:1033D00042074183ADB7B7A7000087A747A0B7A7AB
:1033E0000000D377F410539717C087A787A0420730
:1033F0004183B1B7700089451305401DEFF04FAD13
:10340000E31605EE1306E100894513054012EFF0BF
:103410002FAC39D9E1BD011106CE9377150095EF98
:10342000A30701009377250099C78347F10093E72D
:10343000C700A307F100118919C58347F10093E77D
:103440003700A307F1001306F1008545130580142A
:10345000EFF00FA8F2400561828093070003A307F5
:10346000F100C9B7011106CE854719C511479377F9
:10347000F50F6373A7009147FD171306F10085450B
:103480001305F014A307F100EFF08FA4F2400561DB
:10349000828095473355F50201117000894506CEAB
:1034A0009317850021815D8D2316A1001305E01D72
:1034B000EFF00FA2F2400561828095473355F50287
:1034C00001117000894506CE9317850021815D8D1D
:1034D0002316A1001305A01DEFF08F9FF240056198
:1034E00082809307803E3345F5020111700006CEBD
:1034F000B305B5021305C01593D785412306F10026
:1035000093D70541A306F10093978500C205C181B9
:10351000A181DD8D2317B1009145EFF06F9BF24043
:103520000561828095473355F50201117000894588
:1035300006CE9317850021815D8D2316A10013050A
:10354000A015EFF0EF98F240056182809547335562
:10355000F50201117000894506CE9317850021817F
:103560005D8D2316A10013058015EFF06F96F240D4
:1035700005618280011106CE11C5EFF01F94F24063
:1035800005618280A5652546938545C24800EF50B8
:10359000205D5000A5451305804BEFF06F93C5B734
:1035A000011106CE15C1B7C7C4C69387072C0565A0
:1035B00070009145130585A93EC6EFF06F91EFE0CD
:1035C0006FE1F24005618280B7978B8B9387B7B824
:1035D000F9BF011106CE15C1B7373038938707827E
:1035E0000565700091451305E5A93EC6EFF04F8EC5
:1035F000EFE04FDEF24005618280B7A7A3A3938777
:10360000373AF9BF7971B7D7E309938727A022D456
:1036100050002A8491451305800652CC3EC206D63E
:1036200026D24AD04ECEEFF0AF8A930730FA23026B
:10363000F100137A040463000A18930700FCA30244
:10364000F100F1779387872C2313F1001379041885
:1036500063090916F577938747CC2314F100930784
:1036600060FC2305F100930730FAA305F10005651E
:10367000E9779387373A5000A945130575AA2316B1
:10368000F10093793400EFF0AF849307800D6384E9
:10369000090093070002056550008545130565ABD9
:1036A0002302F100EFF0CF829377040263830712C5
:1036B000EFF0BF806302090293770410638E071056
:1036C000B797B69B938727BB0565500091451305B7
:1036D00025AA3EC2EFE0DFFF937714006383071053
:1036E0000565E157500085451305058B2302F10060
:1036F000EFE01FFE9305A00F1D45EFF0BFBA1D457B
:10370000193B054585331305400661331305401FFA
:103710006D3337E5CA029305800C13059530D1331C
:103720001305800201352945153593772400B337F9
:10373000F0009387870D500085451305D073230251
:10374000F100EFE0FFF893774400054591E3014570
:10375000813D93770401054591E301459D3D9387A4
:103760000185136784002395E700EFE0AFC69387D8
:10377000018563140A08238707006307090003C74C
:10378000E70019072387E700518811C403C7E70042
:1037900041072387E7006387090003C7E700110794
:1037A0002387E700B250225492540259F249624AE8
:1037B000014545618280A302F100E9779387373A9A
:1037C00061B5E9779387373A2314F100930730FA0C
:1037D00049BD01454533F9BDB787B4909387070BC1
:1037E000E5B50565930780FD500085451305058BFC
:1037F0002302F100EFE0DFED0DBF19472387E7005B
:10380000ADBF5D7156DA5ED6938B0185CAC02A8939
:1038100003C5EB00A6C24EDE52DC5AD886C6A2C44F
:10382000AE89328B231007003E868A85B6843A8A99
:10383000EFE0FF8C61E503D7AB002A84938A018512
:1038400093774701638E071A83470100834611006F
:1038500003465100E207C206D58F83463100420677
:1038600083458100D58F83462100E2050345D100C1
:10387000A206D58F834641002320FB00C187E206C4
:10388000D18E03467100B387F7024205D18E0346FD
:1038900061002206D18E034691002322DB00C186FF
:1038A0004206D18D0346B100B386D602D18D0346C0
:1038B000A1002206D18D0346C1002324BB00C1858F
:1038C0006206498E0345F100BE96B387B502498E64
:1038D0000345E1002205498E2326CB0041863306AD
:1038E000C602B697B70600F1B297B697B7060002C0
:1038F00063F8F600EFE00FAE23100A007D54EDA050
:1039000083570A0093E707102310FA00C147937604
:103910000704A1C61410BE9603C606FE83C516FE94
:10392000990722064D8E2390C90003C626FE83C543
:1039300036FE93F7F70F22064D8E2391C90003C67A
:1039400046FE83C656FE2206D18E2392D9008356A8
:103950000A0093E686002310DA0093760718A1C6C2
:103960001410BE9603C606FE83C516FE99072206EE
:103970004D8E2310C90003C626FE83C536FE93F77D
:10398000F70F22064D8E2311C90003C646FE83C6DB
:1039900056FE2206D18E2312D90083560A0093E6E2
:1039A00006072310DA000D8B0DCF3309F100834792
:1039B000190083493900858B99CB83A70A0081CBF5
:1039C00093F5790013D5390085051D8982978347C2
:1039D0001900A18B99C783A74A0081C713D5690035
:1039E00082972685EFF0AFA32285B6402644964401
:1039F0000649F259625AD25A425BB25B61618280D7
:103A0000814731B7011106CE22CC2A84EF00E0684D
:103A10001305C00EEF00206BEF0040732285EF000E
:103A2000806AEF00A072EF0040671305D00EEF0030
:103A30008069EF00A071EF00C06C2AC6EF006067DC
:103A4000F2406244324505618280011106CE2EC6E5
:103A500022CC2A84EF0060641305C00EEF00A0663C
:103A6000EF00C06E2285EF000066EF00206EB245C9
:103A70002E85EF004065EF00606D6244F240056105
:103A80006F0020634C411C4196058A07DD8D1C4563
:103A90001305400FDD8D93F5F50F45BF0C415C41DB
:103AA00096058A07DD8D1C451305500FDD8D93F5B6
:103AB000F50F61BF797106D622D426D2792B130572
:103AC00080088937AA8413059008138401811D3F5B
:103AD0001C40220526952390A7001305A0081D373A
:103AE000AA841305B008393F1C402205269523916E
:103AF000A7001305C0083937AA841305D008193761
:103B00001C40220526952392A7001305E008DD3D01
:103B1000AA841305F008FD351C4022052695239341
:103B2000A70013050009F93DAA8413051009D93D22
:103B30001C40220526952394A70013052009D9359A
:103B4000AA84130530097D3D1C4022052695239546
:103B5000A700130540097D35AA84130550095D357A
:103B60001C40220526952396A70013056009593DA0
:103B7000AA841305700979351C40220526952397E0
:103B8000A70013058009BD3DAA84130590099D3D3A
:103B90001C40220526952398A7001305A0099D35F2
:103BA000AA841305B009B93D1C4022052695239926
:103BB000A7001305C009B935AA841305D0099935A2
:103BC0001C4022052695239AA7001305E0091D3DF8
:103BD000AA841305F0093D351C4022052695239B38
:103BE000A7009305600B1305000E85358D4705472B
:103BF00028003EC43AC63EC871359147480802CAFB
:103C00003ECC02CE613DB250225492544561828036
:103C1000011126CAB764004022CC4AC84EC652C41D
:103C200056C206CE5AC0AA8A2E8A32893684938911
:103C30000480B70502004E85EFD0CFA77DF913852C
:103C400004808545B7040300B7690040EFD00F9D9D
:103C50008504138B0980A6855A85EFD00FA465DDF6
:103C6000D685138509800146B7040700B76900406F
:103C7000EFD06FA193842408938A0980A685568586
:103C8000EFD0AFA165DD13850980D285B7090700A4
:103C9000B7640040EFD02F9E938949089384048035
:103CA000CE852685EFD06F9F65DDB7640040B709EC
:103CB000070022999384048093894908631289023A
:103CC0006244F240D2444249B249224A924A024BEB
:103CD0003765004085451305058005616FD0EF9578
:103CE00005048345F4FF2685EFD0EF98CE85268521
:103CF000EFD0AF9A65DDD9B70111A307B1009306E4
:103D0000F100AA8505461305000D06CE1137F240D5
:103D100005618280797185453705400006D622D439
:103D200002C202C402C602C802CA02CC02CEEFD04E
:103D30002FBD85452145EFD0CFBA8567938707C052
:103D40002312F10037150140F1473EC64C008D4764
:103D5000130505C03EC4EFC03FDFB72706009387B9
:103D600007A83EC8B707FFBF376400403ECAB70781
:103D700000043ECC0C08916713050480231EF1005B
:103D8000EFC07FF6130504808545EFD06F8785452A
:103D900013050480EFD04F8C13052003EF10F007BC
:103DA000930500081305B006813F13054006EF1088
:103DB000D00681451305B00681378D4565452D3FF9
:103DC00089456945153F814571453D37E1456D455B
:103DD0002537814513058003053781451305A00666
:103DE000213F814513053002013F9305000813056B
:103DF0007003193785451305B006FD3DEFE0FFF070
:103E00002A84AA8537A50000130545A1EF201005D7
:103E10002285B250225445618280011126CAB764BE
:103E2000004022CC4AC84EC652C456C206CE5AC022
:103E30002A8AAE8A3284368993890480B7050200C3
:103E40004E85EFD02F877DF9138504808545B70413
:103E50000300B7690040EFC07FFC8504138B098025
:103E6000A6855A85EFD06F8365DD138509800146ED
:103E7000D285B7040700B7690040EFD0CF809384A4
:103E80002408138B0980A6855A85EFD00F8165DD44
:103E9000D68513850980B7040700B7690040EFC0D5
:103EA0009FFD93844408938A0980A6855685EFC0B8
:103EB000DFFE65DD138509808545B7040300B7691A
:103EC0000040EFC0BFF58504938A0980A68556851A
:103ED000EFC0BFFC65DD138509800546D285B709B3
:103EE0000300B7640040EFC01FFA8909938404807F
:103EF000CE852685EFC07FFA65DDB7640040B7093F
:103F00000300130AF00F93840480938909047D143D
:103F10001374F40F631744033764004013050480DF
:103F20008545EFC09FF1130504806244F240D244FE
:103F30004249B249224A924A024B854505616FC007
:103F4000BFF109E481452685EFC01FF1CE852685A6
:103F5000EFC0BFF465DD2685EFC05FF22300A90046
:103F6000050975B7011122CC9306E1002A84AA85C0
:103F700005461305000D06CE4D3593051400930636
:103F8000F1001305000D054693F5F50F79358347CC
:103F9000E1000345F100F2406244A2075D8D056136
:103FA0008280011170002C00480006CE22CC26CA67
:103FB000EFE0FFDFB267138401861CE09267AA84FA
:103FC000130570045CE0A2671CE4693F2316A4009B
:103FD00013053004413F2317A4001305500459373B
:103FE00031152318A400F24062442685D2440561AD
:103FF00082802A86371501404111130505C09305BB
:10400000000406C6EFC05FC1B240294541016F10F0
:10401000605D2A86371501404111130505C09305DF
:10402000000806C6EFC05FBFB240294541016F10CE
:10403000605B37150140411193050008130505C069
:1040400006C622C4EFC07FBC2A842945EF108059E0
:104050002285B240224441018280011185452145DB
:1040600006CE22CCEFD0EF87D1473EC637140140B1
:104070009307000C2312F1004C008D47130504C078
:104080003EC4EFC07FAC130504C09305000CEFC025
:104090007FB8F2406244056182804111054506C641
:1040A0008D3F0545B9370145AD37B2400145410166
:1040B00089B74111014506C6A93F05451D3FB240DC
:1040C00005454101B9B7011122CC26CA4AC84EC6DE
:1040D00006CE2A89014493090008A14433D58940BA
:1040E000337525013D37054529370145050411374D
:1040F000E31694FEF2406244D2444249B24905615B
:1041000082800111054522CC26CA4AC84EC606CE79
:104110008144013701449309000821490545D13DF7
:10412000093F85476317F500B3D799405D8C137439
:10413000F40F01458504753DE39224FF2285F2408A
:104140006244D2444249B249056182804111054529
:1041500006C622C47D3D0545EFF0BFE9D93D2A845E
:104160000145EFF01FE92285B240224441018280DF
:104170003971130600028145080806DE22DC26DAC2
:10418000EFC00F888545114502C202C402C6EFC0C8
:104190005FF5854513050020EFC0BFF43165EFC022
:1041A0007FE037150140C1474C00130505803724D7
:1041B00001402312F10002C6EFC01F99130504400D
:1041C000EFC02FC885473ECCB7070E003ECE0C0887
:1041D0009147130504402302F10202C802CA02D02B
:1041E000EFC0EFCA854513050440EFC0CFD0854529
:1041F00013050440EFC02FCF814513050440EFC0E5
:10420000EFDF13050440EFC02FD093040440268550
:10421000EFC02FD06DFD1305044037240140EFC0DF
:10422000CFCF930404402685EFC0CFCF6DFD13059B
:104230000440EFC02FDEF25062542396A182D25484
:10424000216182805D71A2C4A6C2CAC02A842E895F
:10425000B28481451306C002480886C636C6EFB050
:104260003FFA85450545EFC0FFE52285EFC06FF1B8
:10427000930700083ED493070010B2463ED693073A
:1042800000403ED8930700023EDA4C088D67228535
:104290004ACA26CC02CE36D002D23EDC02DEEFC0C5
:1042A0001F85B640264496440649616182804111CB
:1042B00006C622C426C2EFF0BFEB8395C18237A5A4
:1042C0000000130505A3EF20603937240140B7042F
:1042D000024085461386018D9305C444138544042A
:1042E0009537138544048545EFC0FF8313050440CB
:1042F00091459D460546EFC0EFC413050440224496
:10430000B2409244854541016FC04FC20327850CDE
:104310008317A50C19EB1C61530700F053A7E7A006
:1043200009C78A07AA9788E3828085079306200336
:10433000B3E7D7021397070141878A07AA97231586
:10434000E50C88E38317850C6317F70005073367CF
:10435000D7022314E50C8280D30700F09307850C65
:1043600018611105D3F7E700E31CF5FEB7A70000BD
:1043700007A587A453F5A71882800111854511452B
:1043800006CE22CC02C202C402C6EFC09FD593075C
:1043900000102312F10037140140C1473EC64C0003
:1043A0008D47130504803EC4EFC00FFA1305048047
:1043B000054693050010EFC03F86F2406244056158
:1043C00082805D71A6C2AA8437050800A2C41305C5
:1043D00015022E84854586C632C602D202D402D684
:1043E00002D802DA02DC02DE02CC02CE2310010285
:1043F000EFC03FCF3705138085454105EFC07F8271
:10440000ED77938707A02312F10237150140E147AA
:104410003ED64C108D47130505403ED4EFC0CFF279
:10442000231C8100375401402C08130504C0231EAF
:104430009100231F0100231D0100EFC03FD0324631
:10444000C167938707060C18130504C03ED8231BC9
:10445000C102231C0102EFC07FDA0C18130504C04F
:10446000EFC0DFE30C18130504C0EFC0FFEF0C181A
:10447000130504C0EFC0FFFB130504C08545EFD052
:10448000EF86130504C08145EFD0EF8A130504C001
:104490008145EFD06F8B130504C08145EFD06F8C41
:1044A000130504C08145EFD0EF8C130504C085458A
:1044B000EFD08F86130504C08545EFD06F81B640DD
:1044C00026449644616182801D6541111306803E39
:1044D000930510031305050806C622C4EFF07FEE0E
:1044E00037540140130504C09305005AEFD02F8ABA
:1044F000130504C09305005AEFD0CF89130504C0FB
:104500009305005AEFD06F89130504C02244B240CE
:104510009305005A41016FD0AF889307005A63FB9F
:10452000A70085671387F7B36368A704930720671D
:1045300063E4A7001305005A83C7D18199EB1307E1
:104540002067AA876374E500930720671395070126
:10455000418103A7818189476305F706850593F5A6
:10456000F50F11476363B7026388F50263E9B7008B
:104570008547638CF5008280138507B475BF8D472E
:104580006383F5026388E5028280AA85375501407E
:10459000130505C06FC0BFFFAA853755014013053D
:1045A00005C06FC03FFFAA8537550140130505C000
:1045B0006FC0BFFEAA8537550140130505C06FC007
:1045C0003FFE82808566938606B42E87AA8763F3B2
:1045D000A600B6871396070141829306005A6374BA
:1045E000D6009307005A939507018947C181630557
:1045F000F70263E6E7008547630AF70082808D478C
:104600006302F70291476305F70282803755014044
:10461000130505C06FC0BFF737550140130505C02E
:104620006FC05FF737550140130505C06FC0FFF637
:1046300037550140130505C06FC09FF60111930760
:10464000D012231501002314F10089472305F1003E
:104650002800854706CE3EC6EFC05F89F24005615F
:104660008280011122CC26CA2E84AA848545094560
:1046700006CEEFC0FFA82312810037040040C147D7
:104680004C00130504402313F1002314910023155B
:104690000100EFC0BFAA0546130504408545EFC0E1
:1046A0005FE6130504408545EFC01FE7130504408E
:1046B0008545EFC0FFE1EFF07FF8F2406244D2445D
:1046C0000561828001119307E02223150100231464
:1046D000F10089472305F1002800854706CE3EC634
:1046E000EFC0DF80F24005618280011122CC26CA32
:1046F0002E84AA848545114506CEEFC07FA02312E3
:10470000810037140040C1474C0013050480231377
:10471000F1002314910023150100EFC03FA20546CC
:10472000130504808545EFC0DFDD13050480854552
:10473000EFC09FDE130504808545EFC07FD9EFF001
:104740007FF8F2406244D244056182803715004010
:104750005D7185451305058082E686E48AE28EE078
:1047600012FE16FC1AFA1EF82AF62EF432F236F071
:104770003AEE3EEC42EA46E872E676E47AE27EE021
:10478000EFC0FFE3371501409305001013050580C6
:10479000EFC0AFBAB9263660A66016618661727244
:1047A000E2725273C2733275A275127682767267A4
:1047B000E2675268C268326EA26E126F826F6161E8
:1047C00073002030411122C407A50186370500205F
:1047D0001305051A06C613840186EFF03FB348603F
:1047E000370500201305C526EFF05FB208643705D2
:1047F000002013058533EFF07FB18317C4001385C4
:10480000C1B453F507D0EFF07FB08317E4001385F0
:1048100081C153F507D0EFF07FAF83170401224425
:10482000B24053F507D0138541CE41016FF01FAE62
:104830003705002041111305051A06C622C4EFF002
:10484000BFB1370500201305853327AAA18CEFF0EF
:10485000BFB0370500201384418D1305C52648E0FD
:10486000EFF09FAF1385C1B408E4EFF0FFAED317AC
:1048700005C0138541CE2316F400EFF0FFADD3172A
:1048800005C0138581C12317F400EFF0FFACD317E7
:1048900005C0B2402318F40022444101828037054C
:1048A00000401D7185451305054082E686E48AE2D5
:1048B0008EE012FE16FC1AFA1EF82AF62EF432F2D8
:1048C00036F03AEE3EEC42EA46E872E676E47AE208
:1048D0007EE0A2CEEFC0BFCEEF007018EFF06FEC1D
:1048E0000DE5EFF03FEEEFF0BFF403A781818947BC
:1048F000630DF70083C7D181A5E703D541849307F2
:10490000306A63FCA702EF00301A76443660A66076
:10491000166186617272E2725273C2733275A27549
:10492000127682767267E2675268C268326EA26E51
:10493000126F826F2561730020308545EFF0FFBD57
:1049400003D541848945EFF05FBD03D541848D4592
:10495000EFF0BFBC03D541849145EFF01FBC75B7A4
:10496000EF00502E5DB7397185453705020006DE30
:1049700022DC02CA02CC02CE02D002D202D402D67B
:1049800002C602C8EFC0CFF785451145EFC06FF5ED
:104990009147231AF100371401408D473ECC4C0853
:1049A000E147130504803ECEEFC00F9AA1474C08A3
:1049B000231AF1001305048091473ECEEFC0CF9833
:1049C000B77706009387078A3ED0B7070C003ED41E
:1049D000930760032316F100680085473EC83744FB
:1049E000004002D22316010223070100EFC00FD0BE
:1049F000130504408545EFC0FFCA0C1013050440A1
:104A0000EFC0DFBC13050440054693055052EFC0CC
:104A10003FCBF250625421618280411122C406C60C
:104A20002A84EFC0FFCD03C701EB138601EC930787
:104A3000170093F7F70F32972300A7002388F1EAB6
:104A4000130700046394E700238801EA8129228583
:104A50002244B2409305505241016FC0DFCB1D711B
:104A6000A2CE37440040930550521305044082E61D
:104A700086E48AE28EE012FE16FC1AFA1EF82AF686
:104A80002EF432F236F03AEE3EEC42EA46E872E6B6
:104A900076E47AE27EE0EFC0FFC801CD9305000224
:104AA00013050440EFC07FC609C513050440EFF0AD
:104AB000DFF676443660A660166186617272E27235
:104AC0005273C2733275A275127682767267E2678C
:104AD0005268C268326EA26E126F826F25617300D7
:104AE0002030411122C407A5418D06C61384418D93
:104AF000EF30703C2A8637A50000AE861305C5A4AA
:104B0000EF10D0354860EF30103B2A8637A5000003
:104B1000AE861305C5A5EF1070340864EF30B039C8
:104B20002A8637A50000AE86130505A7EF101033BF
:104B30008315C40037A50000130545A8EF101032F7
:104B40008315E40037A50000130585A9EF10103187
:104B50008315040137A50000130505ABEF101030D5
:104B600037540140130504C0EFC0FFA3AA8537A541
:104B70000000130545ACEF10702E130504C0EFC004
:104B8000FFA2AA8537A50000130505ADEF10102D73
:104B9000130504C0EFC0FFA1AA8537A500001305C7
:104BA000C5ADEF10B02B130504C0EFC0FFA0AA8560
:104BB00037A50000130585AEEF10502A83A5C187E5
:104BC00037A50000130545AFEF10502983C7C181F9
:104BD0000947639FE70237A500001305C5AFEF1033
:104BE000302A83C7D181B1E337A50000130585B30F
:104BF000EF10102983A741810547639DE70237A580
:104C00000000130505B62244B24041016F10502741
:104C100005476397E70037A50000130505B1C1B745
:104C200037A50000130545B25DBF37A50000130589
:104C3000C5B47DBF09476397E70037A5000013059A
:104C400045B7D1B7B24022444101828001479386E3
:104C500001DB130800109377F70F21469395170097
:104C6000E207E187FD87E98F93F5E50F7D16AD8FAC
:104C700075F63306D7002300F6000507E31D07FD90
:104C80008280AA958147138701DB6314B5003E85B6
:104C9000828005058346F5FFB58FBA9783C7070065
:104CA000EDB783C701EB6365F500238801EA8280D5
:104CB000898F93F7F70F2388F1EA938601EC014778
:104CC0003306A7003696834506003306D70005074E
:104CD0002300B600E316F7FE8280034745008346B3
:104CE00035001D8B2207558F23AAE1860347450017
:104CF0009387418793563700034755001377F7038F
:104D00001607558FD8C3834655000347650099821F
:104D10000A07D98E03477500058B2A07558F98C758
:104D20000347750093561700034785003D8B1E0708
:104D3000558FD8C703478500935647000347950012
:104D40001377F7071207558F98CB834695000347D3
:104D5000A5009D820607D98E0347B5000D8B260757
:104D6000558FD8CB0347B500935627000347C5009E
:104D70007D8B1A07558F98CF0347C5009356570070
:104D80000347D5000E07558FD8CF0347F50083465C
:104D9000E5001D8B2207558F98D30347F5009356E6
:104DA0003700034705011377F7031607558FD8D34C
:104DB000834605010347150199820A07D98E0347E7
:104DC0002501058B2A07558F98D703472501935650
:104DD0001700034735013D8B1E07558FD8D7034772
:104DE000350193564700034745011377F70712072C
:104DF000558F98DB83464501034755019D82060781
:104E0000D98E034765010D8B2607558FD8DB0347E5
:104E1000650193562700034775017D8B1A07558F4F
:104E200098DF0347750193565700034785010E0726
:104E3000558FD8DF8280011106CE03474500834796
:104E400035006C0022075D8F834755002946C20755
:104E50005D8F83476500138541EBE207D98F3EC61E
:104E6000EF301050F2400561828003C701EC9307D8
:104E7000800C6314F702938701EC83C72700514726
:104E80006389E7005947639AE700138501EC6FF0E7
:104E9000DFE4138501EC6FF01FFA8280011126CA4E
:104EA0004AC84EC652C456C206CE22CC5AC0854904
:104EB000938401EC130AB00303C701EB63F6E90422
:104EC00003C414009307D4FF93F7F70F6376FA0037
:104ED0000545EFF01FDDCDB79307140063D6E70259
:104EE000A69703CB07009305F4FF93F5F50F138501
:104EF00021ECEFF01FD9E31DABFCEFF01FF713051A
:104F000024001375F50FF1B7F2406244D2444249D0
:104F1000B249224A924A024B05618280797122D4B9
:104F200037040020832784044AD006D626D222EEF6
:104F300026EC4AEA4EE852E656E45AE25EE0138571
:104F400001F5829737A70000872B87B937A70000A4
:104F5000072BC7B937A70000872407BA37A7000077
:104F6000072447BA37970000872A47D9B7A7000018
:104F70009304840487A747B9938701F527AA77018B
:104F800027AC6701C4E780EB27AA570323A20700D9
:104F900023A40700DC4027A8F1F4138501F58297CC
:104FA00083278404138501FF829737A70000872990
:104FB000C7BA37A70000072907BBB7A7000007AA91
:104FC00087BA938701FF27AA370127AC2701C4E7D7
:104FD00080EB23A2070023A40700DC4027A841FFA1
:104FE000138501FF829783278404138501FA829732
:104FF000B7A7000087A747BB37A70000938701FA30
:1050000027A0F1FA872787BB27AA770127AC67017A
:10501000DCE39CE7C4E780EB27AA5703DC40138559
:1050200001FA829783278404138501098297938765
:10503000010927AA370127AC2701C4E780EB23A287
:10504000070023A40700DC4027A8410913850109B4
:10505000829783278404138501048297B7A70000F1
:1050600087A7C7BB9387010427AA770127AC6701ED
:10507000C4E780EB27AA570323A2070023A4070055
:10508000DC4027A0F1041385010482978327840460
:10509000138501F08297938701F027A041F11385D2
:1050A00001F0225427AA370127AC2701C4E780EB7F
:1050B00003A34400B250925402597264E2645269EC
:1050C000C269326AA26A126B826B23A2070023A410
:1050D0000700456102839307803E63DDA700130547
:1050E00085C1B7A70000537505D087A787B853754A
:1050F000F51082809307803D530500F0E3CBA7FEB7
:10510000130575C2F9BF9307800C63F7A702130557
:1051100085F3B7A70000420587A6C7B84181B7A7A6
:105120000000D37705D007A707B9C3F7D770539509
:1051300017C042054181828013056054828083A795
:1051400041889387779093B7070193C71700A38E81
:10515000F180828003A7C188BD46130677909387AC
:10516000C18163E6C60009472380E70082801307F8
:1051700027C2D14663E4E6000547FDB72380070058
:10518000828007A50184B707002003A3470587A5F0
:10519000C18DB7A7000087A707BC1385010453750D
:1051A000F50802838397418E3707002003234705C4
:1051B000D3F507D007A54106138501F0028307A5A3
:1051C000818487A70183B707002003A34705537590
:1051D000F50087A5418D138501F502838397018E24
:1051E0003707002003234705B307F040D3F507D066
:1051F00007A541F7138501FF028387A5818D07A5C8
:10520000C183B707002003A34705B7A7000087A7FE
:1052100007BCD395B5205375F508138501FA0283B1
:105220008397218E3707002003234705B307F040FB
:10523000D3F507D007A541FC13850109028383A795
:1052400001891307F00B6396E700054723AAE18065
:10525000828013070070E39DE7FE0947C5BF411137
:1052600026C222C413844187484406C6EFF0BFE635
:1052700003A5418727A4A184EFF0FFE5484027A0BC
:10528000A184EFF05FE5084427AEA182EFF0BFE70D
:105290002392A184EFF0BFEAEFF0DFEB2244B240AB
:1052A000924441016FF0BFF9011106CE22CC26CA0B
:1052B0004AC84EC6EFF0FFECEFF0DFEEEFF0FFF381
:1052C000EFF01FF6EFF0BFEFEFF05FF187A7418D32
:1052D00003D5418427A8F18207A5410BD37705D0D8
:1052E00087A541F253F7A70007A64101D3F7A70806
:1052F000D376B7005377B708D3F6C6005377C708FD
:105300008565938505B493844184539616C05317DD
:1053100017C053F7F500D3F7B7084206420741829A
:105320005377C708D3F7C7084183239AC182239BC9
:10533000E182D31617C0D39717C013884183C206E2
:10534000C207C182C183239CD182239DF1829389AC
:105350006183138981831384A18363F8C5062310B5
:10536000B8000566130606B4637AE6062390C90002
:105370000567130707B4637CD7062310E9000567A8
:10538000130707B4637CF7062310E40083A7418169
:105390000547639EE706035508008545EFF0EF9744
:1053A00003D509008945EFF04F97035509008D4556
:1053B000EFF0AF960355040091456244F240D244A9
:1053C0004249B24905616FF04F959305F059E3EA00
:1053D000C5F81306005A2310C80061B71306F05928
:1053E000E368E6F81307005A2390E90051B7130762
:1053F000F059E366D7F81307005A41B71307F0597D
:10540000E366F7F89307005A2310F40041B7094701
:105410006393E7028545EFF04F9003D5040089457B
:10542000EFF0AF8F03D504008D45EFF00F8F91455E
:1054300003D5040059B7F2406244D2444249B2490C
:1054400005618280411185451305005A06C6EFF0BB
:10545000CF8C89451305005AEFF02F8C8D4513052D
:10546000005AEFF08F8BB24091451305005A41016D
:105470006FF0AF8A232005002322050023240500B6
:105480002326050023280500232C0500232A0500D8
:1054900023220502232405022326050223280502D0
:1054A000828023200504232E0502232C05022322BB
:1054B00005022328050223260502232405022326AC
:1054C00005042324050423220504828023260504E1
:1054D000232405042322050423200504232E05028A
:1054E000232C050223280502232605022324050276
:1054F00023220502232E05002320050282803C651D
:105500000CF1D375B508746150757CE558611C6168
:105510006CE143F7E560D3F7F510D3F5D508507D7E
:1055200048ED086534E530E15469107D0CFDD3F594
:10553000A510D397E6A01CF558F550FD0CF999C3BA
:1055400054F529A0146DD317D7A0FDFB5875D3F7D8
:10555000E700D3F5B7005C65D397B7A04CF199C3CA
:105560005CF129A01C69D397F5A0FDFB8280411155
:1055700006C622C4EFF02FBFEFE0CFF975FDEFE0D4
:10558000BFF40964EFE00FD3EFE07FD2EFF01F9993
:10559000EFE0BFDE9305F4C14D45EFF08F8C93052E
:1055A000F4C11305301FEFF04F942244B24037A5E9
:1055B0000000130545BC41016F10800C828083A759
:1055C000818037177A0013070720B3D7E70293F7D4
:1055D000F70F2387F1841307803EB387E7022396F2
:1055E000F1848280B7F700E0D8438146799BD8C325
:1055F00003C7E1843306A70290CBD4CB984313674B
:10560000070198C398431367170298C3D843058BC3
:1056100075DF9843799B98C38280B7F700E0D84341
:105620008146799BD8C303D7C1843306A70290CBA8
:10563000D4CB98431367070198C3984313671702A5
:1056400098C3D843058B75DF9843799B98C38280B4
:10565000797122D42A8411658545110506D6EFB0EB
:105660005FA8930700202312F100371501408D47F2
:105670003EC44C00E147130505803EC6EFB0CFCCD9
:1056800022C837440140B70708000C0813050480FE
:105690003ECC02CA231E0100EFB05FF31305048065
:1056A0008545EFC02F80B2502254456182800111A0
:1056B00026CAB744014022CC4AC84EC606CEAE899F
:1056C0003289014493840480634A2401F240624495
:1056D0004A85D2444249B24905618280930500045B
:1056E0002685EFC08F827DD9B38789008385070027
:1056F00026850504C205C181EFB0FFFFF1B75D71DA
:10570000A2C422FE26FC86C6138401825304A5206F
:105710007D201840FD57D304A520630FF700D32741
:1057200084A099CB5305842061279737000087A771
:10573000A766D397A7A089EBB6402644538594204B
:105740007274E274616182805305842085473EC48F
:1057500097470000938787483EC602D4EF20B07574
:105760002A87174500001305A5343ACC3AC82ECE37
:105770002ECA352318402AD02ED289476305F70256
:105780002800212B0DC1A2578DE702559255EF300D
:105790000001D304A520B64026445385942072749A
:1057A000E27461618280EF30C038930710021CC13F
:1057B000D9BFEF300038A2571CC1C1BF91ACD3078D
:1057C00005E0011122CC1394170006CE26CA22E66A
:1057D00026E44AE24EE03707803F05806304E41286
:1057E000634D87103707003FBE84635EE4123707BE
:1057F00000326356E418174700008727273FD37706
:10580000F50017370000872927595397F9A069EF4A
:10581000538507F0712D53F5A9089747000007A499
:1058200027379747000007A6E73C9747000087A760
:10583000273C9747000087A4273C5374851097475F
:10584000000007A7A73C9747000087A5273B97477D
:10585000000007A9673B9747000007A5673BC37790
:10586000F460437924719747000087A6673997470A
:10587000000007A727399747000007A6A739C3F4F8
:1058800087484379895053058420C3F48458437969
:105890008960C3F4846843798998C3F48470052EC1
:1058A00037A7793F13079799D30705E0D3F48410FE
:1058B00063508708D3F42419D38607F017470000F4
:1058C0000727873517470000872747351747000008
:1058D00007258731C3F49668C3F4E47853759508B7
:1058E000634490005315A520F2406244D2443264D0
:1058F000A26412698269056182805375A508537597
:10590000A518DDB7D38707F0174700000725872DB7
:10591000538707F053F5A710174700008727C72CB8
:105920004375F750D1B7173700008729E746CDB543
:105930007D777D8FD30707F0530707F0D3F4241941
:105940004BF4F740D375E5009746000087A6C62CB8
:105950009746000007A60629D377A50097470000C1
:1059600007A5072C4B77D7505374B4184B74D460E9
:10597000C7F49740D3F4E4085375950895B7537767
:10598000A510174700008725E7261747000087273F
:1059900027261747000087262726174700000726D7
:1059A000E725C377F758174700000725E72517476E
:1059B00000008725A7254375A75817470000072033
:1059C0002725C3F7E7681747000087256723174790
:1059D0000000872627234375E500174700000720AE
:1059E0006723C3F7E760173700000726E73A4375D8
:1059F000E500C3F7E7584375E560C3F7E768D3F7F9
:105A0000E71053F5A718D38707F043F5A778E9BD4A
:105A1000538705E0B707008093C7F7FFB3F5E700AA
:105A20003706807FD30605E06349B604F58FB68854
:105A30006345F6043708803F63090711411122C40A
:105A40001354E741098813D8F60106C633640401EC
:105A500095EF89476300F40C8D47530605E0631802
:105A6000F4009747000087A7271C538607E0B24041
:105A70002244530506F041018280D30707F0538783
:105A800006F0D3F7E7005385F7208280ADC5638A1F
:105A9000C5086382C7068D8FDD871306C003634781
:105AA000F60A63580700930540FC1306000063CC18
:105AB000B700538506F0D30707F05375F518CD2EC0
:105AC000F522530605E08547630AF40C894763060F
:105AD000F40A51DC530706F09747000087A7071622
