:040000006F0070011C
:100004000000000000000000EE050000F205000002
:1000140000000000140800000000000000000000C0
:100024001408000014080000000000000000000094
:1000340070540000000000000002000000000000F6
:10004400140800001408000014080000140800003C
:10005400140800001408000014080000140800002C
:10006400140800001408000014080000140800001C
:10007400140800001408000014080000140800000C
:1000840014080000140800001408000014080000FC
:1000940014080000140800001408000014080000EC
:1000A40014080000140800001408000014080000DC
:1000B40014080000B2460000D045000014080000F7
:1000C40014080000140800001408000014080000BC
:1000D400140800001408000054480000140800002C
:1000E400140800001408000014080000140800009C
:1000F400140800001408000014080000140800008C
:100104000000000014080000140800001408000097
:10011400140800001408000014080000140800006B
:10012400140800001408000014080000140800005B
:10013400140800001408000014080000140800004B
:10014400140800001408000014080000140800003B
:10015400140800001408000014080000140800002B
:10016400140800001408000014080000140800001B
:10017400140800001408000014080000140800000B
:1001840014080000140800001408000014080000FB
:1001940014080000140800001408000014080000EB
:1001A400000000000000000000000000000000004B
:0C01B4000000000000000000000000003F
:10020000130181F806C216C41AC61EC822CA26CC1B
:100210002ACE2ED032D236D43AD63ED842DA46DC76
:100220004ADECEC0D2C2D6C4DAC6DEC8E2CAE6CC46
:10023000EACEEED0F2D2F6D4FAD6FED8F3220030CF
:1002400096DA9702002083A262EE23A02200F32513
:1002500010342EC09305000273A0458003A1C18213
:10026000EF50204117030020032343EC0321030038
:10027000824273901234D652739002309240A2425E
:100280003243C2435244E244724582551256A2564A
:100290003257C2575258E25872598649164AA64AEE
:1002A000364BC64B564CE64C764D865D165EA65ECA
:1002B000365FC65F13018107730020301300000012
:1002C00013000000130000001300000013000000E2
:1002D00013000000130000001300000013000000D2
:1002E00013000000130000001300000013000000C2
:1002F00013000000130000001300000013000000B2
:1003000083A2C182938202E073900234170100201D
:100310000321C1E1024182403243C2435244E244DC
:10032000724582551256A2563257C2575258E25859
:1003300072598649164AA64A364BC64B564CE64C6D
:10034000764D865D165EA65E365FC65FD652A1020A
:1003500073900230A24213018107828013000000D3
:100360001300000013000000130000001300000041
:100370001300000013000000130000001300000031
:100380001300000013000000130000001300000021
:100390001300000013000000130000001300000011
:1003A0001300000013000000130000001300000001
:1003B00013000000130000001300000013000000F1
:1003C00013000000130000001300000013000000E1
:1003D00013000000130000001300000013000000D1
:1003E00013000000130000001300000013000000C1
:1003F00013000000130000001300000013000000B1
:10040000F322003093F272FF130380781203B3E2F9
:100410006200711523205500130585FA10C12115BE
:10042000232005009302000063870200711523203A
:100430000500FD12D5BF71150CC1828000000000BF
:1004400000000000000000000000000000000000AC
:10045000000000000000000000000000000000009C
:10046000000000000000000000000000000000008C
:10047000000000000000000000000000000000007C
:10048000000000000000000000000000000000006C
:10049000000000000000000000000000000000005C
:1004A000000000000000000000000000000000004C
:1004B000000000000000000000000000000000003C
:1004C000000000000000000000000000000000002C
:1004D000000000000000000000000000000000001C
:1004E000000000000000397101436EC619A0397187
:1004F00041536AC866CA62CC5ECE19A039710153F5
:100500005AD056D252D44ED64AD826DA22DC06DE4B
:1005100033016140828241114AC026C222C406C60C
:100520008282B24D4101024D924C224CB24B4101AC
:10053000024B924A224AB249410102499244224462
:10054000B240410182803D432A876373C30293779F
:10055000F700BDEFADE5937606FF3D8ABA960CC372
:100560004CC30CC74CC74107E36BD7FE11E2828036
:10057000B306C3408A069702000096966780A600DD
:100580002307B700A306B7002306B700A305B700EB
:100590002305B700A304B7002304B700A303B700E3
:1005A0002303B700A302B7002302B700A301B700DB
:1005B0002301B700A300B7002300B700828093F5A2
:1005C000F50F93968500D58D93960501D58D61B76E
:1005D000939627009702000096968682E78086FA17
:1005E0009680C1171D8F3E96E374C3F8A5B77300BC
:1005F000203001A0EFF2BFEF03C7D181BE8955EFD4
:1006000013844180184085476314F70C3795000028
:100610001305C57DEF80000C09472320040023AC9F
:10062000E1803E84B797000083AB477DB797000019
:1006300003AB877D8144B70A0020130A803E2685DC
:10064000EF70B028DE85EF704037DA85EF60503EFE
:1006500013898A0C2320A900EF70D021420585451B
:100660004181EF30705E032509008504EF70902012
:10067000420589454181EF30305D03250900EF7067
:10068000701F42058D454181EF30105C0325090044
:10069000EF70501E420591454181EF30F05A0545FB
:1006A000EF50000DE39D44F9379500001305057FD9
:1006B000EF804002854723ACF18083C7D181054795
:1006C0006398E70023A2F18023ACF180EF40F03E75
:1006D00099BDEFF25FE40945EF00301FEF50C00213
:1006E0001305500DEF40E033716513050520EF5001
:1006F000C00B83A5818037A5000013050580EF702E
:10070000306C37A5000013050581EF70B07CEF4019
:100710005051EF40D055F93DEDBFB7170240984317
:10072000B706FFF041111367170098C3D843370687
:100730000200758FD8C39843B706F7FEFD16758F74
:1007400098C39843B706FCFFFD16758F98C3D8432E
:10075000B70601FFFD16758FD8C39843B70600ECA6
:10076000FD16758F98C33707FF0098C723A60702A9
:1007700002C402C69843C166558F98C3B71602409B
:1007800005679C42F18F3EC6A24785073EC4B2472B
:1007900081E7A247E397E7FEB71702409C43139710
:1007A000E7006357070685473EC632478547631F04
:1007B000F704B7170240D843B706C1FFFD16D8C3E8
:1007C000D843D8C3D84313670740D8C3D843758FDD
:1007D000D8C3D843B7061D00558FD8C39843B70672
:1007E0000001558F98C3984393166700E3DD06FE1A
:1007F000D843B7160240719BD8C3D843136727006C
:10080000D8C32147DC42B18BE39EE7FE41018280E1
:1008100002C661BF01A0970100209381210B1771CF
:1008200000201301217E17A500001305653397F5FD
:10083000FF1F9385257D1386818363FAC50083227C
:10084000050023A0550011059105E3EAC5FE170533
:1008500000201305258B938581DC6377B500232069
:1008600005001105E36DB5FEFD42739002BCFD422B
:1008700073904280B78200009382028073900230AE
:1008800097F2FFFF9382427893E2320073905230E6
:10089000EFF0BFE8970200009382E2E37390123416
:1008A00073002030EFF23FC7B7270140938707401E
:1008B000631DF500854513050020EF00F0248145F8
:1008C00013050020EF0050248DB9B73701409387FE
:1008D0000780E31BF5FE854513050040EF00D0229D
:1008E000814513050040F9BF5C413707F1E013076C
:1008F000F7EF944D7D8F9C41D58FD44DD58FD4414A
:10090000A206D58FD98F5CC11C4537F7F1FF1307BD
:10091000D77FD4457D8F9C49D58F94458606D58F4A
:10092000D98F1CC55C55370710FF7D177D8FDC29DB
:10093000FD1793F7F70FD207D98F5CD582801C453E
:1009400089C593E717001CC58280F99BEDBF1C4544
:1009500089C593E707101CC5828093F7F7EFE5BFC1
:100960001C4593E787001CC5828008450D810589D9
:1009700082801C4593E747001CC582800845098199
:10098000058982801C4591C537075000D98F1CC549
:1009900082803707B0FF7D17F98FD5BFA54763F772
:1009A000B7048D47138765FF3307F7020328C50097
:1009B0009D47B397E70093C7F7FFB3F70701B396D7
:1009C000E600DD8E54C5994763E3C70495477D165D
:1009D0003306F6025859FD47B397C70093C7F7FF90
:1009E000F98F3396C5005D8E50D982800D473387CD
:1009F000E502032805019D47B397E70093C7F7FF7A
:100A0000B3F70701B396E600DD8E14C96DBFB14799
:100A100063E2C702954765163306F6021859FD478B
:100A2000B397C70093C7F7FFF98F3396C5005D8E64
:100A300010D9828095474D163306F6025855FD476A
:100A4000B397C70093C7F7FFF98FB395C500DD8D46
:100A50004CD582805C4191C537070004D98F5CC1B9
:100A60008280370700FC7D17F98FD5BFEFF2BFAA50
:100A700001112A8423040100A5441C8463F8F404B2
:100A800023040100A54621461C8463FCF6062315B9
:100A900001002304010095461C8463FEF60C388592
:100AA0003C8599460D46B3F7D702056513050580C9
:100AB000B3D7C7023357D702BA97C207C1837C8521
:100AC0003C8505611D8D4205418585BC1C4493E72D
:100AD00087001CC42285513D75FD1C4493E74700E7
:100AE0001CC42285613D75FD78441C841410860762
:100AF000B6972396E7FE1C84850793F7F70F5C846F
:100B0000ADBFA30401009C846378F6001C848507B4
:100B100093F7F70F5C848DBF98849C840C100607B4
:100B2000850786072E97AE970357C7FE83D7C7FE64
:100B300063FDE7029C848607AE9783D7C7FE7C855A
:100B40009C84988485078607AE9783D5C7FE931744
:100B500017001810BA972396B7FE9C8438850C109E
:100B600085078607AE972396E7FE9C84850793F753
:100B7000F70FDC8449BF1C8410103885890786076D
:100B8000B29783D7C7FEBA97C207C1837C851C84FE
:100B9000850793F7F70F5C8401B71C41416779170C
:100BA000F98F1CC123200500232205002324050002
:100BB000B707024023260500138787006317E50067
:100BC000D8431367F700D8C382801387C701631621
:100BD000E500D8431367070FFDB7138707036318B2
:100BE000E500D8438566938606F0558FE9BF1387E5
:100BF00047046315E500D843BD66C5BF1387870565
:100C00006316E500D843B7060F00C5B71387C706BC
:100C10006316E500D843B706F000C1BF1387070885
:100C20006316E500D843B706000FC1B713878740A6
:100C30006319E50003A747401367F70023A2E740C5
:100C400082801387C7416317E50003A747401367F6
:100C5000070FEDB793870743631BF500B707024003
:100C600003A747408566938606F0558FC1BFB70737
:100C70000240138747446316E50003A74740BD665B
:100C8000EDB7138787456317E50003A74740B7060D
:100C90000F00E1BF1387C7466317E50003A747406E
:100CA000B706F000D9B7138707486317E50003A715
:100CB0004740B706000F55BF138707496319E50082
:100CC00003A7474D1367F70023AAE74C82801387D9
:100CD000074A6317E50003A7474D1367070FEDB7F2
:100CE0001387074B6319E50003A7474D8566938675
:100CF00006F0558FD1BF1387074CE319E5FC03A716
:100D0000474DBD66FDB71C4161773D0794517D8F0E
:100D10009C45D58F9449D58FD449D58F944DD58F87
:100D2000D44DD58FD451D58F9455D58FD98F1CC123
:100D3000DC455CC19C411CC5DC415CC582801C411A
:100D400089C593E717001CC1828041677917F98F25
:100D5000DDBF9C4513F7070113F8F70001C7D84121
:100D60003368E8008E2113F7F50F39C31841814627
:100D7000854E3D4F930F800293028004214E33969F
:100D8000DE00B3F8C50063111603939826003313F1
:100D90001F011343F3FF3377E300B318180133E760
:100DA000E800639FF70550C98506E39AC6FD18C1A0
:100DB0001307F00F6375B70454412146854E3D4F2C
:100DC000930F800293028004414EB398CE0033F714
:100DD00015016392E8021317260001173313EF0081
:100DE0001343F3FFB376D3003317E800D98E639D26
:100DF000F701232A15010506E319C6FD54C18280B7
:100E0000E39457FA10C94DB7E39757FE232815010D
:100E1000DDB708456D8D3335A00082800CC9828016
:100E200019C20CC982804CC98280B7070140635A3D
:100E30000504DC4F935605011318050137073000F0
:100E400013F6F60013580801B376E5006350050663
:100E5000639BE602930606010D46B316D60093C6C1
:100E6000F6FFF58F99C9135755011377F73F12070E
:100E70003317E800D98F63570504370701405CCF6B
:100E80008280DC4345BF1317B500635607008D46CB
:100E9000B396C600E9B7135755011377F73F12070A
:100EA0003317E8001347F7FFF98F6DBF6390E60231
:100EB000370601405442370700F17D17F98F758FCF
:100EC00058C2D5F1370701405CC382801317B500C3
:100ED000635C07008D46B396C60093C6F6FFFD8E91
:100EE000B707000FD58FF1BF1357550112073317FE
:100EF000E8001347F7FF7D8FB707000FD98FD1B7F1
:100F0000EFF26FE1797146212A8468082EC62D24FC
:100F1000925737470F001307072433D7E702C2045D
:100F2000C18093F404FCC2049306C003C180B2459F
:100F300063F4E6001307C003131607014182D18C46
:100F400046A0162061651305056AC206C182F99A9A
:100F5000C206C18216A094416369D5048606B3D740
:100F6000D7029146139707014183BA876373D7006D
:100F7000914705064206C2074182C18312B05EACAA
:100F80001E20DA21B62593E717001EA01E20558FDC
:100F9000C207C18393F757BFD98F1EA09A25DE25BC
:100FA000D98F1EA445616FF04FD9EA2131667D16B5
:100FB000631DC5020D46B386C602B3D7D702C2076A
:100FC000C1839396470199E293E71700A166D58FF5
:100FD0009306C0123307D7029306803E3347D702E9
:100FE0000507420741831AB059BF6546B386C6025A
:100FF000B3D7D7029166C207C183D58FD9B71E2157
:1010000089C593E717001EA18280C207C183F99B9F
:10101000C207C183CDBF1E2189C593E707101EA15A
:101020008280C207C18393F7F7EFC207C183C5BFB0
:101030001E2189C593E707201EA18280C207C183B4
:1010400093F7F7DFC207C183C5BF1E2189C593E7A8
:1010500007401EA18280C207C18393F7F7BFC20772
:10106000C183C5BF0EA982800A291375F50F82803E
:1010700093F7E50F19C293E71500C207C1831EA9B4
:1010800082805E290A2D42055D8D6D8D22052181AC
:101090000D8D133515008280411102C402C693D70D
:1010A000C5012AC63EC4A247A205A18199CBB24779
:1010B000D1073EC6B247884341016D8D3335A0004C
:1010C0008280B247C181E107EDB7B707002023A0B6
:1010D000A7108280B707002003A7071089471021B7
:1010E0006311F70214318D4763EDD7003C219A0656
:1010F00037E700E09607D58F93F7F70F3297230075
:10110000F74054410547935756003317C70089CA23
:10111000938707048A07B7E600E0B69798C38280F2
:1011200093870706C5BFB7160240DC4251777D178B
:10113000F98F5D8DC8C28280371702405C439146AB
:10114000B18B6385D700A1466382D706B7177A00B3
:10115000938707201CC1371602405C4237070020E6
:10116000130707009183BD8BBA9794231C41B3D713
:10117000D7005CC15442A1829D8ABA969422B3D60C
:10118000D70014C55442AD829D8A36971823B3D731
:10119000E7005CC558423983937637001387C180D6
:1011A00036971823B3D7E7021CC982805C435843A3
:1011B000C166C983758FB7F6FF1F83A6C670BD8B46
:1011C00089071396160163480600C54601466392D7
:1011D000D702C94739A88946638FD702BD46638EB7
:1011E000D702C146638ED702C54601466393D70036
:1011F000C1471DEF3747024003270780418B05C7D2
:1012000037177A0013070720B307F7021CC121D64E
:101210001C41858381B701466DBF0546B547D1BFE7
:101220000146BD47F9B737173D0013070790E9BFDF
:10123000B7150240D8559316F700D85563DF06045A
:1012400011833D8B9306170037177A001307072089
:101250003357D70218C1D455A182BD8A8DE2954675
:101260003307D702058318C1371702405857144176
:101270003D8B050733D7E60218C1184171B7854584
:101280006394B600E546E9BFBD456396B600D14616
:101290003387E602C9BF8906E5BF3D8B9306170079
:1012A00037177A00130707203357D702F1B799C5CC
:1012B000371702405C4B5D8D48CB8280B7170240E8
:1012C000D84B1345F5FF798DC8CB828099C5371768
:1012D00002401C4F5D8D08CF8280B7170240984FA7
:1012E0001345F5FF798D88CF828099C53717024065
:1012F0005C4F5D8D48CF8280B7170240D84F1345B1
:10130000F5FF798DC8CF828099C5371702405C47B9
:101310005D8D48C78280B7170240D8471345F5FF57
:10132000798DC8C782801E2137370140930607C0D8
:10133000C207C1836300D504B7060040630CD50221
:10134000938606406308D502B716004013860680D0
:101350006302C502938606C0630ED50013070740DB
:10136000630AE50037570140930607C06304D500C0
:101370006316E500BA2193F7F7F8D98F37170040C5
:10138000630CE500130707406308E50093F7F7CF08
:10139000FA21C207C183D98F1EA1DE215EB59E212D
:1013A0001EB5B7370140138707C0630EE50093876A
:1013B0000740630AF500B7570140138707C063046D
:1013C000E5006314F5009C251EB985475EA982805F
:1013D0001E31922103D82500C207C183F99BC207A1
:1013E000C1831EB11E3156211A2DC207C183420787
:1013F00041831377C7F8518F9225F59BC206336658
:101400000601D18F37360140130806C0C182630E32
:10141000050113060640630AC5003756014013084C
:1014200006C0630405016310C502B225DD9B03D825
:10143000E500D18FD221ED9B93F6F6CFD18FD22547
:1014400033660601D18E56A11AADFA215AB91EB1E2
:1014500082801E3165771307F7CFC207C183BD9B1A
:10146000C207C1831EB11E31562103D88500C207B1
:1014700013960601162DC18393F7F7FD758F9621FC
:101480004182A206558FB62142074183B3E6060189
:101490009206D58FB7360140C207138806C0C183B4
:1014A000630E050193860640630AD500B7560140D6
:1014B000138806C063040501631ED502B62593F7A1
:1014C000F7F703D8C5009206D58FD621C207C1838E
:1014D000920693F7F7FBD58FFD769386F63FF18E54
:1014E000F225C207C183336606010A06D18E139620
:1014F0000601418252A11AADFA211ABD1EB18280A5
:101500001E3103D88500C207C18393F7F7EFC207E6
:10151000C1831EB11E3156215A2DC20713960601F2
:101520004207962141831377C7F8558FB621C183AF
:1015300093F7F7DFB3E60601A206D58FB736014071
:10154000C207138806C04182C183630E05019386DA
:101550000640630AD500B7560140138806C06304ED
:101560000501631FD502FD769386F67FF58FB625BC
:1015700003D8C500A206D58FD621C207C183A20613
:1015800093F7F7BFD58FF576FD16F18EF225C207DA
:10159000C183336606011206D18E1396060141827D
:1015A00052A15AADFA215ABD1EB182801A31FD777F
:1015B000FD17F98F1EB10358050256215E2D657780
:1015C0001396060196211307F7CF7D8FF977A206B0
:1015D000FD17558FB3F70701B62103D885004207E1
:1015E0004182B3E60601B206D58FB7360140C20785
:1015F000138806C04183C183630E050193860640AC
:10160000630AD500B7560140138806C0630405017C
:10161000631BD500F176FD16F18ED2251A06D18E08
:1016200013960601418252A15AADFA212310E50416
:101630001EB182801E2189C593E717001EA18280FA
:10164000C207C183F99BC207C183CDBF835745043D
:1016500091C52167D98F2312F5048280C607C583FF
:10166000DDBF5E2501C6DD8D4EA5828093C5F5FFE9
:10167000FD8DDDBF1E2189C593E707081EA182806D
:10168000C207C18393F7F7F7C207C183C5BF1E2DF9
:10169000C207C183DD9BDD8D0EAD82801A2DFD77E3
:1016A0009387F77FF98FA205CD8FC207C1831EAD47
:1016B00082805E2DC207C183DD9BDD8D4EAD8280B1
:1016C0005A2DFD779387F77FF98FA205CD8FC2073B
:1016D000C1835EAD82804EB982800EBD82804EBDD8
:1016E00082802310B50482804A3982800A3D82803C
:1016F0004A3D828003550504828093C5F5FFC205EB
:10170000C1810EA98280EFE21FE11629F577FD174E
:10171000F58FF621DA257971D58F1EA95625FD772B
:101720009387379FF58FD6212A842EC6D58F96258D
:10173000D58FB625D58F5EA55E29C207C18393F7E5
:10174000F7CFD98F5EA96808C53AB747014093879C
:101750000780B245631EF402A2576547B387E702CC
:101760009841930640060A07B3D7E70233D7D7025A
:10177000B3F7D7021207920793872703B3D7D7028D
:10178000BD8BD98FC207C1831EA445616FE0FFDA0C
:101790009257E1B791C55E250967D98F5EA5828012
:1017A0005A25F977FD17F98FD5BF13F7F50F854740
:1017B0001583B395B7006319F7009307C5009843E5
:1017C00001CED98D8CC38280894693074501E318E9
:1017D000D7FE93070501E5B793C5F5FFF98DDDB792
:1017E00093F5F51F4EA182804A211375F51F828063
:1017F0000A216D8D3335A000828093C5F5FFC205A7
:10180000C1810EA1828013F7F50F85461583B3972A
:10181000B6006311D7025A25F98F1A2101454207F4
:10182000418381CB0545A181B315B5006D8F33355B
:10183000E000828089466314D7001A29F1BF5A2933
:10184000E1BFEFE2BFCB3704002041119304C40194
:10185000854798407C82DC40AA892E8988232C2BDE
:101860005400328A0946EF20E0261305800CEF3041
:1018700030709840DC40230201006C37882354000C
:101880000546EF2020259840DC4054004C33882347
:1018900005461304C401EF20E0239840DC405400C7
:1018A0002C2B88230546EF20E0229840DC40540092
:1018B0006C3B88230546EF20E0219840DC40540033
:1018C0004C2388230546EF20E020B1475C829840F6
:1018D000DC4054004C2388230546EF20A01F3D45E3
:1018E000EF3010699C54984054009C3705465C8248
:1018F000DC402C238823EF20E01D9C5498405400AA
:101900009C2705465C82DC400C338823EF20801C3A
:101910001C54BC2763040A0093E7070E5C8218403E
:101920005C4054006C2388230546EF20A01AE14751
:1019300063060A001C54BC3793E7070E5C8218400C
:101940005C4054006C3388230546EF20A0186306E2
:101950000A001305800CEF30B061930700045C822D
:1019600018405C4054004C23882305468144EF20F6
:101970006016930780075C8218405C4054004C332B
:1019800088230546EF20001513052003EF30505E35
:1019900018405C40230201004C3388235400054664
:1019A000EF2040135C401840540088232C27094640
:1019B000EF204032034A41009C8223A40900220AFE
:1019C000336AFA00B147335AFA0223A2090023A06E
:1019D0000900232409002322090023200900137A87
:1019E000FA0F6391441503A50900130630088146D8
:1019F0009357F541C20793550501DD8D4205EF4030
:101A0000807A26868146EF40007A23A0A90003A5AC
:101A100049001306300881469357F541C207935594
:101A20000501DD8D4205EF40007826868146EF40B6
:101A3000807723A2A90003A58900130630088146F8
:101A40009357F541C20793550501DD8D4205EF40DF
:101A5000807526868146EF40007523A4A9000325E2
:101A60000900268681469355F54193570501139742
:101A700005015D8F9355F741420593F5F57FB387D7
:101A8000A500B3B5B700BA95AD83139555015D8D2B
:101A9000AD85EF4040712320A9000325490026862B
:101AA00081469355F54193570501139705015D8FC5
:101AB0009355F741420593F5F57FB387A500B3B57C
:101AC000B700BA95AD83139555015D8DAD85EF4097
:101AD000806D2322A900032589002686814693551F
:101AE000F54193570501139705015D8F9355F74114
:101AF000420593F5F57FB387A500B3B5B700BA9556
:101B0000AD83139555015D8DAD85EF40C069C177FB
:101B10006343A000C1673E952324A900014541010C
:101B20006FE01FA118405C4054002C3788233146D9
:101B30008504EF20201A18839C83948422075D8FEC
:101B40001C8490824207A207D58F14824187C20766
:101B5000A206D18E03260900C206C186B2962320B2
:101B6000D90083264900C187908536972322E90052
:101B700003278900948793F4F40FBA9718862324D7
:101B8000F9009C8622075D8F1C8742074187A207C8
:101B9000D58F1485C207C187A206D18E03A609007E
:101BA000C206C186B29623A0D90083A64900369703
:101BB00023A2E90003A78900BA9723A4F90015B569
:101BC000EFE27F95370400209307C40183C74702E3
:101BD00041111304C40185C711C10945C8875C4080
:101BE00018409306F10088236C370546EF10906E7D
:101BF0009C871CB881473E8541016FE01F943824C3
:101C0000FD5775DB19C51838814775F78547DC879F
:101C1000F9B7A3070100E1B7EFE2FF8F3704002017
:101C20009307C401BC2741117D55C5CF1304C401DE
:101C300018405C40A30701006C3788239306F1002D
:101C40000546EF10306918405C409306F1004C33B4
:101C500088230546EF1010685C4018409306F10099
:101C600088234C230546EF10F06683474402ADCF2E
:101C7000B147DC8718405C409306F1004C23882371
:101C80000546EF10306513052003EF30702E9307E3
:101C900000FCDC873C24858B99C38157DC875C4042
:101CA00018409306F10088234C230546EF109062FC
:101CB0001C3891C38947DC8718405C409306F100CB
:101CC0006C3788230546EF10F06018405C40A3078E
:101CD00001009306F10088234C330546EF10905F16
:101CE000014541016FE07F859147DC8718405C40EA
:101CF0009306F1004C2388230546EF10B05D3C2885
:101D00001307000491E73C24858B99C31307000651
:101D10005C40D887184088239306F1004C23054681
:101D2000EF10505B13052003EF3090241C3818404F
:101D30009306F100B337F000DC875C406C37054652
:101D40008823EF10305918405C409306040161B7B6
:101D5000B707002083C7470205476381E70291CB9D
:101D600009476380E7020D476380E70223100500FF
:101D700021A09307A00F1EA1014582809307401F59
:101D8000DDBF9307803EC5BF9307007DEDB7EFE24F
:101D90008FF8370400209307C401BC27411189CF75
:101DA0009307401F1304C401630CF50463E8A70004
:101DB0009307A00F630EF5007D5581A09307803E29
:101DC0006303F5049307007DE318F5FEE14715A8CA
:101DD000A30701009C87182401458D83630FF7003A
:101DE0005C4018409306F10088236C230546EF10F1
:101DF000704E9C8701458D831CA441016FE0EFF379
:101E0000A147DC87C1BFC147EDBF3707002093065C
:101E1000C70194360546AA871307C7016384C60223
:101E200089CA09466382C6020D466381C6027D5592
:101E30008280894694A3383B014501C79823060751
:101E400098A382809146FDB7A146EDB7C146DDB7A4
:101E5000EFE26FEC370400209307C401BC27411167
:101E600099CB91471304C4016309F50463E7A70004
:101E70008947630CF5007D5535A8A1476302F50439
:101E8000C147E31AF5FEE14715A8A30701009C87A7
:101E9000183401458D83630FF7005C4018409306AA
:101EA000F10088236C330546EF10D0429C87014532
:101EB0008D831CB441016FE04FE8A147DC87C1BFAF
:101EC000C147EDBFB707002083C777021547FD174D
:101ED00093F7F70F636AF70229678A071307878268
:101EE000BA979C4382879307C00B1EA1014582804D
:101EF00093072006DDBF9307A002C5BFD147F5B702
:101F0000A947E5B79547D5B723100500C5B7EFE258
:101F10008FE0370400209307C401BC274111ADC7EF
:101F20009307B00B1304C40163F8A7028547DC874D
:101F300038349C870145630EF7005C4018409306D7
:101F4000F10088232C230546EF10D0389C870145EB
:101F50003CB441016FE06FDE9307100663F4A70005
:101F60008947F1B79307900263F4A7008D47C1B783
:101F7000CD4763F4A70091475DBFA54763F4A70071
:101F8000954775B7994765B77D55E1B7B707002005
:101F90009387C70103C7470209E7FE271EA1014532
:101FA00082807D558280B707002083C7470205479E
:101FB0006382E70289CB09476383E7020D476385A4
:101FC000E7027D558280B7A7000083A747871CC121
:101FD00001458280B7A7000083A78787CDBFB7A739
:101FE000000083A7C787E5B7B7A7000083A70788C6
:101FF000F9BF370700209306C70194360546AA8724
:102000001307C7016384C60289CA09466384C602EE
:102010000D466383C6027D558280916696A3383B48
:10202000014501C79A2305839AA382808966938616
:10203000C6F9EDB78566DDB7856693860680F9BF7C
:10204000EFE2CFCB370400201304C40183474402DE
:1020500001498DEF3C247D5995CB9374E50FE58FB5
:10206000834904011CA8858FB337F0003309F04081
:102070005C28C58F91CB0545A13689C8713E19C52D
:10208000230834017D5919A001451D3E4A856FE0A2
:102090002FCAEFE2AFC6B70900209384C90183C7F6
:1020A000440241119DC7B824FD5729CBDC4098401C
:1020B000AE8A2A892C278823328A74000946EF10B9
:1020C00070411C868086A2075D8C63762401230004
:1020D0000A00FD5725A0D8409389C9013E23858376
:1020E00063F287029C40082374008C3B0546EF1086
:1020F000703E1C86C18B99C70536F9573E85410154
:102100006FE00FC383A7490003A70900D686882381
:102110002C371376F90FEF10F03B3354240381472B
:102120007D1423008A00D9BFEFE2EFBE3704002000
:102130009307C401BC2B41116389A70A1304C4018E
:102140005C40AA849306F10088231C400546CC23FA
:10215000B9C0EF1030389C8718409306F10093F710
:10216000F7FDDC875C404C2305468823EF10901672
:102170000D45EF30E05F8947DC878347240281C744
:10218000930720F8DC8783473402B1C79C8793E725
:102190000703DC8789A0EF10F0333C249487858BFC
:1021A00013F7F60D99C313E706025C40D887184071
:1021B00088239306F1004C230546EF10B0110D451E
:1021C000EF30005B8347240299C39307000803475D
:1021D0003402DC874DFF18405C409306F1004C2B25
:1021E00088230546EF10100F24A8014541016FE038
:1021F000CFB4EFE24FB2370400209307C40183C786
:10220000370241116381A7041304C401814719C136
:10221000930700033828DC8701C793E72700DC8792
:102220008347240289C79C8793E707F8DC87184017
:102230005C40AA844C2B88239306F1000546EF10DE
:102240007009A3019402014541016FE00FAF9307AC
:10225000800263EFA708EFE20FAC370400204111C2
:10226000AA841304C4011DE16937930700707C86BA
:1022700018405C4074002C2B88230946EF10900511
:10228000230A0400014541016FE02FAB0545953756
:10229000930700025C868547639CF402A306010055
:1022A0001545B5319C86184074009A0793E777006E
:1022B000DC865C402C2B09468823EF10B001A14737
:1022C0003CA401458547230604005CA8953B5DBFFF
:1022D000154763649700DC86E1B7D14763E6970052
:1022E0008947DC86294575BF8D47DC86514555BF3A
:1022F0007D558280EFE22FA2370400209307C401AE
:10230000B827411151C303C74702AA847D550DE385
:10231000DC2B1304C40195C39387F4FFC207C18368
:10232000130770026369F70013F5F40F0D370145C9
:1023300041016FE08FA00145193F1307803EA6873A
:10234000637497009307803E13970701418391467A
:102350006373D7009147C2079304803EC183B3C71C
:10236000F40218409306F10005460C33FD17DC8794
:102370005C408823EF1000768887050533C5A402EA
:102380006AA40581693665B77D555DB7EFE2AF9800
:102390009377050741112A8481C78547DC8721A0EF
:1023A00041CDA3070100B70400201389C40183278E
:1023B0004900032709009306F10088232C2B0546CA
:1023C0009384C401EF1000719C8793F7F7FB2306F9
:1023D000F90093770404A5C7A307010093770402CB
:1023E00089E79C8793E72700DC879377040189E7D7
:1023F0009C8793E71700DC879377840089E79C87A5
:1024000093E78703DC87DC4098409306F10088233C
:102410002C3B0546EF10006C9377740F99C3014570
:10242000C93B13052003A0A4238A0400EF304034E5
:10243000014541016FE06F909307000485B7914714
:10244000DC8769BFEFE22F8D370400204111930430
:10245000C401930700F898405C84DC402C2B3400C6
:10246000882305461304C401EF10C0661305400617
:10247000EF3000309840DC40230401002C2B8823EF
:1024800034000546EF1000659840DC4034006C2BAA
:1024900088231946EF1010049C8698858A07060742
:1024A000098B918BD98F9884058BD98FC9C7054724
:1024B00093F5F70F6394E7003CB831A08947639127
:1024C000F506A3090400FD577EA41CA83CA8FD57EF
:1024D0001CC4231A04008547314681451305640155
:1024E0005CA4EFE04F8685473EB02322040213052B
:1024F000007DEFF0DF891DE90945EFF07F951DE5CF
:102500001305A002EFF0BFA015E113052003DD3392
:1025100011ED3D3601ED09392A8409E9853D01A80F
:1025200037A5000013054588EF6080097D5422859A
:1025300041016FE08F80DC409840340088232C33C9
:102540000546EF1020791C84BD8B81EB37A5000078
:102550001305C58AEF600018D1BF1147E393E7F672
:1025600037A500001305858FEF60C0168547A9B712
:1025700019E67D5582807D5541016FD01FFCEFD259
:102580009FF9370400201304C4013C244111E5D70E
:102590001357850093178500D98F7C865C4013758F
:1025A000F50F2E95BA27E348A7FC18408823AE8480
:1025B0000C2F328974000946EF10C05118405C405E
:1025C000CA864C3B882313F6F40FEF10A050014548
:1025D00065B719E67D5582807D5541016FD0FFF5C5
:1025E000EFD27FF3370400201304C4013C244111CF
:1025F000E5D71357850093178500D98F7C865C40FB
:102600001375F50F2E95BA27E348A7FC18408823C9
:10261000AE840C2F328974000946EF10A04B18408D
:102620005C40CA864C3B882313F6F40FEF10806A97
:10263000014565B7EFD2BFEBB70400209387C40113
:1026400083C75702011189C77D5505616FD0BFED62
:10265000E5DDC16B9384C401368B32892E8AAA8949
:102660000144C14CFD1B6369340313168900DC402F
:1026700098401359890033692601231621018823C4
:102680002C2F74000946EF10E0448547A382F40222
:1026900023936403014555BFB38A894063D35C012A
:1026A000C14A139C0A01135C0C01330D8A006A862F
:1026B000E2852285753D49F91008E2852285113FA2
:1026C00041F533F67A010C086A85EF50106209E58E
:1026D00062944204418041BF795585BFEFD2BFE388
:1026E000370400201304C40103474402411163026C
:1026F000A70421C5834754027D558DCF0145EFF0D6
:102700002FCC0145EFF05FA26A30ED365C40A307A5
:1027100001009306F1008823054693053002EF106F
:10272000603B854705452302F402EFF06FC9EFF0E7
:10273000AFCE014541016FD05FE0EFF06FC81C28BC
:102740009306F1000546DC875C4093053002882340
:10275000EF10403823020402D9BFEFD2DFD837048C
:1027600000209307C40183CA470259712A8BAE8B9C
:102770001304C40163850A0001458D37854A13059A
:10278000E103EFF0EFDC1305D103EFF00FE81305E1
:102790002104EFF02FF38800EFF04FFF1C280146D3
:1027A000DE855A85834DA4003EC4EFF08F89631BFC
:1027B000051E0546AC08E800EFF0AF88631105245C
:1027C0005C40B40011468823B545130A4106EF105A
:1027D00060508346B104034781049309410493D7B1
:1027E00046400D878D8B718B5D8F2302E10403477B
:1027F000910493D726408D8B0D87718B5D8F834716
:10280000A1048D8AA302E1048D87F18BD58F230368
:10281000F10437A70000B7A7000003ADC791032755
:102820000792930C0107D284528C03C90900631FDD
:10283000091C930700009CC091048509E3979CFE46
:10284000B7A700003EC6B7A7000083A70793A40858
:1028500081493EC8B7A7000083A747930149854C2B
:102860003ECAB7A7000083A787923ECCB707008077
:1028700093C7F7FF3ECEB7A7000083A7C7923ED00D
:1028800093172900DE9788409C43898F13D5F74121
:10289000A98F3385A740EF505003B7A7000083A549
:1028A0004792EF50801103270A002A8D93050000FC
:1028B0003A853AD2EF409079630C051612576A8533
:1028C000BA85EF40904DE245EF506038F2478255AF
:1028D0007D8DEF40707D6356A000B3972C01B3E966
:1028E000F90005098D479104110AE31BF9F893F7E4
:1028F000F90F3E8D5C40E2860D468823B54593096D
:10290000C104EF10203D83476106035741068966E5
:10291000FD8B2303F106B2479386F6F1758F83A7EB
:1029200047922312E10681443EC6B7A7000083A761
:1029300007940149054A3EC8B7A7000083A74794FA
:102940003ECAB7A7000083A787913ECCB7A7000077
:1029500083A787933ECEB7A7000083A787923ED078
:10296000B707008093C7F7FF3ED2B7A7000083AC3C
:10297000C79393172900DA9703A509009C43898F11
:1029800013D5F741A98F3385A740EF500074B245A6
:10299000EF50A00233072C011C23AA8B638F070E74
:1029A00062457DA00146DE855A85EFE09FE9E3029E
:1029B00005E08144FD570355E1037EA41CA8FD57A3
:1029C0001CC485475CA4EFF08FBC0345D103EFF036
:1029D0002FC803552104EFF08FD303550104EFF006
:1029E0007F916E85EFF09F9A2245EFF06FE563844B
:1029F0000A000545E531268565616FD09FB2054621
:102A0000AC08E800EFE0FFE34DF55DBB23A0A401B7
:102A10007D191379F90F631509002380090029BD79
:102A20008840BA853AC6EF40507988C03247CDB762
:102A3000C2456A85EF40B06FE34105EAD2456A8539
:102A400049BDF2453AD63ED4EF403077A2573257CF
:102A5000FD1793F7F70FF5F7AA85230007005E85AA
:102A6000EF40B0338255EF50801E9257E6857D8D42
:102A7000EF4090636355A000B3172A01DD8C050970
:102A80008D479109E317F9EE93F4F40F93B4140012
:102A9000E3120DF293E4240031BFC245EF403069E8
:102AA000E34C05FCD2455E85E1B78280EFD2BFA63C
:102AB00001114C08280055310D4785476317E5067D
:102AC0004800EFF04FCE22451244EF500060A2853F
:102AD000EF40B06EEF50E0532AC43245EF50E05E55
:102AE000A285EF40906DEF50C0522AC64245EF508C
:102AF000C05DA285EF40706CEF50A0512AC828003D
:102B00002D2913052100EFF0CFCE3881D247480898
:102B1000B387E7023ECAE247B387E7023ECCF247FB
:102B2000B387E7023ECE012B81473E8505616FD01A
:102B3000DFA00307050081476343E002914705E3F7
:102B4000030715008547634CE000954709EB030731
:102B5000250089476345E0009337170099073E85B4
:102B60008280EFD25F9BAA84E9372A8913853400DB
:102B7000C9372A84138564006D3F931734001A0502
:102B80005D8D33652501420541816FD01F9BEFD2DA
:102B90009F98EFF03F8B294451E513058007EFF034
:102BA000EFFE1375F50F054435ED13058007EFF0C3
:102BB0002FC91375F50F094435E513052003EFF010
:102BC0006FF31375F50F0D4431ED892C1375F50F67
:102BD000114429E937050020130505015937B92C9F
:102BE0001375F50F15441DED13053017EF00701127
:102BF0001375F50F19441DE5130520032D2B1375CF
:102C0000F50F1D4405E15D35214409ED0545EFF063
:102C1000FFAC1374F50F11E837A500001305058606
:102C2000EF50502B22856FD05F912544E5BFEFD246
:102C30001F8C7971AA8B2E8BB28A93079100130790
:102C4000A100740010102C080808EF001029631C64
:102C500005183C85094593F707106383071802554B
:102C6000B7A90000EF50604683A5C984EF40F05437
:102C70002A891255EF50604583A5C984EF40F0536F
:102C8000AA842255EF50604483A5C984EF40F052D6
:102C90002A843255EF50604383A5C984EF40F05138
:102CA000B7A7000083A50785AA892685EF40F050C5
:102CB000AA8CCA854A85EF40A0572A8CCE856685A6
:102CC000EF40B04F2A8AA2856285EF40104FAA8557
:102CD0005285EF40E055EF203039EF50405837AA89
:102CE000000003268A858326CA85EF30107CEF50CA
:102CF000C06123A0AB00A2852285EF406053AA8B60
:102D0000A6856685EF40704BAA8CA2855E85EF4054
:102D1000D04AAA856685EF409073B7A7000083A5C7
:102D20008792EF40E050AA8CCE855E85EF40F04858
:102D3000AA8BA6856285EF405048AA855E85EF4044
:102D4000204FE685EF20303EEF50605103268A8504
:102D50008326CA85EF307075EF50205B2320AB00CF
:102D6000CA854A85EF4070452A8BA6852685EF40A7
:102D7000D044AA855A85EF40A04B2A8BA285228594
:102D8000EF40B043AA855A85EF40706C2A8BCE8500
:102D90004E85EF409042AA855A85EF40506BA28540
:102DA0002A8B2685EF4070412A84CE854A85EF40E4
:102DB000D040AA852285EF40A047AA85EF40404732
:102DC000DA85EF205036EF50804903268A85832626
:102DD000CA85EF30906DEF50405323A0AA00014503
:102DE00045616FD04FF40545E5BFEFD2CFF2B7B7DD
:102DF000B38D4111938787AB3EC2B7A70D3593873B
:102E0000478B3EC450009307D005A5451305804B62
:102E10005C86EFF0EFF541016FD02FF2EFD2AFEF0C
:102E2000A96505659306800C130600409385C59837
:102E3000130565BFEFF01F806FD02FF0EFD2AFED1D
:102E4000F57741111387C7D49387C7907C86930782
:102E5000C00278845C871307C006937635001C088F
:102E60005885BE9683C786FF135735000D8B5C804F
:102E70001C083E97834787FF100883C6C6FFDC8087
:102E8000935765008D8BB29703C687FF0347C7FF33
:102E900083C7C7FF2A8450818D450A861305604287
:102EA0005482D8825C83EFF0AFEC09C57D554101B7
:102EB0006FD0AFE850008D451305A042EFF04FEB07
:102EC00075F59567938767637C80930760075C81DE
:102ED0009167938767627C82930760065C83937730
:102EE000440099C7930770035C80930770025C826B
:102EF0009377040299C793077005DC8093077004E9
:102F0000DC829377041099C7930770075C8193075D
:102F100070065C830A868D4513050044EFF04FE58B
:102F200051F550008D4513051043EFF06FE43DFD62
:102F3000B7070020239287169DBFEFD2CFDDB707DA
:102F4000002083D74716411113F737000A072A9745
:102F50000C4313F7470019C3B305B04013D717004C
:102F6000318B2A97104313F7070219C33306C04069
:102F700013D74700318B3A9593F70710184199C33F
:102F80003307E040B7E6CA0293869630B387D5028E
:102F90001305003DB395D502F9833304D7028A05A2
:102FA000CD8F91453317D7027980B304D6020A0733
:102FB000598C13D78741588613D70741D886139762
:102FC0008700C207C1833316D602F980A183D98F47
:102FD0007C870A06D18C7000EFF08FD909C57D552A
:102FE00041016FD08FD593D784415C8693D704413C
:102FF000DC8693978400C204C180A180DD8C7000C0
:1030000091451305403D6487EFF08FD669F99357DA
:1030100084415C8693570441DC8693178400420404
:10302000418021805D8C700091451305803D608753
:10303000EFF00FD475B7EFD20FCE41112A841305EC
:103040002100EFE01FFBB707002083D74716308130
:1030500013F737000A07229793F647003E061843F6
:1030600099C23307E04093D61700B18AA2968C42EA
:1030700093F6070299C2B305B04093D64700B18AD0
:10308000369493F70710084099C33305A04093572F
:10309000F741B306C702B387C702F9823337C702C5
:1030A000BA978A07DD8E93D7F5413387C502B38778
:1030B000C7027983B3B5C502AE978A079355F54128
:1030C0005D8FB385C502B307C5023336C502F983E8
:1030D000130540292E960A06D18F13D686415082B9
:1030E00013D60641D08213968600C206C182A18201
:1030F000D18E748393568741548493560741D48468
:1031000093168700420741832183558F788513D713
:103110008741588613D70741D88613978700C2077F
:10312000C183A183D98F5000B1457C87EFF04FC494
:1031300041016FD08FC0EFD20FBE0111A5652A8467
:1031400031469385457A4808EF50603C9307800CE0
:1031500063F687007D5505616FD02FBEB3C7870228
:10316000700089451305602123060100FD17DC86E8
:10317000EFF00FC065F105655008B145130515ACBA
:10318000EFF00FBF61F9B707002023948716E1B76E
:103190009377750099E37D55828093070064E3EC93
:1031A000B7FEEFD24FB741112A842E85EF40507EF3
:1031B000B7A7000083A54758EF40203EAA84130517
:1031C000B100EFE09FC49C8511476383E70E6369FC
:1031D000F7000947638EE7027D5541016FD0EFB5D7
:1031E00021476389E70E4147E398E7FEB7A7000050
:1031F00083A5075A2685EF40407CEF40B06713193E
:103200000501B7A700001359090183A5475A15A066
:10321000B7A7000083A587582685EF40007AEF40C6
:103220007065B7A7000083A5C75813190501135986
:1032300009012685EF406078EF40D063420593177F
:10324000890041811359890033E9270193178500CB
:1032500021815D8D23162101688793771400C9EFC2
:103260009377240085C3700089451305801DEFF016
:103270002FB03DF11306E100894513058012EFF0F0
:103280002FAF39F91188014529D8700089451305F8
:10329000C01DEFF0EFAD29F11306E10089451305DC
:1032A000C012EFF0EFAC3335A0003305A04035B7C6
:1032B000B7A7000083A507592685EF400070EF40AF
:1032C000705B13190501B7A700001359090183A505
:1032D000475985B7B7A7000083A587592685EF40D2
:1032E000C06DEF40305913190501B7A700001359FD
:1032F000090183A5C75935BF700089451305401DD5
:10330000EFF00FA7E31A05EC1306E100894513055A
:103310004012EFF0EFA529D5C1B5EFD2CF9F93773B
:103320001500411195EBA30701009377250089C78C
:103330009C8793E7C700DC87118909C59C8793E7C1
:103340003700DC871306F100854513058014EFF084
:103350002FA241016FD06F9E93070003DC87F1B766
:10336000EFD26F9B4111854719C511479377F50F30
:103370006373A7009147FD171306F10085451305F8
:10338000F014DC87EFF0CF9E41016FD00F9BEFD29E
:103390008F9895473355F502411170008945931771
:1033A000850021815D8D68861305E01DEFF04F9C3F
:1033B00041016FD08F98EFD20F9695473355F502A4
:1033C0004111700089459317850021815D8D6886C4
:1033D0001305A01DEFF0CF9941016FD00F96EFD2EA
:1033E0008F939307803E3345F50241117000B3057A
:1033F000B5021305C01593D785415C8693D7054167
:10340000DC8693978500C205C181A181DD8D6C8723
:103410009145EFF0EF9541016FD02F92EFD2AF8F32
:1034200095473355F5024111700089459317850082
:1034300021815D8D68861305A015EFF06F93410122
:103440006FD0AF8FEFD22F8D95473355F5024111D5
:10345000700089459317850021815D8D688613056D
:103460008015EFF0EF9041016FD02F8DEFD2AF8A32
:10347000411111C5EFF07F9741016FD00F8CA56509
:1034800025469385057B4800EF5060085000A54510
:103490001305804BEFF0CF8DC5B7EFD2CF87411129
:1034A00015C1B7C7C4C69387072C05657000914541
:1034B000130585A93EC6EFF0AF8BEFE0EFF54101B4
:1034C0006FD0AF87B7978B8B9387B7B8F9BFEFD221
:1034D0008F84411115C1B73730389387078205654E
:1034E000700091451305E5A93EC6EFF06F88EFE047
:1034F000AFF241016FD06F84B7A7A3A39387373A88
:10350000F9BFEFC2BFFF4111B7D7E309938727A0E7
:103510002A8450009145130580063EC2EFF04F8586
:10352000930730FA5C82137A040463050A16930742
:1035300000FCDC82F1779387872C7C831379041855
:10354000630F0914F577938747CC7C84930760FC5D
:103550005C85930730FADC850565E9779387373A10
:103560005000A945130575AA7C8693793400EFF0C5
:103570002F809307800D638409009307000205657F
:1035800050008545130565AB5C82EFE07FFE9377C5
:103590000402638D0710EFF05F85630209029377E1
:1035A000041063890710B797B69B938727BB0565FF
:1035B00050009145130525AA3EC2EFE07FFB9377AB
:1035C0001400638E070E0565E1575000854513050D
:1035D000058B5C82EFE0DFF99305A00F1D45EFF04E
:1035E0003FBB1D45EFF07FD30545EFF07FD71305B7
:1035F0004006EFF0DFD91305401FEFF0DFDB37E5C2
:10360000CA029305800C13059530EFF05FDD1305BA
:103610008002EFF0BFE02945EFF0DFE2937724006E
:10362000B337F0009387870D500085451305D0739D
:103630005C82EFE0FFF393774400054591E3014599
:10364000EFF0BFE593770401054591E3014541356E
:10365000B70400209387C41513678400BAA7EFE06E
:10366000AFDB9387C41563170A062387070063053A
:103670000900F8271907F8A7518801C4F82741075E
:10368000F8A763850900F8271107F8A7014541014C
:103690006FC01FEADC82E9779387373A79BDE97713
:1036A0009387373A7C84930730FA5DB50145EFF094
:1036B000FFDBE5B5B787B4909387070BCDBD0565F4
:1036C000930780FD500085451305058B5C82EFE074
:1036D0003FEAA9B71947F8A759BFEFC25FE1B70A98
:1036E0000020938BCA152A8903C5EB000111AE890E
:1036F000328B231007003E868A85B6843A8AEFE033
:103700005F9945E503D7AB002A84938ACA1593775E
:103710004701638607181C8094809082E207C206E6
:10372000D58F948142060C84D58F1481E20588865A
:10373000A206D58F14822320FB00C187E206D18E1A
:103740009083B387F7024205D18E10832206D18E73
:1037500090842322DB00C1864206D18D9085B386FA
:10376000D602D18D10852206D18D10862324BB0070
:10377000C1856206498E8887BE96B387B502498E99
:1037800008872205498E2326CB0041863306C602D0
:10379000B697B70600F1B297B697B706000263F87E
:1037A000F600EFE06FC723100A007D54EDA08357A9
:1037B0000A0093E707102310FA00C1479376070425
:1037C000A1C61410BE9603C606FE83C516FE990751
:1037D00022064D8E2390C90003C626FE83C536FE01
:1037E00093F7F70F22064D8E2391C90003C646FEBC
:1037F00083C656FE2206D18E2392D90083560A0034
:1038000093E686002310DA0093760718A1C61410F9
:10381000BE9603C606FE83C516FE990722064D8E88
:103820002310C90003C626FE83C536FE93F7F70FA3
:1038300022064D8E2311C90003C646FE83C656FEDE
:103840002206D18E2312D90083560A0093E606077A
:103850002310DA000D8B0DCF3309F10083471900D7
:1038600083493900858B99CB83A70A0081CB93F5D7
:10387000790013D5390085051D8982978347190082
:10388000A18B99C783A74A0081C713D56900829786
:103890002685EFF08FA1228505616FC0DFC88147C3
:1038A00031BFEFC25FC741112A84EF0000681305E2
:1038B000C00EEF00206BEF00E0712285EF00806A00
:1038C000EF004071EF0060661305D00EEF008069D5
:1038D000EF004070EF00006C2AC6EF000067324531
:1038E00041016FC09FC5EFC21FC341112EC62A847C
:1038F000EF00A0631305C00EEF00C066EF00806DFF
:103900002285EF002066EF00E06CB2452E85EF00C7
:103910006065EF00206CEF00406341016FC0FFC1A4
:10392000EFC27FBF4C411C4196058A07DD8D1C45C7
:103930001305400FDD8D93F5F50F75376FC0FFBF91
:10394000EFC27FBD0C415C4196058A07DD8D1C45A9
:103950001305500FDD8D93F5F50F71376FC0FFBD67
:10396000EFC27FBB0111612313058008EFF07FF3E5
:10397000AA841305900813840181EFF09FF21C4084
:10398000220526958AA31305A008EFF09FF1AA84CB
:103990001305B008EFF0FFF01C4022052695AAA3FE
:1039A0001305C008EFF0FFEFAA841305D008EFF06D
:1039B0005FEF1C4022052695CAA31305E008EFF02F
:1039C0005FEEAA841305F008EFF0BFED1C4022055E
:1039D0002695EAA313050009EFF0BFECAA841305AE
:1039E0001009EFF01FEC1C40220526958AA713054D
:1039F0002009EFF01FEBAA8413053009EFF07FEAEE
:103A00001C4022052695AAA713054009EFF07FE97F
:103A1000AA8413055009EFF0DFE81C402205269523
:103A2000CAA713056009EFF0DFE7AA841305700940
:103A3000EFF03FE71C4022052695EAA71305800911
:103A4000EFF03FE6AA8413059009EFF09FE51C40D4
:103A5000220526958AAB1305A009EFF09FE4AA84FE
:103A60001305B009EFF0FFE31C4022052695AAAB31
:103A70001305C009EFF0FFE2AA841305D009EFF0A7
:103A80005FE21C4022052695CAAB1305E009EFF062
:103A90005FE1AA841305F009EFF0BFE01C402205A6
:103AA00026959305600BEAAB1305000EEFF0BFE31C
:103AB0008D47054728003AC63EC43EC8EFF05FE692
:103AC000914748083ECC02CA02CEEFF07FE705617D
:103AD0006FC0BFA6EFC29FA2B7640040AA8A2E8A19
:103AE0003289368493890480B70502004E85EFD071
:103AF000AFDA7DF9138504808545B7040300B76903
:103B00000040EFD04FD18504138B0980A6855A85DC
:103B1000EFD02FD765DDD685138509800146B70420
:103B20000700B7690040EFD0AFD493842408938A8C
:103B30000980A6855685EFD0CFD465DD1385098031
:103B4000D285B7090700B7640040EFD0AFD19389A1
:103B5000490893840480CE852685EFD08FD265DD19
:103B6000B7640040B70907002299938404809389C1
:103B70004908631B890037650040854513050580AA
:103B8000EFD00FCB6FC0DF9A05048345F4FF268585
:103B9000EFD04FCDCE852685EFD0AFCE65DDD1BF3E
:103BA000EFC27F974111CC879306F100AA850546A5
:103BB0001305000DEFF01FF241016FC01F98EFC217
:103BC0009F95011185453705400002C202C402C617
:103BD00002C802CA02CC02CEEFD02FF185452145A2
:103BE000EFD0CFEE8567938707C07C823715014001
:103BF000F1473EC64C008D47130505C03EC4EFD0CB
:103C00004F95B7270600938707A83EC8B707FFBFA1
:103C1000376400403ECAB70700043ECC0C089167E9
:103C200013050480FC86EFD0AFAD130504808545F5
:103C3000EFD0EFBC854513050480EFD00FC113050D
:103C40002003EF10F032930500081305B006EFF0E3
:103C50003FF513054006EF10B03181451305B0065E
:103C6000EFF01FF48D456545EFF09FF389456945F9
:103C7000EFF01FF381457145EFF09FF2E1456D458F
:103C8000EFF01FF2814513058003EFF07FF18145CE
:103C90001305A006EFF0DFF0814513053002EFF0C9
:103CA0003FF09305000813057003EFF07FEF8545A3
:103CB0001305B006EFF0DFEEEFE07FED2A84AA8572
:103CC00037A500001305855AEF40900F2285056146
:103CD0006FC0BF86EFC29F82B76400402A8AAE8A57
:103CE0003284368993890480B70502004E85EFD06F
:103CF000AFBA7DF9138504808545B7040300B76921
:103D00000040EFD04FB18504138B0980A6855A85FA
:103D1000EFD02FB765DD138509800146D285B70442
:103D20000700B7690040EFD0AFB493842408138B29
:103D30000980A6855A85EFD0CFB465DDD685138579
:103D40000980B7040700B7690040EFD0AFB1938492
:103D50004408938A0980A6855685EFD08FB265DD29
:103D6000138509808545B7040300B7690040EFD08B
:103D70008FAA8504938A0980A6855685EFD06FB0F7
:103D800065DD138509800546D285B7090300B76450
:103D90000040EFD0EFAD890993840480CE8526855D
:103DA000EFD02FAE65DDB7640040B7090300130AFA
:103DB000F00F93840480938909047D141374F40F25
:103DC0006310440337640040130504808545EFD039
:103DD0002FA6854513050480EFD02FA76FC04FF5A0
:103DE00009E481452685EFD04FA6CE852685EFD004
:103DF0004FA965DD2685EFD02FA72300A90005096F
:103E00006DBFEFC24FF141112A849306E100AA85EC
:103E100005461305000DEFF0FFEB93051400930624
:103E2000F100054693F5F50F1305000DEFF09FEA3D
:103E30001C878887A2075D8D41016FC00FF0EFC21C
:103E40008FED411170002C004800EFE05FDEB247BB
:103E500037040020130444181CC09247AA84130599
:103E600070045CC0A2471CC4EFF0BFF94AA413055C
:103E70003004EFF01FF96AA413055004EFF07FF847
:103E800031150AA8268541016FC02FEBEFC2AFE8BC
:103E90002A863715014093050004130505C0EFC0BD
:103EA0003FF82945EF1030096FC02FE9EFC2AFE6A8
:103EB0002A863715014093050008130505C0EFC099
:103EC0003FF62945EF1030076FC02FE7EFC2AFE490
:103ED0003715014093050008130505C0EFC07FF3B7
:103EE0002A842945EF10300522856FC00FE5EFC207
:103EF0008FE2411185452145EFD04FBDD1473714A1
:103F000001403EC69307000C7C824C008D47130590
:103F100004C03EC4EFC0FFE39305000C130504C0CA
:103F2000EFC0DFEF41016FC04FE1EFC2CFDE0545CB
:103F3000EFF0DFF70545EFF07FF50145EFF01FF7F4
:103F40000145EFF0BFF46FC04FDFEFC2CFDC01459A
:103F5000EFF0DFF50545EFF07FF30545EFF01FF5D6
:103F60006FC0AFDDEFC28FD92A89014493090008E1
:103F7000A14433D5894033752501EFF03FF3054562
:103F8000EFF0DFF001450504EFF05FF0E31394FE7E
:103F90006FC00FDAEFC28FD60545EFF03FF18144D5
:103FA00001449309000821490545EFF03FEEEFF089
:103FB000FFF185476317F500B3D799405D8C137403
:103FC000F40F01458504EFF07FECE39F24FD22858B
:103FD0006FC00FD6EFC22FD40545EFF03FED05457A
:103FE000EFF0DFEAEFF09FEE2A840145EFF01FEAE1
:103FF00022856FC08FD4EFC20FD2797113060002F1
:1040000081450808EFC02FD48545114502C202C47E
:1040100002C6EFD0AFAB854513050020EFD00FAB44
:104020003165EFD04F9037150140C1474C00130563
:104030000580372401407C8202C6EFC09FD1130562
:104040000440EFC03F8685473ECCB7070E003ECE0A
:104050000C089147130504402302F10202C802CA6A
:1040600002D0EFC07F88854513050440EFC03F8E26
:10407000854513050440EFC09F8C8145130504401E
:10408000EFC05F9D13050440EFC09F8D9304044073
:104090002685EFC09F8D6DFD130504403724014038
:1040A000EFC03F8D930404402685EFC03F8D6DFD2A
:1040B00013050440EFC09F9BB70700202392A71071
:1040C00045616FC08FC7EFC20FC539712A842E8931
:1040D000B28481451306C002480836C6EFC0AFC699
:1040E00085450545EFD0AF9C2285EFC01FAB9307F8
:1040F00000083ED493070010B2463ED69307004016
:104100003ED8930700023EDA4C088D6722854ACAE2
:1041100026CC36D03EDC02CE02D202DEEFC0BFBEDD
:1041200021616FC08FC1EFC20FBFEFF0DFECB707A7
:1041300000208395471037A500001305455CEF402C
:10414000204837240140B704024037060020854646
:10415000130686109305C44413854404EFF0BFF69C
:10416000138544048545EFC09FBD9D460546130554
:1041700004409145EFC09F82854513050440EFC080
:104180007F806FC08FBBEFC20FB91C45AA842E89F8
:104190000314A50089EF084193050000EF30006B80
:1041A00019E50A042694232024016FC00FB989471A
:1041B00005043364F4020397840093170401C18754
:1041C0000A04BEA4269423202401E390E7FE850779
:1041D000858B9EA4D9BFEFC20FB42A8408419305F2
:1041E0000000EF30E0044C40EF308004B7A700003F
:1041F00083A5C75DEF30607C6FC02FB4EFC2AFB155
:1042000041118545114502C202C402C6EFD00F8C90
:1042100093070010371401407C82C1473EC64C0012
:104220008D47130504803EC4EFC0BFB20546930519
:10423000001013050480EFC0BFBE41016FC0EFAF97
:10424000EFC26FADAA843705080039712E841305BB
:104250001502854532C602D202D402D602D802DA4D
:1042600002DC02DE02CC02CE23100102EFD00F8668
:104270003705138085454105EFC03FBBED77938738
:1042800007A02312F10237150140E1473ED64C103A
:104290008D47130505403ED4EFC0BFABE0843754D3
:1042A00001402C08130504C0E486231F0100231DD0
:1042B0000100EFD04F873246C167938707060C187D
:1042C000130504C03ED8231BC102231C0102EFD0FA
:1042D0002F900C18130504C0EFD0AF970C181305DE
:1042E00004C0EFD0EFA10C18130504C0EFD00FAC41
:1042F000130504C08545EFD06FB5130504C0814593
:10430000EFD0EFB8130504C08145EFD02FB91305E6
:1043100004C08145EFD0EFB9130504C08145EFD04B
:104320002FBA130504C08545EFD0CFB485451305DA
:1043300004C0EFD02FB021616FC02FA0EFC2AF9D9E
:1043400009651306803E93051003130505C2EFF0BF
:104350003FEF37540140130504C09305005AEFD0D6
:104360008FB7130504C09305005AEFD00FB713059C
:1043700004C09305005AEFD08FB69305005A130579
:1043800004C0EFD00FB66FC04F9B9307005A63FB7A
:10439000A70085671387F7B3636EA70493072067A9
:1043A00063E4A7001305005A83C7D18199EB130773
:1043B0002067AA876374E5009307206713950701B8
:1043C000418183A781810947FD15638EE706EFC20E
:1043D0008F9493972500B705002093858504BE959B
:1043E0009C416382E704634AF70005476385E7025F
:1043F0006FC0AF94138507B445BF0D47638DE702C7
:104400001147E397E7FEAA8537550140130505C01C
:10441000EFD02FADF1BFAA8537550140130505C078
:10442000EFD06FABF1B7AA8537550140130505C032
:10443000EFD0AFAA75BFAA8537550140130505C057
:10444000EFD0EFA975B78280EFC2EF8C85669386B7
:1044500006B42E87B68763E3A600AA8713960701E2
:1044600041829306005A6374D6009307005A9395CD
:1044700007017D17B70700200A0793878704BA97BB
:104480009C430947C181638DE7026347F7000547F5
:104490006381E7026FC06F8A0D47638AE7021147A5
:1044A000E39AE7FE37550140130505C0EFD06FA32F
:1044B000D5B737550140130505C0EFD0CFA1D9BFFF
:1044C00037550140130505C0EFD02FA1E1B737558F
:1044D0000140130505C0EFD08FA06DBFEFC2AF83C1
:1044E00041119307D012231501007C8489475C8514
:1044F000280085473EC6EFC0FFBD41016FC0EF8376
:10450000EFC26F814111AA842E8409458545EFC011
:10451000DFDD608237040040C1474C0013050440D2
:104520007C83648423150100EFC0FFDF054613057B
:1045300004408545EFD0EF92130504408545EFD048
:104540006F93854513050440EFD0CF8EEFF01FF930
:1045500041016FB09FFEEFB21FFC41119307E022B3
:10456000231501007C8489475C85280085473EC669
:10457000EFC05FB641016FB05FFCEFB2DFF94111F0
:10458000AA842E8411458545EFC03FD6608237143A
:104590000040C1474C00130504807C8364842315CC
:1045A0000100EFC05FD80546130504808545EFD0B4
:1045B0004F8B130504808545EFD0CF8B85451305C0
:1045C0000480EFD02F87EFF01FF941016FB0FFF6A5
:1045D00037150040854513050580EFD00F926D24F7
:1045E00073002030EFB23FF33704002083254418D6
:1045F000370500209304C51A1305C51A130444187F
:10460000EFF07FB84C401385C400EFF0DFB70C44E7
:1046100013858401EFF03FB70315C400EF30F02A93
:10462000AA8513854402EFF01FB60315E400EF30AE
:10463000D029AA8513850403EFF0FFB40315040104
:10464000EF30B028AA851385C403EFF0DFB36FB055
:10465000DFEEEFB25FEC370500209304C51A370494
:1046600000201305C51A13048419EFF0DFB608C043
:1046700013858401EFF03FB648C01385C400EFF006
:104680009FB508C413854402EFF0FFB4EF307018F3
:104690004AA413850403EFF01FB4EF3090176AA407
:1046A0001385C403EFF03FB3EF30B0160AA86FB024
:1046B000DFE837050040411185451305054022C656
:1046C000EFD0AF83EF00301FEFF06FF71DE5EFF095
:1046D0007FF1EFF01FF803A781818947630FF7008F
:1046E00083C7D181B1E33704002003550412930737
:1046F000306A63F8A700EF003021324441017300B3
:1047000020308545EFF07FC8035504128945EFF04E
:10471000DFC7035504128D45EFF03FC70355041260
:104720009145EFF09FC6D1BF3704002013048405E4
:10473000EF00B0381C44138581BA82971C4413855E
:1047400081B582971C44138581B082971C441385E0
:1047500081AB82971C44138581C482971C441385C6
:1047600081BF829759BFEFB21FDB7971854537054D
:10477000020002CA02CC02CE02D002D202D402D679
:1047800002C602C8EFC07FB685451145EFC01FB411
:104790009147FC82371401408D473ECC4C08E147DD
:1047A000130504803ECEEFC0CFDAA1474C08FC824F
:1047B0001305048091473ECEEFC0AFD9B77706000E
:1047C0009387078A3ED0B7070C003ED49307600357
:1047D0007C86680085473EC83744004002D22316D5
:1047E000010223070100EFC0FF8E13050440854539
:1047F000EFC05FFA0C1013050440EFC0DFF0054670
:104800009305505213050440EFC03FFA45616FB065
:10481000DFD2EFB25FD02A84EFC01FFDB7060020C1
:1048200003C7A610138681A79307170093F7F70F06
:10483000329708A32385F610130700046394E7005A
:1048400023850610C526930550522285EFC0FFFA36
:104850006FB0BFCE411122C637440040930550527D
:1048600013050440EFC03FFA01CD93050002130584
:104870000440EFC0FFF709C513050440EFF07FF9CE
:104880003244410173002030EFB2FFC837040020EA
:104890000325841913048419EF30701C2A8637A568
:1048A0000000AE861305055EEF3090514840EF30B2
:1048B000101B2A8637A50000AE861305055FEF3072
:1048C00030500844EF30B0192A8637A50000AE8674
:1048D00013054560EF30D04E8315C40037A50000A6
:1048E00013058561EF30D04D8315E40037A5000036
:1048F0001305C562EF30D04C8315040137A50000C5
:1049000013054564EF30D04B03A5C1C137540140B6
:10491000EF30F0142A8637A50000AE8613058565B2
:10492000EF30104A03A5C1B7EF3070132A8637A5C0
:104930000000AE8613058566EF30904803A5C1AD33
:10494000EF30F0112A8637A50000AE861305856783
:10495000EF301047130504C0EFC05FD9AA8537A513
:1049600000001305C568EF30B045130504C0EFC063
:104970003FD8AA8537A5000013058569EF3050445C
:10498000130504C0EFC05FD6AA8537A50000130544
:10499000456AEF30F042130504C0EFC0BFD5AA85C9
:1049A00037A500001305056BEF30904183C7C18127
:1049B0000947639EE70237A500001305C56BEF307A
:1049C000705183C7D181A9E337A500001305856F16
:1049D000EF30505083A741810547639CE70237A51C
:1049E000000013050572EF30F04E6FB01FB505479C
:1049F0006397E70037A500001305056DC9B737A514
:104A000000001305456E65BF37A500001305C5708E
:104A1000C1B70947E39BE7FC37A5000013054573C1
:104A2000D9B701479386C192130800109377F70F07
:104A3000214693951700E207E187FD87E98F93F5FB
:104A4000E50F7D16AD8F75F63386E6001CA20507CF
:104A5000E31E07FD8280AA9581471387C1926314E4
:104A6000B5003E85828005058346F5FFB58FBA9770
:104A70009C23F5B7370700201307A7101C23636595
:104A8000F500230007008280898F93F7F70F1CA39E
:104A9000938681A701473306A70036960C223386FA
:104AA000E60005070CA2E318F7FE82805821343196
:104AB0001D8B22079387C1A2558F98C35821935607
:104AC000370058311377F7031607558FD8C3543181
:104AD000782199820A07D98E7831058B2A07558F5C
:104AE00098C778319356170018253D8B1E07558FB0
:104AF000D8C718259356470018351377F7071207BC
:104B0000558F98CB143538259D820607D98E3835B8
:104B10000D8B2607558FD8CB38359356270058254F
:104B20007D8B1A07558F98CF5825935657005835C7
:104B30000E07558FD8CF783574251D8B2207558FDA
:104B400098D378359356370018291377F70316074B
:104B5000558FD8D31429183999820A07D98E382944
:104B6000058B2A07558F98D738299356170038395F
:104B70003D8B1E07558FD8D7383993564700582993
:104B80001377F7071207558F98DB542958399D8200
:104B90000607D98E78290D8B2607558FD8DB782903
:104BA0009356270078397D8B1A07558F98DF78390F
:104BB00093565700182D0E07558FD8DF8280EFB21D
:104BC0009F9558213C31411122075D8F5C316C006B
:104BD0002946C2075D8F7C211385C1A6E207D98FC4
:104BE0003EC6EF30D01241016FB03F95938781A749
:104BF00094231307800C6396E602EFB2DF91BC2387
:104C00005147638BE70059476396E700138581A7F7
:104C1000EFF0DFE96FB07F92138581A7EFF03FFAE5
:104C2000D5BF8280EFB29F8D938481A73709002082
:104C30008549130AB003938A24000347A91063F43B
:104C4000E90480309307D4FF93F7F70F6376FA00F7
:104C50000545EFF03FE2D5B79307140063D5E702AF
:104C6000A69703CB07009305F4FF93F5F50F568540
:104C7000EFF07FDEE31EABFCEFF05FF713052400DF
:104C80001375F50FF9B76FB0BF8AEFB2DF85B704C0
:104C9000002083A784054111138581C48297B7A79B
:104CA000000083A70776138481C4138984051CC080
:104CB000B7A7000003AD4776B7A7000083AC87769F
:104CC000B7A7000003AAC776B7A7000083A9077794
:104CD000B7A7000003AC477783274900930D000076
:104CE0002322B4012324B401232AA401232C9401F8
:104CF0002326440123283401232A8403138581C4F5
:104D0000829783A78405138581BF8297B7A7000088
:104D100083A78777138481BF2322B4011CC0B7A760
:104D2000000083ABC777B7A7000003AB07788327E2
:104D300049002324B401232A7401232C640123266F
:104D4000440123283401232A8403138581BF8297D9
:104D500083A78405138581B0829737A700000327B6
:104D60008778138481B0B7A7000058C037A7000028
:104D70000327C77883A74778232AA40118C437A735
:104D80000000032707791CC0232C940158D803275F
:104D900049002326440123283401138581B03EC6EF
:104DA000029703A78405138581AB029737A70000FC
:104DB00003274779138481AB2322B40118C037A796
:104DC000000003278779232A7401232C640118C467
:104DD00037A70000832D879203274900232644012B
:104DE00023283401232AB403138581AB029703A738
:104DF0008405138581BA0297B247138481BA232AA6
:104E0000A4011CC0B7A7000083A7C779232C940175
:104E1000232644015CC0B7A7000083A7077A232894
:104E20003401232A84031CC483274900138581BAD3
:104E3000829783A78405138581B5138481B58297F2
:104E4000B7A7000083A7477A232A7401232C6401A3
:104E50001CC0930700005CC0B7A7000083A7877A37
:104E600023264401232834011CC483274900232A14
:104E7000B403138581B5829741016FB08FEAEFB219
:104E80008FE91307803EAA876352A702130585C1E5
:104E9000EF20E032B7A7000003A6877483A6C7748B
:104EA000EF10B060EF3060466FB02FE91307803D20
:104EB00013050000E34AF7FE138577C2D1BF9307BD
:104EC000800C63F0A704EFB20FE5130585F34205EC
:104ED0004181EF20C02EB7A7000003A6077583A667
:104EE0004775EF10905CB7A7000003A6877583A6EF
:104EF000C775EF108068EF20C026420541816FB072
:104F0000CFE313056054828083A7C1A39387779072
:104F100093B7070193C71700A38EF180828003A780
:104F200041A4BD46130677909387C18163E5C6000F
:104F3000094798A38280130727C2D14663E4E6009D
:104F40000547C5BF238007008280EFB2CFDCB707DB
:104F5000002003A6071AB707002003A5C7114111B7
:104F60009305000032C6EF20A02CB7070020324680
:104F700083A74706AA85138581BA829741016FB03E
:104F8000CFDBEFB24FD9B70700200395871AEF3078
:104F9000C013B7A7000083A5C77AEF200060B7074A
:104FA000002083A7470683A5C1BC2A86138581B547
:104FB00082976FB08FD8EFB20FD6B707002003A645
:104FC0008719B707002083A5C710B707002003A5DE
:104FD0004712411132C6EF20A025B7070020324604
:104FE00083A74706AA85138581C4829741016FB0C4
:104FF000CFD4EFB24FD2B70700200395471A33053D
:10500000A040EF30800CB7A7000083A5C77AEF203F
:10501000C058B707002083A7470683A5C1C62A86C4
:10502000138581BF82976FB04FD1EFB2CFCEB70754
:10503000002003A6C719B707002003A58711411157
:105040009305000032C6EF20A01EB70700203246AD
:1050500083A74706AA85138581B0829741016FB067
:10506000CFCDEFB24FCBB70700200395671AEF30D3
:10507000C005B7A7000083A5C77AEF200052B70785
:10508000002083A7470683A5C1B22A86138581AB7A
:1050900082976FB08FCA83A781A41307F00B639622
:1050A000E700054723AAE180828013070070E39D93
:1050B000E7FE0947C5BFEFB20FC61384C1A248443B
:1050C000EFF0FFDBB707002023A2A71203A5C1A2C0
:1050D000EFF0FFDAB707002023AEA7104840EFF04B
:1050E0001FDAB707002023ACA7100844EFF03FDD1C
:1050F000B70700202390A712EFF01FE1EFF03FE287
:10510000EFF07FF96FB06FC3EFB26FBEEFF0FFE368
:10511000EFF03FE7EFF07FF1EFF0BFF4EFF0BFE922
:10512000EFF03FEDB70700203704002003A78719F1
:10513000835C0412B707002023A6E7106685EF20E2
:10514000D07883AAC1ADAA8B370C0020D685EF207A
:10515000200E03A9C1B783A4C1C1CA85AA89EF20C3
:10516000200DA685EF20C00CEF20D070131A05018A
:10517000135A0A01CA854E8523184C11EF20302D91
:10518000A685EF20D02CEF20F06E93190501370B88
:10519000002093D90901D68523193B115E85EF20A4
:1051A000102BAA852A8D4A85EF208008A685EF203E
:1051B0002008EF20306C931B0501B70A002093DB19
:1051C0000B01239A7A11CA856A85EF205028A6859B
:1051D000EF20F027EF20106A4205B704002041813C
:1051E0008567239BA410938707B413040412130745
:1051F0000C11130B2B11938A4A119384641163F0E1
:1052000047071EA38567938707B463F13707231009
:10521000FB008567938707B463F177072390FA0053
:105220008567938707B463F1A7069EA083A7418192
:1052300085466392D7060A238545EFF00F950355FF
:105240000B008945EFF06F9403D50A008D45EFF010
:10525000CF938A209145EFF04F936FB0CFAC930777
:10526000F059E3E147FB9307005A61BF9307F059F8
:10527000E3E137FB9307005A59BF9307F059E3E185
:1052800077FB9307005A59BF9307F059E3E0A7FA59
:105290009307005A59BF0947E391E7FC85456685A6
:1052A000EFF0AF8E0A208945EFF02F8E0A208D4552
:1052B000EFF0AF8D91450A2079BFEFB2CFA58545BC
:1052C0001305005AEFF06F8C89451305005AEFF073
:1052D000CF8B8D451305005AEFF02F8B91451305A9
:1052E000005AEFF08F8A6FB04FA5930700001CC1E2
:1052F0005CC11CC55CC51CC91CCD5CC95CD11CD57E
:105300005CD51CD98280930700003CC15CDD1CDDAC
:105310005CD11CD95CD51CD57CC53CC57CC18280C8
:10532000930700007CC53CC57CC13CC15CDD1CDD35
:105330001CD95CD51CD55CD15CCD1CD18280EFB270
:10534000EF9B2A843C448329440410D07CC42E85DE
:10535000232434054CCCB285EF20700F0C4068C07C
:10536000AA84EF2080654C4008D42A8A2685EF2045
:10537000C0644C54EF10D06B5C5CCE852A893CC075
:105380001C5C48D426855CDCEF20700C0C4408DCE7
:10539000EF20A062832A4401AA8908D8D6854A85CD
:1053A000EF2080506355A0002326540309A8832AC8
:1053B00084014A85D685EF208057E34705FE4C548B
:1053C0005285EF10F066CE85EF1090660329C40079
:1053D00048D0AA89CA85EF20204D6355A00023221A
:1053E000240309A8032904014E85CA85EF2020540F
:1053F000E34705FE032944032685CA85EF20205391
:10540000634FA000B7050080B3C525012685EF20B6
:10541000A04963460500930700005CD05CD46FB0E0
:105420002F91EFB24F8FEFF00FB4EFE04FF975FD12
:10543000EFE0DFF00964EFE0AFD2EFE0DFCEEFF0B6
:10544000DF84EFE0BFDB9305F4C113051003EFF039
:105450002F8B9305F4C11305703EEFF00F9237A523
:1054600000001305057BEF30E0266FB00F8D8280C2
:1054700073110134A1679387078073900730B7F7E2
:1054800000E023A20700912011C5B7E700E01167F3
:1054900023A0E720A1679387878873900730731153
:1054A000013473002030370700201307C7121C4354
:1054B0009443B70700209387C71381E67D5798C3AD
:1054C0008280184358471843DDBFB707002083A7E1
:1054D000471363970718EFB20F84B707002093872D
:1054E00087148043050480C321ECB707002093870D
:1054F000C7129843184305C7A16793870780739025
:10550000073037A60000856537A500001306467CE6
:10551000938575AC1305857DEF30800A01A03707B0
:105520000020130707139443104390C3B7070020CC
:1055300014C3938707149843050798C3EFF0BFF689
:10554000370600209307C6139C43B70500201306B7
:10555000C613138781C99385851201456375F402CB
:105560009C41D146DC57B387D7023E971843854705
:1055700063F3E7000545B707002083A7C71491C36D
:1055800005456FA09FFB370E0020B70E0020514F3E
:105590009307CE129443944281E6FD571CC2C9B7CB
:1055A0009C43DC47DC47D4436374D40014C24DBF32
:1055B00083A8870003A8C700D44B1383470023A404
:1055C00008012322180183A846006394680023A2DF
:1055D000060103A8060023AA07007D1823A00601E0
:1055E000945795CA03A8C70183A8070283AF460052
:1055F0002324180183A8070223A208011388870126
:1056000063940F0123A2160103A8060023A4070236
:105610007D1823A0060193868E1303A8C70283A8D2
:10562000060063F4080123A00601B306E803BA9656
:1056300083A8460083AF880023A4170123A6F7019F
:1056400083AF880023A26F0023A46800D4CB9C42C0
:1056500085079CC29C41DC57E36CF8F205450DBF01
:10566000B70700209387471498430145050798C35F
:105670008280B707002003A74713B707002093874E
:10568000C71401C7054798C3828023A00700B70746
:10569000002013878713184313868713938781C9C4
:1056A0005148B3060703B385D700884115C5C841E3
:1056B000A106BE964841C8C16314D5005441D4C167
:1056C000D146B306D702B697DC43D447B7070020CC
:1056D00023A4D71218C2828015E7EFA2DFE3A167E7
:1056E000938707807390073037A60000856537A53C
:1056F00000001306467C938525C01305857DEF20A9
:10570000306C01A07D1771BF83A7818037177A00A5
:1057100013070720B3D7E7023707002093F7F70FE7
:105720002309F7141307803EB387E70237070020E9
:105730002318F7148280B7F700E0D8438146799B9D
:10574000D8C337070020034727153306A70290CB9D
:10575000D4CB98431367070198C398431367170284
:1057600098C3D843058B75DF9843799B98C3828093
:10577000B7F700E0D8438146799BD8C337070020AC
:10578000035707153306A70290CBD4CB9843136772
:10579000070198C398431367170298C3D843058B32
:1057A00075DF9843799B98C38280EFA2DFD62A8465
:1057B0001165011185451105EFB05FB19307002018
:1057C0007C82371501408D473EC44C00E1471305EC
:1057D00005803EC6EFB0EFD722C837440140B70777
:1057E00008000C08130504803ECC02CA231E0100E9
:1057F000EFB07FF1854513050480EFB0BFF9056177
:105800006FA0BFD3EFA29FCFB7440140AE893289CA
:10581000014493840480634524014A856FA05FD1CD
:10582000930500042685EFB0BFFC7DD9B3878900BE
:105830008385070026850504C205C181EFB05FFAA4
:10584000D9BF138701821C43938681DC3E95636B2D
:10585000D500B78600209386068063E5A60008C3BE
:105860003E858280FD57EDBF397122DC26DA4AD8A9
:1058700006DE138941822A84452803270900FD5743
:10588000AA846303F702A2852285EF20C07409ED84
:105890002285EF00F01097470000938727098C437B
:1058A000EF2080006349A000F250625426854259DF
:1058B000D2542161828085473EC4228597570000DB
:1058C000938707F43EC602D4EF2070192A87175534
:1058D0000000130525D73ACC3AC82ECE2ECA35255E
:1058E000032709002AD02ED289476303F702280034
:1058F000192D19CDA2579DE302559255EF20F020A6
:10590000F2506254AA8426854259D2542161828081
:10591000EF20303D930710021CC1E9BFEF20703C1F
:10592000A2571CC1D1BF8DAE011122CC131415009A
:1059300026CA06CE4AC84EC652C456C25AC00580B0
:10594000B707803FAA846306F41A63CC8718B707A9
:10595000003F2A8997490000938949FD6358F40262
:10596000B70700326353F42497570000938747EA40
:105970008C4397490000938969FBEF10700B83A556
:105980000900EF107072A6876342A0142685EF000D
:105990003001AA8503A50900EF20602B975700006E
:1059A000938707C48C43EF204001975700009387EB
:1059B00067E68C43AA84EF20400097570000938746
:1059C000A7E58C43EF10D006A685EF10107F975700
:1059D00000009387A7E48C43EF206027A685EF1093
:1059E000D07D975700009387A7E38C43EF105004B6
:1059F000A685EF10907C975700009387A7E28C4311
:105A0000EF20E024A685EF10507B97570000938786
:105A1000A7E18C43EF10D001A685EF10107A9757BD
:105A200000009387A7E08C432A8A2685EF10F07840
:105A3000975700009387C7DF8C43EF204021A6854E
:105A4000EF10B077975700009387C7DE8C43EF10B5
:105A5000207EA685EF107076975700009387C7DDEC
:105A60008C43EF20C01EA685EF10307583A509007A
:105A7000EF10007CAA8A26854D2EB7A7793F938721
:105A80009799AA8963DD8708D6855285EF10F03093
:105A9000CE85EF109072CE85EF108079AA85EF1039
:105AA000207997570000938767D98C43EF1040788F
:105AB00097570000938747D5AA858843EF20201980
:105AC000AA876345200137070080B98FF2406244FE
:105AD000D2444249B249224A924A024B3E8505616C
:105AE0008280AA85EF20A016AA85EF10102BAA8726
:105AF000F1BF97570000938727D18C43EF10F06BCD
:105B000097570000938787D08C432A842685EF100F
:105B1000D06AAA852285EF10A071AA8745BFAA8501
