:040000006F0070130A
:100004000000000000000000760600007A060000F0
:10001400000000003409000000000000000000009F
:100024003409000034090000000000000000000052
:100034006E25000000000000000200000000000027
:1000440034090000340900003409000034090000B8
:1000540034090000340900003409000034090000A8
:100064003409000034090000340900003409000098
:100074003409000034090000340900003409000088
:100084003409000034090000340900003409000078
:100094003409000034090000340900003409000068
:1000A4003409000034090000340900003409000058
:1000B40034090000C21700000217000034090000D0
:1000C4003409000034090000340900003409000038
:1000D4003409000034090000AA18000034090000A3
:1000E4003409000034090000340900003409000018
:1000F4003409000034090000340900003409000008
:100104000000000034090000340900003409000034
:1001140034090000340900003409000034090000E7
:1001240034090000340900003409000034090000D7
:1001340034090000340900003409000034090000C7
:1001440034090000340900003409000034090000B7
:1001540034090000340900003409000034090000A7
:100164003409000034090000340900003409000097
:100174003409000034090000340900003409000087
:100184003409000034090000340900003409000077
:100194003409000034090000340900003409000067
:1001A400000000000000000000000000000000004B
:0C01B4000000000000000000000000003F
:10020000130181F806C216C41AC61EC822CA26CC1B
:100210002ACE2ED032D236D43AD63ED842DA46DC76
:100220004ADECEC0D2C2D6C4DAC6DEC8E2CAE6CC46
:10023000EACEEED0F2D2F6D4FAD6FED8F3220030CF
:1002400096DA9702002083A2A2F023A02200F325D1
:1002500010342EC09305000273A0458003A1818253
:10026000EF20D07517030020032383EE0321030042
:10027000824273901234D652739002309240A2425E
:100280003243C2435244E244724582551256A2564A
:100290003257C2575258E25872598649164AA64AEE
:1002A000364BC64B564CE64C764D865D165EA65ECA
:1002B000365FC65F13018107730020301300000012
:1002C00013000000130000001300000013000000E2
:1002D00013000000130000001300000013000000D2
:1002E00013000000130000001300000013000000C2
:1002F00013000000130000001300000013000000B2
:1003000083A28182938202E073900234170100205D
:10031000032101E4024182403243C2435244E24499
:10032000724582551256A2563257C2575258E25859
:1003300072598649164AA64A364BC64B564CE64C6D
:10034000764D865D165EA65E365FC65FD652A1020A
:1003500073900230A24213018107828013000000D3
:100360001300000013000000130000001300000041
:100370001300000013000000130000001300000031
:100380001300000013000000130000001300000021
:100390001300000013000000130000001300000011
:1003A0001300000013000000130000001300000001
:1003B00013000000130000001300000013000000F1
:1003C00013000000130000001300000013000000E1
:1003D00013000000130000001300000013000000D1
:1003E00013000000130000001300000013000000C1
:1003F00013000000130000001300000013000000B1
:10040000F322003093F272FF130380781203B3E2F9
:100410006200711523205500130585FA10C12115BE
:10042000232005009302000063870200711523203A
:100430000500FD12D5BF71150CC1828000000000BF
:1004400000000000000000000000000000000000AC
:10045000000000000000000000000000000000009C
:10046000000000000000000000000000000000008C
:10047000000000000000000000000000000000007C
:10048000000000000000000000000000000000006C
:10049000000000000000000000000000000000005C
:1004A000000000000000000000000000000000004C
:1004B000000000000000000000000000000000003C
:1004C000000000000000000000000000000000002C
:1004D000000000000000000000000000000000001C
:1004E000000000000000397101436EC619A0397187
:1004F00041536AC866CA62CC5ECE19A039710153F5
:100500005AD056D252D44ED64AD826DA22DC06DE4B
:1005100033016140828241114AC026C222C406C60C
:100520008282B24D4101024D924C224CB24B4101AC
:10053000024B924A224AB249410102499244224462
:10054000B240410182803D432A876373C30293779F
:10055000F700BDEFADE5937606FF3D8ABA960CC372
:100560004CC30CC74CC74107E36BD7FE11E2828036
:10057000B306C3408A069702000096966780A600DD
:100580002307B700A306B7002306B700A305B700EB
:100590002305B700A304B7002304B700A303B700E3
:1005A0002303B700A302B7002302B700A301B700DB
:1005B0002301B700A300B7002300B700828093F5A2
:1005C000F50F93968500D58D93960501D58D61B76E
:1005D000939627009702000096968682E78086FA17
:1005E0009680C1171D8F3E96E374C3F8A5B7EFF24E
:1005F0009FF237140140B774000013040480138580
:100600004444EF50F0519305001022855921130501
:100610004006EF205034228593050010AD291305C4
:100620004006EF205033E1BFEFF2FFEE37740000D9
:10063000B7070020370500009305C4439387471090
:1006400015478146130600101305E55EEF20605440
:10065000B70700203725000093870710154781460C
:10066000130600109305C4431305C58DEF20605297
:10067000EF206072D9B57300203001A0EFF2BFE91E
:1006800041118545114502C202C402C689258D4724
:100690007C8237150140C1473EC64C008D4713058B
:1006A00005803EC43D26410149BDEFF2DFE6094524
:1006B0007929912AEF308019716513050520EF30F3
:1006C000A01FB707002083A5070D3775000013058D
:1006D0004545EF50B033CD2CAA8537750000130582
:1006E0004546EF50B032B77500003775000093856E
:1006F00045471305C547EF507031493735373774D3
:1007000000001305C449EF50B041E5BFB7170240E0
:100710009843B706FFF041111367170098C3D843F9
:1007200037060200758FD8C39843B706F7FEFD164B
:10073000758F98C39843B706FCFFFD16758F98C355
:10074000D843B70601FFFD16758FD8C39843B70687
:1007500000ECFD16758F98C33707FF0098C723A6D6
:10076000070202C402C69843C166558F98C3B716E4
:10077000024005679C42F18F3EC6A24785073EC4F2
:10078000B24781E7A247E397E7FEB71702409C43D1
:100790001397E7006357070685473EC632478547EC
:1007A000631FF704B7170240D843B706C1FFFD1611
:1007B000D8C3D843D8C3D84313670740D8C3D84356
:1007C000758FD8C3D843B7061D00558FD8C398433B
:1007D000B7060001558F98C3984393166700E3DD71
:1007E00006FED843B7160240719BD8C3D84313679F
:1007F0002700D8C32147DC42B18BE39EE7FE4101CD
:10080000828002C661BFB7160240D842B7070020F7
:100810001146318B9387070D6305C7002146630896
:10082000C70237177A001307072098C3371702400B
:10083000584311839376F70037070020130707000A
:100840003697142398433357D70098C38280D842F1
:10085000D442416649833D8BF18E1306270015CFA4
:100860003D47630FE6024147630FE6024547814576
:100870006313E6004146A1E23747024003270780A1
:10088000418B0DC737177A00130707203306C702BD
:1008900090C3C9DD9843058349BF81454946E1BFFF
:1008A00085453546C9BF81453D46F1B737173D00FF
:1008B00013070790E1BF3715024058559316F7000C
:1008C000585563DF060411833D8B930617003717D5
:1008D0007A00130707203357D70298C35455A182D3
:1008E000BD8A8DE295463307D702058398C3371733
:1008F0000240585794433D8B050733D7E60298C30F
:10090000984369B705456394A600E546E9BF3D45B0
:100910006396A600D1463387E602C9BF8906E5BFC4
:100920003D8B9306170037177A00130707203357BC
:10093000D702F1B701A0970100209381A1F91771A7
:1009400000201301216C177500001305651D97F534
:10095000FF1F9385256B1386018363FAC5008322ED
:10096000050023A0550011059105E3EAC5FE17F522
:10097000FF1F13052579973500209385A5E163773F
:10098000B500232005001105E36DB5FEFD4273900F
:1009900002BCFD4273904280B782000093820280C5
:1009A0007390023097F2FFFF9382026693E2320067
:1009B00073905230EFF09FD597020000938222CFC0
:1009C0007390123473002030B7F7FF1F03A54770F0
:1009D00082809C4513F7070113F8F70001C7D8413F
:1009E0003368E8008E2113F7F50F39C318418146AB
:1009F000854E3D4F930F800293028004214E339623
:100A0000DE00B3F8C5006311160393982600331374
:100A10001F011343F3FF3377E300B318180133E7E3
:100A2000E800639FF70550C98506E39AC6FD18C123
:100A30001307F00F6375B70454412146854E3D4FAF
:100A4000930F800293028004414EB398CE0033F797
:100A500015016392E8021317260001173313EF0004
:100A60001343F3FFB376D3003317E800D98E639DA9
:100A7000F701232A15010506E319C6FD54C182803A
:100A8000E39457FA10C94DB7E39757FE2328150191
:100A9000DDB70CC982804CC982801E2189C593E7CD
:100AA00007101EA18280C207C18393F7F7EFC20728
:100AB000C183C5BF1E2189C593E707201EA182807F
:100AC000C207C18393F7F7DFC207C183C5BF1E21E9
:100AD00089C593E707401EA18280C207C18393F7AF
:100AE000F7BFC207C183C5BF0EA982800A2913754B
:100AF000F50F828093F7E50F19C293E71500C2073F
:100B0000C1831EA982805E290A2D42055D8D6D8DEF
:100B1000220521810D8D133515008280411102C4FB
:100B200002C693D7C5012AC63EC4A247A205A18129
:100B300099CBB247D1073EC6B247884341016D8D7C
:100B40003335A0008280B247C181E107EDB7B70716
:100B5000002023A4A7108280371702405C439146EF
:100B6000B18B6385D700A1466382D706B7177A0099
:100B7000938707201CC1371602405C4237070020CC
:100B8000130707019183BD8BBA9794231C41B3D7F8
:100B9000D7005CC15442A1829D8ABA969422B3D6F2
:100BA000D70014C55442AD829D8A36971823B3D717
:100BB000E7005CC55842398393763700138741803C
:100BC00036971823B3D7E7021CC982805C43584389
:100BD000C166C983758FB7F6FF1F83A6C670BD8B2C
:100BE00089071396160163480600C54601466392BD
:100BF000D702C94739A88946638FD702BD46638E9D
:100C0000D702C146638ED702C54601466393D7001B
:100C1000C1471DEF3747024003270780418B05C7B7
:100C200037177A0013070720B307F7021CC121D634
:100C30001C41858381B701466DBF0546B547D1BFCD
:100C40000146BD47F9B737173D0013070790E9BFC5
:100C5000B7150240D8559316F700D85563DF060440
:100C600011833D8B9306170037177A00130707206F
:100C70003357D70218C1D455A182BD8A8DE295465B
:100C80003307D702058318C137170240585714415C
:100C90003D8B050733D7E60218C1184171B785456A
:100CA0006394B600E546E9BFBD456396B600D146FC
:100CB0003387E602C9BF8906E5BF3D8B930617005F
:100CC00037177A00130707203357D702F1B799C5B2
:100CD000371702401C4F5D8D08CF8280B717024046
:100CE000984F1345F5FF798D88CF82804EB9828069
:100CF0000EBD82804EBD82802310B50482804A39A9
:100D000082800A3D82804A3D8280035505048280AC
:100D100093C5F5FFC205C1810EA98280EFF2AFFF36
:100D20001629F577FD17F58FF621DA257971D58F1C
:100D30001EA95625FD779387379FF58FD6212A84E4
:100D40002EC6D58F9625D58FB625D58F5EA55E2963
:100D5000C207C18393F7F7CFD98F5EA96808ED3B2F
:100D6000B747014093870780B245631EF402A2573C
:100D70006547B387E7029841930640060A07B3D751
:100D8000E70233D7D702B3F7D70212079207938748
:100D90002703B3D7D702BD8BD98FC207C1831EA447
:100DA00045616FF08FF99257E1B791C55E250967EC
:100DB000D98F5EA582805A25F977FD17F98FD5BFA7
:100DC00093F5F51F4EA182804A211375F51F82808D
:100DD0000A216D8D3335A000828093C5F5FFC205D1
:100DE000C1810EA1828013F7F50F85461583B39755
:100DF000B6006311D7025A25F98F1A21014542071F
:100E0000418381CB0545A181B315B5006D8F333585
:100E1000E000828089466314D7001A29F1BF5A295D
:100E2000E1BFEFF24FEF3704002093070402BC2725
:100E300041117D55CDC71304040218405C40A3073F
:100E400001006C3788239306F100054621231840E2
:100E50005C409306F1004C3388230546E5295C404D
:100E600018409306F10088234C230546E52183476B
:100E70004402ADCBB147DC8718405C409306F100DB
:100E80004C2388230546F92113052003EF20301F4A
:100E9000930700FCDC873C24858B99C38157DC8752
:100EA0005C4018409306F10088234C2305465D21E1
:100EB0001C3891C38947DC8718405C409306F100D9
:100EC0006C3788230546792118405C40A307010050
:100ED0009306F10088234C330546AD2901454101B5
:100EE0006FF0AFE59147DC8718405C409306F10056
:100EF0004C2388230546B9293C281307000491E7B1
:100F00003C24858B99C3130700065C40D8871840A2
:100F100088239306F1004C2305462D291305200351
:100F2000EF20F0151C3818409306F100B337F0009D
:100F3000DC875C406C3705468823292918405C40D3
:100F40009306040141BFEFF26FDBB70900209384E1
:100F5000090283C74402411195C7B824FD5739C718
:100F6000DC409840AE8A2A892C278823328A740074
:100F700009467D211C868086A2075D8C637624014C
:100F800023000A00FD571DA0D840938909023E2383
:100F9000858363F187029C40082374008C3B0546DF
:100FA00041211C86C18B99C7AD3DF9573E85410152
:100FB0006FF00FD883A7490003A70900D6868823BE
:100FC0002C371376F90FA9293354240381477D1454
:100FD00023008A00E1BF8280EFF26FD17971AA8B82
:100FE0002E8BB28A930791001307A1007400101092
:100FF0002C080808792A631C05183C85094593F7D5
:101000000710638307180255B7790000EF40D05FDF
:1010100083A5094CEF40406E2A891255EF40D05EFF
:1010200083A5094CEF40406DAA842255EF40D05D66
:1010300083A5094CEF40406C2A843255EF40D05CC8
:1010400083A5094CEF40406BB777000083A5474C60
:10105000AA892685EF40406AAA8CCA854A85EF3066
:1010600010712A8CCE856685EF4000692A8AA28598
:101070006285EF406068AA855285EF30506FEF209F
:10108000D00FEF40D064377A000003268A4C8326C5
:10109000CA4CEF307015EF40506E23A0AB00A28514
:1010A0002285EF30D06CAA8BA6856685EF40C064A0
:1010B000AA8CA2855E85EF402064AA856685EF40F4
:1010C000F00CB777000083A5074EEF30506AAA8C6A
:1010D000CE855E85EF404062AA8BA6856285EF4093
:1010E000A061AA855E85EF309068E685EF20D01478
:1010F000EF40F05D03268A4C8326CA4CEF30D00EB9
:10110000EF40B0672320AB00CA854A85EF40C05E40
:101110002A8BA6852685EF40205EAA855A85EF306A
:1011200010652A8BA2852285EF40005DAA855A852D
:10113000EF40D0052A8BCE854E85EF40E05BAA8537
:101140005A85EF40B004A2852A8B2685EF40C05A0D
:101150002A84CE854A85EF40205AAA852285EF3021
:101160001061AA85EF30B060DA85EF20F00CEF4017
:10117000105603268A4C8326CA4CEF30F006EF4007
:10118000D05F23A0AA00014545616FF0CFB90545A6
:10119000E5BFEFF2CFB5B70A0020938B8A1A2A89F0
:1011A00003C5EB000111AE89328B231007003E8688
:1011B0008A85B6843A8A413B5DE103D7AB002A8435
:1011C000938A8A1A93774701638407181C80948056
:1011D0009082E207C206D58F948142060C84D58F97
:1011E0001481E2058886A206D58F14822320FB0095
:1011F000C187E206D18E9083B387F7024205D18E74
:1012000010832206D18E90842322DB00C186420601
:10121000D18D9085B386D602D18D10852206D18DD1
:1012200010862324BB00C1856206498E8887BE963E
:10123000B387B502498E08872205498E2326CB0045
:1012400041863306C602B697B70600F1B297B69745
:10125000B706000263F7F600E93623100A007D5452
:10126000E5A083570A0093E707102310FA00C1474F
:1012700093760704A1C61410BE9603C606FE83C566
:1012800016FE990722064D8E2390C90003C626FE3E
:1012900083C536FE93F7F70F22064D8E2391C900C2
:1012A00003C646FE83C656FE2206D18E2392D9007F
:1012B00083560A0093E686002310DA009376071817
:1012C000A1C61410BE9603C606FE83C516FE990776
:1012D00022064D8E2310C90003C626FE83C536FEA6
:1012E00093F7F70F22064D8E2311C90003C646FE61
:1012F00083C656FE2206D18E2312D90083560A00D9
:1013000093E606072310DA000D8B0DCF3309F100A9
:101310008347190083493900858B99CB83A70A003D
:1013200081CB93F5790013D5390085051D89829706
:1013300083471900A18B99C783A74A0081C713D59A
:101340006900829726854139228505616FF0AF9D3E
:10135000814739BFEFF28F9AB7640040AA8A2E8A7C
:101360003289368493890480B70502004E85EFF0F8
:10137000EFFA7DF9138504808545B7040300B7694A
:101380000040EFF08FF18504138B0980A6855A8504
:10139000EFF06FF765DDD685138509800146B70448
:1013A0000700B7690040EFF0EFF493842408938AB4
:1013B0000980A6855685EFF00FF565DD1385098058
:1013C000D285B7090700B7640040EFF0EFF19389C9
:1013D000490893840480CE852685EFF0CFF265DD41
:1013E000B7640040B7090700229993840480938969
:1013F0004908631B89003765004085451305058052
:10140000EFF04FEB6FF0CF9205048345F4FF268594
:10141000EFF08FEDCE852685EFF0EFEE65DDD1BFE5
:10142000EFF2CF8DB76400402A8AAE8A32843689C3
:1014300093890480B70502004E85EFF02FEE7DF909
:10144000138504808545B7040300B7690040EFF0B9
:10145000CFE48504138B0980A6855A85EFF0AFEAA7
:1014600065DD138509800146D285B7040700B76999
:101470000040EFF02FE893842408138B0980A685A1
:101480005A85EFF04FE865DDD68513850980B704EE
:101490000700B7690040EFF02FE593844408938A72
:1014A0000980A6855685EFF00FE665DD1385098076
:1014B0008545B7040300B7690040EFF00FDE8504EF
:1014C000938A0980A6855685EFF0EFE365DD1385E5
:1014D00009800546D285B7090300B7640040EFF0E4
:1014E0006FE1890993840480CE852685EFF0AFE112
:1014F00065DDB7640040B7090300130AF00F938459
:101500000480938909047D141374F40F6310440359
:1015100037640040130504808545EFF0AFD9854559
:1015200013050480EFF0AFDA6FF08F8009E4814596
:101530002685EFF0CFD9CE852685EFF0CFDC65DDAF
:101540002685EFF0AFDA2300A90005096DBFEFE2B1
:101550009FFC41112A849306E100AA8505461305E4
:10156000000D7D3D930514009306F100054693F5AB
:10157000F50F1305000D6D351C878887A2075D8D5B
:1015800041016FE09FFBEFE21FF9411170002C0059
:101590004800EFF07FA4B247370400201304841BF7
:1015A0001CC09247AA84130570045CC0A2471CC4E7
:1015B000793F4AA413053004593F6AA41305500427
:1015C000793731150AA8268541016FE01FF7EFE250
:1015D0009FF41C45AA842E890314A50089EF0841B5
:1015E00093050000EF30707A19E50A042694232051
:1015F00024016FE09FF4894705043364F4020397E4
:10160000840093170401C1870A04BEA426942320F2
:101610002401E390E7FE8507858B9EA4D9BFEFE206
:101620009FEF2A84084193050000EF3050144C408E
:10163000EF30F013B777000083A54754EF40C00B9D
:101640006FE0BFEF9307005A63FBA700856713871E
:10165000F7B3636EA7049307206763E4A70013053D
:10166000005A83C7118199EB13072067AA87637417
:10167000E5009307206713950701418183A7C18087
:101680000947FD15638EE706EFE2FFE89397250013
:10169000B70500209385C504BE959C416382E7048D
:1016A000634AF70005476385E7026FE01FE913858A
:1016B00007B445BF0D47638DE7021147E397E7FE87
:1016C000AA8537550140130505C0EFF0EFE2F1BFE1
:1016D000AA8537550140130505C0EFF02FE1F1B79A
:1016E000AA8537550140130505C0EFF06FE075BFBF
:1016F000AA8537550140130505C0EFF0AFDF75B778
:10170000828037150040854513050580EFF04FE0D6
:1017100073002030EFE23FE0370400208325841B74
:1017200093840191138501911304841B4D354C4022
:101730001385C400693D0C4413858401493D03159C
:10174000C400EF40606CAA85138544024935031537
:10175000E400EF40606BAA85138504038D3D0315FB
:101760000401EF40606AAA851385C4038D356FE0DC
:10177000DFDCEFE25FDA9384019137040020138508
:1017800001911304C41C613D08C013858401413DCF
:1017900048C01385C400613508C41385440241352F
:1017A000EF40005B4AA413850403953DEF40405A87
:1017B0006AA41385C403A535EF4080590AA86FE0D9
:1017C000DFD737050040411185451305054022C686
:1017D000EFF00FD4EF00E06F7D330DE5253F513F73
:1017E00003A7C1808947630FF70083C7118195EF75
:1017F00037040020035544129307306A63F8A700AA
:10180000EF006071324441017300203085451D3D79
:101810000355441289453D35035544128D451D3508
:10182000035544129145393DF1BF3704002013049C
:10183000C405EF00B0081C44138541BD82971C44C9
:10184000138541B882971C44138541B382971C4489
:10185000138541AE82971C44138541C782971C446F
:10186000138541C2829779BFEFE2FFCA2A84EFF065
:10187000AFD5B706002003C7C610138641AA930749
:10188000170093F7F70F329708A32386F610130774
:1018900000046394E70023860610752693055052D2
:1018A0002285EFF08FD36FE05FC9411122C6374424
:1018B00000409305505213050440EFF0CFD219C9F0
:1018C0009305000213050440EFF08FD001C5130506
:1018D0000440593F3244410173002030EFE2BFC35E
:1018E000370400200325C41C1304C41CEF40205EF1
:1018F0002A8637750000AE8613058554EF40101117
:101900004840EF40C05C2A8637750000AE8613055C
:101910008555EF40B00F0844EF40605B2A8637756D
:101920000000AE861305C556EF40500E8315C40067
:101930003775000013050558EF40500D8315E4007E
:101940003775000013054559EF40500C831504010D
:10195000377500001305C55AEF40500B03A581C42D
:1019600037540140EF40A0562A8637750000AE86F6
:101970001305055CEF40900903A581BAEF4020559F
:101980002A8637750000AE861305055DEF40100806
:1019900003A581B0EF40A0532A8637750000AE86BC
:1019A0001305055EEF409006130504C0EFF06FB518
:1019B000AA85377500001305455FEF403005130514
:1019C00004C0EFF04FB4AA85377500001305056019
:1019D000EF40D003130504C0EFF06FB2AA8537754E
:1019E00000001305C560EF407002130504C0EFF05E
:1019F000CFB1AA853775000013058561EF4010014E
:101A000083C7018109476391E70437750000130517
:101A10004562EF40F01083C71181A1E737750000E0
:101A200013050566EF40D00F83A781800547639FAC
:101A3000E7023775000013058568EF40700E2945F1
:101A4000EF1060716FE07FAF05476397E700377570
:101A500000001305856375BF377500001305C56465
:101A60004DBF37750000130545676DBF0947E39803
:101A7000E7FC377500001305C569C1B7AA95814712
:101A8000138781956314B5003E85828005058346E2
:101A9000F5FFB58FBA979C23F5B7370700201307DA
:101AA000C7101C236365F500230007008280898F1F
:101AB00093F7F70F1CA3938641AA01473306A700AB
:101AC00036960C223386E60005070CA2E318F7FED3
:101AD0008280582134311D8B2207938781A5558F31
:101AE00098C358219356370058311377F7031607D8
:101AF000558FD8C35431782199820A07D98E78310D
:101B0000058B2A07558F98C77831935617001825EB
:101B10003D8B1E07558FD8C718259356470018359B
:101B20001377F7071207558F98CB143538259D8208
:101B30000607D98E38350D8B2607558FD8CB38350B
:101B40009356270058257D8B1A07558F98CF582517
:101B50009356570058350E07558FD8CF78357425D2
:101B60001D8B2207558F98D3783593563700182947
:101B70001377F7031607558FD8D31429183999828C
:101B80000A07D98E3829058B2A07558F98D7382907
:101B90009356170038393D8B1E07558FD8D73839E3
:101BA0009356470058291377F7071207558F98DB8C
:101BB000542958399D820607D98E78290D8B26071E
:101BC000558FD8DB78299356270078397D8B1A07F3
:101BD000558F98DF783993565700182D0E07558F7B
:101BE000D8DF8280EFE23F9358213C314111220738
:101BF0005D8F5C316C002946C2075D8F7C211385A7
:101C000081A9E207D98F3EC6EF40205541016FE020
:101C1000DF92938741AA94231307800C6394E60212
:101C2000EFE27F8FBC235147638AE70059476395F2
:101C3000E700138541AA713D6FE03F90138541AAEB
:101C40005537DDBF8280EFE27F8B938441AA37094D
:101C500000208549130AB003938A24000347C91062
:101C600063F1E90480309307D4FF93F7F70F6375AE
:101C7000FA0005451D35DDB79307140063D3E7026D
:101C8000A69703CB07009305F4FF93F5F50F568550
:101C9000F533E310ABFEB53F130524001375F50FC4
:101CA000D1BF6FE0FF88EFE21F871307803EAA874E
:101CB0006352A702130585C1EF304024B7770000B7
:101CC00003A6076B83A6476BEF201052EF40E02A74
:101CD0006FE0BF861307803D13050000E34AF7FE5F
:101CE000138577C2D1BF9307800C63F0A704EFE29E
:101CF0009F82130585F342054181EF302020B7779D
:101D0000000003A6876B83A6C76BEF20F04DB77763
:101D1000000003A6076C83A6476CEF20E059EF3064
:101D20002018420541816FE05F8113056054828075
:101D300083A781A69387779093B7070193C717006E
:101D4000A388F180828003A701A7BD461306779080
:101D50009387018163E5C600094798A38280130732
:101D600027C2D14663E4E6000547C5BF23800700CC
:101D70008280EFE24FFAB707002003A6471DB7079E
:101D8000002003A5071241119305000032C6EF3071
:101D9000001EB7070020324683A78706AA85138551
:101DA00041BD829741016FE04FF9EFE2CFF6039515
:101DB000C190EF406005B777000083A5876CEF30D6
:101DC000A051B707002083A7870683A581BF2A8675
:101DD000138541B882976FE04FF6EFE2CFF3B70774
:101DE000002003A6C71CB707002083A50711B7076B
:101DF000002003A58712411132C6EF304017B70704
:101E00000020324683A78706AA85138541C782979B
:101E100041016FE08FF2EFE20FF0039581903305FF
:101E2000A040EF30707EB777000083A5876CEF305D
:101E3000A04AB707002083A7870683A581C92A8601
:101E4000138541C282976FE04FEFEFE2CFECB70707
:101E5000002003A6071DB707002003A5C7114111E5
:101E60009305000032C6EF308010B70700203246DD
:101E700083A78706AA85138541B3829741016FE046
:101E8000CFEBEFE24FE90395A190EF30F077B77712
:101E9000000083A5876CEF302044B707002083A79C
:101EA000870683A581B52A86138541AE82976FE0A8
:101EB000CFE883A741A71307F00B6396E700054718
:101EC00023A4E180828013070070E39DE7FE0947A9
:101ED000C5BFEFE24FE4138481A54844E933B70757
:101EE000002023A4A71203A581A5753BB7070020F6
:101EF00023A0A7124840453BB707002023AEA710F8
:101F00000844D533B70700202392A7121535253D85
:101F10004D376FE08FE2EFE28FDDA13D7935353748
:101F20008D37653DCD3DB70700203704002003A75E
:101F3000C71C835C4412B707002023A8E7106685FE
:101F4000EF30906C83AA81B0AA8B370C0020D68525
:101F5000EF30E00103A981BA83A481C4CA85AA89AC
:101F6000EF30E000A685EF308000EF309064131A68
:101F70000501135A0A01CA854E85231A4C11EF3008
:101F8000F020A685EF309020EF30B0629319050164
:101F9000370B002093D90901D685231B3B115E85A1
:101FA000EF30D01EAA852A8D4A85EF20507CA68569
:101FB000EF20F07BEF30F05F931B0501B70A0020A4
:101FC00093DB0B01239C7A11CA856A85EF30101CC4
:101FD000A685EF30B01BEF30D05D4205B70400207E
:101FE00041818567239DA410938707B4130444128D
:101FF00013074C11130B6B11938A8A119384A4114C
:1020000063F047071EA38567938707B463F137071B
:102010002310FB008567938707B463F1770723904C
:10202000FA008567938707B463F1A7069EA083A78C
:10203000818085466392D7060A238545EFF08FE0BD
:1020400003550B008945EFF0EFDF03D50A008D45FE
:10205000EFF04FDF8A209145EFF0CFDE6FE0AFCC9D
:102060009307F059E3E147FB9307005A61BF9307D9
:10207000F059E3E137FB9307005A59BF9307F05932
:10208000E3E177FB9307005A59BF9307F059E3E068
:10209000A7FA9307005A59BF0947E391E7FC854522
:1020A0006685EFF02FDA0A208945EFF0AFD90A20D4
:1020B0008D45EFF02FD991450A2079BFEFE2AFC5EA
:1020C00085451305005AEFF0EFD789451305005AEF
:1020D000EFF04FD78D451305005AEFF0AFD691457D
:1020E0001305005AEFF00FD66FE02FC593070000DD
:1020F0001CC15CC11CC55CC51CC91CCD5CC95CD1C4
:102100001CD55CD51CD98280930700003CC15CDDE6
:102110001CDD5CD11CD95CD51CD57CC53CC57CC103
:102120008280930700007CC53CC57CC13CC15CDD5E
:102130001CDD1CD95CD51CD55CD15CCD1CD182804A
:10214000EFE2CFBB2A843C448329440410D07CC4F2
:102150002E85232434054CCCB285EF3030030C405F
:1021600068C0AA84EF3040594C4008D42A8A26859A
:10217000EF3080584C54EF20905F5C5CCE852A890C
:102180003CC01C5C48D426855CDCEF3030000C443D
:1021900008DCEF306056832A4401AA8908D8D68526
:1021A0004A85EF3040446355A0002326540309A814
:1021B000832A84014A85D685EF30404BE34705FEEC
:1021C0004C545285EF20B05ACE85EF20505A032947
:1021D000C40048D0AA89CA85EF30E0406355A0000A
:1021E0002322240309A8032904014E85CA85EF3060
:1021F000E047E34705FE032944032685CA85EF30FF
:10220000E046634FA000B7050080B3C525012685D1
:10221000EF30603D63460500930700005CD05CD45E
:102220006FE00FB1B7070020938747149843636F9F
:10223000A702D043B386C7006316D50054413E853C
:10224000B296D4C35041B306C500631CD700B7068D
:10225000002083A6C6126306D70054431843B296E3
:1022600054C118C16303F50088C38280BA877DBF5B
:10227000EFE2CFA841112AC6EF00103BB7060020BD
:1022800083A7C612370600209386C61213060613CC
:102290003245A1EF370700209307475993F5F70020
:1022A0001307475981C51387F700419BB7050020E5
:1022B0009385451423A2050098C18D65C115AE977D
:1022C000C19B23A2070023A00700B385E7409CC25F
:1022D0001CC3B707002023ACB712B707002023AAFE
:1022E000B712B70700804CC31CC2032A0600B3779D
:1022F000AA0085E39307F5FF3957636CF70093074E
:10230000050113F7F70041C313F707FF410763EB1C
:10231000E706814489A022872E8461A058C15CC051
:1023200011375840B7060020938686139042B307B2
:10233000E94023A0F90063F3C7009CC2B70700205F
:102340003367EA009387C71358C09843C10423201A
:102350000400050798C3EF00904993F7F400D1CB30
:10236000A167938707807390073037760000377531
:1023700000001306C66C930500111305456FEF307E
:10238000F06801A0BA873707002003294713930993
:102390004713E360F9F837070020032447141307B5
:1023A000471450406374F6000C40B5F59442E38244
:1023B00086F61440044314C33307F6409306000224
:1023C000E3F1E6F63305F4009376F500A1DAA167B0
:1023D00093870780739007303776000037750000C9
:1023E0001306C66C9305F00C1305456FEF301062B1
:1023F00001A0268541016FE0AF935DC1EFE2AF918F
:10240000B7070020032745FF83A707132A84B37665
:10241000F7009DE2A16793870780739007303776B6
:102420000000377500001306C66C930540121305B3
:10243000456FEF30B05D01A0832605FF9DC2A16707
:102440009387078073900730377600003775000058
:102450001306C66C930550121305456FEF30105BE1
:1024600001A093C7F7FFF98F232AF5FEEF00D01BD9
:10247000B7070020938747139443032744FF1305AE
:1024800004FF369798C3EFF0FFD9B7070020938772
:1024900007149843050798C3EF0070356FE0EF8984
:1024A0008280B7E700E041572387E7402386E74073
:1024B000B7F700E023A0070023A20700814694C7D6
:1024C0000147D8C7370700208325070D1307401F92
:1024D000814633D6E5023D4790CBD4CB98C382806A
:1024E000EFE26F83411102C6F32750303EC6B24778
:1024F0000D478D8B6384E702A167938707807390F4
:102500000730377600003775000013068671930593
:10251000600B1305456FEF30704F01A0B7870020A7
:1025200093870700BD8B9DC3A16793870780739036
:102530000730377600003775000013068671930563
:10254000B00B1305456FEF30704C01A0993FB7E712
:1025500000E0056723A0E710116723A0E71023AA76
:102560000180EFD0FFD9014541016FD01FFD7311EC
:102570000134A1679387078073900730B7F700E0B5
:1025800023A20700EF00F00B11C5B7E700E01167C9
:1025900023A0E720A1679387878873900730731182
:1025A000013473002030A167938707807390073050
:1025B000938741819843050798C38280138741819F
:1025C0001C438DE7EFD23FF5A16793870780739097
:1025D00007303776000037750000130686719305C3
:1025E00020101305456FEF30704201A0FD171CC38A
:1025F00091E7A1679387878873900730828093075C
:1026000085007D575CC118C55CC51CC92320050029
:1026100082802328050082809841FD56930785001B
:10262000631ED7001C49D843D8C10CC79CC5CCC376
:102630001C4188C985071CC18280B687D44390425B
:10264000E37DC7FECDB7544118451C4998C654C315
:10265000D4436393A600D8C39843232805007D176D
:1026600098C388438280EFD21FEB41112AC6253FD1
:102670003245005DA1371335140041016FD0FFEBE7
:10268000304115C2EFD23FE958451445AA87329729
:1026900058C56364D700184158C52E85CC47EF3024
:1026A000D02B6FD09FE98280EFD2FFE62A84EFF033
:1026B0009FEF8344540413094402E204E184634815
:1026C0009002FD57A302F404EFF05FEFEFF0BFEDCF
:1026D0008344440413090401E204E1846345900245
:1026E000FD572302F404EFF07FED6FD01FE55C503F
:1026F000E9DB4A85EF00104219C1EF00705EFD145E
:10270000E204E1846DBF1C48E1DF4A85EF009040A0
:1027100019C1EF00F05CFD14E204E184C1B7EFD20F
:102720009FDF41111DE1A1679387078073900730F8
:102730003776000037750000130606749305001104
:102740001305456FEF30902C01A05C5D2EC62A84E6
:10275000BDC73841B3B7E702BDE3EFF0DFE4304077
:10276000585C1440232C0402B307E602B24554C05F
:102770003387F600918FB6975CC4FD572302F404AB
:1027800018C4A302F4049DE11C4899CB130504016D
:10279000EF00503811C5B7E700E0116723A0E7202C
:1027A000EFF0DFE1054541016FD03FD9130504018A
:1027B000EFF0FFE413054402EFF07FE4D5B7A16723
:1027C00093870780739007303776000037750000D5
:1027D00013060674930550141305456FEF3010234C
:1027E00001A0EFD25FD3411131C1B3B7A502AA84D2
:1027F00095EF3305B502930770FB63E9A702130554
:1028000085042EC6EFF0DFA62A8409CDB245AA873B
:1028100099C1930785042CC01CC044DC85452285E2
:10282000EFF0FFEF228541016FD03FD1A167938781
:102830000780739007303776000037750000130665
:1028400006749305601C1305456FEF30301C01A022
:10285000EFD2FFC9011132C61DE1A167938707803E
:102860007390073037760000377500001306067442
:10287000930510551305456FEF30501901A02A84B8
:10288000AE898DE53C419DC3A16793870780739016
:10289000073037760000377500001306067493057D
:1028A00050551305456FEF30701601A0EF0010442E
:1028B00015E5B247014985C7A167938707807390E3
:1028C000073037760000377500001306067493054D
:1028D000A0551305456FEF30701301A001497D5AD3
:1028E000930A440237EB00E0916B85A8B24789E771
:1028F000EFF0DFCC014559A8631509002808EF0067
:102900003030EFF0BFCB0D23EFF0FFC98347440415
:10291000E207E187639447012302040483475404D8
:10292000E207E18763944701A3020404EFF01FC9A3
:102930006C002808EF00302E35E12285EFF0BFD281
:1029400029C9B2455685EF0010112285EFF0DFD579
:10295000792D19E123207B210549EFF0DFC4045CC8
:10296000D1D4CE852285FD14EFF09FD104DC1C4824
:1029700099CB13050401EF00F01911C5B7E700E08A
:10298000116723A0E720EFF07FC3054505616FD0F5
:102990009FB92285EFF05FD1992D7DBF2285EFF0A1
:1029A000BFD0B1252285EFF01FCC5DD5A1B715E5CD
:1029B000EFD27FB6A1679387078073900730377691
:1029C000000085653775000013060674938585AC95
:1029D0001305456FEF30900301A09DCD37360020E1
:1029E000930646598147014713064659214883A853
:1029F00046006398A80093173700B2978CC3C8C3EA
:102A000021A891E783A8060063930800B68705070D
:102A1000A106E31E07FDFDF38280EFD2DFAF411177
:102A20002A842EC632C4EFF01FB8834744047D5772
:102A30002246E207E187B2456394E70023020404DB
:102A4000834754047D57E207E1876394E700A302BC
:102A5000040432C62EC4EFF07FB61C5CA245324699
:102A600089E713054402EF0090032285EFF0DFC3EE
:102A700041016FD09FAC37070020130707151C4397
:102A80009443B70700209387071781E67D5798C3C3
:102A90008280184358471843DDBFEFD23FA637095D
:102AA0000020B70700209304C91483A907182A84BB
:102AB0009C4088404111A388070411052EC6EFF001
:102AC0009FB87D579307C914B245631CE40295C9AA
:102AD000B73700209387C7739440D84398C61047F0
:102AE0009440D0C694401047910654C29440910639
:102AF00014C798405CCB9843050798C341016FD039
:102B00003FA398434E9440C3637B340137070020B2
:102B1000032547158C439105EFF01FB0C5B7370764
:102B20000020032507158C439105EFF0FFAEB70792
:102B30000020938707179843E372E4FC80C37DBFAE
:102B4000EFD2DF9B37340020B7090020130404754F
:102B5000370A00209384C9159C40EDDFEFF0BFA435
:102B60005C4403A9C70013054900EFF0DFAD13076C
:102B70008A151C43FD171CC39C40FD179CC0EFF039
:102B8000FFA303250903EFF05F874A85EFF0FF8677
:102B9000D1B7EFD2DF9513192600AA8A4A852E8A6B
:102BA000368BBA8BBE89EFF0AFEC1DC1AA8413053A
:102BB0004005EFF0EFEB2A8409C904D98147C146EB
:102BC000631A0A00230A050225A02685EFF0FF827A
:102BD0007D5565A23307FA00030707003306F400AA
:102BE000230AE60201C78507E396D7FEA301040482
:102BF000B94763F47703A167938707807390073021
:102C00003776000037750000130646759305703956
:102C10001305456FEF30805F01A0130A4400528511
:102C2000232674032322740523240404EFF07F9EDB
:102C300013058401EFF0FF9D3D471305C9FF3307DE
:102C40007741269500C818CC40D023060404A3067B
:102C5000040423070404A307040423080404A308AA
:102C600004045A86D6854199EFD08FF908C0638451
:102C7000090023A08900EFF01F93B7070020938776
:102C800087159843B7040020B7390020050798C37B
:102C90001387C41418439384C4141389495D6310C3
:102CA000070E80C0984385476316F7069389495DF0
:102CB000930AC9124E85D109EFF07F94E39C3AFF45
:102CC00037350020930A057013050570EFF03F9328
:102CD000373500209309457113054571EFF03F9298
:102CE0003735002013058572EFF07F9137350020CE
:102CF00013050575EFF0BF90373500201305C57338
:102D0000EFF0FF8FB707002023A85715B707002063
:102D100023AA3715B707002093874716984305075E
:102D200098C337070020130787165C54144363F3D6
:102D3000F6001CC35147B387E702CA97D84314472C
:102D400018C454C4144723A24601232447019843BE
:102D50005CC8050798C3EFF07F86B707002083A7FC
:102D6000C717054599CB9C40D8575C546377F7004B
:102D7000B7E700E0116723A0E7206FD0CFFAB707CD
:102D8000002083A7C717D9F79C40D8575C54E3E3CA
:102D9000E7F880C041B7EFD20FF8B7070020B7754A
:102DA0000000373500009387C71601478146130698
:102DB000001093858576130505B4EFF09FDD05447B
:102DC000631E8502EF009022631A8502A167938734
:102DD000078073900730B70700207D5723A8E716B8
:102DE000B707002023AEA716B707002023A00718B7
:102DF000EFF00FEF83A781816FD02FF4FD57E31B16
:102E0000F5FEA1679387078073900730377600003F
:102E1000856537750000130646759385058413058F
:102E2000456FEF30A03E01A0B7070020938707163B
:102E30009843050798C38280B707002003A50718A9
:102E40008280B707002083A7071663990718EFD27F
:102E50008FECB7070020938707188043050480C3D1
:102E600021ECB7070020938707159843184305C73F
:102E7000A1679387078073900730377600008565D8
:102E80003775000013064675938575AC1305456FBD
:102E9000EF30C03701A037070020130747159443D0
:102EA000104390C3B707002014C393874717984374
:102EB000050798C3EFF03FBC3706002093070617BD
:102EC0009C4337370020B705002013060617130769
:102ED000475D9385C51401456375F4029C41D14655
:102EE000DC57B387D7023E971843854763F3E70063
:102EF0000545B707002083A7471891C305456FD044
:102F0000CFE3370E0020B70E0020514F93070E1568
:102F10009443944281E6FD571CC2C9B79C43DC47E9
:102F2000DC47D4436374D40014C24DBF83A8870028
:102F300003A8C700D44B1383470023A4080123220E
:102F4000180183A846006394680023A2060103A821
:102F5000060023AA07007D1823A00601945795CAEE
:102F600003A8C70183A8070283AF460023241801E2
:102F700083A8070223A208011388870163940F0125
:102F800023A2160103A8060023A407027D1823A08C
:102F9000060193868E1603A8C70283A8060063F471
:102FA000080123A00601B306E803BA9683A84600E9
:102FB00083AF880023A4170123A6F70183AF8800FD
:102FC00023A26F0023A46800D4CB9C4285079CC237
:102FD0009C41DC57E36CF8F205450DBFB7070020B4
:102FE0009387871798430145050798C38280EFD2DE
:102FF000EFD037040020130404161C40411185E76C
:10300000A167938707807390073037760000856546
:1030100037750000130646759385358B1305456F8C
:10302000EF30C01E01A0EFF00FD81C40FD171CC0F0
:103030001C4089CB01452AC6EFF04FD832454101EB
:103040006FD00FCFB707002083A78715E5D7B73616
:10305000002037350020814793868672370F002085
:103060001305455DD14837030020370E0020854EFB
:1030700059A8DC46DC47CC4F9053985790C503A81D
:1030800007022322B80003284700938587016313B2
:10309000B80050C3104323A407027D1610C38C4709
:1030A000D047D84B1388470090C54CC24C4363931C
:1030B000050150C3104323AA07007D1610C3130750
:1030C0008F16D0570C4363F3C50010C333071603A4
:1030D0002A974C4383AF85008CC723A6F70183AFA3
:1030E000850023A20F0123A405010C43D8CB85053D
:1030F0000CC31307C314184358576366E60013073D
:103100004E182320D70198422DF799C3EFF0BF96B0
:10311000B70700201387871704431384871799CCB8
:10312000370900208549EFF0DFD109C59307491819
:1031300023A03701FD14E5F823200400B707002081
:1031400083A74718E38807EEB7E700E0116723A0DD
:10315000E7200545CDB519E5B7E700E0116723A0E5
:10316000E7208280EFD22FBBB707002083A7071686
:1031700041119DC3A167938707807390073037760D
:10318000000037750000130646759305905413052B
:10319000456FEF30A00701A02AC6EFF0FFC8324507
:1031A0008145EFF09F8FEFF09FE411E5B7E700E076
:1031B000116723A0E72041016FD02FB8B707002087
:1031C00003A70716B70700209387471801C70547CD
:1031D00098C3828023A00700B707002013878716B3
:1031E000184313868716B73700209387475D5148E9
:1031F000B3060703B385D700884115C5C841A106AA
:10320000BE964841C8C16314D5005441D4C1D146CB
:10321000B306D702B697DC43D447B707002023A6EE
:10322000D71418C2828015E7EFD2EFAEA16793875B
:10323000078073900730377600008565377500008A
:1032400013064675938525C01305456FEF20107C46
:1032500001A07D1771BFEFD20FAC05E5A167938781
:10326000078073900730377600008565377500005A
:10327000130646759385C5C11305456FEF20107978
:1032800001A0B70700202E8483A5C714E105EFF045
:10329000AFB885452285EFF05F806FD00FAAEFD2DF
:1032A0008FA72A8705E5A16793870780739007306A
:1032B00037760000856537750000130646759385DF
:1032C00025C51305456FEF20707401A0B7070020D6
:1032D0009387C71454432E858C4303A88600D4CD0E
:1032E0008C4323A0050303A807008C46610823A292
:1032F000050103A807009C43610823A4060198D791
:103300001C4385071CC311C27D55B285EFF0EFF851
:103310006FD0AFA25C45DC4795E7EFD2CF9FA167A6
:10332000938707807390073037760000856537757F
:10333000000013064675938525C81305456FEF20D9
:10334000F06C01A0D04F945398579385870114C611
:10335000D0C250436313B60054C3144323A40702DE
:10336000FD1614C33707002003270716D45725EF8F
:103370008C47D047D84B90C5D04748434CC2938523
:1033800047006313B50050C3104323AA07007D16FE
:1033900010C3370700201307871610436373D60046
:1033A00014C351473386E602373700201307475DC1
:1033B00032975043084690C7C8C708464CC10CC650
:1033C000D8CB1C43014585071CC3B707002083A742
:1033D000C714DC5763F8D700B7070020054723A2BE
:1033E000E71805458280373700201307877250435E
:1033F0000846D0CF88D308464CC10CC698D7D1B761
:10340000B707002083A747171CC1B707002083A771
:1034100007185CC18280EFD20F90411105E5A167CA
:10342000938707807390073037760000856537757E
:103430000000130646759385D5CF1305456FEF2021
:10344000F05C01A085E5A167938707807390073042
:10345000377600008565377500001306467593853D
:10346000E5CF1305456FEF20705A01A02EC62AC480
:10347000EFF06F9337070020B70700201307C7143A
:1034800083A607181C432245B24583C7170599CB6D
:103490001C43A38807040544EFF04F9222854101A5
:1034A0006FD0AF899C417D570144E387E7FE370623
:1034B0000020032646170328050058416307C8006B
:1034C00063E5E60023A00500F9B73386E640E37B19
:1034D000F6FE958FBA979CC1EFF09FF201446DBF45
:1034E000B7070020054723A2E7188280B70700200E
:1034F00083A7C717054581CBB707002003A507168B
:103500001335150006058280EFD2EF8037040020C6
:10351000EFF06F89130444191C40B1E737350020E0
:103520001309457613054576EFF06F8D373500208A
:103530009304857713058577EFF06F8CB70700202C
:1035400023A427190146B7070020C145114523A62A
:103550009718EFF00FA908C019C5B775000093853B
:103560004579EFF0CFC4EFF06F856FC01FFDEFC25C
:103570009FFA4CC108C9AA876362B602184D158E1E
:103580000545637BE60093854700B707002003A548
:10359000C718EFF06F8801456FC03FFA6375D6001A
:1035A0000545E3FBD5FE93854700B707002003A53B
:1035B0008718C5B7EFC23FF62A84AE8432890C4C17
:1035C000A6864A86A6952285EFF07FFA19E16FC09C
:1035D000DFF61C4C2285BE941C508297CDB7EFC2FB
:1035E0009FF3B707002083A787184111AA84DC47FF
:1035F0002EC6C04713054400EFF0EF848347440212
:10360000324613F7470019CBA6852285EFF09FFAC3
:103610001C502285829741016FC03FF2F99B230223
:10362000F402FDB7EFC23FEF370400209306841881
:1036300098421C4391EBB70700209387C71890432B
:1036400098C390C26FC07FEF5C47FD558843EFF091
:103650001FF9E9BFEFC2BFE91D694111B70A002098
:10366000B7090020370B0020B70B0020130909779A
:1036700083A78A18984329CBDC47814C03AC070009
:10368000EFF08FFAEFF04FFB83A709192A84938498
:103690000919130A4B19636CF50288C063800C0486
:1036A00083A7CB1890431336160003250A00B305F1
:1036B0008C40EFF08FB6EFF09F9319EDB7E700E085
:1036C000116723A0E72009A8854C014C55BFEFF0F6
:1036D0007FF580C0EFF0BF91214C0DA00146E3665D
:1036E00085FDEFF0DF90A2856285EFF05FEFEDB72B
:1036F0009247B2458297824763DD070003250A009F
:1037000001468A85EFF0CF9425D582472245E3C153
:1037100007FE22445C489DE3EFF00FF29C40AA8C28
:103720006374F500EFF01FF0824723A09401FD17AA
:10373000E366FCFC8A07CA979C4382871305440012
:10374000EFE07FF0D1BF834744020C4C924693E7F1
:1037500017002302F4026686B6952285EFF03FE15A
:1037600051DD8347440213F7470001CF1C4C9245BB
:1037700066862285BE95EFF0FFE31C502285829776
:10378000B5BFF99B2302F402CDBF83474402F99BE6
:103790002302F402A5B783474402924593E717003A
:1037A0002302F4020CCC9DE1A167938707807390FC
:1037B000073037760000377500001306C679930589
:1037C00090351305456FEF20702401A0E6866686CC
:1037D000E6952285EFF0BFD915B78347440213F76A
:1037E000270055F72285EFE05FC109BFEFC2BFD2C6
:1037F000EFF09FD1B707002083A747199DE3A1678A
:103800009387078073900730377600003775000084
:103810001306C679930590111305456FEF20101F0D
:1038200001A0B7070020B775000037350000938767
:10383000871939478146130600109385457B130588
:103840004565EFF00FB545DD6FC03FCFB7070020EE
:1038500083A7070D37177A0013070720B3D7E702AE
:103860003707002093F7F70F230FF7181307803E51
:10387000B387E70237070020231EF7188280B7F7C7
:1038800000E0D8438146799BD8C33707002003570F
:10389000C7193306A70290CBD4CB9843136707010F
:1038A00098C398431367170298C3D843058B75DFF5
:1038B0009843799B98C38280EFC2FFC52A84116523
:1038C000011185451105EFD08FC0930700207C8240
:1038D000371501408D473EC44C00E1471305058074
:1038E0003EC6EFD00F8F22C837440140B70708000B
:1038F0000C08130504803ECC02CA231E0100EFD041
:10390000EFC1854513050480EFD02FCA05616FC054
:10391000DFC2EFC2BFBEB7440140AE893289014465
:1039200093840480634524014A856FC07FC093055A
:1039300000042685EFD0CFC97DD9B3878900838560
:10394000070026850504C205C181EFD06FC7D9BF26
:103950001387C1811C43B7360020938606793E95B4
:10396000636BD500B78600209386068063E5A600CA
:1039700008C33E858280FD57EDBF397122DC26DA0F
:103980004AD806DE138901822A84452803270900C4
:10399000FD57AA846303F702A2852285EF208037B2
:1039A00009ED2285EF00F01097470000938787B359
:1039B0008C43EF1050436349A000F25062542685B7
:1039C0004259D2542161828085473EC4228597475F
:1039D00000009387E7DE3EC602D4EF20404F2A87DF
:1039E00017450000130585BC3ACC3AC82ECE2ECA26
:1039F0003525032709002AD02ED289476303F70211
:103A00002800192D19CDA2579DE302559255EF209C
:103A1000C056F2506254AA8426854259D25421617C
:103A20008280EF200073930710021CC1E9BFEF20D2
:103A30004072A2571CC1D1BF8DAE011122CC13140C
:103A4000150026CA06CE4AC84EC652C456C25AC02F
:103A50000580B707803FAA846306F41A63CC8718F1
:103A6000B707003F2A89974900009389A9A763589F
:103A7000F402B70700326353F4249747000093879A
:103A800027D58C43974900009389C9A5EF10204E94
:103A900083A50900EF103035A6876342A014268560
:103AA000EF003001AA8503A50900EF10306E97479B
:103AB0000000938767A98C43EF10104497470000DC
:103AC000938747D18C43AA84EF1010439747000097
:103AD000938787D08C43EF108049A685EF10D041A3
:103AE00097470000938787CF8C43EF10306AA685F5
:103AF000EF10904097470000938787CE8C43EF10DC
:103B00000047A685EF10503F97470000938787CD69
:103B10008C43EF10B067A685EF10103E974700006A
:103B2000938787CC8C43EF108044A685EF10D03C60
:103B300097470000938787CB8C432A8A2685EF100E
:103B4000B03B974700009387A7CA8C43EF101064DF
:103B5000A685EF10703A974700009387A7C98C435A
:103B6000EF10E040A685EF103039974700009387AB
:103B7000A7C88C43EF109061A685EF10F03783A59E
:103B80000900EF10C03EAA8A26854D2EB7A7793FBF
:103B900093879799AA8963DD8708D6855285EF10A8
:103BA000A073CE85EF105035CE85EF10403CAA852E
:103BB000EF10E03B97470000938747C48C43EF101A
:103BC000003B97470000938727C0AA858843EF10E2
:103BD000F05BAA876345200137070080B98FF24068
:103BE0006244D2444249B249224A924A024B3E853B
:103BF00005618280AA85EF107059AA85EF10C06D0B
:103C0000AA87F1BF97470000938707BC8C43EF104A
:103C1000B02E97470000938767BB8C432A84268584
:103C2000EF10902DAA852285EF106034AA8745BF3A
:103C3000AA857D74698CEF1080332A8BD6855285D6
:103C4000EF108069AA855A85EF10102B2A8AA28569
:103C50002285EF10702AAA852685EF103053AA849A
:103C6000A2854E85EF10A030AA852685EF10C0668C
:103C7000AA85EF10C02F97470000938727B5AA8524
:103C80008843974400009384A4B7EF103050AA856E
:103C90005285EF10B04FAA89A2852285EF10202D02
:103CA000AA858840EF10904EAA854E85EF10104EE1
:103CB000AA858840EF10904DAA8729BFAA85EF10EA
:103CC000B023974700009387E7B08C432A84EF1016
:103CD000B02297470000938727B08C43EF1020292C
:103CE000A285EF10702197470000938727AF8C4380
:103CF000EF10D049A285EF1030209747000093873E
:103D000027AE8C43EF10A026A285EF10F01E974738
:103D10000000938727AD8C43EF105047A285EF102A
:103D2000B01D97470000938727AC8C43EF102024E9
:103D3000A285EF10701C97470000938727AB8C4338
:103D40002A892285EF10501B97470000938747AAC6
:103D50008C43EF10B043A285EF10101A9747000074
:103D6000938747A98C43EF108020A285EF10D018CD
:103D700097470000938747A88C43EF103041A285F6
:103D8000EF109017973700009387C7758C43EF109B
:103D9000001EAA854A85EF102054A685EF10D01585
:103DA000A685EF10C01CAA871DBDB7070080411172
:103DB00093C7F7FF2E8706C622C4FD8D3706807F86
:103DC000AA866340B604E98F2A83634CF602B708DB
:103DD000803F6300170F1354E74109887D81498CA8
:103DE0008DEB8947630EF4088D473685631FF40019
:103DF000B240224497470000938707A188434101BE
:103E00008280B6853A85EF108016B2402244410187
:103E10008280B9CD638CC506638CC7048D8FDD8726
:103E20001306C003634BF60863580700130640FCF3
:103E30001305000063C8C700BA853685EF10C04976
:103E40008D29E52285476305F40C89476302F40A4E
:103E50004DDC974700009387A79C8C43EF102011FF
:103E6000974700009387079A8C43EF10303271BF59
:103E7000634A03069747000093870795884371B705
:103E80009747000093870798884341B7638DB7022F
:103E90008947E307F4FE8D47E30CF4F485471305E7
:103EA0000000E314F4F697470000938727968843B1
:103EB000A9BF2244B24041018DAA974700009387D1
:103EC000A790884341B789476304F4068D47630B85
:103ED000F40485476302F4049747000093874792F0
:103EE000884325B79747000093878792884331BF5F
:103EF000974700009387C7928C43EF10400797477E
:103F0000000093872790AA858843EF103028F5BDDD
:103F1000B70700803D8DD5BD974700009387079078
:103F20008843E5B5974700009387078F8843F1BD25
:103F3000974700009387078E8843C1BD41119317AF
:103F4000150022C406C685833707807F2A84AA8588
:103F500063F8E708C9C3AA876342050A698F9356C5
:103F6000754105E3131785006345070A014711A052
:103F7000328786079395870013061700E3DA05FE5C
:103F8000998E370780001306F7FFF18F938616F896
:103F90005D8F13F616009317170031EE13D81640F5
:103FA0000145E5468145370700013386E500FD16EA
:103FB00063C6C700B305E600918F3A95860705836F
:103FC000EDF699C3050579990585B705003FAA95D2
:103FD00093167801B695B24022442E854101828025
:103FE000EF108071A285EF009078B2402244AA853C
:103FF0002E8541018280931727004DB7EF101019CD
:10400000AA85EF10602DB2402244AA852E85410179
:1040100082807D57998EB5B7014582809747000011
:10402000938747808843CC438280011122CC1314AC
:10403000150026CA4EC606CE4AC852C40580B70728
:104040008050AA84AA896346F402B707807F63C7B9
:104050008716635CA018973700009387E7769C4328
:10406000F2406244D2444249B249224A3E85056147
:104070008280B707E03E6355F418B7070031634408
:10408000F4147D59A6852685EF100067AA852A8A33
:10409000EF108066973700009387077A8C432A8455
:1040A000EF10806597370000938747798C43EF00C6
:1040B000106CA285EF104064973700009387477813
:1040C0008C43EF00D06AA285EF10006397370000A1
:1040D000938747778C43EF009069A285EF10C0610A
:1040E00097370000938747768C43EF005068A2858E
:1040F000EF10806097370000938747758C43EF007F
:104100001067D285EF10405F9737000093874774A0
:104110008C432A8A2285EF10205E97370000938710
:1041200067738C43EF109006A285EF10E05C973721
:104130000000938767728C43EF105005A285EF1043
:10414000A05B97370000938767718C43EF101004D2
:10415000A285EF10605A97370000938767708C43F1
:10416000EF10D002A285EF102059AA855285EF00EA
:104170001060A685EF104058FD57AA85630DF9061B
:104180000A09973700009387E76ECA978C439737E1
:1041900000009387276D3E99EF10407FA685EF10B2
:1041A000E07EAA8503250900EF10407EAA87E3D9A7
:1041B00009EA37070080B347A7005DB5AA85EF007D
:1041C000105BAA8771BD97370000938767608C43A7
:1041D000EF00F059973700009387C7308C43EF10FA
:1041E0008040A687E35FA0E8A5BD973700009387CE
:1041F00027629C43B5B52685EF104079AA878DB517
:104200004D28B707983FAA846350F404B707303F9E
:104210006355F408AA85EF009055973700009387FF
:10422000672C8C430149EF10607697370000938725
:10423000E75F8C432A842685EF007053AA85228588
:10424000EF108009AA843DBDB7071C40635CF402EF
:10425000173400001304C45D0C400949EF100073CB
:104260000C402A8A2685EF10204997370000938753
:1042700067278C43EF00B04FAA855285EF10C00529
:10428000AA8409B5973700009387C75A8843A68543
:104290000D49EF106004AA84F5B31734000013042D
:1042A00064240C400549EF10606E2A8A0C40268574
:1042B000D1B70605058182803708100001117D18ED
:1042C0003377B80026CA3378D80093D4450113D386
:1042D0004601131E37004EC61357D5010E089357DB
:1042E000D60193F4F47F1373F37F06CE22CC4AC831
:1042F00093D9F50193DEF6013367C701131F35002B
:1043000033E80701931F3600338E64406380D91968
:104310006356C0136304031CB70680009307F07F45
:104320003368D800638FF4369307800363C0C735C2
:10433000FD4763CDC747130500023305C541B3D719
:10434000CF01B316A8003399AF00DD8E33392001B9
:10435000B357C80133E926011D8F33092F41B33705
:104360002F013306F7409317860063D407243707DD
:1043700080007D173374E600630C042C2285EF1057
:104380007056130785FF93070002998FB357F90002
:104390003316E400D18F3319E9006341972A3305BE
:1043A0009740130615007D47634DC7381307000279
:1043B000118FB356C9003319E9003397E700558FC1
:1043C000333920013369270133D6C70081449377FD
:1043D000790081CF1377F90091476308F70013073D
:1043E0004900333927014A963A899317860063D6E4
:1043F000071C138514009307F07FCE856304F52016
:10440000B70780FFFD17F18F9398D7011359390033
:10441000A607B3E82801B1831375F57F9396C7000B
:104420005205F2406244B182FE05C98ECD8ED2445F
:104430004249B2494685B68505618280631E0E0AEF
:10444000138314001373E37F63170322B367E70139
:10445000B368F801639D041A6387074063860844C4
:104460003309FF41B307074133362F013386C74075
:104470009317860063D6074C3389EF41B307E840B2
:1044800033B62F013386C740F68991B76350C00F0A
:104490006300030CB70680009307F07F3368D800F1
:1044A000638AF43A9307800363CBC713FD4763DF46
:1044B000C73513090EFE93070002B3562801630A9D
:1044C000FE00130900043309C94133192801B3EF71
:1044D0002F013339F0013369D90031A2B367F801F4
:1044E000638A071C9307FEFF638C07389306F07FEF
:1044F0006309DE1A3E8E0DBDB3059340639104221D
:10450000B367E701638707329387F5FF6381074449
:104510009306F07F638CD520BE859307800363CC20
:10452000B72AFD4763CFB73C930700028D8F33193D
:10453000F700B356BF00B317FF003369D900B33794
:10454000F0003357B7003369F9003308E84041AC55
:10455000B367F801638007349307FEFF638A07207F
:104560009306F07F6308DE2E3E8E2DBF631E0E1471
:104570009386140093F7E67F63910734B367E701EE
:104580006395042C6380073EB367F801638E0730A0
:104590003309FF01B3070701333FE9013386E70120
:1045A0009317860063D70700B70780FFFD177D8E3E
:1045B000854493777900E39F07E09317D6019358DA
:1045C0003900B3E8F800935736001307F07F638D86
:1045D000E404B207B18313F5F47FCE8581B5336966
:1045E000F801333920017A99B337E9013386E700BE
:1045F00093178600E3DF07FA85049307F07F63963D
:10460000F418CE851305F07F8147814801BDC1EBC9
:104610006384083A931636009317D8018D82B3E865
:10462000D700F68993573800B3E7F800F9DB8145E6
:104630001305F07FB70708008148CDB3370680FF28
:104640007D167D8E93777900998CE39507D8B5B761
:104650004A85EF10302913078501FD47E3D5E7D2DE
:10466000130685FFB317C900014905BB3369F8017B
:1046700033392001DDB13309FF41330607413334BB
:104680002F01330486409317840063CD0724B36859
:104690008900E39308CE8147814981441DBFE39897
:1046A00008F80E059317D7010D81B3E8A7009357BB
:1046B00037009DBF0E059317D7010D81B3E8A70002
:1046C000F2849357370011B7330593406382041285
:1046D000B70680009307F07F558F630DF32E930785
:1046E000800363CBA720FD4763C3A72A930700027B
:1046F000898F3319F700B356AF00B317FF00336942
:10470000D900B337F0003357A7003369F9003A985E
:104710007E99B337F901338607019A84D1BDB70674
:1047200080009307F07F558FE319F3DE931736006F
:104730008D839318D801B3E81701F6899357380091
:10474000E5B5130715FE9306000233D7E700630AA9
:10475000D600930600043386C6403396C7003369FB
:10476000C900333920013369E9000146814491B51C
:104770003309FF01B30707013336E9013E9693176A
:1047800086008544E3D707E28944B70780FFFD1719
:10479000F18F135719001379190033692701939882
:1047A000F70133E9280113D6170015B113090EFEDE
:1047B00093070002B3562801630AFE0013090004A0
:1047C0003309C94133192801B3EF2F013339F001FF
:1047D0003369D90059B63369E70133392001338988
:1047E0002F41B3B72F013306F8409A84F689A5BE4E
:1047F000B367E701638207189307F5FF6384071C1B
:104800009306F07F6304D5123E85D1BD9307000265
:10481000B387C741B316F8003399FF0033D6CF01F1
:10482000D18E33392001B357C80133E926013E97B1
:104830005DBB931736008D839318D801B3E8170139
:10484000AE8493573800F68949B3EDC33369F80154
:10485000E31F09DC0E059317D7010D81B368F5003E
:1048600093573700D1B36381080E93163600931720
:10487000D8018D82B3E8D700F6899357380091BBF1
:104880003309FF41B3070741333F2F013386E74127
:104890008544D1BC0E059317D7010D81B368F5008F
:1048A000F2849357370015B30E059317D7010D8186
:1048B000B3E8A7009357370029BB9307F07FE38243
:1048C000F6D43309FF013336E901B3070701B29784
:1048D0009398F7011359190033E9280113D61700EB
:1048E000B684C1B93389EF413307E84033B62F01AD
:1048F0003304C740F68949B43369E70133392001ED
:1049000001BD938705FE93060002B357F700638A43
:10491000D50093060004B385B6403317B700336F54
:10492000EF003339E0013369F90055BD93173600C4
:104930008D839318D801B3E8170193573800EDB170
:10494000B368C900E39708C68147814959B13389E3
:10495000EF41B307E84033B62F013386C740F689ED
:10496000854411B4931636009317D8018D82B3E8AD
:10497000D70093573800B1B9931636009317D80172
:104980008D82B3E8D700AA84935738003DB99307C6
:1049900005FE93060002B357F700630AD50093069D
:1049A00000043385A6403317A700336FEF00333977
:1049B000E0013369F900A9BB81451305F07FB70712
:1049C0000800A9BC3309FF01B30707013336F90119
:1049D0003E9675B3931636009317D8018D82B3E8CF
:1049E000D7009357380089B139714AD813D9450196
:1049F0004ED652D456D29399C50006DE22DC26DA72
:104A00005AD05ECE1379F97F2A8A93D9C90093DAF6
:104A1000F501630D090E9307F07F6306F91813542F
:104A2000D5018E09B36934013704800033E489006D
:104A300093143500130919C08149814B13D74601DE
:104A4000139AC6001377F77FB285135ACA0013DB97
:104A5000F601630B07109307F07F6303F704935786
:104A6000D6010E0A33EA4701130717C0B7078000C3
:104A7000B367FA00931536003A99814833C76A0143
:104A8000BD463A851308190063E83617173600004B
:104A9000130646DF8A09B29983A60900B296828678
:104AA000B367CA001309F97F6399071293E92900D4
:104AB00081458948E1B701479307F07F3704080033
:104AC00081443204D20731807E075D8C598CA285E7
:104AD000F250625426854259D254B259225A925AFF
:104AE000025BF24B216182805A853E84AE84C68B84
:104AF0008947638DFB0E8D47E38FFBFA85472A8735
:104B0000639EFB3881470144814465BF33E4A900BB
:104B100061C036C632C4638C092A4E85EF10805CB2
:104B20002246B246AA87130755FF7544938487FF30
:104B3000198CB399990033548A0033643401B31447
:104B40009A0013D746011309D0C0139AC6001377F1
:104B5000F77F3309F9408149814BB285135ACA0066
:104B600013DBF601E31907EEB367CA00B1C7630FA1
:104B70000A22528532C4EF10E05622462A87930655
:104B800055FFF547930587FF958F331ABA00B35742
:104B9000F600B3E74701B315B6003309E94013093E
:104BA000D9C08148E1BD33E4A90001ECA1498144A9
:104BB0001309F07F894B59B593E919008145854860
:104BC00075BD4E84AA84B1491309F07F8D4BBDB5E4
:104BD000914981440149854B95B593E93900D287C4
:104BE0008D4869BD89475685E397FBF02A8793076F
:104BF000F07F01448144F1B5C16E1386FEFF93D668
:104C0000040113DE0501F18CF18D338695023383A7
:104C1000B6029358060133059E021A95AA98B382EC
:104C2000C60363F36800F692C16F1383FFFF33F589
:104C3000670093D30701B3F76800C20733736600B8
:104C40003E933306950293D80801B387A602135FFB
:104C50000601B3849302BE94FA94B38E760263F392
:104C6000F400FE9E416A9307FAFF935F0401B37656
:104C7000F400B3F9F4007D8EC1803384D502C209FB
:104C8000338FD401B299CE98B307DE02935E04014C
:104C9000B385BF02AE97BE9E330EFE0363F3BE0024
:104CA000529EC1679385F7FF33F6BE006D8C4206B6
:104CB000229693DE0E01B305D502769E3385AF02B0
:104CC00013D40501B386D302AA96A296B38FF30339
:104CD00063F3A600BE9F41657D15B3F7A600C2072A
:104CE0006D8DAA97B3855800B3B93501FA97B2957F
:104CF0003384370133B6C500B30EC4013385CE000B
:104D000033343401B3B7E701C18F33BECE0113D4BE
:104D100006013336C5003E943366CE009394950069
:104D200032947E94B3E46400260493567501B33440
:104D30009000DD8193179500CD8C558CDD8C9317F9
:104D4000740063DB070093D7140085889316F40181
:104D5000DD8CD58C058042899307F93F6359F008B3
:104D600093F6740081CE93F6F40011466388C60072
:104D700093864400B3B496002694B68493167400C8
:104D800063D80600B70700FFFD177D8C9307094025
:104D90009306E07F63CFF60E93D634009314D401CC
:104DA0002604D58C318093F7F77F21BB328532C43E
:104DB000EF10403393065501F147130705022246D1
:104DC000E3D1D7DC6115B317A6008145F9B3EF1025
:104DD000603113075501F145930705022246B2469B
:104DE000E3D5E5D461153314AA00814499BB854607
:104DF0009D8EB1E71309E941B3972401B3D4D400E0
:104E000033192401B337F000B3649900DD8C93F7B4
:104E10007400B356D40081CF93F7F4001146638831
:104E2000C70093874400B3B49700A696BE849397B7
:104E3000860063D8070485470144814459B11306AD
:104E40008003E341D6CC7D46E356D6FA0556B30738
:104E5000F640930500023356F4006387B600130949
:104E6000E943B3172401DD8CB3349000D18C93F661
:104E70007400014499CA93F7F40011468146E39205
:104E8000C7FA139496003180F6068D80D58C814741
:104E90000DB99307F07F0144814425B142896DBD6E
:104EA00093D74501B70610001387F6FF93F7F77FF6
:104EB0001306E03F2A886D8F0145FD816354F6009B
:104EC00099C1828082801306E0417D55E34BF6FE56
:104ED000130530431D8D7D46558F634AA600938789
:104EE000D7BE3317F7003355A800598D82801305BC
:104EF0003041B307F5403355F7008280411106C6B3
:104F000022C426C20DCD9357F541B3C4A7009D8C92
:104F10002A842685EF10001D9306E041898EA9475B
:104F20007D8093F6F67F63CDA7022D47098FB3D717
:104F3000E4005505B207B394A400B18329A001444D
:104F4000814681478144B207D206B1837E04D58F62
:104F5000C18FB24022442685BE85924441018280A1
:104F60005515B397A400B207B1838144E9BF41113D
:104F7000370780007D1713D8750126C29354750139
:104F80003373A70093F4F40FB376B7004AC01378D5
:104F9000F80F1359F50106C622C4FD819A872685AC
:104FA0004A86131E3300939E3600B3880441630A79
:104FB000B90E6350100D630408149307F00F638B50
:104FC000F414B7070004B3EEFE00ED4763C11729E0
:104FD00093070002B3871741B397FE00B3D81E01B1
:104FE000B337F000B3E7F800B307FE40139757005C
:104FF000635E0718370400047D147D8C2285EF1052
:10500000600E6D15B317A4006348951A058D13043F
:10501000150013070002018F3397E7003337E000D4
:10502000B3D78700D98F814413F7770019C713F7D7
:10503000F70091466303D700910713975700635B0E
:10504000071485041307F00F4A866383E4169A0752
:10505000A58313F5F40FB2402244A60793147501FB
:1050600013D59700458D7E0692440249518D41012A
:1050700082806399080A138714001377E70F631778
:10508000071463900422630D0E1EE3860EFCB30723
:10509000DE411397570063500722B387CE412E8914
:1050A00061B7635C100B630E08089307F00F63830E
:1050B000F406B7070004B3EEFE00ED4763C9171FFF
:1050C00093070002B3871741B397FE00B3D81E01C0
:1050D000B337F000B3E7F800F29713975700635720
:1050E000070A85041307F00F6384E40CB706007EFB
:1050F00013D71700FD16858B758FD98F35B7638D44
:105100000E08FD18B307DE41E38208EE9307F00FA7
:10511000E39DF4EA630D030801461305F00FB7079A
:10512000400015BF33079840EDE863020E147D1769
:10513000630807189307F00F6319F80E2E8936835A
:10514000D1BF638B0E04FD18B307DE01E38708F8B7
:105150009307F00FE393F4F675BF63950808850491
:1051600013F7E40F6313071263170510630F0E1490
:10517000E3830EEEB307DE011397570081446357B4
:105180000700370700FC7D17F98F854413F7770078
:10519000E31F07E813D337009307F00FE38CF4F60F
:1051A00093179300A58313F5F40F4A866DB54A86CD
:1051B0001305F00F814745B5370700FC7D17F98FC0
:1051C00013F77700898CE31407E6E9B73304DE416F
:1051D0009317540063C3070CE31204E20146014530
:1051E000814795BD33079840ADC49307F00FE3089E
:1051F000F8F4B7070004336EFE00ED4763CCE70C0C
:1052000093070002998FB317FE003357EE00B337B0
:10521000F000D98FF697C284C9B59307F00FE30F5A
:10522000F8F0B7070004336EFE00ED4763C3E708EC
:1052300093060002998EB316DE00B357EE003337A3
:10524000D000D98FB387FE40C2842E8945B38547ED
:1052500061BB630E0E067D17B307DE01C284E30E49
:1052600007E69307F00FE31AF8F8368365B536833F
:10527000C2842E8915B7E3040EECE38D0EE869BDF8
:10528000638D0E022E86B687F9B39307F00FE38184
:10529000F4F2B307DE018583D5BD3384CE412E8978
:1052A000B1BBE31C0EFCE3890EE62E8949BD8547A0
:1052B00025B5854741BFE39B07EC0146814761BBAC
:1052C000B387CE41C2842E8915B3B68769B33683BE
:1052D000C284D9B585473DBF3971935775014AD806
:1052E00056D25ECE931A95001359F50106DE22DCE4
:1052F00026DA4ED652D45AD093F7F70F93DA9A00A3
:10530000CA8B638207121307F00F6384E7128E0AB9
:1053100037070004B3EAEA00138A17F80144014B87
:1053200093D775019394950093F7F70FA58093D9C0
:10533000F501FDC71307F00F6387E7028E0493871B
:1053400017F837070004D98C330AFA408146558C88
:1053500017270000130707570A043A941C403349E3
:105360003901BA978287130A1AF0F9E88946558CF1
:1053700017270000130707590A043A941C403349C1
:105380003901BA97828701491307F00FB707400028
:1053900013959700F25062549317770125817E0987
:1053A0005D8D33652501D2544259B259225A925A21
:1053B000025BF24B216182801307F00F8147C9BF66
:1053C000A68ACE8B368B8947630BFB1A8D47E30C7D
:1053D000FBFA8547630AFB0A1307FA0713F91B0058
:1053E0006357E01293F77A0099C793F7FA00914652
:1053F0006383D700910A93974A0063D90700B707E0
:1054000000F8FD17B3FAFA0013070A089307E00F34
:10541000E3C4E7FA93976A00A5831377F70F8DBF6C
:10542000B9E48546A9B763940A021144014A054BC1
:10543000C5BD63990A002144130AF00F094BCDB58D
:105440008D4631B73144130AF00F0D4BD1BD56854F
:105450002EC6EF0030499307B5FFB39AFA009307C1
:10546000A0F8338AA7400144014BB24555BD2685BB
:10547000EF0050471307B5FFB307AA00B394E40049
:10548000138A67078146E1B513F91B00014781477D
:1054900001B74166139554007D1693570501698E37
:1054A00063FA9A0AB3D5FA027D1AD6860147338881
:1054B000C502B3F6F602C206558F637B07012A9731
:1054C0009386F5FF6368A70A6376070BF9152A9799
:1054D00033070741B356F7023377F702B38AC602A0
:1054E0009317070163FB5701AA971387F6FF63E140
:1054F000A70863FF5707F916AA97C205B38A574151
:10550000D58DB33A5001B3EA5501CA8BF1B5854642
:10551000998E11C76D4601478147E34BD6E6130AC2
:10552000EA09339A4A01B3D7DA00B33A4001B3E744
:10553000570113F7770019C713F7F7009146630374
:10554000D700910713975700634807029A07A5836E
:1055500001473DBD93D61A00B3D5F6021397FA0161
:1055600041833388C502B1B7CE8B368B814AA1BD4A
:10557000BA8661B7B685A9BF0547814711BD13F942
:105580001B001307F00F814721B593567501B7072C
:105590008000FD1713D6750193F6F60F1308F00F70
:1055A000B3F8A7001357F501ED8F1376F60FFD81C1
:1055B000638406031305F00F6304A60205456383A5
:1055C000C6008280E39FF8FE0145E30CB7FE054567
:1055D000EDFA3335100182800545E38D08FC8280A9
:1055E0000545E9DF828093567501B7078000FD17F6
:1055F00013D6750193F6F60F1308F00FB3F8A70052
:105600001357F501ED8F1376F60FFD8163810603C5
:10561000630C06018DE211E2B1C3638E08026305DB
:10562000B70405451DE78280F5D779558280E39E52
:1056300008FE6309D60211E2EDD7E314B7FEE34298
:10564000D6FE63C7C600E3EE17FD0145E3FDF8FC97
:1056500001E77D558280F5DD054582800145E392B5
:1056600008FC8280F9DBD1B78146E1BF9356750112
:10567000B7078000FD1713D6750193F6F60F1308D0
:10568000F00FB3F8A7001357F501ED8F1376F60F5F
:10569000FD81638706036309060185EA11EA89EB48
:1056A0000145639B080082800945F5FFE5DA31A8D2
:1056B000638C08026300B704054575D77D55828069
:1056C0000945639808026304D60211E2F5D7E31591
:1056D000B7FEE343D6FE63C7C600E3EF17FD0145FF
:1056E000E3F3F8FC19E3D9BFF1D905458280E5D38E
:1056F000828082808146C5B7797122D413547501A6
:105700004ECE52CC9319950006D626D24AD056CA10
:105710005AC81374F40F93D99900135AF50169C448
:105720009307F00F6308F40E9397390037070004CE
:10573000B3E9E700130414F88144014B13D7750152
:10574000939A95001377F70F93DA9A0013D9F5011E
:1057500045CF9307F00F630CF7028E0A130717F873
:10576000B7070004B3EAFA003A94014633452A0128
:10577000BD47AA869305140063E29710172700001F
:105780001307471C8A04BA949C40BA978287130473
:10579000F40F63980A0C93E424000946C1BF014545
:1057A0001307F00FB7074000B2502254A6075E0758
:1057B000A5837E05D98F92540259F249624AD24A92
:1057C000424B5D8D45618280CA86D689328B89477E
:1057D0006301FB0A8D47E304FBFC854736856312B2
:1057E000FB1A01478147C9B7639E090413D77501A6
:1057F000939A95001377F70F91440144054B93DA80
:105800009A0013D9F50131F7639D0A0093E414005F
:105810000546A9BF63930902A1441304F00F094B85
:1058200031BF5685EF00100C9307B5FF098CB39A72
:10583000FA001304A4F8014615BFB1441304F00F95
:105840000D4BEDBD4E852EC6EF00D0099307B5FF79
:105850001304A0F8B399F900098C8144014BB245B7
:10586000F1BD93E434000D4611B78947D286E313A6
:10587000FBF636851307F00F81473DB7416393066A
:10588000F3FF13D6090193D80A01B3F7D900B3FA8D
:10589000DA0033885703B389F80213570801B30AB3
:1058A0005603D6994E9733061603637357011A961B
:1058B000C167FD17B376F7003378F800C206C296C9
:1058C0009399660093570701B3393001E982B29783
:1058D0009A07B3E6D900B3E9D7009397490063D993
:1058E000070013D7190093F71900B369F7002E8446
:1058F0001307F4076350E00493F7790099C793F70F
:10590000F90091466383D70091099397490063D9C1
:105910000700B70700F8FD17B3F9F90013070408EB
:105920009307E00F63CBE70493976900A583137790
:10593000F70F9DBD8547B386E74011C76D46014708
:105940008147E343D6E61307E4093397E900333789
:10595000E000B3D7D900D98F13F7770019C713F731
:10596000F70091466303D700910713975700634CE4
:1059700007009A07A583014705BD1307F00F81476C
:1059800025B52E84B5B70547814739BD3707800057
:1059900041117D179356750113D87501B377A70090
:1059A00093F6F60F935EF5013376B70026C24AC030
:1059B0001378F80F06C622C41303F00F3E8E368903
:1059C000F684139F3700FD8113153600B388064116
:1059D0006302681093C51500638CBE106354100DEC
:1059E000631008106304051EFD18B307AF406386FB
:1059F00008029307F00F6388F616ED4763C717296F
:105A000013070002330717413317E500B357150199
:105A10003337E000D98FB307FF4013975700635126
:105A2000071A370400047D147D8C2285652D6D15C1
:105A3000B317A400634E251B33052541130415003D
:105A400013070002018F3397E7003337E000B3D725
:105A50008700D98F014913F7770019C713F7F700AB
:105A600091466303D700910713975700635E0714AD
:105A7000930619001307F00F93FE14006386E616D1
:105A80009A07A58393F6F60FA607B240224413D5D2
:105A90009700DE069397FE01558D924402495D8D75
:105AA000410182806392080A138716001377E70F7B
:105AB000631B07146394062263020F2071D5B3079A
:105AC000AF401397570063550722B307E5410149DB
:105AD000AE8451B7E30005F0638ABE0AE35410FDBB
:105AE0009307F00F6381F608B70700045D8D31B7A7
:105AF000635E1009630108089307F00F6385F606DB
:105B0000B70700045D8DED4763C0171F1307000240
:105B1000330717413317E500B35715013337E0005A
