:040000006F00304A13
:100004000000000000000000D8090000DC09000026
:1000140000000000A00C0000000000000000000030
:10002400A00C0000A00C0000000000000000000074
:10003400CA58000000000000000200000000000098
:10004400A00C0000A00C0000A00C0000A00C0000FC
:10005400A00C0000A00C0000A00C0000A00C0000EC
:10006400A00C0000A00C0000A00C0000A00C0000DC
:10007400A00C0000A00C0000A00C0000A00C0000CC
:10008400A00C0000A00C0000A00C0000A00C0000BC
:10009400A00C0000A00C0000A00C0000A00C0000AC
:1000A400A00C0000A00C0000A00C0000A00C00009C
:1000B400A00C00005C490000104A0000A00C0000E5
:1000C400A00C0000A00C0000A00C0000A00C00007C
:1000D400A00C0000A00C0000104B0000A00C0000BD
:1000E400A00C0000A00C0000A00C0000A00C00005C
:1000F400A00C0000A00C0000A00C0000A00C00004C
:1001040000000000A00C0000A00C0000A00C0000E7
:10011400A00C0000A00C0000A00C0000A00C00002B
:10012400A00C0000A00C0000A00C0000A00C00001B
:10013400A00C0000A00C0000A00C0000A00C00000B
:10014400A00C0000A00C0000A00C0000A00C0000FB
:10015400A00C0000A00C0000A00C0000A00C0000EB
:10016400A00C0000A00C0000A00C0000A00C0000DB
:10017400A00C0000A00C0000A00C0000A00C0000CB
:10018400A00C0000A00C0000A00C0000A00C0000BB
:10019400A00C0000A00C0000A00C0000A00C0000AB
:1001A400000000000000000000000000000000004B
:0C01B4000000000000000000000000003F
:10020000130181F806C216C41AC61EC822CA26CC1B
:100210002ACE2ED032D236D43AD63ED842DA46DC76
:100220004ADECEC0D2C2D6C4DAC6DEC8E2CAE6CC46
:10023000EACEEED0F2D2F6D4FAD6FED8F3220030CF
:1002400096DA9702002083A222F223A02200F3254F
:1002500010342EC09305000273A0458003A10183D2
:10026000EF60C02B17030020032303F003210300DA
:10027000824273901234D652739002309240A2425E
:100280003243C2435244E244724582551256A2564A
:100290003257C2575258E25872598649164AA64AEE
:1002A000364BC64B564CE64C764D865D165EA65ECA
:1002B000365FC65F13018107730020301300000012
:1002C00013000000130000001300000013000000E2
:1002D00013000000130000001300000013000000D2
:1002E00013000000130000001300000013000000C2
:1002F00013000000130000001300000013000000B2
:1003000083A20183938202E07390023417010020DC
:10031000032181E5024182403243C2435244E24418
:10032000724582551256A2563257C2575258E25859
:1003300072598649164AA64A364BC64B564CE64C6D
:10034000764D865D165EA65E365FC65FD652A1020A
:1003500073900230A24213018107828013000000D3
:100360001300000013000000130000001300000041
:100370001300000013000000130000001300000031
:100380001300000013000000130000001300000021
:100390001300000013000000130000001300000011
:1003A0001300000013000000130000001300000001
:1003B00013000000130000001300000013000000F1
:1003C00013000000130000001300000013000000E1
:1003D00013000000130000001300000013000000D1
:1003E00013000000130000001300000013000000C1
:1003F00013000000130000001300000013000000B1
:10040000F322003093F272FF130380781203B3E2F9
:100410006200711523205500130585FA10C12115BE
:10042000232005009302000063870200711523203A
:100430000500FD12D5BF71150CC1828000000000BF
:1004400000000000000000000000000000000000AC
:10045000000000000000000000000000000000009C
:10046000000000000000000000000000000000008C
:10047000000000000000000000000000000000007C
:10048000000000000000000000000000000000006C
:10049000000000000000000000000000000000005C
:1004A000000000000000000000000000000000004C
:1004B000000000000000000000000000000000003C
:1004C000000000000000000000000000000000002C
:1004D000000000000000000000000000000000001C
:1004E000000000000000397101436EC619A0397187
:1004F00041536AC866CA62CC5ECE19A039710153F5
:100500005AD056D252D44ED64AD826DA22DC06DE4B
:1005100033016140828241114AC026C222C406C60C
:100520008282B24D4101024D924C224CB24B4101AC
:10053000024B924A224AB249410102499244224462
:10054000B240410182803D432A876373C30293779F
:10055000F700BDEFADE5937606FF3D8ABA960CC372
:100560004CC30CC74CC74107E36BD7FE11E2828036
:10057000B306C3408A069702000096966780A600DD
:100580002307B700A306B7002306B700A305B700EB
:100590002305B700A304B7002304B700A303B700E3
:1005A0002303B700A302B7002302B700A301B700DB
:1005B0002301B700A300B7002300B700828093F5A2
:1005C000F50F93968500D58D93960501D58D61B76E
:1005D000939627009702000096968682E78086FA17
:1005E0009680C1171D8F3E96E374C3F8A5B7EFF24E
:1005F0009FF283A54196370500209304C51C13057F
:10060000C51C13844196EF4000004C401385C40084
:10061000EF30707F0C4413858401EF30D07E0315DA
:10062000C400EFA0D00AAA8513854402EF30B07D44
:100630000315E400EFA0B009AA8513850403EF3089
:10064000907C03150401EFA09008AA851385C403CC
:10065000EF30707BDDB5EFF21FEC3705002093041F
:10066000C51C370400201305C51C1304841BEF3080
:10067000907E08C013858401EF30F07D48C013855B
:10068000C400EF30507D08C413854402EF30B07CC5
:10069000EFA060784AA413850403EF30D07BEFA06D
:1006A00080776AA41385C403EF30F07AEFA0A076B8
:1006B0000AA861B5EFF23FE6EF401032EF3070402C
:1006C00019E13537493F0545EF50F05EF5B7EFF2D8
:1006D000FFE2B70A00203754014037BB0000938483
:1006E0008A1B138941C4938941BA138A41B0130408
:1006F00004C0EF504010AA8513054B3FEF70E06B2C
:1007000003A58A1BEFA0F0152A8637B50000AE8638
:100710001305C541EF70606AC840EFA090142A86A7
:1007200037B50000AE861305C542EF7000698844F6
:10073000EFA030132A8637B50000AE8613050544B6
:10074000EF70A0678395C40037B5000013054545D9
:10075000EF70A0668395E40037B500001305854669
:10076000EF70A0658395040137B5000013050548B7
:10077000EF70A06403254902EFA0B00E2A8637B5BA
:100780000000AE8613054549EF70206303A54902BA
:10079000EFA0300D2A8637B50000AE861305454A16
:1007A000EF70A06103254A02EFA0B00B2A8637B58F
:1007B0000000AE861305454BEF7020602285EF10D8
:1007C000A03BAA8537B500001305854CEF70E05EAD
:1007D0002285EF10A03AAA8537B500001305454DD4
:1007E000EF70A05D2285EF10E038AA8537B50000D4
:1007F0001305054EEF70605C2285EF106038AA8506
:1008000037B500001305C54EEF70205B83C7C1816B
:1008100009476391E70437B500001305854FEF7072
:10082000005C83C7D181A1E737B5000013054553AC
:10083000EF70E05A83A741810547639FE70237B510
:1008400000001305C555EF70805913052003EF50C4
:10085000904645B505476397E70037B50000130597
:10086000C55075BF37B50000130505524DBF37B5EC
:100870000000130585546DBF0947E398E7FC37B5C1
:10088000000013050557C1B7EFF27FC6B7B70000E8
:1008900083AA4758B7B7000003AB8758094A83C7F4
:1008A000D181C5E313844180184085476316F70A58
:1008B00037B500001305C558EF706052370C0020A3
:1008C0002320040023AC41810144930B803E228508
:1008D000EFA0E05FD685EF90906EDA85EF9080759F
:1008E00093048C0D88C0EFA02059420585454181B5
:1008F000EF30907D88400504EFA0005842058945FF
:100900004181EF30707C8840EFA0005742058D4553
:100910004181EF30707B8840EFA000564205914541
:100920004181EF30707A0545EF50F038E31174FBE8
:1009300037B500001305055AEF70604A854723ACB0
:10094000F18083C7D18105476398E70023A2F18036
:1009500023ACF180EF40902813054006EF50B035EE
:100960003DBFEFF25FBBB7070020B7B5000037050A
:100970000000938787110D47814613060010938569
:10098000055B1305E56CEF50C056B7070020B7B5FF
:100990000000371500009387471111478146130661
:1009A00000109385855B13058588EF508054B70749
:1009B0000020B7B5000037050000938707110547F1
:1009C0008146130600089385055C1305456BEF50BF
:1009D0004052EF50407295B67300203001A0EFF204
:1009E0009FB341118545114502C202C402C6EF0002
:1009F000D0578D477C8237150140C1473EC64C0019
:100A00008D47130505803EC4EF00807E410135B659
:100A1000EFF27FB00945EF003035B12AEF600019E1
:100A2000716513050520EF6080221305500DEF401E
:100A3000601183A5818037B500001305455CEF7018
:100A4000C037F523AA8537B500001305455DEF7063
:100A5000C036B7B5000037B500009385455E130575
:100A6000C55EEF708035A53FEF40D02DDD3D37B43A
:100A700000001305C460EF708036E5BFB717024071
:100A80009843B706FFF041111367170098C3D84386
:100A900037060200758FD8C39843B706F7FEFD16D8
:100AA000758F98C39843B706FCFFFD16758F98C3E2
:100AB000D843B70601FFFD16758FD8C39843B70614
:100AC00000ECFD16758F98C33707FF0098C723A663
:100AD000070202C402C69843C166558F98C3B71671
:100AE000024005679C42F18F3EC6A24785073EC47F
:100AF000B24781E7A247E397E7FEB71702409C435E
:100B00001397E7006357070685473EC63247854778
:100B1000631FF704B7170240D843B706C1FFFD169D
:100B2000D8C3D843D8C3D84313670740D8C3D843E2
:100B3000758FD8C3D843B7061D00558FD8C39843C7
:100B4000B7060001558F98C3984393166700E3DDFD
:100B500006FED843B7160240719BD8C3D84313672B
:100B60002700D8C32147DC42B18BE39EE7FE410159
:100B7000828002C661BFB7160240D8421146318B4F
:100B8000938781806305C70021466308C702371732
:100B90007A001307072098C3371702405843118380
:100BA0009376F700370700201307070036971423C2
:100BB00098433357D70098C38280D842D4424166C5
:100BC00049833D8BF18E1306270015CF3D47630FF8
:100BD000E6024147630FE602454781456313E6009D
:100BE0004146A1E23747024003270780418B0DC7EA
:100BF00037177A00130707203306C70290C3C9DDF1
:100C00009843058349BF81454946E1BF854535463F
:100C1000C9BF81453D46F1B737173D00130707901F
:100C2000E1BF3715024058559316F700585563DF5A
:100C3000060411833D8B9306170037177A001307BC
:100C400007203357D70298C35455A182BD8A8DE23D
:100C500095463307D702058398C337170240585784
:100C600094433D8B050733D7E60298C3984369B791
:100C700005456394A600E546E9BF3D456396A60099
:100C8000D1463387E602C9BF8906E5BF3D8B93068F
:100C9000170037177A00130707203357D702F1B729
:100CA00001A097010020938161C3177100201301F7
:100CB000613517C500001305E5B597F5FF1F93854E
:100CC00065341386818363FAC5008322050023A05F
:100CD000550011059105E3EAC5FE17F5FF1F130541
:100CE000654397350020938525AD6377B5002320B4
:100CF00005001105E36DB5FEFD42739002BCFD4297
:100D000073904280B7820000938202807390023019
:100D100097F2FFFF9382422F93E23200739052309A
:100D2000EFF0DFD5970200009382C2CE73901234A9
:100D300073002030EFF22FFEB72701409387074062
:100D4000631EF500854513050020EF00D025814581
:100D500013050020EF0030256FF02FFEB73701405C
:100D600093870780E31AF5FE854513050040EF00E1
:100D70009023814513050040F1BF5C413707F1E046
:100D80001307F7EF944D7D8F9C41D58FD44DD58FB0
:100D9000D441A206D58FD98F5CC11C4537F7F1FF2E
:100DA0001307D77FD4457D8F9C49D58F9445860600
:100DB000D58FD98F1CC55C55370710FF7D177D8FE8
:100DC000DC29FD1793F7F70FD207D98F5CD5828006
:100DD0001C4589C593E717001CC58280F99BEDBFB0
:100DE0001C4589C593E707101CC5828093F7F7EF70
:100DF000E5BF1C4593E787001CC5828008450D812F
:100E0000058982801C4593E747001CC58280084500
:100E10000981058982801C4591C537075000D98F0B
:100E20001CC582803707B0FF7D17F98FD5BFA54756
:100E300063F7B7048D47138765FF3307F70203286D
:100E4000C5009D47B397E70093C7F7FFB3F70701C6
:100E5000B396E600DD8E54C5994763E3C704954712
:100E60007D163306F6025859FD47B397C70093C75E
:100E7000F7FFF98F3396C5005D8E50D982800D47FC
:100E80003387E502032805019D47B397E70093C721
:100E9000F7FFB3F70701B396E600DD8E14C96DBF07
:100EA000B14763E2C702954765163306F602185943
:100EB000FD47B397C70093C7F7FFF98F3396C50077
:100EC0005D8E10D9828095474D163306F60258552F
:100ED000FD47B397C70093C7F7FFF98FB395C500D8
:100EE000DD8D4CD582805C4191C537070004D98FD8
:100EF0005CC18280370700FC7D17F98FD5BFEFF208
:100F00008FE101112A8423040100A5441C8463F9A4
:100F1000F40423040100A54621461C8463FDF60663
:100F2000231501002304010095461C8463FFF60C81
:100F300038853C8599460D46B3F7D70205651305FC
:100F40000580B3D7C7023357D702BA97C207C18308
:100F50007C853C8505611D8D420541856FF0EFDD87
:100F60001C4493E787001CC42285493D75FD1C4441
:100F700093E747001CC42285593D75FD78441C84C5
:100F800014108607B6972396E7FE1C84850793F70F
:100F9000F70F5C84A5BFA30401009C846378F6006E
:100FA0001C84850793F7F70F5C8485BF98849C8425
:100FB0000C100607850786072E97AE970357C7FEC6
:100FC00083D7C7FE63FDE7029C848607AE9783D76D
:100FD000C7FE7C859C84988485078607AE9783D559
:100FE000C7FE931717001810BA972396B7FE9C8474
:100FF00038850C1085078607AE972396E7FE9C84FC
:10100000850793F7F70FDC8449BF1C8410103885DF
:1010100089078607B29783D7C7FEBA97C207C183ED
:101020007C851C84850793F7F70F5C84FDBDB7F7BB
:10103000FF1F03A5477082801C4141677917F98F14
:101040001CC1232005002322050023240500B70727
:10105000024023260500138787006317E500D84365
:101060001367F700D8C382801387C7016316E500B2
:10107000D8431367070FFDB7138707036318E5000D
:10108000D8438566938606F0558FE9BF13874704DA
:101090006315E500D843BD66C5BF13878705631692
:1010A000E500D843B7060F00C5B71387C706631618
:1010B000E500D843B706F000C1BF138707086316E1
:1010C000E500D843B706000FC1B7138787406319FF
:1010D000E50003A747401367F70023A2E74082809B
:1010E0001387C7416317E50003A747401367070F3E
:1010F000EDB793870743631BF500B707024003A7CB
:1011000047408566938606F0558FC1BFB7070240FA
:10111000138747446316E50003A74740BD66EDB754
:10112000138787456317E50003A74740B7060F00FD
:10113000E1BF1387C7466317E50003A74740B7061B
:10114000F000D9B7138707486317E50003A74740A6
:10115000B706000F55BF138707496319E50003A7BA
:10116000474D1367F70023AAE74C82801387074A8D
:101170006317E50003A7474D1367070FEDB7138704
:10118000074B6319E50003A7474D8566938606F074
:10119000558FD1BF1387074CE319E5FC03A7474DD3
:1011A000BD66FDB71C4161773D0794517D8F9C451D
:1011B000D58F9449D58FD449D58F944DD58FD44DA3
:1011C000D58FD451D58F9455D58FD98F1CC1DC457F
:1011D0005CC19C411CC5DC415CC582801C4189C549
:1011E00093E717001CC1828041677917F98FDDBF33
:1011F0009C4513F7070113F8F70001C7D84133687E
:10120000E8008E2113F7F50F39C318418146854E4A
:101210003D4F930F800293028004214E3396DE00EF
:10122000B3F8C500631116039398260033131F010A
:101230001343F3FF3377E300B318180133E7E800F3
:10124000639FF70550C98506E39AC6FD18C11307C9
:10125000F00F6375B70454412146854E3D4F930FFF
:10126000800293028004414EB398CE0033F71501FB
:101270006392E8021317260001173313EF0013439C
:10128000F3FFB376D3003317E800D98E639DF701DF
:10129000232A15010506E319C6FD54C18280E39493
:1012A00057FA10C94DB7E39757FE23281501DDB74C
:1012B00008456D8D3335A00082800CC9828019C22B
:1012C0000CC982804CC98280B7070140635A05046B
:1012D000DC4F93560501131805013707300013F64C
:1012E000F60013580801B376E50063500506639BCA
:1012F000E602930606010D46B316D60093C6F6FF26
:10130000F58F99C9135755011377F73F1207331714
:10131000E800D98F63570504370701405CCF82800E
:10132000DC4345BF1317B500635607008D46B396DF
:10133000C600E9B7135755011377F73F1207331764
:10134000E8001347F7FFF98F6DBF6390E602370699
:1013500001405442370700F17D17F98F758F58C24D
:10136000D5F1370701405CC382801317B500635C79
:1013700007008D46B396C60093C6F6FFFD8EB707ED
:10138000000FD58FF1BF1357550112073317E8002F
:101390001347F7FF7D8FB707000FD98FD1B7EFF253
:1013A0008F97797146212A8468082EC62D2492577A
:1013B00037470F001307072433D7E702C204C18061
:1013C00093F404FCC2049306C003C180B24563F4E5
:1013D000E6001307C003131607014182D18C46A013
:1013E000162061651305056AC206C182F99AC20614
:1013F000C18216A094416369D5048606B3D7D7028B
:101400009146139707014183BA876373D7009147C9
:1014100005064206C2074182C18312B05EAC1E209F
:10142000DA21B62593E717001EA01E20558FC207AC
:10143000C18393F757BFD98F1EA09A25DE25D98F78
:101440001EA445616FF06F8FEA2131667D16631D22
:10145000C5020D46B386C602B3D7D702C207C18301
:101460009396470199E293E71700A166D58F9306FB
:10147000C0123307D7029306803E3347D7020507D1
:10148000420741831AB059BF6546B386C602B3D737
:10149000D7029166C207C183D58FD9B71E2189C5EE
:1014A00093E717001EA18280C207C183F99BC20780
:1014B000C183CDBF1E2189C593E707101EA182807D
:1014C000C207C18393F7F7EFC207C183C5BF1E21CF
:1014D00089C593E707201EA18280C207C18393F7C5
:1014E000F7DFC207C183C5BF1E2189C593E7074047
:1014F0001EA18280C207C18393F7F7BFC207C183D1
:10150000C5BF0EA982800A291375F50F828093F753
:10151000E50F19C293E71500C207C1831EA9828097
:101520005E290A2D42055D8D6D8D220521810D8D6F
:10153000133515008280411102C402C693D7C5013C
:101540002AC63EC4A247A205A18199CBB247D107C2
:101550003EC6B247884341016D8D3335A00082807D
:10156000B247C181E107EDB7B707002023AEA7104E
:101570008280B707002003A7C71189471021631194
:10158000F70214318D4763EDD7003C219A0637E707
:1015900000E09607D58F93F7F70F32972300F740B7
:1015A00054410547935756003317C70089CA93879C
:1015B00007048A07B7E600E0B69798C3828093874E
:1015C0000706C5BFB7160240DC4251777D17F98F79
:1015D0005D8DC8C28280371702405C439146B18B53
:1015E0006385D700A1466382D706B7177A00938731
:1015F00007201CC1371602405C4237070020130742
:1016000007019183BD8BBA9794231C41B3D7D700B0
:101610005CC15442A1829D8ABA969422B3D6D70067
:1016200014C55442AD829D8A36971823B3D7E7007C
:101630005CC558423983937637001387C18036974B
:101640001823B3D7E7021CC982805C435843C166A4
:10165000C983758FB7F6FF1F83A6C670BD8B890738
:101660001396160163480600C54601466392D702E9
:10167000C94739A88946638FD702BD46638ED70212
:10168000C146638ED702C54601466393D700C14762
:101690001DEF3747024003270780418B05C73717E7
:1016A0007A0013070720B307F7021CC121D61C419B
:1016B000858381B701466DBF0546B547D1BF014659
:1016C000BD47F9B737173D0013070790E9BFB715B6
:1016D0000240D8559316F700D85563DF06041183EE
:1016E0003D8B9306170037177A00130707203357EF
:1016F000D70218C1D455A182BD8A8DE29546330721
:10170000D702058318C137170240585714413D8B43
:10171000050733D7E60218C1184171B785456394B0
:10172000B600E546E9BFBD456396B600D1463387AE
:10173000E602C9BF8906E5BF3D8B93061700371740
:101740007A00130707203357D702F1B799C5371727
:1017500002405C4B5D8D48CB8280B7170240D84B6E
:101760001345F5FF798DC8CB828099C537170240A4
:101770001C4F5D8D08CF8280B7170240984F1345EC
:10178000F5FF798D88CF828099C5371702405C4F6D
:101790005D8D48CF8280B7170240D84F1345F5FFC3
:1017A000798DC8CF828099C5371702405C475D8D1F
:1017B00048C78280B7170240D8471345F5FF798D97
:1017C000C8C782801E2137370140930607C0C20771
:1017D000C1836300D504B7060040630CD50293862D
:1017E00006406308D502B7160040138606806302E0
:1017F000C502938606C0630ED50013070740630A2F
:10180000E50037570140930607C06304D50063160F
:10181000E500BA2193F7F7F8D98F37170040630C2A
:10182000E500130707406308E50093F7F7CFFA21B7
:10183000C207C183D98F1EA1DE215EB59E211EB5D0
:10184000B7370140138707C0630EE5009387074051
:10185000630AF500B7570140138707C06304E5002A
:101860006314F5009C251EB985475EA982801E3150
:10187000922103D82500C207C183F99BC207C18307
:101880001EB11E3156211A2DC207C1834207418362
:101890001377C7F8518F9225F59BC2063366060170
:1018A000D18F37360140130806C0C182630E05018F
:1018B00013060640630AC50037560140130806C0E8
:1018C000630405016310C502B225DD9B03D8E50062
:1018D000D18FD221ED9B93F6F6CFD18FD2253366EF
:1018E0000601D18E56A11AADFA215AB91EB18280D5
:1018F0001E3165771307F7CFC207C183BD9BC207AF
:10190000C1831EB11E31562103D88500C20713962C
:101910000601162DC18393F7F7FD758F962141823D
:10192000A206558FB62142074183B3E6060192060F
:10193000D58FB7360140C207138806C0C183630E36
:10194000050193860640630AD500B7560140138807
:1019500006C063040501631ED502B62593F7F7F7A9
:1019600003D8C5009206D58FD621C207C18392063F
:1019700093F7F7FBD58FFD769386F63FF18EF22530
:10198000C207C183336606010A06D18E139606018B
:10199000418252A11AADFA211ABD1EB182801E31B8
:1019A00003D88500C207C18393F7F7EFC207C1834D
:1019B0001EB11E3156215A2DC20713960601420749
:1019C000962141831377C7F8558FB621C18393F7CA
:1019D000F7DFB3E60601A206D58FB7360140C2078E
:1019E000138806C04182C183630E050193860640B9
:1019F000630AD500B7560140138806C06304050189
:101A0000631FD502FD769386F67FF58FB62503D842
:101A1000C500A206D58FD621C207C183A20693F7BF
:101A2000F7BFD58FF576FD16F18EF225C207C1837B
:101A3000336606011206D18E13960601418252A129
:101A40005AADFA215ABD1EB182801A31FD77FD17B9
:101A5000F98F1EB10358050256215E2D6577139646
:101A6000060196211307F7CF7D8FF977A206FD17A0
:101A7000558FB3F70701B62103D88500420741828D
:101A8000B3E60601B206D58FB7360140C207138808
:101A900006C04183C183630E050193860640630A35
:101AA000D500B7560140138806C063040501631BC7
:101AB000D500F176FD16F18ED2251A06D18E139639
:101AC0000601418252A15AADFA212310E5041EB14C
:101AD00082801E2189C593E717001EA18280C2075C
:101AE000C183F99BC207C183CDBF8357450491C50C
:101AF0002167D98F2312F5048280C607C583DDBF15
:101B00001E2189C593E707081EA18280C207C183F1
:101B100093F7F7F7C207C183C5BF1E2DC207C18364
:101B2000DD9BDD8D0EAD82801A2DFD779387F77FCB
:101B3000F98FA205CD8FC207C1831EAD82805E2DB5
:101B4000C207C183DD9BDD8D4EAD82805A2DFD77AE
:101B50009387F77FF98FA205CD8FC207C1835EAD52
:101B600082804EB982800EBD82804EBD828023105D
:101B7000B50482804A3982800A3D82804A3D828053
:101B800003550504828093C5F5FFC205C1810EA9E6
:101B90008280EFE25F981629F577FD17F58FF62121
:101BA000DA257971D58F1EA95625FD779387379F42
:101BB000F58FD6212A842EC6D58F9625D58FB625AA
:101BC000D58F5EA55E29C207C18393F7F7CFD98F62
:101BD0005EA96808EFF03FA0B747014093870780F0
:101BE000B245631EF402A2576547B387E7029841E6
:101BF000930640060A07B3D7E70233D7D702B3F7F5
:101C0000D7021207920793872703B3D7D702BD8B5A
:101C1000D98FC207C1831EA445616FE01F929257FE
:101C2000E1B791C55E250967D98F5EA582805A25E7
:101C3000F977FD17F98FD5BF13F7F50F8547158392
:101C4000B395B7006319F7009307C500984301CE19
:101C5000D98D8CC38280894693074501E318D7FE4E
:101C600093070501E5B793C5F5FFF98DDDB793F54A
:101C7000F51F4EA182804A211375F51F82800A212B
:101C80006D8D3335A000828093C5F5FFC205C181FB
:101C90000EA1828013F7F50F85461583B397B60022
:101CA0006311D7025A25F98F1A2101454207418352
:101CB00081CB0545A181B315B5006D8F3335E000AB
:101CC000828089466314D7001A29F1BF5A29E1BFDF
:101CD000EFE2DF823704002041119304C4028547FC
:101CE00098407C82DC40AA892E8988232C2B5400C2
:101CF000328A0946EF2040261305800CEF40907190
:101D00009840DC40230201006C37882354000546CC
:101D1000EF2080249840DC4054004C338823054653
:101D20001304C402EF2040239840DC4054002C2BC5
:101D300088230546EF2040229840DC4054006C3B4D
:101D400088230546EF2040219840DC4054004C2376
:101D500088230546EF204020B1475C829840DC4054
:101D600054004C2388230546EF20001F3D45EF40DB
:101D7000706A9C54984054009C3705465C82DC4055
:101D80002C238823EF20401D9C54984054009C270E
:101D900005465C82DC400C338823EF20E01B1C549A
:101DA000BC2763040A0093E7070E5C8218405C407E
:101DB00054006C2388230546EF20001AE147630690
:101DC0000A001C54BC3793E7070E5C8218405C4045
:101DD00054006C3388230546EF20001863060A0080
:101DE0001305800CEF401063930700045C821840D9
:101DF0005C4054004C23882305468144EF20C015E5
:101E0000930780075C8218405C4054004C33882361
:101E10000546EF20601413052003EF40B05F184023
:101E20005C40230201004C33882354000546EF2018
:101E3000A0125C401840540088232C270946EF204C
:101E4000A031034A41009C8223A40900220A336A7C
:101E5000FA00B147335AFA0223A2090023A009006D
:101E6000232409002322090023200900137AFA0FF2
:101E70006391441503A50900130630088146935762
:101E8000F541C20793550501DD8D4205EF50D0792C
:101E900026868146EF50507923A0A90003A549006A
:101EA0001306300881469357F541C2079355050143
:101EB000DD8D4205EF50507726868146EF50D07673
:101EC00023A2A90003A58900130630088146935771
:101ED000F541C20793550501DD8D4205EF50D074E1
:101EE00026868146EF50507423A4A90003250900DB
:101EF000268681469355F5419357050113970501B1
:101F00005D8F9355F741420593F5F57FB387A500A3
:101F1000B3B5B700BA95AD83139555015D8DAD8509
:101F2000EF5090702320A9000325490026868146A2
:101F30009355F54193570501139705015D8F93550F
:101F4000F741420593F5F57FB387A500B3B5B70018
:101F5000BA95AD83139555015D8DAD85EF50D06C6D
:101F60002322A90003258900268681469355F54141
:101F700093570501139705015D8F9355F74142056E
:101F800093F5F57FB387A500B3B5B700BA95AD83D8
:101F9000139555015D8DAD85EF501069C177634391
:101FA000A000C1673E952324A900014541016FE0CF
:101FB0002FD818405C4054002C37882331468504C4
:101FC000EF20801918839C83948422075D8F1C84E2
:101FD00090824207A207D58F14824187C207A206CA
:101FE000D18E03260900C206C186B2962320D900ED
:101FF00083264900C187908536972322E90003276D
:102000008900948793F4F40FBA9718862324F90073
:102010009C8622075D8F1C8742074187A207D58FC8
:102020001485C207C187A206D18E03A60900C20685
:10203000C186B29623A0D90083A64900369723A271
:10204000E90003A78900BA9723A4F90015B5EFE2C8
:102050008FCC370400209307C40283C74702411185
:102060001304C40285C711C10945C8875C401840E4
:102070009306F10088236C370546EF10F06D9C87BE
:102080001CB881473E8541016FE02FCB3824FD57B6
:1020900075DB19C51838814775F78547DC87F9B7AF
:1020A000A3070100E1B7EFE20FC737040020930751
:1020B000C402BC2741117D55C5CF1304C40218408A
:1020C0005C40A30701006C3788239306F1000546A6
:1020D000EF10906818405C409306F1004C33882361
:1020E0000546EF1070675C4018409306F1008823A6
:1020F0004C230546EF10506683474402ADCFB147ED
:10210000DC8718405C409306F1004C238823054689
:10211000EF10906413052003EF40D02F930700FCCD
:10212000DC873C24858B99C38157DC875C40184051
:102130009306F10088234C230546EF10F0611C380C
:1021400091C38947DC8718405C409306F1006C37E7
:1021500088230546EF10506018405C40A30701003B
:102160009306F10088234C330546EF10F05E0145DD
:1021700041016FE08FBC9147DC8718405C409306BB
:10218000F1004C2388230546EF10105D3C2813070F
:10219000000491E73C24858B99C3130700065C403B
:1021A000D887184088239306F1004C230546EF108A
:1021B000B05A13052003EF40F0251C381840930651
:1021C000F100B337F000DC875C406C3705468823AC
:1021D000EF10905818405C409306040161B7B707B0
:1021E000002083C7470305476381E70291CB094776
:1021F0006380E7020D476380E7022310050021A0FA
:102200009307A00F1EA1014582809307401FDDBFE9
:102210009307803EC5BF9307007DEDB7EFE2AFAFF8
:10222000370400209307C402BC27411189CF9307CC
:10223000401F1304C402630CF50463E8A70093076E
:10224000A00F630EF5007D5581A09307803E6303C8
:10225000F5049307007DE318F5FEE14715A8A307F1
:1022600001009C87182401458D83630FF7005C40B3
:1022700018409306F10088236C230546EF10D04DDB
:102280009C8701458D831CA441016FE00FABA147E2
:10229000DC87C1BFC147EDBF370700209306C702E7
:1022A00094360546AA871307C7026384C60289CA03
:1022B00009466382C6020D466381C6027D5582804F
:1022C000894694A3383B014501C79823060798A384
:1022D00082809146FDB7A146EDB7C146DDB7EFE27A
:1022E0008FA3370400209307C402BC27411199CB68
:1022F00091471304C4026309F50463E7A700894703
:10230000630CF5007D5535A8A1476302F504C1476C
:10231000E31AF5FEE14715A8A30701009C871834CE
:1023200001458D83630FF7005C4018409306F10070
:1023300088236C330546EF1030429C8701458D831E
:102340001CB441016FE06F9FA147DC87C1BFC1474B
:10235000EDBFB707002083C777031547FD1793F735
:10236000F70F636AF7022D678A0713074762BA9768
:102370009C4382879307C00B1EA10145828093076F
:102380002006DDBF9307A002C5BFD147F5B7A94717
:10239000E5B79547D5B723100500C5B7EFE2AF976E
:1023A000370400209307C402BC274111ADC793072F
:1023B000B00B1304C40263F8A7028547DC873834E6
:1023C0009C870145630EF7005C4018409306F100BE
:1023D00088232C230546EF1030389C8701453CB4F8
:1023E00041016FE08F959307100663F4A7008947BA
:1023F000F1B79307900263F4A7008D47C1B7CD47AB
:1024000063F4A70091475DBFA54763F4A700954714
:1024100075B7994765B77D55E1B7B7070020938732
:10242000C70203C7470209E7FE271EA101458280B4
:102430007D558280B707002083C747030547638225
:10244000E70289CB09476383E7020D476385E7020B
:102450007D558280B7B7000083A7C7661CC10145C0
:102460008280B7B7000083A70767CDBFB7B700006A
:1024700083A74767E5B7B7B7000083A78767F9BFAA
:10248000370700209306C70294360546AA8713072C
:10249000C7026384C60289CA09466384C6020D4620
:1024A0006383C6027D558280916696A3383B0145C1
:1024B00001C79A2305839AA3828089669386C6F909
:1024C000EDB78566DDB7856693860680F9BFEFE2D6
:1024D000EF82370400201304C402834744020149F9
:1024E0008DEF3C247D5995CB9374E50FE58F83499F
:1024F00004011CA8858FB337F0003309F0405C2835
:10250000C58F91CB0545A13689C8713E19C52308F1
:1025100034017D5919A001451D3E4A856FE04F8168
:10252000EFD2DFFDB70900209384C90283C74402BC
:1025300041119DC7B824FD5729CBDC409840AE8A95
:102540002A892C278823328A74000946EF10D0404C
:102550001C868086A2075D8C6376240123000A0016
:10256000FD5725A0D8409389C9023E23858363F295
:1025700087029C40082374008C3B0546EF10D03D39
:102580001C86C18B99C70536F9573E8541016FD02E
:102590003FFA83A7490003A70900D68688232C3772
:1025A0001376F90FEF10503B3354240381477D1409
:1025B00023008A00D9BFEFD21FF63704002093070B
:1025C000C402BC2B41116389A70A1304C4025C40F6
:1025D000AA849306F10088231C400546CC23B9C089
:1025E000EF1090379C8718409306F10093F7F7FDA2
:1025F000DC875C404C2305468823EF10F0150D4521
:10260000EF4040618947DC878347240281C79307F5
:1026100020F8DC8783473402B1C79C8793E7070320
:10262000DC8789A0EF1050333C249487858B13F707
:10263000F60D99C313E706025C40D887184088233B
:102640009306F1004C230546EF1010110D45EF40A5
:10265000605C8347240299C3930700080347340250
:10266000DC874DFF18405C409306F1004C2B88231B
:102670000546EF10700E24A8014541016FD0FFEB15
:10268000EFD27FE9370400209307C40283C73702E3
:1026900041116381A7041304C402814719C1930740
:1026A00000033828DC8701C793E72700DC878347CE
:1026B000240289C79C8793E707F8DC8718405C40B1
:1026C000AA844C2B88239306F1000546EF10D0080E
:1026D000A3019402014541016FD03FE693078002B8
:1026E00063EFA708EFD23FE3370400204111AA842B
:1026F0001304C4021DE16937930700707C861840FB
:102700005C4074002C2B88230946EF10F004230A48
:102710000400014541016FD05FE2054595379307FD
:1027200000025C868547639CF402A3060100154500
:10273000B5319C86184074009A0793E77700DC86D1
:102740005C402C2B09468823EF101001A1473CA4C4
:1027500001458547230604005CA8953B5DBF1547EE
:1027600063649700DC86E1B7D14763E69700894749
:10277000DC86294575BF8D47DC86514555BF7D55A3
:102780008280EFD25FD9370400209307C402B827B4
:10279000411159C303C74702AA847D550DE3DC2BC1
:1027A0001304C40295C39387F4FFC207C1831307C0
:1027B00070026369F70013F5F40F0D37014541010D
:1027C0006FD0BFD70145193F1307803EA6876374BA
:1027D00097009307803E13970701418391466373E7
:1027E000D7009147C2079304803EC183B3C7F40268
:1027F00018409306F10005460C33FD17DC875C405A
:102800008823EF1060758887050533C5A4026AA484
:102810000581EFF0BFB85DB77D5555B7EFD2BFCF9B
:102820009377050741112A8481C78547DC8721A05A
:1028300041CDA3070100B70400201389C4028327F8
:102840004900032709009306F10088232C2B054635
:102850009384C402EF1040709C8793F7F7FB230624
:10286000F90093770404A5C7A30701009377040236
:1028700089E79C8793E72700DC879377040189E742
:102880009C8793E71700DC879377840089E79C8710
:1028900093E78703DC87DC4098409306F1008823A8
:1028A0002C3B0546EF10406B9377740F99C301459D
:1028B000C13B13052003A0A4238A0400EF40803508
:1028C000014541016FD07FC79307000485B7914749
:1028D000DC8769BFEFD23FC4370400204111930465
:1028E000C402930700F898405C84DC402C2B340031
:1028F000882305461304C402EF1000661305400642
:10290000EF4040319840DC40230401002C2B882309
:1029100034000546EF1040649840DC4034006C2BD6
:1029200088231946EF1050039C8698858A0706076E
:10293000098B918BD98F9884058BD98FD1C7054787
:1029400093F5F70F6394E7003CB831A08947639291
:10295000F506A3090400FD577EA41CA83CA8FD575A
:102960001CC4231A040085473146814513056401C0
:102970005CA4EFD05FBD85473EB02322040213055F
:10298000007DEFF0BF8905ED0945EFF05F9505E9A2
:102990001305A002EFF09FA01DE113052003D5331E
:1029A00019EDEFF0DFB201ED39312A8409E9BD35C7
:1029B00001A837B500001305C567EF5000407D54EE
:1029C000228541016FD07FB7DC40984034008823D6
:1029D0002C330546EF1040781C84BD8B81EB37B556
:1029E00000001305456AEF50803FD1BF1147E392C5
:1029F000E7F637B500001305056FEF50403E8547F9
:102A0000A1B719E67D5582807D5541016FD0FFB297
:102A1000EFD27FB0370400201304C4023C244111DC
:102A2000E5D71357850093178500D98F7C865C40C6
:102A30001375F50F2E95BA27E348A7FC1840882395
:102A4000AE840C2F328974000946EF10E050184014
:102A50005C40CA864C3B882313F6F40FEF10C04F3E
:102A6000014565B719E67D5582807D5541016FD0DE
:102A7000DFACEFD25FAA370400201304C4023C2469
:102A80004111E5D71357850093178500D98F7C86B0
:102A90005C401375F50F2E95BA27E348A7FC184044
:102AA0008823AE840C2F328974000946EF10C04A87
:102AB00018405C40CA864C3B882313F6F40FEF1095
:102AC000A069014565B7EFD29FA2B70400209387A4
:102AD000C40283C75702011189C77D5505616FD0B4
:102AE0009FA4E5DDC16B9384C402368B32892E8AA4
:102AF000AA890144C14CFD1B636934031316890084
:102B0000DC409840135989003369260123162101BE
:102B100088232C2F74000946EF1000448547A382B8
:102B2000F40223936403014555BFB38A894063D3FC
:102B30005C01C14A139C0A01135C0C01330D8A002D
:102B40006A86E2852285753D49F91008E28522856D
:102B5000113F41F533F67A010C086A85EF80207940
:102B600009E562944204418041BF795585BFEFD2A7
:102B70009F9A370400201304C40203474402411102
:102B80006303A70429C5834754027D5595CF0145AA
:102B9000EFF0EFCB0145EFF01FA26A30EFF07FBE00
:102BA0005C40A30701009306F100882305469305C6
:102BB0003002EF10603A854705452302F402EFF03A
:102BC0000FC9EFF04FCE014541016FD01F97EFF0D5
:102BD0000FC81C289306F1000546DC875C4093056E
:102BE00030028823EF10403723020402D9BFEFD20E
:102BF0009F8F370400209307C40283CA470259718C
:102C00002A8BAE8B1304C40263850A000145853705
:102C1000854A1305E103EFF08FDC1305D103EFF0D4
:102C2000AFE713052104EFF0CFF28800EFF0EFFEDD
:102C30001C280146DE855A85834DA4003EC4EFF072
:102C40002F89631B051E0546AC08E800EFF04F888E
:102C5000631105245C40B40011468823B545130A6E
:102C60004106EF10604F8346B10403478104930986
:102C7000410493D746400D878D8B718B5D8F230266
:102C8000E1040347910493D726408D8B0D87718B08
:102C90005D8F8347A1048D8AA302E1048D87F18BA8
:102CA000D58F2303F10437B70000B7B7000003AD99
:102CB000477103278771930C0107D284528C03C993
:102CC0000900631F091C930700009CC0910485093B
:102CD000E3979CFEB7B700003EC6B7B7000083A7D6
:102CE0008772A40881493EC8B7B7000083A7C7729E
:102CF0000149854C3ECAB7B7000083A707723ECC96
:102D0000B707008093C7F7FF3ECEB7B7000083A791
:102D100047723ED093172900DE9788409C43898FE5
:102D200013D5F741A98F3385A740EF80401AB7B775
:102D3000000083A5C771EF70902803270A002A8D31
:102D4000930500003A853AD2EF709010630C051697
:102D500012576A85BA85EF708064E245EF70704F54
:102D6000F24782557D8DEF7070146356A000B397C3
:102D70002C01B3E9F90005098D479104110AE31B01
:102D8000F9F893F7F90F3E8D5C40E2860D468823F3
:102D9000B5459309C104EF10203C834761060357F2
:102DA00041068966FD8B2303F106B2479386F6F14F
:102DB000758F83A7C7712312E10681443EC6B7B75A
:102DC000000083A787730149054A3EC8B7B70000D2
:102DD00083A7C7733ECAB7B7000083A707713ECC6D
:102DE000B7B7000083A707733ECEB7B7000083A72D
:102DF00007723ED0B707008093C7F7FF3ED2B7B740
:102E0000000083AC477393172900DA9703A50900E4
:102E10009C43898F13D5F741A98F3385A740EF8055
:102E2000000BB245EF70B01933072C011C23AA8B9D
:102E3000638F070E62457DA00146DE855A85EFE06F
:102E40003FE9E30205E08144FD570355E1037EA419
:102E50001CA8FD571CC485475CA4EFF02FBC03459C
:102E6000D103EFF0CFC703552104EFF02FD3035563
:102E70000104EFF01F916E85EFF05F9A2245EFF0AD
:102E80000FE563840A000545DD31268565616FD055
:102E90004FE90546AC08E800EFE09FE34DF55DBB68
:102EA00023A0A4017D191379F90F6315090023806C
:102EB000090029BD8840BA853AC6EF70501088C015
:102EC0003247CDB7C2456A85EF70B006E34105EAE7
:102ED000D2456A8549BDF2453AD63ED4EF70300EF0
:102EE000A2573257FD1793F7F70FF5F7AA8523007E
:102EF00007005E85EF70A04A8255EF7090359257BB
:102F0000E6857D8DEF70807A6355A000B3172A01A6
:102F1000DD8C05098D479109E317F9EE93F4F40F61
:102F200093B41400E3120DF293E4240031BFC245C0
:102F3000EF703000E34C05FCD2455E85E1B782803E
:102F4000EFD26FDD01114C082800EFF05FCA0D478A
:102F500085476317E5064800EFF0CFCD22451244C0
:102F6000EF70F076A285EF709005EF70D06A2AC4FA
:102F70003245EF70D075A285EF707004EF70B069C4
:102F80002AC64245EF70B074A285EF705003EF700F
:102F900090682AC828001D2913052100EFF04FCEA4
:102FA0003881D2474808B387E7023ECAE247B38771
:102FB000E7023ECCF247B387E7023ECE21238147AA
:102FC0003E8505616FD06FD70307050081476343D6
:102FD000E002914705E3030715008547634CE000D5
:102FE000954709EB0307250089476345E0009337C0
:102FF000170099073E858280EFD2EFD1AA84E93786
:103000002A8913853400C9372A84138564006D3FEB
:10301000931734001A055D8D336525014205418102
:103020006FD0AFD1EFD22FCFEFF0DF8A294451E537
:1030300013058007EFF08FFE1375F50F054435ED8E
:1030400013058007EFF0AFC81375F50F094435E598
:1030500013052003EFF0EFF21375F50F0D4431ED7A
:10306000892C1375F50F114429E937050020130544
:1030700005025937B92C1375F50F15441DED1305CD
:103080003017EF0070101375F50F19441DE5130587
:1030900020033D231375F50F1D4405E155352144EB
:1030A00009ED0545EFF0BFAC1374F50F11E837B526
:1030B000000013058565EF40905222856FD0EFC761
:1030C0002544E5BFEFD2AFC27971AA8B2E8BB28AAD
:1030D000930791001307A100740010102C08080832
:1030E000EF00F027631C05183C85094593F707108E
:1030F000638307180255B7B90000EF70505D83A5D0
:103100008964EF70C06B2A891255EF70505C83A5FB
:103110008964EF70C06AAA842255EF70505B83A562
:103120008964EF70C0692A843255EF70505A83A5C4
:103130008964EF70C068B7B7000083A5C764AA8927
:103140002685EF70C067AA8CCA854A85EF60906EAD
:103150002A8CCE856685EF7080662A8AA285628574
:10316000EF70E065AA855285EF60D06CEF30B03724
:10317000EF70306F37BA000003260A6583264A6570
:10318000EF50F077EF70B07823A0AB00A2852285D6
:10319000EF60506AAA8BA6856685EF704062AA8CA4
:1031A000A2855E85EF70A061AA856685EF70700AC2
:1031B000B7B7000083A50772EF60D067AA8CCE85F1
:1031C0005E85EF70C05FAA8BA6856285EF70205F79
:1031D000AA855E85EF601066E685EF30B03CEF7043
:1031E000506803260A6583264A65EF505071EF70D8
:1031F00010722320AB00CA854A85EF70405C2A8B91
:10320000A6852685EF70A05BAA855A85EF6090623F
:103210002A8BA2852285EF70805AAA855A85EF7085
:1032200050032A8BCE854E85EF706059AA855A854A
:10323000EF703002A2852A8B2685EF7040582A84D1
:10324000CE854A85EF70A057AA852285EF60905EF3
:10325000AA85EF60305EDA85EF30D034EF707060B1
:1032600003260A6583264A65EF507069EF70306A5D
:1032700023A0AA00014545616FD0EFAA0545E5BF2F
:10328000EFD26FA9B7B7B38D4111938787AB3EC219
:10329000B7A70D359387478B3EC450009307D005E1
:1032A000A5451305804B5C86EFF0AFF541016FD06B
:1032B000CFA8EFD24FA6AD6505659306800C130627
:1032C000004093854578130565BFEFF0CFFF6FD0C1
:1032D000CFA6EFD24FA4F57741111387C7D49387B8
:1032E000C7907C869307C00278845C871307C0066A
:1032F000937635001C085885BE9683C786FF135702
:1033000035000D8B5C801C083E97834787FF1008B3
:1033100083C6C6FFDC80935765008D8BB29703C6CA
:1033200087FF0347C7FF83C7C7FF2A8450818D45A6
:103330000A86130560425482D8825C83EFF06FECFA
:1033400009C57D5541016FD04F9F50008D45130534
:10335000A042EFF00FEB75F59567938767637C806C
:10336000930760075C819167938767627C8293070C
:1033700060065C839377440099C7930770035C8071
:10338000930770025C829377040299C793077005D4
:10339000DC8093077004DC829377041099C793074D
:1033A00070075C81930770065C830A868D45130560
:1033B0000044EFF00FE551F550008D451305104323
:1033C000EFF02FE43DFD23928194ADBFEFD2AF9497
:1033D00083D74194411113F737000A072A970C430A
:1033E00013F7470019C3B305B04013D71700318B4B
:1033F0002A97104313F7070219C33306C04013D7A7
:103400004700318B3A9593F70710184199C333075A
:10341000E040B7E6CA0293869630B387D50213051B
:10342000003DB395D502F9833304D7028A05CD8FC9
:1034300091453317D7027980B304D6020A07598C15
:1034400013D78741588613D70741D886139787002B
:10345000C207C1833316D602F980A183D98F7C8736
:103460000A06D18C7000EFF0CFD909C57D55410116
:103470006FD0AF8C93D784415C8693D70441DC86B0
:1034800093978400C204C180A180DD8C70009145B7
:103490001305403D6487EFF0CFD669F99357844117
:1034A0005C8693570441DC86931784004204418074
:1034B00021805D8C700091451305803D6087EFF0A1
:1034C0004FD475B7EFD22F8541112A8413052100FF
:1034D000EFE01FFB83D74194308113F737000A07D1
:1034E000229793F647003E06184399C23307E040FF
:1034F00093D61700B18AA2968C4293F6070299C21E
:10350000B305B04093D64700B18A369493F70710BD
:10351000084099C33305A0409357F741B306C7024B
:10352000B387C702F9823337C702BA978A07DD8E9D
:1035300093D7F5413387C502B387C7027983B3B503
:10354000C502AE978A079355F5415D8FB385C502D5
:10355000B307C5023336C502F983130540292E96F9
:103560000A06D18F13D68641508213D60641D082E7
:1035700013968600C206C182A182D18E74839356AF
:103580008741548493560741D48493168700420799
:1035900041832183558F788513D78741588613D768
:1035A0000741D88613978700C207C183A183D98FAB
:1035B0005000B1457C87EFF0CFC441016FC0FFF7E9
:1035C000EFC27FF50111AD652A8431469385453CF4
:1035D0004808EF7010549307800C63F687007D5500
:1035E00005616FC09FF5B3C7870270008945130559
:1035F000602123060100FD17DC86EFF08FC065F126
:1036000005655008B145130515ACEFF08FBF61F9A2
:1036100023948194F1B79377750099E37D55828067
:1036200093070064E3ECB7FEEFC2FFEE41112A847A
:103630002E85EF703016B7C7000083A5C737EF603F
:103640001056AA841305B100EFE01FC59C851147F1
:103650006383E70E6369F7000947638EE7027D55D0
:1036600041016FC09FED21476389E70E4147E39811
:10367000E7FEB7C7000083A587392685EF702014C1
:10368000EF70807F13190501B7C7000013590901B6
:1036900083A5C73915A0B7C7000083A507382685BD
:1036A000EF70E011EF70407DB7C7000083A5473889
:1036B00013190501135909012685EF704010EF70A9
:1036C000A07B42059317890041811359890033E992
:1036D00027019317850021815D8D231621016887BD
:1036E00093771400C9EF9377240085C37000894550
:1036F0001305801DEFF0EFB03DF11306E1008945A1
:1037000013058012EFF0EFAF39F91188014529D880
:10371000700089451305C01DEFF0AFAE29F1130607
:10372000E10089451305C012EFF0AFAD3335A000BD
:103730003305A04035B7B7C7000083A58738268575
:10374000EF70E007EF70407313190501B7C7000071
:103750001359090183A5C73885B7B7C7000083A5EA
:1037600007392685EF70A005EF7000711319050168
:10377000B7C700001359090183A5473935BF700049
:1037800089451305401DEFF0CFA7E31A05EC13069A
:10379000E100894513054012EFF0AFA629D5C1B568
:1037A000EFC27FD793771500411195EBA307010076
:1037B0009377250089C79C8793E7C700DC87118929
:1037C00009C59C8793E73700DC871306F100854520
:1037D00013058014EFF0EFA241016FC01FD69307CD
:1037E0000003DC87F1B7EFC21FD34111854719C52C
:1037F00011479377F50F6373A7009147FD171306E1
:10380000F10085451305F014DC87EFF08F9F41012F
:103810006FC0BFD2EFC23FD095473355F50241117B
:10382000700089459317850021815D8D6886130599
:10383000E01DEFF00F9D41016FC03FD0EFC2BFCD43
:1038400095473355F502411170008945931785005E
:1038500021815D8D68861305A01DEFF08F9A4101CF
:103860006FC0BFCDEFC23FCB9307803E3345F5021B
:1038700041117000B305B5021305C01593D78541FA
:103880005C8693D70541DC8693978500C205C1818C
:10389000A181DD8D6C879145EFF0AF9641016FC03E
:1038A000DFC9EFC25FC795473355F502411170007C
:1038B00089459317850021815D8D68861305A015C4
:1038C000EFF02F9441016FC05FC7EFC2DFC495478F
:1038D0003355F50241117000894593178500218108
:1038E0005D8D688613058015EFF0AF9141016FC0C3
:1038F000DFC4EFC25FC2411111C5EFF07F984101F3
:103900006FC0BFC3AD6525469385053D4800EF7088
:1039100050205000A5451305804BEFF08F8EC5B7A2
:10392000EFC27FBF411115C1B7C7C4C69387072C2B
:10393000056570009145130585A93EC6EFF06F8CB3
:10394000EFE06FF641016FC05FBFB7978B8B938736
:10395000B7B8F9BFEFC23FBC411115C1B737303816
:10396000938707820565700091451305E5A93EC65A
:10397000EFF02F89EFE02FF341016FC01FBCB7A715
:10398000A3A39387373AF9BFEFC25FB74111B7D707
:10399000E309938727A02A845000914513058006E8
:1039A0003EC2EFF00F86930730FA5C82137A04046C
:1039B00063040A16930700FCDC82F1779387872C57
:1039C0007C8313790418630E0914F577938747CC29
:1039D0007C84930760FC5C85930730FADC85056581
:1039E000E9779387373A5000A945130575AA7C8675
:1039F00093793400EFF0EF809307800D6384090022
:103A000093070002056550008545130565AB5C8290
:103A1000EFE03FFF93770402638C0710EFF05F86BF
:103A2000630209029377041063880710B797B69B67
:103A3000938727BB056550009145130525AA3EC213
:103A4000EFE03FFC93771400638D070E0565E157A7
:103A5000500085451305058B5C82EFE09FFA9305C6
:103A6000A00F1D45EFF03FBB1D45EFF07FD305458F
:103A7000EFF07FD713054006EFF0DFD91305401FA5
:103A8000EFF0DFDB37E5CA029305800C13059530B4
:103A9000EFF05FDD13058002EFF0BFE02945EFF0A6
:103AA000DFE293772400B337F0009387870D50004F
:103AB00085451305D0735C82EFE0BFF49377440033
:103AC000054591E30145EFF0BFE593770401054516
:103AD00091E30145EFF01FE89387C19313678400DA
:103AE000BAA7EFE04FDC9387C19363170A062387D9
:103AF000070063050900F8271907F8A7518801C4D2
:103B0000F8274107F8A763850900F8271107F8A7E8
:103B1000014541016FC0DFA1DC82E9779387373A25
:103B200045B5E9779387373A7C84930730FA65B5D2
:103B30000145EFF01FDCEDB5B787B4909387070B15
:103B4000D5BD0565930780FD500085451305058BA0
:103B50005C82EFE01FEBB1B71947F8A759BFEFC27E
:103B60001F99938BC1932A8903C5EB000111AE897C
:103B7000328B231007003E868A85B6843A8AEFE0AE
:103B80003F9A45E503D7AB002A84938AC193937784
:103B90004701638607181C8094809082E207C20662
:103BA000D58F948142060C84D58F1481E2058886D6
:103BB000A206D58F14822320FB00C187E206D18E96
:103BC0009083B387F7024205D18E10832206D18EEF
:103BD00090842322DB00C1864206D18D9085B38676
:103BE000D602D18D10852206D18D10862324BB00EC
:103BF000C1856206498E8887BE96B387B502498E15
:103C000008872205498E2326CB0041863306C6024B
:103C1000B697B70600F1B297B697B706000263F8F9
:103C2000F600EFE04FC823100A007D54EDA0835743
:103C30000A0093E707102310FA00C14793760704A0
:103C4000A1C61410BE9603C606FE83C516FE9907CC
:103C500022064D8E2390C90003C626FE83C536FE7C
:103C600093F7F70F22064D8E2391C90003C646FE37
:103C700083C656FE2206D18E2392D90083560A00AF
:103C800093E686002310DA0093760718A1C6141075
:103C9000BE9603C606FE83C516FE990722064D8E04
:103CA0002310C90003C626FE83C536FE93F7F70F1F
:103CB00022064D8E2311C90003C646FE83C656FE5A
:103CC0002206D18E2312D90083560A0093E60607F6
:103CD0002310DA000D8B0DCF3309F1008347190053
:103CE00083493900858B99CB83A70A0081CB93F553
:103CF000790013D5390085051D89829783471900FE
:103D0000A18B99C783A74A0081C713D56900829701
:103D10002685EFF0CFA2228505616FC0DF80814745
:103D200031BFEFC24FFF41112A84EF000068130535
:103D3000C00EEF00206BEF00E0712285EF00806A7B
:103D4000EF004071EF0060661305D00EEF00806950
:103D5000EF004070EF00006C2AC6EF0000673245AC
:103D600041016FC08FFDEFC20FFB41112EC62A84A7
:103D7000EF00A0631305C00EEF00C066EF00806D7A
:103D80002285EF002066EF00E06CB2452E85EF0043
:103D90006065EF00206CEF00406341016FC0EFF9F8
:103DA000EFC26FF74C411C4196058A07DD8D1C451B
:103DB0001305400FDD8D93F5F50FEFF0DFFA6FC0BF
:103DC000CFF7EFC24FF50C415C4196058A07DD8DB8
:103DD0001C451305500FDD8D93F5F50FEFF0BFF87F
:103DE0006FC0AFF5EFC22FF3011151231305800807
:103DF000EFF03FF3AA841305900813840181EFF0DC
:103E00005FF21C40220526958AA31305A008EFF057
:103E10005FF1AA841305B008EFF0BFF01C40220543
:103E20002695AAA31305C008EFF0BFEFAA841305D7
:103E3000D008EFF01FEF1C4022052695CAA31305FA
:103E4000E008EFF01FEEAA841305F008EFF07FED15
:103E50001C4022052695EAA313050009EFF07FEC2C
:103E6000AA8413051009EFF0DFEB1C40220526950C
:103E70008AA713052009EFF0DFEAAA8413053009A9
:103E8000EFF03FEA1C4022052695AAA7130540093A
:103E9000EFF03FE9AA8413055009EFF09FE81C40BA
:103EA00022052695CAA713056009EFF09FE7AA84AB
:103EB00013057009EFF0FFE61C4022052695EAA7DE
:103EC00013058009EFF0FFE5AA8413059009EFF0D0
:103ED0005FE51C40220526958AAB1305A009EFF08B
:103EE0005FE4AA841305B009EFF0BFE31C4022058C
:103EF0002695AAAB1305C009EFF0BFE2AA8413050B
:103F0000D009EFF01FE21C4022052695CAAB13052D
:103F1000E009EFF01FE1AA841305F009EFF07FE05C
:103F20001C40220526959305600BEAAB1305000E95
:103F3000EFF07FE38D47054728003AC63EC43EC8F0
:103F4000EFF01FE6914748083ECC02CA02CEEFF0E0
:103F50005FE705616FC06FDEEFC24FDAB764004004
:103F6000AA8A2E8A3289368493890480B705020092
:103F70004E85EFD04FDC7DF9138504808545B7046D
:103F80000300B7690040EFD0EFD28504138B09809E
:103F9000A6855A85EFD0CFD865DDD68513850980F3
:103FA0000146B7040700B7690040EFD04FD69384AD
:103FB0002408938A0980A6855685EFD06FD665DDE3
:103FC00013850980D285B7090700B7640040EFD098
:103FD0004FD39389490893840480CE852685EFD0FA
:103FE0002FD465DDB7640040B70907002299938498
:103FF000048093894908631B890037650040854523
:1040000013050580EFD0AFCC6FC08FD20504834578
:10401000F4FF2685EFD0EFCECE852685EFD04FD0AA
:1040200065DDD1BFEFC22FCF4111CC879306F100E0
:10403000AA8505461305000DEFF01FF241016FC080
:10404000CFCFEFC24FCD011185453705400002C2E9
:1040500002C402C602C802CA02CC02CEEFD0CFF21E
:1040600085452145EFD06FF08567938707C07C8237
:1040700037150140F1473EC64C008D47130505C07A
:104080003EC4EFD0EF96B7270600938707A83EC837
:10409000B707FFBF376400403ECAB70700043ECCF5
:1040A0000C08916713050480FC86EFD04FAF130511
:1040B00004808545EFD08FBE854513050480EFD081
:1040C000AFC213052003EF20F03493050008130559
:1040D000B006EFF03FF513054006EF20B033814501
:1040E0001305B006EFF01FF48D456545EFF09FF323
:1040F00089456945EFF01FF381457145EFF09FF267
:10410000E1456D45EFF01FF2814513058003EFF0A7
:104110007FF181451305A006EFF0DFF0814513051F
:104120003002EFF03FF09305000813057003EFF045
:104130007FEF85451305B006EFF0DFEEEFE09FEE71
:104140002A84AA8537C500001305053AEF30F046EA
:10415000228505616FC06FBEEFC24FBAB7640040E1
:104160002A8AAE8A3284368993890480B705020090
:104170004E85EFD04FBC7DF9138504808545B7048B
:104180000300B7690040EFD0EFB28504138B0980BC
:10419000A6855A85EFD0CFB865DD13850980014625
:1041A000D285B7040700B7690040EFD04FB69384BB
:1041B0002408138B0980A6855A85EFD06FB665DD7C
:1041C000D68513850980B7040700B7690040EFD092
:1041D0004FB393844408938A0980A6855685EFD00F
:1041E0002FB465DD138509808545B7040300B769E1
:1041F0000040EFD02FAC8504938A0980A6855685B0
:10420000EFD00FB265DD138509800546D285B70969
:104210000300B7640040EFD08FAF89099384048016
:10422000CE852685EFD0CFAF65DDB7640040B709F6
:104230000300130AF00F93840480938909047D140A
:104240001374F40F631044033764004013050480B3
:104250008545EFD0CFA7854513050480EFD0CFA8C3
:104260006FC00FAD09E481452685EFD0EFA7CE855D
:104270002685EFD0EFAA65DD2685EFD0CFA82300F5
:10428000A90005096DBFEFC20FA941112A84930649
:10429000E100AA8505461305000DEFF0FFEB93053D
:1042A00014009306F100054693F5F50F1305000D74
:1042B000EFF09FEA1C878887A2075D8D41016FC0E0
:1042C000CFA7EFC24FA5411170002C004800EFE0CE
:1042D0007FDFB247138441961CC09247AA8413051E
:1042E00070045CC0A2471CC4EFF0FFF94AA4130598
:1042F0003004EFF05FF96AA413055004EFF0BFF843
:1043000031150AA8268541016FC02FA3EFC2AFA0C7
:104310002A863715014093050004130505C0EFC038
:104320001FFA2945EF20700B6FC02FA1EFC2AF9E7F
:104330002A863715014093050008130505C0EFC014
:104340001FF82945EF2070096FC02F9FEFC2AF9C67
:104350003715014093050008130505C0EFC05FF550
:104360002A842945EF20700722856FC00F9DEFC278
:104370008F9A411185452145EFD02FBFD147371482
:1043800001403EC69307000C7C824C008D4713050C
:1043900004C03EC4EFC0DFE59305000C130504C064
:1043A000EFC0BFF141016FC04F99EFC2CF960545F5
:1043B000EFF0DFF70545EFF07FF50145EFF01FF770
:1043C0000145EFF0BFF46FC04F97EFC2CF940145A6
:1043D000EFF0DFF50545EFF07FF30545EFF01FF552
:1043E0006FC0AF95EFC28F912A89014493090008ED
:1043F000A14433D5894033752501EFF03FF30545DE
:10440000EFF0DFF001450504EFF05FF0E31394FEF9
:104410006FC00F92EFC28F8E0545EFF03FF18144E0
:1044200001449309000821490545EFF03FEEEFF004
:10443000FFF185476317F500B3D799405D8C13747E
:10444000F40F01458504EFF07FECE39F24FD228506
:104450006FC00F8EEFC22F8C0545EFF03FED054585
:10446000EFF0DFEAEFF09FEE2A840145EFF01FEA5C
:1044700022856FC08F8CEFC20F8A797113060002FC
:1044800081450808EFC02F8C8545114502C202C442
:1044900002C6EFD08FAD854513050020EFD0EFACFD
:1044A0003165EFD02F9237150140C1474C001305FD
:1044B0000580372401407C8202C6EFC07FD31305FC
:1044C0000440EFC03F8785473ECCB7070E003ECE85
:1044D0000C089147130504402302F10202C802CAE6
:1044E00002D0EFC09F89854513050440EFC05F8F60
:1044F000854513050440EFC0BF8D81451305044079
:10450000EFC07F9E13050440EFC0BF8E93040440AC
:104510002685EFC0BF8E6DFD130504403724014092
:10452000EFC05F8E930404402685EFC05F8E6DFD63
:1045300013050440EFC0BF9CB70700202390A712CB
:1045400045616FB09FFFEFB21FFD39712A842E893C
:10455000B28481451306C002480836C6EFB0BFFEDC
:1045600085450545EFD08F9E2285EFC0FFAC9307B0
:1045700000083ED493070010B2463ED69307004091
:104580003ED8930700023EDA4C088D6722854ACA5E
:1045900026CC36D03EDC02CE02D202DEEFC09FC077
:1045A00021616FB09FF9EFB21FF7EFF0DFECB707B3
:1045B00000208395071237C500001305C53BEF3077
:1045C000C07F37240140B7040240370600208546EB
:1045D000130646129305C44413854404EFF0BFF656
:1045E000138544048545EFC07FBF9D4605461305EE
:1045F00004409145EFC0BF83854513050440EFC0DB
:104600009F816FB09FF3EFB21FF11C45AA842E89E2
:104610000314A50089EF084193050000EF604003F3
:1046200019E50A042694232024016FB01FF189475D
:1046300005043364F4020397840093170401C187CF
:104640000A04BEA4269423202401E390E7FE8507F4
:10465000858B9EA4D9BFEFB21FEC2A840841930535
:104660000000EF50301D4C40EF50D01CB7C7000089
:1046700083A5473DEF60A0146FB03FECEFB2BFE9F8
:1046800041118545114502C202C402C6EFD0EF8D2B
:1046900093070010371401407C82C1473EC64C008E
:1046A0008D47130504803EC4EFC09FB405469305B3
:1046B000001013050480EFC09FC041016FB0FFE7F9
:1046C000EFB27FE5AA843705080039712E841305FF
:1046D0001502854532C602D202D402D602D802DAC9
:1046E00002DC02DE02CC02CE23100102EFD0EF8703
:1046F0003705138085454105EFC01FBDED779387D2
:1047000007A02312F10237150140E1473ED64C10B5
:104710008D47130505403ED4EFC09FADE08437546C
:1047200001402C08130504C0E486231F0100231D4B
:104730000100EFD02F893246C167938707060C1816
:10474000130504C03ED8231BC102231C0102EFD075
:104750000F920C18130504C0EFD08F990C18130595
:1047600004C0EFD0CFA30C18130504C0EFD0EFADF9
:10477000130504C08545EFD04FB7130504C081452C
:10478000EFD0AFB9130504C08145EFD0EFB91305E1
:1047900004C08145EFD0AFBA130504C08145EFD006
:1047A000EFBA130504C08545EFD08FB585451305D5
:1047B00004C0EFD00FB221616FB03FD8EFB2BFD5C8
:1047C00009651306803E93051003130505C2EFF03B
:1047D0003FEF37540140130504C09305005AEFD052
:1047E0004FB8130504C09305005AEFD0CFB7130597
:1047F00004C09305005AEFD04FB79305005A130534
:1048000004C0EFD0CFB66FB05FD39307005A63FBFD
:10481000A70085671387F7B3636EA7049307206724
:1048200063E4A7001305005A83C7D18199EB1307EE
:104830002067AA876374E500930720671395070133
:10484000418183A781810947FD15638EE706EFB299
:104850009FCC93972500B705002093858505BE95CD
:104860009C416382E704634AF70005476385E702DA
:104870006FB0BFCC138507B445BF0D47638DE7020A
:104880001147E397E7FEAA8537550140130505C098
:10489000EFD0EFADF1BFAA8537550140130505C034
:1048A000EFD02FACF1B7AA8537550140130505C0ED
:1048B000EFD06FAB75BFAA8537550140130505C012
:1048C000EFD0AFAA75B78280EFB2FFC4856693863A
:1048D00006B42E87B68763E3A600AA87139607015E
:1048E00041829306005A6374D6009307005A939549
:1048F00007017D17B70700200A0793878705BA9736
:104900009C430947C181638DE7026347F700054770
:104910006381E7026FB07FC20D47638AE7021147E8
:10492000E39AE7FE37550140130505C0EFD02FA4E9
:10493000D5B737550140130505C0EFD08FA2D9BFB9
:1049400037550140130505C0EFD0EFA1E1B737554A
:104950000140130505C0EFD04FA16DBF37050040E2
:10496000411185451305054022C6EFD0CFA1EF00C8
:10497000B006EFF01F951DE5EFB07FC7EFB0BFCDDC
:1049800003A781818947630FF70083C7D181B1E312
:10499000370400200355C4139307306A63F8A70057
:1049A000EF00B00832444101730020308545EFF03C
:1049B000DFE50355C4138945EFF03FE50355C41304
:1049C0008D45EFF09FE40355C4139145EFF0FFE3ED
:1049D000D1BF3704002013048406EF0030201C44AC
:1049E000138541BF82971C44138541BA82971C44AA
:1049F000138541B582971C44138541B082971C44AE
:104A0000138541C982971C44138541C4829759BFBD
:104A100037150040854513050580EFD0CF9673000C
:104A20002030EFB25FAF797185453705020002CAC9
:104A300002CC02CE02D002D202D402D602C602C8F2
:104A4000EFC09FD485451145EFC03FD29147FC820E
:104A5000371401408D473ECC4C08E14713050480D4
:104A60003ECEEFC0EFF8A1474C08FC82130504804E
:104A700091473ECEEFC0CFF7B77706009387078AFE
:104A80003ED0B7070C003ED4930760037C866800D5
:104A900085473EC83744004002D22316010223074F
:104AA0000100EFC01FAD130504408545EFD06F979F
:104AB0000C1013050440EFD0CF8D054693055052DE
:104AC00013050440EFD04F9745616FB01FA7EFB2B9
:104AD0009FA42A84EFD02F9AB706002003C766123E
:104AE000138641AC9307170093F7F70F329708A38B
:104AF0002383F612130700046394E700238306124E
:104B00009924930550522285EFD00F986FB0FFA2E1
:104B1000411122C63744004093055052130504400A
:104B2000EFD04F9701CD9305000213050440EFD05D
:104B30000F9509C513050440EFF07FF93244410198
:104B400073002030014793868197130800109377F4
:104B5000F70F214693951700E207E187FD87E98F5C
:104B600093F5E50F7D16AD8F75F63386E6001CA232
:104B70000507E31E07FD8280AA9581471387819769
:104B80006314B5003E85828005058346F5FFB58F29
:104B9000BA979C23F5B737070020130767121C2329
:104BA0006365F500230007008280898F93F7F70F74
:104BB0001CA3938641AC01473306A70036960C220E
:104BC0003386E60005070CA2E318F7FE8280582121
:104BD00034311D8B2207938781A7558F98C35821A5
:104BE0009356370058311377F7031607558FD8C3FC
:104BF0005431782199820A07D98E7831058B2A079A
:104C0000558F98C778319356170018253D8B1E078E
:104C1000558FD8C718259356470018351377F707CF
:104C20001207558F98CB143538259D820607D98EEB
:104C300038350D8B2607558FD8CB3835935627003E
:104C400058257D8B1A07558F98CF582593565700B6
:104C500058350E07558FD8CF783574251D8B220710
:104C6000558F98D378359356370018291377F70363
:104C70001607558FD8D31429183999820A07D98E67
:104C80003829058B2A07558F98D73829935617004E
:104C900038393D8B1E07558FD8D738399356470082
:104CA00058291377F7071207558F98DB542958397D
:104CB0009D820607D98E78290D8B2607558FD8DB64
:104CC00078299356270078397D8B1A07558F98DFFE
:104CD000783993565700182D0E07558FD8DF8280EC
:104CE000EFB27F8358213C31411122075D8F5C3147
:104CF0006C002946C2075D8F7C21138581ABE207DA
:104D0000D98F3EC6EF60E06041016FB01F8393878B
:104D100041AC94231307800C6396E602EFB2AFFF19
:104D2000BC235147638BE70059476396E70013851F
:104D300041ACEFF0DFE96FB05F80138541ACEFF07D
:104D40003FFAD5BF8280EFB26FFB938441AC370945
:104D500000208549130AB003938A2400034769128F
:104D600063F4E90480309307D4FF93F7F70F637679
:104D7000FA000545EFF03FE2D5B79307140063D57D
:104D8000E702A69703CB07009305F4FF93F5F50F11
:104D90005685EFF07FDEE31EABFCEFF05FF7130507
:104DA00024001375F50FF9B76FB08FF8EFB2AFF3BA
:104DB000B704002083A784064111138541C9829757
:104DC000B7C7000083A7073F138441C9138984062E
:104DD0001CC0B7C7000003AD473FB7C7000083AC96
:104DE000873FB7C7000003AAC73FB7C7000083A922
:104DF0000740B7C7000003AC474083274900930D25
:104E000000002322B4012324B401232AA401232C6B
:104E100094012326440123283401232A8403138583
:104E200041C9829783A78406138541C48297B7C777
:104E3000000083A78740138441C42322B4011CC00F
:104E4000B7C7000083ABC740B7C7000003AB07413B
:104E5000832749002324B401232A7401232C6401ED
:104E60002326440123283401232A8403138541C4C3
:104E7000829783A78406138541B5829737C70000C0
:104E800003278741138441B5B7C7000058C037C70F
:104E900000000327C74183A74741232AA40118C460
:104EA00037C70000032707421CC0232C940158D8A1
:104EB000032749002326440123283401138541B5E3
:104EC0003EC6029703A78406138541B0029737C7F1
:104ED000000003274742138441B02322B40118C0C5
:104EE00037C7000003278742232A7401232C64015B
:104EF00018C437B70000832D077203274900232603
:104F0000440123283401232AB403138541B00297B6
:104F100003A78406138541BF0297B247138441BF9C
:104F2000232AA4011CC0B7C7000083A7C742232CB3
:104F30009401232644015CC0B7C7000083A7074340
:104F400023283401232A84031CC4832749001385A2
:104F500041BF829783A78406138541BA138441BA5F
:104F60008297B7C7000083A74743232A7401232CE5
:104F700064011CC0930700005CC0B7C7000083A792
:104F8000874323264401232834011CC48327490076
:104F9000232AB403138541BA829741016FB06FD8B9
:104FA000EFB26FD71307803EAA876352A70213059B
:104FB00085C1EF40F059B7C7000003A6873D83A61F
:104FC000C73DEF40C013EF6080146FB00FD71307D9
:104FD000803D13050000E34AF7FE138577C2D1BF79
:104FE0009307800C63F0A704EFB2EFD2130585F3AB
:104FF00042054181EF40D055B7C7000003A6073EE8
:1050000083A6473EEF40A00FB7C7000003A6873E28
:1050100083A6C73EEF305010EF40D04D420541818E
:105020006FB0AFD113056054828083A781A89387A6
:10503000779093B7070193C71700A38EF180828002
:1050400003A701A9BD46130677909387C18163E545
:10505000C600094798A38280130727C2D14663E49C
:10506000E6000547C5BF238007008280EFB2AFCAC4
:10507000B707002003A6071CB707002003A5871366
:1050800041119305000032C6EF40D07AB7070020E7
:10509000324683A74707AA85138541BF82974101FE
:1050A0006FB0AFC9EFB22FC7B70700200395871CB9
:1050B000EF50F061B7C7000083A5C743EF50202E23
:1050C000B707002083A7470783A581C12A861385D8
:1050D00041BA82976FB06FC6EFB2EFC3B707002037
:1050E00003A6871BB707002083A58712B7070020F8
:1050F00003A50714411132C6EF40D073B707002053
:10510000324683A74707AA85138541C98297410183
:105110006FB0AFC2EFB22FC0B70700200395471C96
:105120003305A040EF50B05AB7C7000083A5C7436E
:10513000EF50E026B707002083A7470783A581CB60
:105140002A86138541C482976FB02FBFEFB2AFBCE0
:10515000B707002003A6C71BB707002003A5471306
:1051600041119305000032C6EF40D06CB707002014
:10517000324683A74707AA85138541B58297410127
:105180006FB0AFBBEFB22FB9B70700200395671C14
:10519000EF50F053B7C7000083A5C743EF5020205E
:1051A000B707002083A7470783A581B72A86138501
:1051B00041B082976FB06FB883A741A91307F00B76
:1051C0006396E700054723AAE180828013070070F9
:1051D000E39DE7FE0947C5BFEFB2EFB3138481A794
:1051E0004844EFF0FFDBB707002023A0A71403A576
:1051F00081A7EFF0FFDAB707002023ACA7124840E1
:10520000EFF01FDAB707002023AAA7120844EFF037
:105210003FDDB7070020239EA712EFF01FE1EFF05C
:105220003FE2EFF07FF96FB04FB1EFB24FACEFF06C
:10523000FFE3EFF03FE7EFF07FF1EFF0BFF4EFF0C7
:10524000BFE9EFF03FEDB70700203704002003A7C8
:10525000871B835CC413B707002023A4E71266856D
:10526000EF50F04683AA81B2AA8B370C0020D68576
:10527000EF40505C03A981BC83A481C6CA85AA897A
:10528000EF40505BA685EF40F05AEF50F03E131A06
:105290000501135A0A01CA854E8523164C13EF5097
:1052A000407BA685EF50E07AEF50103D9319050141
:1052B000370B002093D90901D68523173B135E8550
:1052C000EF502079AA852A8D4A85EF40B056A685F1
:1052D000EF405056EF50503A931B0501B70A00209B
:1052E00093DB0B0123987A13CA856A85EF506076A9
:1052F000A685EF500076EF5030384205B704002005
:10530000418185672399A412938707B41304C413BA
:105310001307CC12130BEB12938A0A1393842413F2
:1053200063F047071EA38567938707B463F13707C8
:105330002310FB008567938707B463F177072390F9
:10534000FA008567938707B463F1A7069EA083A739
:10535000418185466392D7060A238545EFF0EFCA5F
:1053600003550B008945EFF04FCA03D50A008D4560
:10537000EFF0AFC98A209145EFF02FC96FB0AF9A17
:105380009307F059E3E147FB9307005A61BF930786
:10539000F059E3E137FB9307005A59BF9307F059DF
:1053A000E3E177FB9307005A59BF9307F059E3E015
:1053B000A7FA9307005A59BF0947E391E7FC8545CF
:1053C0006685EFF08FC40A208945EFF00FC40A20EC
:1053D0008D45EFF08FC391450A2079BFEFB2AF93AF
:1053E00085451305005AEFF04FC289451305005A51
:1053F000EFF0AFC18D451305005AEFF00FC1914595
:105400001305005AEFF06FC06FB02F9393070000A1
:105410001CC15CC11CC55CC51CC91CCD5CC95CD170
:105420001CD55CD51CD98280930700003CC15CDD93
:105430001CDD5CD11CD95CD51CD57CC53CC57CC1B0
:105440008280930700007CC53CC57CC13CC15CDD0B
:105450001CDD1CD95CD51CD55CD15CCD1CD18280F7
:10546000EFB2CF892A843C448329440410D07CC401
:105470002E85232434054CCCB285EF50805D0C4042
:1054800068C0AA84EF50A0334C4008D42A8A2685ED
:10549000EF50E0324C54EF40F0395C5CCE852A8905
:1054A0003CC01C5C48D426855CDCEF50805A0C4420
:1054B00008DCEF50C030832A4401AA8908D8D68579
:1054C0004A85EF50A01E6355A0002326540309A867
:1054D000832A84014A85D685EF50A025E34705FE3F
:1054E0004C545285EF401035CE85EF40B03403293F
:1054F000C40048D0AA89CA85EF50401B6355A0005C
:105500002322240309A8032904014E85CA85EF50EC
:105510004022E34705FE032944032685CA85EF5050
:105520004021634FA000B7050080B3C52501268543
:10553000EF50C01763460500930700005CD05CD4B1
:105540006FA01FFFEFA23FFDEFF0AFCDEFE07FAF09
:1055500075FDEFF0AFA6EFE0FF88EFF0CF84EFF03E
:10556000FF84EFF0AF9137C5000013050544EF202D
:1055700010076FA09FFCB70700209387C7159843BB
:10558000636FA702D043B386C7006316D5005441AA
:105590003E85B296D4C35041B306C500631CD70004
:1055A000B706002083A646146306D7005443184369
:1055B000B29654C118C16303F50088C38280BA87CC
:1055C0007DBFEFA2BFF341112AC6EF00F03BB70643
:1055D000002083A74614370600209386461413063E
:1055E00086143245A1EF370700209307C75B93F578
:1055F000F7001307C75B81C51387F700419BB70509
:1056000000209385C51523A2050098C18D65C1159D
:10561000AE97C19B23A2070023A00700B385E740F4
:105620009CC21CC3B707002023A8B714B7070020EB
:1056300023A6B714B70700804CC31CC2032A060078
:10564000B377AA0085E39307F5FF3957636CF7003A
:105650009307050113F7F70049C313F707FF410745
:1056600063ECE706814491A022872E8469A058C18B
:105670005CC0EFF05FF05840B70600209386061537
:105680009042B307E94023A0F90063F3C7009CC22E
:10569000B70700203367EA009387471558C098433F
:1056A000C10423200400050798C3EF00504A93F774
:1056B000F400D1CBA167938707807390073037C67A
:1056C000000037C500001306464593050011130579
:1056D000C547EF20806E01A0BA8737070020032955
:1056E000C7149309C714E36FF9F6370700200324A2
:1056F000C7151307C71550406374F6000C40ADF58D
:105700009442E38186F61440044314C33307F64001
:1057100093060002E3F1E6F63305F4009376F50014
:10572000B9D6A167938707807390073037C600000A
:1057300037C50000130646459305F00C1305C54711
:10574000EF20A06701A0268541016FA07FDE5DC12B
:10575000EFA27FDCB7070020032745FF83A787144C
:105760002A84B376F7009DE2A16793870780739040
:10577000073037C6000037C50000130646459305BD
:1057800040121305C547EF20406301A0832605FFA3
:105790009DC2A167938707807390073037C60000CA
:1057A00037C5000013064645930550121305C5473B
:1057B000EF20A06001A093C7F7FFF98F232AF5FE21
:1057C000EF00901CB70700209387C714944303276A
:1057D00044FF130504FF369798C3EFF0DFD9B707EE
:1057E0000020938787159843050798C3EF0030364C
:1057F0006FA0BFD48280B707002003A50715828061
:10580000B7E700E041572387E7402386E740B7F733
:1058100000E023A0070023A20700814694C70147A8
:10582000D8C783A581801307401F814633D6E50280
:105830003D4790CBD4CB98C38280EFA2DFCD4111FE
:1058400002C6F32750303EC6B2470D478D8B6384A6
:10585000E702A167938707807390073037C600007F
:1058600037C500001306064A9305600B1305C547AC
:10587000EF20A05401A0B787002093870700BD8BBD
:105880009DC3A167938707807390073037C60000D8
:1058900037C500001306064A9305B00B1305C5472C
:1058A000EF20A05101A0EFF0BFF5B7E700E00567DA
:1058B00023A0E710116723A0E71023A00182EFA027
:1058C0003FA4014541016FA05FC773110134A16777
:1058D0009387078073900730B7F700E023A2070093
:1058E000EF00300C11C5B7E700E0116723A0E720F7
:1058F000A167938787887390073073110134730011
:105900002030A167938707807390073093870182C7
:105910009843050798C38280138701821C438DE753
:10592000EFA27FBFA167938707807390073037C6C8
:10593000000037C500001306064A93052010130522
:10594000C547EF20804701A0FD171CC391E7A16761
:1059500093878788739007308280930785007D57EF
:105960005CC118C55CC51CC92320050082802328A2
:10597000050082809841FD5693078500631ED7007D
:105980001C49D843D8C10CC79CC5CCC31C4188C98D
:1059900085071CC18280B687D4439042E37DC7FE51
:1059A000CDB7544118451C4998C654C3D44363939A
:1059B000A600D8C39843232805007D1798C38843C1
:1059C0008280EFA25FB541112AC6EFF09FF3324506
:1059D000005DEFF07FF41335140041016FA0FFB5B7
:1059E000304115C2EFA23FB358451445AA873297FC
:1059F00058C56364D700184158C52E85CC47EF5071
:105A000050116FA09FB38280EFA2FFB02A84EFF005
:105A10005FEF8344540413094402E204E1846348C1
:105A20009002FD57A302F404EFF01FEFEFF07FEDBB
:105A30008344440413090401E204E18463459002B1
:105A4000FD572302F404EFF03FED6FA01FAF5C5051
:105A5000E9DB4A85EF00104219C1EF00705EFD14CA
:105A6000E204E1846DBF1C48E1DF4A85EF0090400D
:105A700019C1EF00F05CFD14E204E184C1B7EFA2AC
:105A80009FA941111DE1A16793870780739007309B
:105A900037C6000037C500001306864C9305001179
:105AA0001305C547EF20603101A05C5D2EC62A8436
:105AB000BDC73841B3B7E702BDE3EFF09FE4304024
:105AC000585C1440232C0402B307E602B24554C0CC
:105AD0003387F600918FB6975CC4FD572302F40418
:105AE00018C4A302F4049DE11C4899CB13050401DA
:105AF000EF00503811C5B7E700E0116723A0E72099
:105B0000EFF09FE1054541016FA03FA3130504019C
:105B1000EFF0BFE413054402EFF03FE4D5B7A1670F
