:040000006F009056A7
:100004000000000000000000940A0000980A0000AC
:1000140000000000660D0000000000000000000069
:10002400660D0000660D00000000000000000000E6
:10003400AC590000000000000002000000000000B5
:10004400660D0000660D0000660D0000660D0000E0
:10005400660D0000660D0000660D0000660D0000D0
:10006400660D0000660D0000660D0000660D0000C0
:10007400660D0000660D0000660D0000660D0000B0
:10008400660D0000660D0000660D0000660D0000A0
:10009400660D0000660D0000660D0000660D000090
:1000A400660D0000660D0000660D0000660D000080
:1000B400660D0000384A0000EC4A0000660D00009E
:1000C400660D0000660D0000660D0000660D000060
:1000D400660D0000660D0000FA4B0000660D00007E
:1000E400660D0000660D0000660D0000660D000040
:1000F400660D0000660D0000660D0000660D000030
:1001040000000000660D0000660D0000660D000092
:10011400660D0000660D0000660D0000660D00000F
:10012400660D0000660D0000660D0000660D0000FF
:10013400660D0000660D0000660D0000660D0000EF
:10014400660D0000660D0000660D0000660D0000DF
:10015400660D0000660D0000660D0000660D0000CF
:10016400660D0000660D0000660D0000660D0000BF
:10017400660D0000660D0000660D0000660D0000AF
:10018400660D0000660D0000660D0000660D00009F
:10019400660D0000660D0000660D0000660D00008F
:1001A400000000000000000000000000000000004B
:0C01B4000000000000000000000000003F
:10020000130181F806C216C41AC61EC822CA26CC1B
:100210002ACE2ED032D236D43AD63ED842DA46DC76
:100220004ADECEC0D2C2D6C4DAC6DEC8E2CAE6CC46
:10023000EACEEED0F2D2F6D4FAD6FED8F3220030CF
:1002400096DA9702002083A262F223A02200F3250F
:1002500010342EC09305000273A0458003A1418392
:10026000EF60403C17030020032343F00321030009
:10027000824273901234D652739002309240A2425E
:100280003243C2435244E244724582551256A2564A
:100290003257C2575258E25872598649164AA64AEE
:1002A000364BC64B564CE64C764D865D165EA65ECA
:1002B000365FC65F13018107730020301300000012
:1002C00013000000130000001300000013000000E2
:1002D00013000000130000001300000013000000D2
:1002E00013000000130000001300000013000000C2
:1002F00013000000130000001300000013000000B2
:1003000083A24183938202E073900234170100209C
:100310000321C1E5024182403243C2435244E244D8
:10032000724582551256A2563257C2575258E25859
:1003300072598649164AA64A364BC64B564CE64C6D
:10034000764D865D165EA65E365FC65FD652A1020A
:1003500073900230A24213018107828013000000D3
:100360001300000013000000130000001300000041
:100370001300000013000000130000001300000031
:100380001300000013000000130000001300000021
:100390001300000013000000130000001300000011
:1003A0001300000013000000130000001300000001
:1003B00013000000130000001300000013000000F1
:1003C00013000000130000001300000013000000E1
:1003D00013000000130000001300000013000000D1
:1003E00013000000130000001300000013000000C1
:1003F00013000000130000001300000013000000B1
:10040000F322003093F272FF130380781203B3E2F9
:100410006200711523205500130585FA10C12115BE
:10042000232005009302000063870200711523203A
:100430000500FD12D5BF71150CC1828000000000BF
:1004400000000000000000000000000000000000AC
:10045000000000000000000000000000000000009C
:10046000000000000000000000000000000000008C
:10047000000000000000000000000000000000007C
:10048000000000000000000000000000000000006C
:10049000000000000000000000000000000000005C
:1004A000000000000000000000000000000000004C
:1004B000000000000000000000000000000000003C
:1004C000000000000000000000000000000000002C
:1004D000000000000000000000000000000000001C
:1004E000000000000000397101436EC619A0397187
:1004F00041536AC866CA62CC5ECE19A039710153F5
:100500005AD056D252D44ED64AD826DA22DC06DE4B
:1005100033016140828241114AC026C222C406C60C
:100520008282B24D4101024D924C224CB24B4101AC
:10053000024B924A224AB249410102499244224462
:10054000B240410182803D432A876373C30293779F
:10055000F700BDEFADE5937606FF3D8ABA960CC372
:100560004CC30CC74CC74107E36BD7FE11E2828036
:10057000B306C3408A069702000096966780A600DD
:100580002307B700A306B7002306B700A305B700EB
:100590002305B700A304B7002304B700A303B700E3
:1005A0002303B700A302B7002302B700A301B700DB
:1005B0002301B700A300B7002300B700828093F5A2
:1005C000F50F93968500D58D93960501D58D61B76E
:1005D000939627009702000096968682E78086FA17
:1005E0009680C1171D8F3E96E374C3F8A5B7EFF24E
:1005F0009FF2370400201304C41B0C409384C19065
:100600001385C190EF40600D4C4013850401EF400D
:10061000C00C0C4413850402EF40200C0315C400E9
:10062000EFA0701BAA8513850403EF40000B031590
:10063000E400EFA0501AAA8513850404EF40E009F6
:1006400003150401EFA03019AA8513850405EF40B6
:10065000C008E5B5EFF23FEC9384C1903704002069
:100660001385C1901304041DEF40400C08C013858E
:100670000402EF40A00B48C013850401EF40000BBB
:1006800008C413850403EF40600AEFA050094AA490
:1006900013850404EF408009EFA070086AA4138555
:1006A0000405EF40A008EFA090070AA879B5EFF283
:1006B0009FE6370400200549232C040CEF30504DF1
:1006C0009304840D19E125377137294523A02401AE
:1006D000EF50F06ED5B7EFF21FE4EF50E01FAA85A0
:1006E00037B500001305C54FEF70A07D370400201B
:1006F0000325041D1304041DEFA030272A8637B5F7
:100700000000AE8613054552EF70A07B4840EFA075
:10071000D0252A8637B50000AE8613054553EF7005
:10072000407A0844EFA070242A8637B50000AE86D0
:1007300013058554EF70E0788315C40037B50000C9
:100740001305C555EF70E0778315E40037B5000059
:1007500013050557EF70E0768315040137B50000E7
:1007600013058558EF70E07503A541C83754014063
:10077000EFA0B01F2A8637B50000AE861305C55915
:10078000EF70207403A541BEEFA0301E2A8637B556
:100790000000AE861305C55AEF70A07203A541B4E0
:1007A000EFA0B01C2A8637B50000AE861305C55BE6
:1007B000EF702071130504C0EF106048AA8537B5AB
:1007C00000001305055DEF70C06F130504C0EF1046
:1007D0004047AA8537B500001305C55DEF70606E10
:1007E000130504C0EF106045AA8537B50000130556
:1007F000855EEF70006D130504C0EF10C044AA853C
:1008000037B500001305455FEF70A06B83C7018209
:100810000947639DE70237B5000013050560EF70D7
:10082000806C83C71182A1E337B500001305C5634F
:10083000EF70606B83A781810547639BE70237B543
:10084000000013054566EF70006AC5B90547639758
:10085000E70037B5000013054561D1B737B5000093
:10086000130585626DBF37B5000013050565C9B76F
:100870000947E39CE7FC37B5000013058567E1B73E
:10088000EFF27FC9893D1545EF507053E5BFEFF298
:100890001FC6370400201304840603A7C1818947BB
:1008A0006301F702EF40702183C71182B1E3B704FF
:1008B000002003D504149307306A63F8A700EF40C3
:1008C000F0242945EF50B04FC9BF8545EF40A00146
:1008D00003D504148945EF40000103D504148D4568
:1008E000EF40600003D504149145EF30D07FD1BFB5
:1008F000EF40F03C1C44138501C182971C441385D2
:1009000001BC82971C44138501B782971C44138550
:1009100001B282971C44138501CB82971C44138536
:1009200001C6829779BFEFF29FBCB7B7000083AAD8
:10093000C768B7B7000003AB0769094A83C71182CC
:10094000D1EF13848180184085476314F70A37B5C7
:10095000000013054569EF7000592320040023AE01
:1009600041810144930B803E2285EFA0C066D6856D
:10097000EF907075DA85EF90607C9384418088C039
:10098000EFA00060420585454181EF40A00188400D
:100990000504EFA0E05E420589454181EF408000FB
:1009A0008840EFA0E05D42058D454181EF30907FAA
:1009B0008840EFA0E05C420591454181EF30907E98
:1009C0000545EF50D03FE31174FB37B50000130528
:1009D000856AEF704051854723AEF18083C711824D
:1009E00005476398E70023A4F18023AEF180EF4030
:1009F000102D2945EF50B03C91B7EFF2DFB1B707AA
:100A00000020B7B50000371500009387C7110D47C8
:100A10008146130600109385856B13050588EF50FA
:100A2000805BB7070020B7B500003715000093873B
:100A3000871111478146130600109385056C130535
:100A40006592EF504059B7070020B7B50000371541
:100A500000009387071101478146130600609385C4
:100A6000856C1305E588EF500057B7070020B7B530
:100A70000000370500009387471109478146130698
:100A800000409385056D1305E56AEF50C054EF50A3
:100A9000007765B47300203001A0EFF2DFA74111A9
:100AA0008545114502C202C402C6EF0070588D4749
:100AB0007C8237150140C1473EC64C008D47130567
:100AC00005803EC4EF00207F410185BCEFF2BFA44A
:100AD0000945EF00D0359D22EF60C01D37F50300BA
:100AE00013050580EF6020271305500DEF402014FB
:100AF00083A5C18037B500001305456DEF70603CDC
:100B0000D52BAA8537B500001305456EEF70603B05
:100B1000B7B5000037B500009385456F1305C56F65
:100B2000EF70203A9D3FEF4010301305800CEF60CE
:100B3000E01E37B40000D1351305C471EF70A03A40
:100B4000E5BFB71702409843B706FFF0411113679E
:100B5000170098C3D84337060200758FD8C398434F
:100B6000B706F7FEFD16758F98C39843B706FCFFCE
:100B7000FD16758F98C3D843B70601FFFD16758F14
:100B8000D8C39843B70600ECFD16758F98C3370796
:100B9000FF0098C723A6070202C402C69843C16695
:100BA000558F98C3B716024005679C42F18F3EC629
:100BB000A24785073EC4B24781E7A247E397E7FE15
:100BC000B71702409C431397E70063570706854712
:100BD0003EC632478547631FF704B7170240D84324
:100BE000B706C1FFFD16D8C3D843D8C3D84313678F
:100BF0000740D8C3D843758FD8C3D843B7061D0064
:100C0000558FD8C39843B7060001558F98C39843B2
:100C100093166700E3DD06FED843B7160240719BCA
:100C2000D8C3D84313672700D8C32147DC42B18B10
:100C3000E39EE7FE4101828002C661BFB716024013
:100C4000D8421146318B9387C1806305C700214686
:100C50006308C70237177A001307072098C33717AE
:100C60000240584311839376F7003707002013079B
:100C700007003697142398433357D70098C38280D0
:100C8000D842D442416649833D8BF18E130627003A
:100C900015CF3D47630FE6024147630FE602454724
:100CA00081456313E6004146A1E23747024003272E
:100CB0000780418B0DC737177A00130707203306CB
:100CC000C70290C3C9DD9843058349BF81454946A2
:100CD000E1BF85453546C9BF81453D46F1B7371768
:100CE0003D0013070790E1BF371502405855931692
:100CF000F700585563DF060411833D8B93061700F8
:100D000037177A00130707203357D70298C3545573
:100D1000A182BD8A8DE295463307D702058398C329
:100D200037170240585794433D8B050733D7E602E7
:100D300098C3984369B705456394A600E546E9BFA3
:100D40003D456396A600D1463387E602C9BF8906B2
:100D5000E5BF3D8B9306170037177A00130707206E
:100D60003357D702F1B701A097010020938101B753
:100D7000177100201301012917C50000130585BA5A
:100D800097F5FF1F938505281386818363FAC500B5
:100D90008322050023A0550011059105E3EAC5FE55
:100DA00017F5FF1F130505379745002093854597D5
:100DB0006377B500232005001105E36DB5FEFD4204
:100DC000739002BCFD4273904280B7820000938210
:100DD00002807390023097F2FFFF9382E22293E247
:100DE000320073905230EFF0DFD59702000093820B
:100DF00022CE7390123473002030EFF2CFF1B72778
:100E0000014093870740631EF500854513050020C8
:100E1000EF00D025814513050020EF0030256FF04D
:100E2000CFF1B737014093870780E31AF5FE854578
:100E300013050040EF009023814513050040F1BFEA
:100E40005C413707F1E01307F7EF944D7D8F9C412C
:100E5000D58FD44DD58FD441A206D58FD98F5CC103
:100E60001C4537F7F1FF1307D77FD4457D8F9C4989
:100E7000D58F94458606D58FD98F1CC55C5537070D
:100E800010FF7D177D8FDC29FD1793F7F70FD20731
:100E9000D98F5CD582801C4589C593E717001CC596
:100EA0008280F99BEDBF1C4589C593E707101CC5DF
:100EB000828093F7F7EFE5BF1C4593E787001CC5D9
:100EC000828008450D81058982801C4593E7470093
:100ED0001CC5828008450981058982801C4591C511
:100EE00037075000D98F1CC582803707B0FF7D17A8
:100EF000F98FD5BFA54763F7B7048D47138765FF03
:100F00003307F7020328C5009D47B397E70093C74F
:100F1000F7FFB3F70701B396E600DD8E54C5994796
:100F200063E3C70495477D163306F6025859FD471B
:100F3000B397C70093C7F7FFF98F3396C5005D8E4F
:100F400050D982800D473387E502032805019D476C
:100F5000B397E70093C7F7FFB3F70701B396E6002F
:100F6000DD8E14C96DBFB14763E2C70295476516B0
:100F70003306F6021859FD47B397C70093C7F7FF2A
:100F8000F98F3396C5005D8E10D9828095474D1636
:100F90003306F6025855FD47B397C70093C7F7FFCE
:100FA000F98FB395C500DD8D4CD582805C4191C52C
:100FB00037070004D98F5CC18280370700FC7D179A
:100FC000F98FD5BFEFF22FD501112A842304010038
:100FD000A5441C8463F9F40423040100A5462146BA
:100FE0001C8463FDF60623150100230401009546C9
:100FF0001C8463FFF60C38853C8599460D46B3F793
:10100000D702056513050580B3D7C7023357D7024A
:10101000BA97C207C1837C853C8505611D8D420559
:1010200041856FF08FD11C4493E787001CC4228553
:10103000493D75FD1C4493E747001CC42285593D7A
:1010400075FD78441C8414108607B6972396E7FE36
:101050001C84850793F7F70F5C84A5BFA3040100E8
:101060009C846378F6001C84850793F7F70F5C84F3
:1010700085BF98849C840C100607850786072E97E9
:10108000AE970357C7FE83D7C7FE63FDE7029C8474
:101090008607AE9783D7C7FE7C859C849884850796
:1010A0008607AE9783D5C7FE931717001810BA9717
:1010B0002396B7FE9C8438850C1085078607AE976B
:1010C0002396E7FE9C84850793F7F70FDC8449BFDE
:1010D0001C841010388589078607B29783D7C7FE0E
:1010E000BA97C207C1837C851C84850793F7F70FE5
:1010F0005C84FDBDB7F7FF1F03A5477082801C41CC
:1011000041677917F98F1CC12320050023220500B0
:1011100023240500B7070240232605001387870014
:101120006317E500D8431367F700D8C3828013879D
:10113000C7016316E500D8431367070FFDB7138790
:1011400007036318E500D8438566938606F0558F3C
:10115000E9BF138747046315E500D843BD66C5BFE3
:10116000138787056316E500D843B7060F00C5B798
:101170001387C7066316E500D843B706F000C1BF62
:10118000138707086316E500D843B706000FC1B7F9
:10119000138787406319E50003A747401367F700EB
:1011A00023A2E74082801387C7416317E50003A7A6
:1011B00047401367070FEDB793870743631BF5009D
:1011C000B707024003A747408566938606F0558F10
:1011D000C1BFB7070240138747446316E50003A762
:1011E0004740BD66EDB7138787456317E50003A742
:1011F0004740B7060F00E1BF1387C7466317E500F6
:1012000003A74740B706F000D9B71387074863170D
:10121000E50003A74740B706000F55BF13870749EE
:101220006319E50003A7474D1367F70023AAE74CAE
:1012300082801387074A6317E50003A7474D1367AA
:10124000070FEDB71387074B6319E50003A7474D59
:101250008566938606F0558FD1BF1387074CE31937
:10126000E5FC03A7474DBD66FDB71C4161773D070F
:1012700094517D8F9C45D58F9449D58FD449D58F76
:10128000944DD58FD44DD58FD451D58F9455D58FBE
:10129000D98F1CC1DC455CC19C411CC5DC415CC5CF
:1012A00082801C4189C593E717001CC18280416779
:1012B0007917F98FDDBF9C4513F7070113F8F70085
:1012C00001C7D8413368E8008E2113F7F50F39C301
:1012D00018418146854E3D4F930F80029302800452
:1012E000214E3396DE00B3F8C500631116039398C0
:1012F000260033131F011343F3FF3377E300B318C2
:10130000180133E7E800639FF70550C98506E39AA3
:10131000C6FD18C11307F00F6375B7045441214689
:10132000854E3D4F930F800293028004414EB39847
:10133000CE0033F715016392E80213172600011758
:101340003313EF001343F3FFB376D3003317E800F2
:10135000D98E639DF701232A15010506E319C6FD01
:1013600054C18280E39457FA10C94DB7E39757FEF2
:1013700023281501DDB708456D8D3335A000828027
:101380000CC9828019C20CC982804CC98280B707FF
:101390000140635A0504DC4F9356050113180501FB
:1013A0003707300013F6F60013580801B376E5004E
:1013B00063500506639BE602930606010D46B316CD
:1013C000D60093C6F6FFF58F99C9135755011377C9
:1013D000F73F12073317E800D98F63570504370723
:1013E00001405CCF8280DC4345BF1317B5006356D4
:1013F00007008D46B396C600E9B71357550113771A
:10140000F73F12073317E8001347F7FFF98F6DBF57
:101410006390E602370601405442370700F17D171A
:10142000F98F758F58C2D5F1370701405CC38280B0
:101430001317B500635C07008D46B396C60093C6CC
:10144000F6FFFD8EB707000FD58FF1BF135755017B
:1014500012073317E8001347F7FF7D8FB707000F18
:10146000D98FD1B7EFF22F8B797146212A84680882
:101470002EC62D24925737470F001307072433D762
:10148000E702C204C18093F404FCC2049306C003C3
:10149000C180B24563F4E6001307C00313160701C9
:1014A0004182D18C46A0162061651305056AC206EB
:1014B000C182F99AC206C18216A094416369D5041B
:1014C0008606B3D7D7029146139707014183BA879F
:1014D0006373D700914705064206C2074182C18364
:1014E00012B05EAC1E20DA21B62593E717001EA0CD
:1014F0001E20558FC207C18393F757BFD98F1EA0F7
:101500009A25DE25D98F1EA445616FF00F83EA214D
:1015100031667D16631DC5020D46B386C602B3D77C
:10152000D702C207C1839396470199E293E7170058
:10153000A166D58F9306C0123307D7029306803E6B
:101540003347D7020507420741831AB059BF6546A2
:10155000B386C602B3D7D7029166C207C183D58FBF
:10156000D9B71E2189C593E717001EA18280C20743
:10157000C183F99BC207C183CDBF1E2189C593E7F3
:1015800007101EA18280C207C18393F7F7EFC2073D
:10159000C183C5BF1E2189C593E707201EA1828094
:1015A000C207C18393F7F7DFC207C183C5BF1E21FE
:1015B00089C593E707401EA18280C207C18393F7C4
:1015C000F7BFC207C183C5BF0EA982800A29137560
:1015D000F50F828093F7E50F19C293E71500C20754
:1015E000C1831EA982805E290A2D42055D8D6D8D05
:1015F000220521810D8D133515008280411102C411
:1016000002C693D7C5012AC63EC4A247A205A1813E
:1016100099CBB247D1073EC6B247884341016D8D91
:101620003335A0008280B247C181E107EDB7B7072B
:10163000002023A0A7128280B707002003A707126B
:10164000894710216311F70214318D4763EDD700EC
:101650003C219A0637E700E09607D58F93F7F70FFE
:1016600032972300F74054410547935756003317EC
:10167000C70089CA938707048A07B7E600E0B697D0
:1016800098C3828093870706C5BFB7160240DC4225
:1016900051777D17F98F5D8DC8C282803717024060
:1016A0005C439146B18B6385D700A1466382D70620
:1016B000B7177A00938707201CC1371602405C4297
:1016C00037070020130707019183BD8BBA97942336
:1016D0001C41B3D7D7005CC15442A1829D8ABA96FF
:1016E0009422B3D6D70014C55442AD829D8A369752
:1016F0001823B3D7E7005CC5584239839376370087
:101700001387018136971823B3D7E7021CC982805B
:101710005C435843C166C983758FB7F6FF1F83A624
:10172000C670BD8B89071396160163480600C5462F
:1017300001466392D702C94739A88946638FD70209
:10174000BD46638ED702C146638ED702C5460146A9
:101750006393D700C1471DEF374702400327078037
:10176000418B05C737177A0013070720B307F70225
:101770001CC121D61C41858381B701466DBF05463A
:10178000B547D1BF0146BD47F9B737173D0013072D
:101790000790E9BFB7150240D8559316F700D85502
:1017A00063DF060411833D8B9306170037177A0019
:1017B000130707203357D70218C1D455A182BD8A19
:1017C0008DE295463307D702058318C137170240CB
:1017D000585714413D8B050733D7E60218C118410D
:1017E00071B785456394B600E546E9BFBD4563968C
:1017F000B600D1463387E602C9BF8906E5BF3D8BF7
:101800009306170037177A00130707203357D702BC
:10181000F1B799C5371702405C4B5D8D48CB82808C
:10182000B7170240D84B1345F5FF798DC8CB82809E
:1018300099C5371702401C4F5D8D08CF8280B717BE
:101840000240984F1345F5FF798D88CF828099C566
:10185000371702405C4F5D8D48CF8280B71702403A
:10186000D84F1345F5FF798DC8CF828099C53717BA
:1018700002405C475D8D48C78280B7170240D84759
:101880001345F5FF798DC8C782801E213737014087
:10189000930607C0C207C1836300D504B7060040A2
:1018A000630CD502938606406308D502B716004044
:1018B000138606806302C502938606C0630ED500B8
:1018C00013070740630AE50037570140930607C036
:1018D0006304D5006316E500BA2193F7F7F8D98FB2
:1018E00037170040630CE500130707406308E50065
:1018F00093F7F7CFFA21C207C183D98F1EA1DE214A
:101900005EB59E211EB5B7370140138707C0630E31
:10191000E50093870740630AF500B7570140138736
:1019200007C06304E5006314F5009C251EB98547D4
:101930005EA982801E31922103D82500C207C1838F
:10194000F99BC207C1831EB11E3156211A2DC20751
:10195000C183420741831377C7F8518F9225F59BC6
:10196000C20633660601D18F37360140130806C020
:10197000C182630E050113060640630AC50037568F
:101980000140130806C0630405016310C502B225B7
:10199000DD9B03D8E500D18FD221ED9B93F6F6CFE6
:1019A000D18FD22533660601D18E56A11AADFA2108
:1019B0005AB91EB182801E3165771307F7CFC2076F
:1019C000C183BD9BC207C1831EB11E31562103D8FE
:1019D0008500C20713960601162DC18393F7F7FD04
:1019E000758F96214182A206558FB6214207418309
:1019F000B3E606019206D58FB7360140C2071388B9
:101A000006C0C183630E050193860640630AD500B4
:101A1000B7560140138806C063040501631ED50252
:101A2000B62593F7F7F703D8C5009206D58FD621D0
:101A3000C207C183920693F7F7FBD58FFD76938695
:101A4000F63FF18EF225C207C183336606010A060E
:101A5000D18E13960601418252A11AADFA211ABD08
:101A60001EB182801E3103D88500C207C18393F75F
:101A7000F7EFC207C1831EB11E3156215A2DC2078E
:101A8000139606014207962141831377C7F8558FB5
:101A9000B621C18393F7F7DFB3E60601A206D58F1F
:101AA000B7360140C207138806C04182C183630E66
:101AB000050193860640630AD500B7560140138896
:101AC00006C063040501631FD502FD769386F67F89
:101AD000F58FB62503D8C500A206D58FD621C2073B
:101AE000C183A20693F7F7BFD58FF576FD16F18E69
:101AF000F225C207C183336606011206D18E139602
:101B00000601418252A15AADFA215ABD1EB182800E
:101B10001A31FD77FD17F98F1EB1035805025621C2
:101B20005E2D65771396060196211307F7CF7D8FFB
:101B3000F977A206FD17558FB3F70701B62103D831
:101B4000850042074182B3E60601B206D58FB7365B
:101B50000140C207138806C04183C183630E05019B
:101B600093860640630AD500B7560140138806C025
:101B700063040501631BD500F176FD16F18ED225B5
:101B80001A06D18E13960601418252A15AADFA214E
:101B90002310E5041EB182801E2189C593E717003A
:101BA0001EA18280C207C183F99BC207C183CDBF3A
:101BB0008357450491C52167D98F2312F50482808C
:101BC000C607C583DDBF1E2189C593E707081EA18F
:101BD0008280C207C18393F7F7F7C207C183C5BFED
:101BE0001E2DC207C183DD9BDD8D0EAD82801A2DB7
:101BF000FD779387F77FF98FA205CD8FC207C18349
:101C00001EAD82805E2DC207C183DD9BDD8D4EAD92
:101C100082805A2DFD779387F77FF98FA205CD8FAC
:101C2000C207C1835EAD82804EB982800EBD8280C4
:101C30004EBD82802310B50482804A3982800A3DDD
:101C400082804A3D828003550504828093C5F5FF5A
:101C5000C205C1810EA98280EFE2FF8B1629F577BC
:101C6000FD17F58FF621DA257971D58F1EA9562536
:101C7000FD779387379FF58FD6212A842EC6D58F7F
:101C80009625D58FB625D58F5EA55E29C207C1835F
:101C900093F7F7CFD98F5EA96808EFF03FA0B74759
:101CA000014093870780B245631EF402A25765473F
:101CB000B387E7029841930640060A07B3D7E702C5
:101CC00033D7D702B3F7D7021207920793872703B8
:101CD000B3D7D702BD8BD98FC207C1831EA445617C
:101CE0006FE0BF859257E1B791C55E250967D98F2F
:101CF0005EA582805A25F977FD17F98FD5BF13F7B6
:101D0000F50F85471583B395B7006319F70093075F
:101D1000C500984301CED98D8CC382808946930734
:101D20004501E318D7FE93070501E5B793C5F5FF15
:101D3000F98DDDB793F5F51F4EA182804A21137509
:101D4000F51F82800A216D8D3335A000828093C5F6
:101D5000F5FFC205C1810EA1828013F7F50F8546FC
:101D60001583B397B6006311D7025A25F98F1A214C
:101D700001454207418381CB0545A181B315B500DB
:101D80006D8F3335E000828089466314D7001A29AD
:101D9000F1BF5A29E1BFEFE26FF63704002041118D
:101DA0009304C402854798407C82DC40AA892E892E
:101DB00088232C2B5400328A0946EF20C0261305B5
:101DC000800CEF40B0759840DC40230201006C3776
:101DD000882354000546EF2000259840DC4054003D
:101DE0004C33882305461304C402EF20C0239840D7
:101DF000DC4054002C2B88230546EF20C02298405D
:101E0000DC4054006C3B88230546EF20C0219840FD
:101E1000DC4054004C2388230546EF20C020B14706
:101E20005C829840DC4054004C2388230546EF2018
:101E3000801F3D45EF40906E9C54984054009C3765
:101E400005465C82DC402C238823EF20C01D9C5477
:101E5000984054009C2705465C82DC400C33882364
:101E6000EF20601C1C54BC2763040A0093E7070E94
:101E70005C8218405C4054006C2388230546EF20A8
:101E8000801AE14763060A001C54BC3793E7070E2B
:101E90005C8218405C4054006C3388230546EF2078
:101EA000801863060A001305800CEF403067930723
:101EB00000045C8218405C4054004C238823054693
:101EC0008144EF204016930780075C8218405C40F5
:101ED00054004C3388230546EF20E01413052003FB
:101EE000EF40D06318405C40230201004C3388234C
:101EF00054000546EF2020135C401840540088230E
:101F00002C270946EF202032034A41009C8223A45B
:101F10000900220A336AFA00B147335AFA0223A2AF
:101F2000090023A0090023240900232209002320FB
:101F30000900137AFA0F6391441503A509001306EB
:101F4000300881469357F541C20793550501DD8D51
:101F50004205EF50F07D26868146EF50707D23A02C
:101F6000A90003A549001306300881469357F5419F
:101F7000C20793550501DD8D4205EF50707B268623
:101F80008146EF50F07A23A2A90003A58900130629
:101F9000300881469357F541C20793550501DD8D01
:101FA0004205EF50F07826868146EF50707823A4E2
:101FB000A90003250900268681469355F5419357CC
:101FC0000501139705015D8F9355F741420593F580
:101FD000F57FB387A500B3B5B700BA95AD83139568
:101FE00055015D8DAD85EF50B0742320A900032508
:101FF0004900268681469355F5419357050113976D
:1020000005015D8F9355F741420593F5F57FB38741
:10201000A500B3B5B700BA95AD83139555015D8D95
:10202000AD85EF50F0702322A90003258900268694
:1020300081469355F54193570501139705015D8F2F
:102040009355F741420593F5F57FB387A500B3B5E6
:10205000B700BA95AD83139555015D8DAD85EF50F1
:10206000306DC1776343A000C1673E952324A9006A
:10207000014541016FE0CFCB18405C4054002C3744
:10208000882331468504EF20001A18839C839484AA
:1020900022075D8F1C8490824207A207D58F14828D
:1020A0004187C207A206D18E03260900C206C18657
:1020B000B2962320D90083264900C18790853697A0
:1020C0002322E90003278900948793F4F40FBA9739
:1020D00018862324F9009C8622075D8F1C874207FF
:1020E0004187A207D58F1485C207C187A206D18E6A
:1020F00003A60900C206C186B29623A0D90083A612
:102100004900369723A2E90003A78900BA9723A4C0
:10211000F90015B5EFE22FC0370400209307C40281
:1021200083C7470241111304C40285C711C1094581
:10213000C8875C4018409306F10088236C37054639
:10214000EF10706E9C871CB881473E8541016FE09F
:10215000CFBE3824FD5775DB19C51838814775F790
:102160008547DC87F9B7A3070100E1B7EFE2AFBA13
:10217000370400209307C402BC2741117D55C5CF09
:102180001304C40218405C40A30701006C37882385
:102190009306F1000546EF10106918405C40930665
:1021A000F1004C3388230546EF10F0675C4018407F
:1021B0009306F10088234C230546EF10D066834731
:1021C0004402ADCFB147DC8718405C409306F10074
:1021D0004C2388230546EF10106513052003EF40BC
:1021E000F033930700FCDC873C24858B99C381572F
:1021F000DC875C4018409306F10088234C23054699
:10220000EF1070621C3891C38947DC8718405C402E
:102210009306F1006C3788230546EF10D060184014
:102220005C40A30701009306F10088234C33054668
:10223000EF10705F014541016FE02FB09147DC87DF
:1022400018405C409306F1004C2388230546EF10AC
:10225000905D3C281307000491E73C24858B99C3CB
:10226000130700065C40D887184088239306F100C6
:102270004C230546EF10305B13052003EF40102A76
:102280001C3818409306F100B337F000DC875C403F
:102290006C3705468823EF10105918405C409306B0
:1022A000040161B7B707002083C74703054763816F
:1022B000E70291CB09476380E7020D476380E7029D
:1022C0002310050021A09307A00F1EA101458280C5
:1022D0009307401FDDBF9307803EC5BF9307007D76
:1022E000EDB7EFE24FA3370400209307C402BC27E9
:1022F000411189CF9307401F1304C402630CF504F6
:1023000063E8A7009307A00F630EF5007D5581A039
:102310009307803E6303F5049307007DE318F5FE01
:10232000E14715A8A30701009C87182401458D8368
:10233000630FF7005C4018409306F10088236C237C
:102340000546EF10504E9C8701458D831CA441012A
:102350006FE0AF9EA147DC87C1BFC147EDBF370724
:1023600000209306C70294360546AA871307C702C2
:102370006384C60289CA09466382C6020D46638128
:10238000C6027D558280894694A3383B014501C72A
:102390009823060798A382809146FDB7A146EDB722
:1023A000C146DDB7EFE22F97370400209307C40240
:1023B000BC27411199CB91471304C4026309F5046A
:1023C00063E7A7008947630CF5007D5535A8A14751
:1023D0006302F504C147E31AF5FEE14715A8A30718
:1023E00001009C87183401458D83630FF7005C4022
:1023F00018409306F10088236C330546EF10B04275
:102400009C8701458D831CB441016FE00F93A14768
:10241000DC87C1BFC147EDBFB707002083C7770383
:102420001547FD1793F7F70F636AF7022D678A07C1
:1024300013074773BA979C4382879307C00B1EA16B
:102440000145828093072006DDBF9307A002C5BF28
:10245000D147F5B7A947E5B79547D5B7231005008C
:10246000C5B7EFE24F8B370400209307C402BC27A7
:102470004111ADC79307B00B1304C40263F8A70260
:102480008547DC8738349C870145630EF7005C4044
:1024900018409306F10088232C230546EF10B0382E
:1024A0009C8701453CB441016FE02F8993071006DA
:1024B00063F4A7008947F1B79307900263F4A7007C
:1024C0008D47C1B7CD4763F4A70091475DBFA547CE
:1024D00063F4A700954775B7994765B77D55E1B790
:1024E000B70700209387C70203C7470209E7FE2703
:1024F0001EA1014582807D558280B707002083C7D9
:10250000470305476382E70289CB09476383E702F4
:102510000D476385E7027D558280B7B7000083A72A
:10252000C7771CC101458280B7B7000083A7077831
:10253000CDBFB7B7000083A74778E5B7B7B70000AE
:1025400083A78778F9BF370700209306C702943620
:102550000546AA871307C7026384C60289CA0946CB
:102560006384C6020D466383C6027D5582809166F0
:1025700096A3383B014501C79A2305839AA382801D
:1025800089669386C6F9EDB78566DDB7856693865D
:102590000680F9BFEFD29FF6370400201304C4026F
:1025A0008347440201499DEF3C247D5985CF9374B4
:1025B000E50FE58F834904011CA8858FB337F00030
:1025C0003309F0405C28C58F99CB0545EFF09FB4E7
:1025D00091C8693E01C9230834017D5921A00145F4
:1025E000EFF05FB34A856FD0BFF4EFD23FF1B70988
:1025F00000209384C90283C7440241119DC7B824B7
:10260000FD5731CBDC409840AE8A2A892C2788239D
:10261000328A74000946EF1010411C868086A2079A
:102620005D8C6376240123000A00FD572DA0D8405D
:102630009389C9023E23858363F387029C40082364
:1026400074008C3B0546EF10103E1C86C18B81CB7D
:10265000EFF0DFB1F9573E8541016FD07FED83A7E1
:10266000490003A70900D68688232C371376F90F73
:10267000EF10703B3354240381477D1423008A00FC
:10268000D9BFEFD25FE9370400209307C402BC2B07
:1026900041116389A70A1304C4025C40AA8493060B
:1026A000F10088231C400546CC23B9C0EF10B03799
:1026B0009C8718409306F10093F7F7FDDC875C4098
:1026C0004C2305468823EF1010160D45EF4000659A
:1026D0008947DC878347240281C7930720F8DC877A
:1026E00083473402B1C79C8793E70703DC8789A03F
:1026F000EF1070333C249487858B13F7F60D99C344
:1027000013E706025C40D887184088239306F1003F
:102710004C230546EF1030110D45EF4020608347F4
:10272000240299C39307000803473402DC874DFF56
:1027300018405C409306F1004C2B88230546EF10AF
:10274000900E24A8014541016FD03FDFEFD2BFDCDE
:10275000370400209307C40283C737024111638105
:10276000A7041304C402814719C193070003382842
:10277000DC8701C793E72700DC878347240289C7EA
:102780009C8793E707F8DC8718405C40AA844C2BB1
:1027900088239306F1000546EF10F008A301940288
:1027A000014541016FD07FD99307800263EFA708ED
:1027B000EFD27FD6370400204111AA841304C4024B
:1027C0001DE16937930700707C8618405C407400F7
:1027D0002C2B88230946EF101005230A040001451D
:1027E00041016FD09FD505459537930700025C8660
:1027F0008547639CF402A306010015459D319C8624
:10280000184074009A0793E77700DC865C402C2B15
:1028100009468823EF103001A1473CA401458547B4
:10282000230604005CA8BD335DBF154763649700B1
:10283000DC86E1B7D14763E697008947DC86294506
:1028400075BF8D47DC86514555BF7D558280EFD2DF
:102850009FCC370400209307C402B827411159C305
:1028600003C74702AA847D550DE3DC2B1304C40281
:1028700095C39387F4FFC207C1831307700263698E
:10288000F70013F5F40F0D37014541016FD0FFCA72
:102890000145193F1307803EA6876374970093078D
:1028A000803E13970701418391466373D700914798
:1028B000C2079304803EC183B3C7F4021840930655
:1028C000F10005460C33FD17DC875C408823EF10D0
:1028D00080758887050533C5A4026AA40581EFF0D9
:1028E0005FB85DB77D5555B7EFD2FFC29377050747
:1028F00041112A8481C78547DC8721A041CDA307E8
:102900000100B70400201389C4028327490003276C
:1029100009009306F10088232C2B05469384C402FA
:10292000EF1060709C8793F7F7FB2306F90093770D
:102930000404A5C7A30701009377040289E79C87D5
:1029400093E72700DC879377040189E79C8793E767
:102950001700DC879377840089E79C8793E78703D8
:10296000DC87DC4098409306F10088232C3B054629
:10297000EF10606B9377740F99C30145C13B13054A
:102980002003A0A4238A0400EF40403901454101FF
:102990006FD0BFBA9307000485B79147DC8769BF42
:1029A000EFD27FB73704002041119304C40293078C
:1029B00000F898405C84DC402C2B340088230546CA
:1029C0001304C402EF10206613054006EF400035E3
:1029D0009840DC40230401002C2B8823340005465A
:1029E000EF1060649840DC4034006C2B882319465B
:1029F000EF1070039C8698858A070607098B918BD8
:102A0000D98F9884058BD98FD9C7054793F5F70FD0
:102A10006394E7003CB831A089476393F506A309A6
:102A20000400FD577EA41CA83CA8FD571CC4231A13
:102A30000400854731468145130564015CA4EFD04D
:102A40009FB085473EB0232204021305007DEFF0BE
:102A50005F890DED0945EFF0FF940DE91305A00224
:102A6000EFF03FA005E513052003D53305E1EFF0B6
:102A70007FB209EDEFF0FFC02A8409E9B53501A85E
:102A800037B500001305C578EF50A0437D5422856B
:102A900041016FD09FAADC409840340088232C333A
:102AA0000546EF1040781C84BD8B81EB37B50000E4
:102AB0001305457BEF502043D1BF1147E391E7F663
:102AC00037C5000013050580EF50E041854799B7F1
:102AD00019E67D5582807D5541016FD01FA6EFD24A
:102AE0009FA3370400201304C4023C244111E5D7FE
:102AF0001357850093178500D98F7C865C4013752A
:102B0000F50F2E95BA27E348A7FC18408823AE841A
:102B10000C2F328974000946EF10E05018405C40D9
:102B2000CA864C3B882313F6F40FEF10C04F0145C3
:102B300065B719E67D5582807D5541016FD0FF9FB5
:102B4000EFD27F9D370400201304C4023C244111BE
:102B5000E5D71357850093178500D98F7C865C4095
:102B60001375F50F2E95BA27E348A7FC1840882364
:102B7000AE840C2F328974000946EF10C04A184009
:102B80005C40CA864C3B882313F6F40FEF10A06913
:102B9000014565B7EFD2BF95B70400209387C40203
:102BA00083C75702011189C77D5505616FD0BF9753
:102BB000E5DDC16B9384C402368B32892E8AAA89E3
:102BC0000144C14CFD1B6369340313168900DC40CA
:102BD000984013598900336926012316210188235F
:102BE0002C2F74000946EF1000448547A382F4029D
:102BF00023936403014555BFB38A894063D35C01C5
:102C0000C14A139C0A01135C0C01330D8A006A86C9
:102C1000E2852285753D49F91008E2852285113F3C
:102C200041F533F67A010C086A85EF80C07C09E52E
:102C300062944204418041BF795585BFEFD2BF8D78
:102C4000370400201304C402034744024111630304
:102C5000A70429C5834754027D5595CF0145EFF060
:102C60006FCB0145EFF0FFA16A30EFF05FBE5C4033
:102C7000A30701009306F10088230546930530025F
:102C8000EF10603A854705452302F402EFF08FC844
:102C9000EFF0CFCD014541016FD03F8AEFF08FC7F4
:102CA0001C289306F1000546DC875C409305300242
:102CB0008823EF10403723020402D9BFEFD2BF822E
:102CC000370400209307C40283CA470259712A8B34
:102CD000AE8B1304C40263850A0001458537854A1B
:102CE0001305E103EFF00FDC1305D103EFF02FE73D
:102CF00013052104EFF04FF28800EFF06FFE1C285F
:102D00000146DE855A85834DA4003EC4EFF0AF88AE
:102D1000631B051E0546AC08E800EFF0CF87631182
:102D200005245C40B40011468823B545130A4106CA
:102D3000EF10604F8346B1040347810493094104B7
:102D400093D746400D878D8B718B5D8F2302E104F5
:102D50000347910493D726408D8B0D87718B5D8F30
:102D60008347A1048D8AA302E1048D87F18BD58F5F
:102D70002303F10437C70000B7C7000003AD478243
:102D800003278782930C0107D284528C03C9090060
:102D9000631F091C930700009CC091048509E397F9
:102DA0009CFEB7C700003EC6B7C7000083A7878355
:102DB000A40881493EC8B7C7000083A7C78301495B
:102DC000854C3ECAB7C7000083A707833ECCB70730
:102DD000008093C7F7FF3ECEB7C7000083A74783A5
:102DE0003ED093172900DE9788409C43898F13D5E6
:102DF000F741A98F3385A740EF80E01DB7C70000DA
:102E000083A5C782EF70302C03270A002A8D930513
:102E100000003A853AD2EF703014630C0516125751
:102E20006A85BA85EF702068E245EF701053F2476B
:102E300082557D8DEF7010186356A000B3972C015A
:102E4000B3E9F90005098D479104110AE31BF9F86C
:102E500093F7F90F3E8D5C40E2860D468823B54519
:102E60009309C104EF10203C8347610603574106D4
:102E70008966FD8B2303F106B2479386F6F1758FC1
:102E800083A7C7822312E10681443EC6B7C700006C
:102E900083A787840149054A3EC8B7C7000083A7B6
:102EA000C7843ECAB7C7000083A707823ECCB7C716
:102EB000000083A707843ECEB7C7000083A707831F
:102EC0003ED0B707008093C7F7FF3ED2B7C70000D8
:102ED00083AC478493172900DA9703A509009C4324
:102EE000898F13D5F741A98F3385A740EF80A00EB6
:102EF000B245EF70501D33072C011C23AA8B638F42
:102F0000070E62457DA00146DE855A85EFE0BFE8E9
:102F1000E30205E08144FD570355E1037EA41CA8AC
:102F2000FD571CC485475CA4EFF0AFBB0345D1033C
:102F3000EFF04FC703552104EFF0AFD20355010462
:102F4000EFF0FF906E85EFF03F9A2245EFF08FE4AF
:102F500063840A000545DD31268565616FD06FDC2D
:102F60000546AC08E800EFE01FE34DF55DBB23A08C
:102F7000A4017D191379F90F631509002380090055
:102F800029BD8840BA853AC6EF70F01388C0324731
:102F9000CDB7C2456A85EF70500AE34105EAD245D4
:102FA0006A8549BDF2453AD63ED4EF70D011A2579A
:102FB0003257FD1793F7F70FF5F7AA85230007009F
:102FC0005E85EF70404E8255EF7030399257E6853E
:102FD0007D8DEF70207E6355A000B3172A01DD8C34
:102FE00005098D479109E317F9EE93F4F40F93B4B3
:102FF0001400E3120DF293E4240031BFC245EF70D8
:10300000D003E34C05FCD2455E85E1B78280EFD268
:103010008FD001114C082800EFF05FCA0D4785479B
:103020006317E5064800EFF04FCD22451244EF70DC
:10303000907AA285EF703009EF70706E2AC4324525
:10304000EF707079A285EF701008EF70506D2AC68E
:103050004245EF705078A285EF70F006EF70306C4B
:103060002AC828001D2913052100EFF0CFCD388193
:10307000D2474808B387E7023ECAE247B387E70270
:103080003ECCF247B387E7023ECE212381473E85FF
:1030900005616FD08FCA0307050081476343E002D3
:1030A000914705E3030715008547634CE00095470A
:1030B00009EB0307250089476345E00093371700B4
:1030C00099073E858280EFD20FC5AA84E9372A8905
:1030D00013853400C9372A84138564006D3F931724
:1030E00034001A055D8D33652501420541816FD09D
:1030F000CFC4EFD24FC2EFF0BF8A294451E5130588
:103100008007EFF06FFE1375F50F054435ED1305DD
:103110008007EFF02FC81375F50F094435E5130547
:103120002003EFF0CFF21375F50F0D4431ED892C2C
:103130001375F50F114429E9370500201305050221
:103140005937B92C1375F50F15441DED13053017BC
:10315000EF0070101375F50F19441DE513052003DA
:103160003D231375F50F1D4405E15535214409ED47
:103170000545EFF0BFAC1374F50F11E837B500004B
:1031800013058576EF40305622856FD00FBB25445E
:10319000E5BFEFD2CFB57971AA8B2E8BB28A930798
:1031A00091001307A100740010102C080808EF000C
:1031B000F027631C05183C85094593F707106383C6
:1031C00007180255B7B90000EF70F06083A5897544
:1031D000EF70606F2A891255EF70F05F83A58975D3
:1031E000EF70606EAA842255EF70F05E83A589753A
:1031F000EF70606D2A843255EF70F05D83A589759C
:10320000EF70606CB7B7000083A5C775AA892685E3
:10321000EF70606BAA8CCA854A85EF6030722A8C89
:10322000CE856685EF70206A2A8AA2856285EF7056
:103230008069AA855285EF607070EF30503BEF7067
:10324000D07237BA000003260A7683264A76EF50FA
:10325000907BEF70507C23A0AB00A2852285EF60AD
:10326000F06DAA8BA6856685EF70E065AA8CA285B5
:103270005E85EF704065AA856685EF70100EB7C752
:10328000000083A50783EF60706BAA8CCE855E85F6
:10329000EF706063AA8BA6856285EF70C062AA8515
:1032A0005E85EF60B069E685EF305040EF70F06BFF
:1032B00003260A7683264A76EF50F074EF70B075D5
:1032C0002320AB00CA854A85EF70E05F2A8BA68574
:1032D0002685EF70405FAA855A85EF6030662A8B9D
:1032E000A2852285EF70205EAA855A85EF70F006D0
:1032F0002A8BCE854E85EF70005DAA855A85EF70CA
:10330000D005A2852A8B2685EF70E05B2A84CE85C6
:103310004A85EF70405BAA852285EF603062AA85FE
:10332000EF60D061DA85EF307038EF7010640326FB
:103330000A7683264A76EF50106DEF70D06D23A089
:10334000AA00014545616FD00F9E0545E5BFEFD24C
:103350008F9CB7B7B38D4111938787AB3EC2B7A798
:103360000D359387478B3EC450009307D005A54584
:103370001305804B5C86EFF0AFF541016FD0EF9BFA
:10338000EFD26F99B16505659306800C1306004076
:1033900093854589130565BFEFF0CFFF6FD0EF9997
:1033A000EFD26F97F57741111387C7D49387C790F2
:1033B0007C869307C00278845C871307C0069376E7
:1033C00035001C085885BE9683C786FF1357350005
:1033D0000D8B5C801C083E97834787FF100883C6CF
:1033E000C6FFDC80935765008D8BB29703C687FFBD
:1033F0000347C7FF83C7C7FF2A8450818D450A86CC
:10340000130560425482D8825C83EFF06FEC09C5EB
:103410007D5541016FD06F9250008D451305A0423C
:10342000EFF00FEB75F59567938767637C809307E3
:1034300060075C819167938767627C82930760066F
:103440005C839377440099C7930770035C8093076C
:1034500070025C829377040299C793077005DC8041
:1034600093077004DC829377041099C79307700761
:103470005C81930770065C830A868D4513050044C2
:10348000EFF00FE551F550008D4513051043EFF0B7
:103490002FE43DFD239A8196ADBFEFD2CF8783D72E
:1034A0004197411113F737000A072A970C4313F786
:1034B000470019C3B305B04013D71700318B2A97C3
:1034C000104313F7070219C33306C04013D7470050
:1034D000318B3A9593F70710184199C33307E040B1
:1034E000B7E6CA0293869630B387D5021305003D2E
:1034F000B395D502F9833304D7028A05CD8F914560
:103500003317D7027980B304D6020A07598C13D730
:103510008741588613D70741D88613978700C2077B
:10352000C1833316D602F980A183D98F7C870A061E
:10353000D18C7000EFF0CFD909C57D5541016FC026
:10354000DFFF93D784415C8693D70441DC86939751
:103550008400C204C180A180DD8C700091451305F8
:10356000403D6487EFF0CFD669F9935784415C867C
:1035700093570441DC8693178400420441802180E4
:103580005D8C700091451305803D6087EFF04FD44E
:1035900075B7EFC25FF841112A8413052100EFE0EF
:1035A0009FFA83D74197308113F737000A07229794
:1035B00093F647003E06184399C23307E04093D67E
:1035C0001700B18AA2968C4293F6070299C2B305FE
:1035D000B04093D64700B18A369493F7071008405D
:1035E00099C33305A0409357F741B306C702B38789
:1035F000C702F9823337C702BA978A07DD8E93D79D
:10360000F5413387C502B387C7027983B3B5C502D5
:10361000AE978A079355F5415D8FB385C502B30711
:10362000C5023336C502F983130540292E960A06D2
:10363000D18F13D68641508213D60641D08213967D
:103640008600C206C182A182D18E748393568741BF
:10365000548493560741D4849316870042074183CC
:103660002183558F788513D78741588613D7074113
:10367000D88613978700C207C183A183D98F5000D2
:10368000B1457C87EFF0CFC441016FC01FEBEFC2A3
:103690009FE80111AD652A8431469385C54C4808E1
:1036A000EF70B0579307800C63F687007D55056176
:1036B0006FC0BFE8B3C7870270008945130560215A
:1036C00023060100FD17DC86EFF08FC065F105656C
:1036D0005008B145130515ACEFF08FBF61F9239C7D
:1036E0008196F1B79377750099E37D5582809307B2
:1036F0000064E3ECB7FEEFC21FE241112A842E857D
:10370000EF70D019B7C7000083A5C748EF60B05964
:10371000AA841305B100EFE09FC49C851147638321
:10372000E70E6369F7000947638EE7027D554101A3
:103730006FC0BFE021476389E70E4147E398E7FE8A
:10374000B7C7000083A5874A2685EF70C017EF70C2
:10375000300313190501B7C700001359090183A5E8
:10376000C74A15A0B7C7000083A507492685EF7093
:103770008015EF70F000B7C7000083A54749131903
:103780000501135909012685EF70E013EF70407FA2
:1037900042059317890041811359890033E92701B4
:1037A0009317850021815D8D23162101688793770A
:1037B0001400C9EF9377240085C370008945130571
:1037C000801DEFF0EFB03DF11306E10089451305D0
:1037D0008012EFF0EFAF39F91188014529D8700058
:1037E00089451305C01DEFF0AFAE29F11306E100C6
:1037F00089451305C012EFF0AFAD3335A000330596
:10380000A04035B7B7C7000083A587492685EF706C
:10381000800BEF70E07613190501B7C7000013594C
:10382000090183A5C74985B7B7C7000083A5074A23
:103830002685EF704009EF70A07413190501B7C712
:1038400000001359090183A5474A35BF7000894517
:103850001305401DEFF0CFA7E31A05EC1306E100B6
:10386000894513054012EFF0AFA629D5C1B5EFC2C7
:103870009FCA93771500411195EBA3070100937739
:10388000250089C79C8793E7C700DC87118909C594
:103890009C8793E73700DC871306F1008545130505
:1038A0008014EFF0EFA241016FC03FC993070003FE
:1038B000DC87F1B7EFC23FC64111854719C51147F3
:1038C0009377F50F6373A7009147FD171306F10077
:1038D00085451305F014DC87EFF08F9F41016FC021
:1038E000DFC5EFC25FC395473355F5024111700044
:1038F00089459317850021815D8D68861305E01D3C
:10390000EFF00F9D41016FC05FC3EFC2DFC095476D
:103910003355F502411170008945931785002181C7
:103920005D8D68861305A01DEFF08F9A41016FC071
:10393000DFC0EFC25FBE9307803E3345F502411101
:103940007000B305B5021305C01593D785415C8699
:1039500093D70541DC8693978500C205C181A1817B
:10396000DD8D6C879145EFF0AF9641016FC0FFBCD4
:10397000EFC27FBA95473355F50241117000894572
:103980009317850021815D8D68861305A015EFF0E2
:103990002F9441016FC07FBAEFC2FFB795473355EF
:1039A000F5024111700089459317850021815D8DD5
:1039B000688613058015EFF0AF9141016FC0FFB726
:1039C000EFC27FB5411111C5EFF07F9841016FC083
:1039D000DFB6AD6525469385854D4800EF70F02331
:1039E0005000A5451305804BEFF08F8EC5B7EFC291
:1039F0009FB2411115C1B7C7C4C69387072C05658F
:103A000070009145130585A93EC6EFF06F8CEFE07D
:103A1000EFF541016FC07FB2B7978B8B9387B7B833
:103A2000F9BFEFC25FAF411115C1B7373038938787
:103A300007820565700091451305E5A93EC6EFF0C4
:103A40002F89EFE0AFF241016FC03FAFB7A7A3A34B
:103A50009387373AF9BFEFC27FAA4111B7D7E3097D
:103A6000938727A02A8450009145130580063EC203
:103A7000EFF00F86930730FA5C82137A0404630434
:103A80000A16930700FCDC82F1779387872C7C83EE
:103A900013790418630E0914F577938747CC7C8457
:103AA000930760FC5C85930730FADC850565E97750
:103AB0009387373A5000A945130575AA7C869379F8
:103AC0003400EFF0EF809307800D638409009307C3
:103AD0000002056550008545130565AB5C82EFE08B
:103AE0003FFF93770402638C0710EFF05F86630259
:103AF00009029377041063880710B797B69B9387E2
:103B000027BB056550009145130525AA3EC2EFE08D
:103B10003FFC93771400638D070E0565E157500055
:103B200085451305058B5C82EFE09FFA9305A00F96
:103B30001D45EFF03FBB1D45EFF07FD30545EFF08E
:103B40007FD713054006EFF0DFD91305401FEFF0D4
:103B5000DFDB37E5CA029305800C13059530EFF0E3
:103B60005FDD13058002EFF0BFE02945EFF0DFE2F3
:103B700093772400B337F0009387870D5000854575
:103B80001305D0735C82EFE0BFF4937744000545E2
:103B900091E30145EFF0BFE593770401054591E31B
:103BA0000145EFF01FE89387C19613678400BAA719
:103BB000EFE0CFDB9387C19663170A0623870700E0
:103BC00063050900F8271907F8A7518801C4F827E9
:103BD0004107F8A763850900F8271107F8A70145F1
:103BE00041016FC0FF94DC82E9779387373A45B58E
:103BF000E9779387373A7C84930730FA65B50145B6
:103C0000EFF01FDCEDB5B787B4909387070BD5BDF8
:103C10000565930780FD500085451305058B5C8283
:103C2000EFE01FEBB1B71947F8A759BFEFC23F8CC0
:103C3000938BC1962A8903C5EB000111AE89328BA3
:103C4000231007003E868A85B6843A8AEFE0FF9902
:103C500045E503D7AB002A84938AC1969377470141
:103C6000638607181C8094809082E207C206D58F75
:103C7000948142060C84D58F1481E2058886A206C1
:103C8000D58F14822320FB00C187E206D18E90835A
:103C9000B387F7024205D18E10832206D18E90841D
:103CA0002322DB00C1864206D18D9085B386D602E1
:103CB000D18D10852206D18D10862324BB00C185AD
:103CC0006206498E8887BE96B387B502498E0887FB
:103CD0002205498E2326CB0041863306C602B697BD
:103CE000B70600F1B297B697B706000263F8F60080
:103CF000EFE0CFC723100A007D54EDA083570A00E0
:103D000093E707102310FA00C14793760704A1C672
:103D10001410BE9603C606FE83C516FE990722063A
:103D20004D8E2390C90003C626FE83C536FE93F749
:103D3000F70F22064D8E2391C90003C646FE83C6A7
:103D400056FE2206D18E2392D90083560A0093E6AE
:103D500086002310DA0093760718A1C61410BE96C9
:103D600003C606FE83C516FE990722064D8E231054
:103D7000C90003C626FE83C536FE93F7F70F220659
:103D80004D8E2311C90003C646FE83C656FE220689
:103D9000D18E2312D90083560A0093E6060723101A
:103DA000DA000D8B0DCF3309F100834719008349E9
:103DB0003900858B99CB83A70A0081CB93F57900D5
:103DC00013D5390085051D89829783471900A18B7A
:103DD00099C783A74A0081C713D5690082972685B2
:103DE000EFF0CFA2228505616FC0EFF3814731BFAD
:103DF000EFC26FF241112A84EF0060681305C00E14
:103E0000EF00806BEF0040722285EF00E06AEF0068
:103E1000A071EF00C0661305D00EEF00E069EF005F
:103E2000A070EF00606C2AC6EF0060673245410168
:103E30006FC0AFF0EFC22FEE41112EC62A84EF0003
:103E400000641305C00EEF002067EF00E06D2285CF
:103E5000EF008066EF00406DB2452E85EF00C06533
:103E6000EF00806CEF00A06341016FC00FEDEFC267
:103E70008FEA4C411C4196058A07DD8D1C451305D0
:103E8000400FDD8D93F5F50FEFF0DFFA6FC0EFEA2D
:103E9000EFC26FE80C415C4196058A07DD8D1C4539
:103EA0001305500FDD8D93F5F50FEFF0BFF86FC0E0
:103EB000CFE8EFC24FE60111692313058008EFF048
:103EC0003FF3AA841305900813844181EFF05FF259
:103ED0001C40220526958AA31305A008EFF05FF188
:103EE000AA841305B008EFF0BFF01C402205269508
:103EF000AAA31305C008EFF0BFEFAA841305D008EA
:103F0000EFF01FEF1C4022052695CAA31305E00819
:103F1000EFF01FEEAA841305F008EFF07FED1C40D0
:103F200022052695EAA313050009EFF07FECAA8489
:103F300013051009EFF0DFEB1C40220526958AA738
:103F400013052009EFF0DFEAAA8413053009EFF02A
:103F50003FEA1C4022052695AAA713054009EFF069
:103F60003FE9AA8413055009EFF09FE81C402205A1
:103F70002695CAA713056009EFF09FE7AA841305E9
:103F80007009EFF0FFE61C4022052695EAA713050D
:103F90008009EFF0FFE5AA8413059009EFF05FE5D3
:103FA0001C40220526958AAB1305A009EFF05FE4BB
:103FB000AA841305B009EFF0BFE31C402205269543
:103FC000AAAB1305C009EFF0BFE2AA841305D0091C
:103FD000EFF01FE21C4022052695CAAB1305E0094D
:103FE000EFF01FE1AA841305F009EFF07FE01C4019
:103FF000220526959305600BEAAB1305000EEFF042
:104000007FE38D47054728003AC63EC43EC8EFF01F
:104010001FE6914748083ECC02CA02CEEFF05FE7A8
:1040200005616FC08FD1EFC26FCDB7640040AA8A1F
:104030002E8A3289368493890480B70502004E8522
:10404000EFD0CFDB7DF9138504808545B7040300ED
:10405000B7690040EFD06FD28504138B0980A68525
:104060005A85EFD04FD865DDD68513850980014686
:10407000B7040700B7690040EFD0CFD59384240878
:10408000938A0980A6855685EFD0EFD565DD138527
:104090000980D285B7090700B7640040EFD0CFD2BE
:1040A0009389490893840480CE852685EFD0AFD3C9
:1040B00065DDB7640040B709070022999384048046
:1040C00093894908631B89003765004085451305BE
:1040D0000580EFD02FCC6FC0AFC505048345F4FF3A
:1040E0002685EFD06FCECE852685EFD0CFCF65DD8C
:1040F000D1BFEFC24FC24111CC879306F100AA8510
:1041000005461305000DEFF01FF241016FC0EFC22D
:10411000EFC26FC0011185453705400002C202C4DD
:1041200002C602C802CA02CC02CEEFD04FF28545C9
:104130002145EFD0EFEF8567938707C07C82371565
:104140000140F1473EC64C008D47130505C03EC4F3
:10415000EFD06F96B7270600938707A83EC8B7072A
:10416000FFBF376400403ECAB70700043ECC0C08CE
:10417000916713050480FC86EFD0CFAE1305048051
:104180008545EFD00FBE854513050480EFD02FC2C3
:1041900013052003EF209038930500081305B0069F
:1041A000EFF03FF513054006EF205037814513052A
:1041B000B006EFF01FF48D456545EFF09FF389459C
:1041C0006945EFF01FF381457145EFF09FF2E1453E
:1041D0006D45EFF01FF2814513058003EFF07FF18D
:1041E00081451305A006EFF0DFF08145130530028D
:1041F000EFF03FF09305000813057003EFF07FEF39
:1042000085451305B006EFF0DFEEEFE09FEE2A8460
:10421000AA8537C500001305054BEF30904A22856B
:1042200005616FC08FB1EFC26FADB76400402A8ADD
:10423000AE8A3284368993890480B70502004E85A0
:10424000EFD0CFBB7DF9138504808545B70403000B
:10425000B7690040EFD06FB28504138B0980A68543
:104260005A85EFD04FB865DD138509800146D285A8
:10427000B7040700B7690040EFD0CFB59384240896
:10428000138B0980A6855A85EFD0EFB565DDD685FD
:1042900013850980B7040700B7690040EFD0CFB29B
:1042A00093844408938A0980A6855685EFD0AFB3DE
:1042B00065DD138509808545B7040300B7690040B3
:1042C000EFD0AFAB8504938A0980A6855685EFD0E1
:1042D0008FB165DD138509800546D285B7090300D6
:1042E000B7640040EFD00FAF890993840480CE8576
:1042F0002685EFD04FAF65DDB7640040B7090300F6
:10430000130AF00F93840480938909047D141374B5
:10431000F40F63104403376400401305048085459F
:10432000EFD04FA7854513050480EFD04FA86FC08D
:104330002FA009E481452685EFD06FA7CE8526857D
:10434000EFD06FAA65DD2685EFD04FA82300A90026
:1043500005096DBFEFC22F9C41112A849306E1002D
:10436000AA8505461305000DEFF0FFEB9305140039
:104370009306F100054693F5F50F1305000DEFF0D8
:104380009FEA1C878887A2075D8D41016FC0EF9A65
:10439000EFC26F98411170002C004800EFE07FDF02
:1043A000B24737040020AA84232EF41A924713043C
:1043B000C41B130570045CC0A2471CC4EFF09FF936
:1043C0004AA413053004EFF0FFF86AA41305500463
:1043D000EFF05FF831150AA8268541016FC0EF950F
:1043E000EFC26F932A863715014093050004130529
:1043F00005C0EFC03FF92945EF20B00E6FC0EF9325
:10440000EFC26F912A863715014093050008130506
:1044100005C0EFC03FF72945EF20B00C6FC0EF910A
:10442000EFC26F8F3715014093050008130505C0D3
:10443000EFC07FF42A842945EF20B00A22856FC09F
:10444000CF8FEFC24F8D411185452145EFD04FBE33
:10445000D147371401403EC69307000C7C824C00C4
:104460008D47130504C03EC4EFC0FFE49305000C64
:10447000130504C0EFC0DFF041016FC00F8CEFC225
:104480008F890545EFF0DFF70545EFF07FF5014532
:10449000EFF01FF70145EFF0BFF46FC00F8AEFC2D6
:1044A0008F870145EFF0DFF50545EFF07FF3054518
:1044B000EFF01FF56FC06F88EFC24F842A89014467
:1044C00093090008A14433D5894033752501EFF0E5
:1044D0003FF30545EFF0DFF001450504EFF05FF035
:1044E000E31394FE6FC0CF84EFC24F810545EFF018
:1044F0003FF1814401449309000821490545EFF04B
:104500003FEEEFF0FFF185476317F500B3D7994011
:104510005D8C1374F40F01458504EFF07FECE39F8D
:1045200024FD22856FC0CF80EFB2FFFE0545EFF07E
:104530003FED0545EFF0DFEAEFF09FEE2A840145FD
:10454000EFF01FEA22856FB05FFFEFB2DFFC7971F9
:104550001306000281450808EFB0FFFE85451145AE
:1045600002C202C402C6EFD0AFAC854513050020DD
:10457000EFD00FAC3165EFD04F9137150140C147F7
:104580004C0013050580372401407C8202C6EFC031
:104590009FD213050440EFC05F8685473ECCB70726
:1045A0000E003ECE0C089147130504402302F10291
:1045B00002C802CA02D0EFC0BF8885451305044077
:1045C000EFC07F8E854513050440EFC0DF8C814529
:1045D00013050440EFC09F9D13050440EFC0DF8D1D
:1045E000930404402685EFC0DF8D6DFD1305044064
:1045F00037240140EFC07F8D930404402685EFC02F
:104600007F8D6DFD13050440EFC0DF9BB7070020D1
:104610002392A71245616FB05FF2EFB2DFEF3971FD
:104620002A842E89B28481451306C002480836C602
:10463000EFB07FF185450545EFD0AF9D2285EFC0F6
:104640001FAC930700083ED493070010B2463ED635
:10465000930700403ED8930700023EDA4C088D676E
:1046600022854ACA26CC36D03EDC02CE02D202DEF9
:10467000EFC0BFBF21616FB05FECEFB2DFE9EFF0D9
:10468000DFECB70700208395471237C500001305FC
:10469000C54CEF30100337240140B7040240370601
:1046A00000208546130686129305C44413854404EE
:1046B000EFF0BFF6138544048545EFC09FBE9D46CD
:1046C0000546130504409145EFC0DF82854513057B
:1046D0000440EFC0BF806FB05FE6EFB2DFE35C4540
:1046E000AA842E890314E50089EF08419305000090
:1046F000EF60800619E50A042694232024016FB098
:10470000DFE305040D473364E4028396C400931786
:104710000401C1870A04FEA4269423202401E39007
:10472000D7FE8507B3E7E702DEA4D1BFEFB2BFDE55
:104730002A84084193050000EF5050204C40EF5070
:10474000F01F0C44EF50901FB7C7000083A5474EE1
:10475000EF5070556FB07FDEEFB2FFDB4111854542
:10476000114502C202C402C6EFD08F8C930700101D
:10477000371401407C82C1473EC64C008D4713056B
:1047800004803EC4EFC03FB30546930500101305F7
:104790000480EFC03FBF41016FB03FDAEFB2BFD737
:1047A000AA843705080039712E8413051502854542
:1047B00032C602D202D402D602D802DA02DC02DE0B
:1047C00002CC02CE23100102EFD08F863705138072
:1047D00085454105EFC0BFBBED77938707A0231246
:1047E000F10237150140E1473ED64C108D471305C5
:1047F00005403ED4EFC03FACE084375401402C0864
:10480000130504C0E486231F0100231D0100EFD01F
:10481000CF873246C167938707060C18130504C07B
:104820003ED8231BC102231C0102EFD0AF900C180D
:10483000130504C0EFD02F980C18130504C0EFD057
:104840006FA20C18130504C0EFD08FAC130504C081
:104850008545EFD0EFB5130504C08145EFD04FB8C3
:10486000130504C08145EFD08FB8130504C08145FE
:10487000EFD04FB9130504C08145EFD08FB91305B0
:1048800004C08545EFD02FB48545130504C0EFD093
:10489000AFB021616FB07FCAEFB2FFC709651306E1
:1048A000803E93051003130505C2EFF03FEF375428
:1048B0000140130504C09305005AEFD0EFB613056D
:1048C00004C09305005AEFD06FB6130504C09305DA
:1048D000005AEFD0EFB59305005A130504C0EFD08E
:1048E0006FB56FB09FC59307005A63FBA70085673C
:1048F0001387F7B3636EA7049307206763E4A700E9
:104900001305005A83C7118299EB13072067AA8702
:104910006374E5009307206713950701418183A71E
:10492000C1810947FD15638EE706EFB2DFBE93979D
:104930002500B705002093858505BE959C416382BF
:10494000E704634AF70005476385E7026FB0FFBEDF
:10495000138507B445BF0D47638DE7021147E39701
:10496000E7FEAA8537550140130505C0EFD08FAC8F
:10497000F1BFAA8537550140130505C0EFD0CFAA76
:10498000F1B7AA8537550140130505C0EFD00FAA2E
:1049900075BFAA8537550140130505C0EFD04FA953
:1049A00075B78280EFB23FB78566938606B42E87CF
:1049B000B68763E3A600AA87139607014182930690
:1049C000005A6374D6009307005A939507017D1728
:1049D000B70700200A0793878705BA979C430947C2
:1049E000C181638DE7026347F70005476381E702F2
:1049F0006FB0BFB40D47638AE7021147E39AE7FE41
:104A000037550140130505C0EFD0CFA2D5B73755B4
:104A10000140130505C0EFD02FA1D9BF3755014084
:104A2000130505C0EFD08FA0E1B73755014013053E
:104A300005C0EFD0EF9F6DBF3705004041118545A0
:104A40001305054022C6EFD06FA0EF001007EFF06E
:104A50003F941DE5EFB0BFB9EFB0DFBF03A7C18141
:104A60008947630FF70083C71182B1E33704002041
:104A7000035504149307306A63F8A700EF00100988
:104A800032444101730020308545EFF0DFE50355E6
:104A900004148945EFF03FE5035504148D45EFF00C
:104AA0009FE4035504149145EFF0FFE3D1BF3704B1
:104AB000002013048406EF0090201C44138501C1DC
:104AC00082971C44138501BC82971C44138501B74F
:104AD00082971C44138501B282971C44138501CB35
:104AE00082971C44138501C6829759BF3715004031
:104AF000854513050580EFD06F9573002030EFB228
:104B00009FA1797185453705020002CA02CC02CE09
:104B100002D002D202D402D602C602C8EFC03FD3EE
:104B200085451145EFC0DFD09147FC823714014025
:104B30008D473ECC4C08E147130504803ECEEFC0C4
:104B40008FF7A1474C08FC821305048091473ECEA5
:104B5000EFC06FF6B77706009387078A3ED0B70796
:104B60000C003ED4930760037C86680085473EC8EE
:104B70003744004002D22316010223070100EFC090
:104B8000BFAB130504408545EFD00F960C101305FD
:104B90000440EFD06F8C0546930550521305044036
:104BA000EFD0EF9545616FB05F99EFB2DF962A8441
:104BB000EFD0CF98B706002003C7A612138601AE28
:104BC0009307170093F7F70F329708A32385F61280
:104BD000130700046394E70023850612B70700203B
:104BE00003A7870D85476313F70099249305505257
:104BF0002285EFD0CF956FB05F94411122C6374424
:104C000000409305505213050440EFD00F9501CD9D
:104C10009305000213050440EFD0CF9209C5130598
:104C20000440EFF09FF83244410173002030014707
:104C300093864199130800109377F70F21469395B7
:104C40001700E207E187FD87E98F93F5E50F7D16F1
:104C5000AD8F75F63386E6001CA20507E31E07FD3F
:104C60008280AA958147138741996314B5003E85D8
:104C7000828005058346F5FFB58FBA979C23F5B76B
:104C8000370700201307A7121C236365F5002300D4
:104C900007008280898F93F7F70F1CA3938601AEDC
:104CA00001473306A70036960C223386E600050737
:104CB0000CA2E318F7FE8280582134311D8B2207A5
:104CC000938741A9558F98C358219356370058317F
:104CD0001377F7031607558FD8C35431782199827B
:104CE0000A07D98E7831058B2A07558F98C77831F6
:104CF0009356170018253D8B1E07558FD8C71825CA
:104D00009356470018351377F7071207558F98CB3E
:104D1000143538259D820607D98E38350D8B260728
:104D2000558FD8CB38359356270058257D8B1A07D9
:104D3000558F98CF58259356570058350E07558FE5
:104D4000D8CF783574251D8B2207558F98D37835A9
:104D50009356370018291377F7031607558FD8D3C2
:104D60001429183999820A07D98E3829058B2A0700
:104D7000558F98D738299356170038393D8B1E0721
:104D8000558FD8D738399356470058291377F707E6
:104D90001207558F98DB542958399D820607D98E02
:104DA00078290D8B2607558FD8DB78299356270055
:104DB00078397D8B1A07558F98DF783993565700CD
:104DC000182D0E07558FD8DF8280EFB2CFF458210F
:104DD0003C31411122075D8F5C316C002946C207CE
:104DE0005D8F7C21138541ADE207D98F3EC6EF6010
:104DF000C06241016FB06FF4938701AE9423130733
:104E0000800C6396E602EFB20FF1BC235147638B2F
:104E1000E70059476396E700138501AEEFF0DFE93D
:104E20006FB0AFF1138501AEEFF03FFAD5BF8280CE
:104E3000EFB2CFEC938401AE370900208549130A05
:104E4000B003938A24000347A91263F4E904803075
:104E50009307D4FF93F7F70F6376FA000545EFF059
:104E60003FE2D5B79307140063D5E702A69703CBBB
:104E700007009305F4FF93F5F50F5685EFF07FDEFD
:104E8000E31EABFCEFF05FF7130524001375F50F7D
:104E9000F9B76FB0EFE9EFB20FE5B704002083A7D1
:104EA00084064111138501CB8297B7C7000083A701
:104EB0000750138401CB138984061CC0B7C70000B8
:104EC00003AD4750B7C7000083AC8750B7C7000099
:104ED00003AAC750B7C7000083A90751B7C700008E
:104EE00003AC475183274900930D00002322B401EE
:104EF0002324B401232AA401232C94012326440152
:104F000023283401232A8403138501CB829783A7A6
:104F10008406138501C68297B7C7000083A787510F
:104F2000138401C62322B4011CC0B7C7000083ABA1
:104F3000C751B7C7000003AB07528327490023249A
:104F4000B401232A7401232C64012326440123285D
:104F50003401232A8403138501C6829783A784061C
:104F6000138501B7829737C7000003278752138440
:104F700001B7B7C7000058C037C700000327474E26
:104F800083A74752232AA40118C437C70000032768
:104F9000C7521CC0232C940158D80327490023264C
:104FA000440123283401138501B73EC6029703A7A5
:104FB0008406138501B2029737C700000327075301
:104FC000138401B22322B40118C037C7000003279D
:104FD0004753232A7401232C640118C437C70000E7
:104FE000832D078303274900232644012328340106
:104FF000232AB403138501B2029703A784061385FD
:1050000001C10297B247138401C1232AA4011CC025
:10501000B7C7000083A78753232C9401232644019C
:105020005CC0B7C7000083A7C75323283401232AD5
:1050300084031CC483274900138501C1829783A779
:105040008406138501BC138401BC8297B7C7000096
:1050500083A70754232A7401232C64011CC09307DF
:1050600000005CC0B7C7000083A747542326440153
:10507000232834011CC483274900232AB403138541
:1050800001BC829741016FB0CFC9EFB2CFC81307FF
:10509000803EAA876352A702130585C1EF40D05B0B
:1050A000B7C7000003A6874E83A6C74EEF40A015E2
:1050B000EF6060166FB06FC81307803D13050000E6
:1050C000E34AF7FE138577C2D1BF9307800C63F0E4
:1050D000A704EFB24FC4130585F342054181EF40A9
:1050E000B057B7C7000003A6074F83A6474FEF404E
:1050F0008011B7C7000003A6874F83A6C74FEF30C4
:105100003012EF40B04F420541816FB00FC313051D
:105110006054828083A741AA9387779093B7070151
:1051200093C71700A380F182828003A7C1AABD465E
:10513000130677909387018263E5C600094798A319
:105140008280130727C2D14663E4E6000547C5BF46
:10515000238007008280EFB20FBCB707002003A6B0
:10516000871DB707002003A5C71341119305000051
:1051700032C6EF40B07CB7070020324683A747070E
:10518000AA85138501C1829741016FB00FBBEFB2B1
:105190008FB803958190EF501064B7C7000083A5C6
:1051A0008754EF504030B707002083A7470783A5F7
:1051B00041C32A86138501BC82976FB00FB8EFB246
:1051C0008FB5B707002003A6071DB707002083A5EA
:1051D000C712B707002003A54714411132C6EF409C
:1051E000F075B7070020324683A74707AA851385C5
:1051F00001CB829741016FB04FB4EFB2CFB1B70787
:1052000000200395C71D3305A040EF50D05CB7C701
:10521000000083A58754EF500029B707002083A71B
:10522000470783A541CD2A86138501C682976FB0B3
:10523000CFB0EFB24FAEB707002003A6471DB707A8
:10524000002003A5871341119305000032C6EF40EB
:10525000F06EB7070020324683A74707AA8513855B
:1052600001B7829741016FB04FADEFB2CFAA03955E
:105270006190EF505056B7C7000083A58754EF5098
:105280008022B707002083A7470783A541B92A8654
:10529000138501B282976FB04FAA83A701AB1307A2
:1052A000F00B6396E700054723ACE180828013078B
:1052B0000070E39DE7FE0947C5BFEFB2CFA5138499
:1052C00041A94844EFF07FDCB707002023A2A714D0
:1052D00003A541A9EFF07FDBB707002023AEA7129B
:1052E0004840EFF09FDAB707002023ACA71208442C
:1052F000EFF0BFDDB70700202390A714EFF09FE188
:10530000EFF0BFE2EFF07FF96FB02FA3EFB22F9E67
:10531000EFF07FE4EFF0BFE7EFF0BFF1EFF0FFF465
:10532000EFF0FFE9EFF07FEDB70700203704002032
:1053300003A7071D835C0414B707002023A6E71208
:105340006685EF50504983AA41B4AA8B370C0020E0
:10535000D685EF40B05E03A941BE83A441C8CA858B
:10536000AA89EF40B05DA685EF40505DEF505041F7
:10537000131A0501135A0A01CA854E8523184C13C6
:10538000EF50A07DA685EF50407DEF50703F931900
:105390000501370B002093D90901D68523193B134A
:1053A0005E85EF50807BAA852A8D4A85EF40105993
:1053B000A685EF40B058EF50B03C931B0501B70AEB
:1053C000002093DB0B01239A7A13CA856A85EF507C
:1053D000C078A685EF506078EF50903A4205B70448
:1053E000002041818567239BA412938707B413048F
:1053F000041413070C13130B2B13938A4A1393846F
:10540000641363F047071EA38567938707B463F1AE
:1054100037072310FB008567938707B463F177078D
:105420002390FA008567938707B463F1A7069EA0CF
:1054300083A7818185466392D7060A238545EFF0CD
:105440008FCA03550B008945EFF0EFC903D50A0059
:105450008D45EFF04FC98A209145EFF0CFC86FB06E
:105460008F8C9307F059E3E147FB9307005A61BF24
:105470009307F059E3E137FB9307005A59BF9307AD
:10548000F059E3E177FB9307005A59BF9307F059AE
:10549000E3E0A7FA9307005A59BF0947E391E7FCF5
:1054A00085456685EFF02FC40A208945EFF0AFC32C
:1054B0000A208D45EFF02FC391450A2079BFEFB246
:1054C0008F8585451305005AEFF0EFC18945130517
:1054D000005AEFF04FC18D451305005AEFF0AFC0F1
:1054E00091451305005AEFF00FC06FB00F85930779
:1054F00000001CC15CC11CC55CC51CC91CCD5CC9BD
:105500005CD11CD55CD51CD98280930700003CC1BE
:105510005CDD1CDD5CD11CD95CD51CD57CC53CC5D3
:105520007CC18280930700007CC53CC57CC13CC126
:105530005CDD1CDD1CD95CD51CD55CD15CCD1CD1DF
:105540008280EFA2BFFB2A843C448329440410D00C
:105550007CC42E85232434054CCCB285EF50E05F0B
:105560000C4068C0AA84EF5000364C4008D42A8A08
:105570002685EF5040354C54EF40503C5C5CCE8566
:105580002A893CC01C5C48D426855CDCEF50E05C7A
:105590000C4408DCEF502033832A4401AA8908D840
:1055A000D6854A85EF5000216355A0002326540379
:1055B00009A8832A84014A85D685EF500028E3474D
:1055C00005FE4C545285EF407037CE85EF401037C2
:1055D0000329C40048D0AA89CA85EF50A01D63558D
:1055E000A0002322240309A8032904014E85CA85AB
:1055F000EF50A024E34705FE032944032685CA850E
:10560000EF50A023634FA000B7050080B3C525016C
:105610002685EF50201A63460500930700005CD0F2
:105620005CD46FA0FFF0EFA21FEFEFF04FCDEFE0E3
:105630003FAE75FDEFF04FA6EFE0BF87EFF0EF83D1
:10564000EFF07F85EFF04F9137C500001305C5548B
:10565000EF2070096FA07FEEB70700209387071631
:105660009843636FA702D043B386C7006316D50083
:1056700054413E85B296D4C35041B306C500631C65
:10568000D700B706002083A686146306D7005443CC
:105690001843B29654C118C16303F50088C38280D1
:1056A000BA877DBFEFA29FE541112AC6EF00503EA9
:1056B000B706002083A78614370600209386861439
:1056C0001306C6143245A1EF370700209307875D04
:1056D00093F5F7001307875D81C51387F700419B9A
:1056E000B70500209385051623A2050098C1916592
:1056F000C115AE97C19B23A2070023A00700B38565
:10570000E7409CC21CC3B707002023AAB714B70701
:10571000002023A8B714B70700804CC31CC2032A7B
:105720000600B377AA0085E39307F5FF3957636C4A
:10573000F7009307050113F7F70049C313F707FFB5
:10574000410763ECE706814491A022872E8469A07B
:1057500058C15CC0EFF05FF05840B7060020938658
:1057600046159042B307E94023A0F90063F3C70050
:105770009CC2B70700203367EA009387871558C09B
:105780009843C10423200400050798C3EF00B04CE0
:1057900093F7F400D1CBA16793870780739007300C
:1057A00037C6000037C500001306065693050011E2
:1057B00013058558EF20E07001A0BA873707002055
:1057C0000329071593090715E36FF9F6370700203A
:1057D000032407161307071650406374F6000C40A5
:1057E000ADF59442E38186F61440044314C33307B5
:1057F000F64093060002E3F1E6F63305F4009376F3
:10580000F500B9D6A167938707807390073037C634
:10581000000037C50000130606569305F00C13056B
:105820008558EF20006A01A0268541016FA05FD056
:105830005DC1EFA25FCEB7070020032745FF83A716
:10584000C7142A84B376F7009DE2A1679387078087
:105850007390073037C6000037C5000013060656A0
:105860009305401213058558EF20A06501A08326FB
:1058700005FF9DC2A167938707807390073037C6E5
:10588000000037C500001306065693055012130595
:105890008558EF20006301A093C7F7FFF98F232AF3
:1058A000F5FEEF00F01EB70700209387071594431D
:1058B000032744FF130504FF369798C3EFF0DFD9A1
:1058C000B70700209387C7159843050798C3EF00D3
:1058D00090386FA09FC68280B707002003A54715A8
:1058E0008280B7E700E041572387E7402386E740FF
:1058F000B7F700E023A0070023A20700814694C762
:105900000147D8C783A5C1801307803E814633D69F
:10591000E5023D4790CBD4CB98C38280EFA2BFBFB6
:10592000411102C6F32750303EC6B2470D478D8B5A
:105930006384E702A167938707807390073037C6B7
:10594000000037C500001306C65A9305600B130507
:105950008558EF20005701A0B787002093870700E4
:10596000BD8B9DC3A167938707807390073037C6AF
:10597000000037C500001306C65A9305B00B130587
:105980008558EF20005401A0EFF0BFF5B7E700E025
:10599000056723A0E710116723A0E71023A2018267
:1059A000EFA01F96014541016FA03FB9731101346B
:1059B000A1679387078073900730B7F700E023A2B1
:1059C0000700EF00900E11C5B7E700E0116723A0B4
:1059D000E720A1679387878873900730731101349C
:1059E00073002030A16793870780739007309387F7
:1059F00041829843050798C38280138741821C43E4
:105A00008DE7EFA25FB1A16793870780739007309E
:105A100037C6000037C500001306C65A930520108C
:105A200013058558EF20E04901A0FD171CC391E73D
:105A3000A1679387878873900730828093078500DA
:105A40007D575CC118C55CC51CC923200500828038
:105A50002328050082809841FD5693078500631E28
:105A6000D7001C49D843D8C10CC79CC5CCC31C4126
:105A700088C985071CC18280B687D4439042E37DE4
:105A8000C7FECDB7544118451C4998C654C3D443EA
:105A90006393A600D8C39843232805007D1798C3B5
:105AA00088438280EFA23FA741112AC6EFF09FF3FF
:105AB0003245005DEFF07FF41335140041016FA013
:105AC000DFA7304115C2EFA21FA558451445AA878C
:105AD000329758C56364D700184158C52E85CC4706
:105AE000EF50B0136FA07FA58280EFA2DFA22A84BF
:105AF000EFF05FEF8344540413094402E204E184AD
:105B000063489002FD57A302F404EFF01FEFEFF09B
:105B10007FED8344440413090401E204E1846345F6
