:040000006F10E06835
:100004000000000000000000C8130000CC13000032
:10001400000000008C16000000000000000000003A
:100024008C1600008C160000000000000000000088
:10003400505E00000000000000020000000000000C
:100044008C1600008C1600008C1600008C16000024
:100054008C1600008C1600008C1600008C16000014
:100064008C1600008C1600008C1600008C16000004
:100074008C1600008C1600008C1600008C160000F4
:100084008C1600008C1600008C1600008C160000E4
:100094008C1600008C1600008C1600008C160000D4
:1000A4008C1600008C1600008C1600008C160000C4
:1000B4008C160000F85400000A5500008C1600004D
:1000C4008C1600008C1600008C1600008C160000A4
:1000D4008C1600008C160000AE5600008C16000032
:1000E4008C1600008C1600008C1600008C16000084
:1000F4008C1600008C1600008C1600008C16000074
:10010400000000008C1600008C1600008C16000005
:100114008C160000025700008C1600008C1600009C
:100124008C1600008C1600008C1600008C16000043
:100134008C1600008C1600008C1600008C16000033
:100144008C1600008C1600008C1600008C16000023
:100154008C1600008C1600008C1600008C16000013
:100164008C1600008C1600008C1600008C16000003
:100174008C1600008C1600008C1600008C160000F3
:100184008C1600008C1600008C1600008C160000E3
:100194008C1600008C1600008C1600008C160000D3
:1001A400000000000000000000000000000000004B
:0C01B4000000000000000000000000003F
:10020000130181F806C216C41AC61EC822CA26CC1B
:100210002ACE2ED032D236D43AD63ED842DA46DC76
:100220004ADECEC0D2C2D6C4DAC6DEC8E2CAE6CC46
:10023000EACEEED0F2D2F6D4FAD6FED8F3220030CF
:1002400096DA9702002083A222F023A02200F32551
:1002500010342EC09305000273A0458003A1818253
:10026000EF60900617030020032303EE0321030031
:10027000824273901234D652739002309240A2425E
:100280003243C2435244E244724582551256A2564A
:100290003257C2575258E25872598649164AA64AEE
:1002A000364BC64B564CE64C764D865D165EA65ECA
:1002B000365FC65F13018107730020301300000012
:1002C00013000000130000001300000013000000E2
:1002D00013000000130000001300000013000000D2
:1002E00013000000130000001300000013000000C2
:1002F00013000000130000001300000013000000B2
:1003000083A28182938202E073900234170100205D
:10031000032181E3024182403243C2435244E2441A
:10032000724582551256A2563257C2575258E25859
:1003300072598649164AA64A364BC64B564CE64C6D
:10034000764D865D165EA65E365FC65FD652A1020A
:1003500073900230A24213018107828013000000D3
:100360001300000013000000130000001300000041
:100370001300000013000000130000001300000031
:100380001300000013000000130000001300000021
:100390001300000013000000130000001300000011
:1003A0001300000013000000130000001300000001
:1003B00013000000130000001300000013000000F1
:1003C00013000000130000001300000013000000E1
:1003D00013000000130000001300000013000000D1
:1003E00013000000130000001300000013000000C1
:1003F00013000000130000001300000013000000B1
:10040000F322003093F272FF130380781203B3E2F9
:100410006200711523205500130585FA10C12115BE
:10042000232005009302000063870200711523203A
:100430000500FD12D5BF71150CC1828000000000BF
:1004400000000000000000000000000000000000AC
:10045000000000000000000000000000000000009C
:10046000000000000000000000000000000000008C
:10047000000000000000000000000000000000007C
:10048000000000000000000000000000000000006C
:10049000000000000000000000000000000000005C
:1004A000000000000000000000000000000000004C
:1004B000000000000000000000000000000000003C
:1004C000000000000000000000000000000000002C
:1004D000000000000000000000000000000000001C
:1004E000000000000000397101436EC619A0397187
:1004F00041536AC866CA62CC5ECE19A039710153F5
:100500005AD056D252D44ED64AD826DA22DC06DE4B
:1005100033016140828241114AC026C222C406C60C
:100520008282B24D4101024D924C224CB24B4101AC
:10053000024B924A224AB249410102499244224462
:10054000B240410182803D432A876373C30293779F
:10055000F700BDEFADE5937606FF3D8ABA960CC372
:100560004CC30CC74CC74107E36BD7FE11E2828036
:10057000B306C3408A069702000096966780A600DD
:100580002307B700A306B7002306B700A305B700EB
:100590002305B700A304B7002304B700A303B700E3
:1005A0002303B700A302B7002302B700A301B700DB
:1005B0002301B700A300B7002300B700828093F5A2
:1005C000F50F93968500D58D93960501D58D61B76E
:1005D000939627009702000096968682E78086FA17
:1005E0009680C1171D8F3E96E374C3F8A5B7EFF24E
:1005F0009FF237040020130484190C4037050020B3
:100600009304051C1305051CEF4090384C401385DE
:100610000401EF40F0370C4413850402EF405037DB
:100620000315C400EFA07065AA8513850403EF408D
:1006300030360315E400EFA05064AA851385040446
:10064000EF40103503150401EFA03063AA85138530
:100650000405EF40F033D5B5EFF2FFEB370500208E
:100660009304051C370400201305051C1304C41A49
:10067000EF40303708C013850402EF40903648C081
:1006800013850401EF40F03508C413850403EF40DF
:100690005035EFA010534AA413850404EF40703482
:1006A000EFA030526AA413850405EF409033EFA009
:1006B00050510AA859B5EFF21FE63704002005494A
:1006C000232C040CEF40005F9304840D19E10537DF
:1006D0006137154523A02401EF60A038D5B7EFF2AC
:1006E0009FE3EF50A069AA8537C500001305059A5E
:1006F000EF707047370400200325C41A1304C41A8E
:10070000B7040020EFA0B0702A8637C50000AE867F
:100710001305859CEF703045484037590140EFA0E4
:10072000106F2A8637C50000AE861305859DEF70D1
:1007300090430844EFA0B06D2A8637C50000AE860E
:100740001305C59EEF7030428315C40037C5000005
:10075000130505A0EF7030418315E40037C5000094
:10076000130545A1EF7030408315040137C5000023
:100770001305C5A2EF70303F13840422685C938494
:100780000422EFA0D0682A8637C50000AE86130584
:1007900005A4EF70503D0325C41BEFA050672A86C7
:1007A00037C50000AE86130505A5EF70D03B0325C5
:1007B000C411EFA0D0652A8637C50000AE861305A8
:1007C00005A6EF70503A130509C0EF10B055AA8581
:1007D00037C50000130545A7EF70F038130509C0B1
:1007E000EF109054AA8537C50000130505A8EF70D7
:1007F0009037130509C0EF10B052AA8537C5000025
:100800001305C5A8EF703036130509C0EF1010525C
:10081000AA8537C50000130585A9EF70D0345C2088
:10082000ADEF37C50000130545AA138401D5EF705D
:10083000D0354C305C2037C50000A205DD8D7C2012
:100840001305C5ACC207CD8F6C30E205DD8DEF70AE
:1008500090314C345C2437C50000A205DD8DC20503
:10086000C1851305C5ADEF7010306C347C2437C5DD
:100870000000A205DD8DC205C185130545AEEF70F0
:10088000902E83A784340547639EE70037C5000098
:100890001305C5AEEF70702F4DB137C500001305BD
:1008A00085AB61B709476397E70037C500001305BB
:1008B00005B0CDB70D47E391E7FE37C5000013053E
:1008C00045B1C9BFEFF23FC5193D1545EF6060194D
:1008D000E5BFEFF25FC1B70400201384819483A7C2
:1008E0008406930A8400411156858297B7C7000099
:1008F00083A787B413898406130B00001CC4B7C7F1
:10090000000083ADC7B4B7C7000083AC07B5B7C755
:10091000000003AC47B5B7C7000003AA87B5B7C747
:10092000000083A9C7B5B7C7000083AB07B683270C
:10093000490023286401232E740356852326B4011D
:10094000232E940123208403232A4401232C3401E1
:10095000829783A78406130D84056A858297B7C79B
:10096000000083A747B6232E6405232064073CCCF0
:10097000B7C7000003AB87B6B7C7000083AAC7B6E6
:1009800083274900232674096A85232664072328C0
:1009900054072322440723243407829783A784061D
:1009A000130D840A6A858297B7C7000003A607B7AC
:1009B000B7C7000083A647B7B7C7000003A787B72C
:1009C000B7C7000083A7C7B72324C40A2326D40AC5
:1009D000232EF40C832749002328E40A6A85232E5A
:1009E000940B2320840D232A440B232C340B32C474
:1009F00036C23AC0829783A584069307840F3E854A
:100A00008295B7C5000083A505B893070000232E83
:100A1000F40E232CB40EB7C5000083A545B8938708
:100A200001A42320B410B7C5000003AD85B8832509
:100A300049003E85232664112328541123224411A2
:100A4000232434112326A413829583A584069307B7
:100A500084143E8582950247924622462328E41458
:100A600003274900938701A92326D4142324C414FF
:100A7000232E74173E85232E941523208417232AB2
:100A80004415232C3415029703A784069307841971
:100A90003E85029737C700000327C7B893070000B9
:100AA000232EF418232CE41837C70000032707B9B6
:100AB000938701AE2320E41A032749003E852326AD
:100AC000641B2328541B2322441B2324341B23266A
:100AD000A41D029703A784069307841E3E850297F0
:100AE00037C70000832547B937C70000032687B9F9
:100AF00003274900938701B32324B41E2328C41E6F
:100B0000232E74213E852326B41F232E941F2320D9
:100B10008421232A441F232C341F2EC632C402975B
:100B200083A784069306842336858297B7C700007F
:100B300003A7C7B993070000232EF422B7C700000C
:100B400083A707BA03284900232CE4222320F42496
:100B50003EC0938601B83685232664252328542574
:100B600023224425232434252326A4273AC202988D
:100B700003A8840693068428368502982246B24547
:100B80002328C42803264900938601BD2324B428C2
:100B9000232E742B36852326B429232E9429232033
:100BA000842B232A4429232C3429029683A68406E5
:100BB000930B842D5E85829693070000232EF42CE0
:100BC000824712472326642F2320F42E83274900CF
:100BD000232CE42C2328542F2322442F2324342F86
:100BE0002326A4315E858297410125BAEFF2BF9298
:100BF0001307803EAA876352A702130585C1EF90B1
:100C0000E06FB7C7000003A607B383A647B3EF8022
:100C1000D029EFA0902A6FF05F921307803D130553
:100C20000000E34AF7FE138577C2D1BF9307800C1B
:100C300063F0A704EFF23F8E130585F3420541816F
:100C4000EF90C06BB7C7000003A687B383A6C7B3F6
:100C5000EF80B025B7C7000003A607B483A647B44A
:100C6000EF804026EF90C063420541816FF0FF8C1A
:100C700013056054828083A741E79387779093B7E9
:100C8000070193C717002386F194828003A7C1E769
:100C9000BD46130677909387819463E5C6000947A4
:100CA000D8B38280130727C2D14663E4E600054724
:100CB000C5BFA3820700828083A781E73D46938654
:100CC0007790138781946366D60085472324F73491
:100CD0008280938727C2D14663E4F6008947FDB737
:100CE0008D47EDB7EFF23F83938441E6C844138408
:100CF0008194ED3D2328A43203A541E6C53D232C74
:100D0000A432C840E535B70700803D8D232AA432C0
:100D10008844293F2312A434B93F8D3F713F6FF0BF
:100D2000DF81EFF24FFF37070020B707002083A7CE
:100D300047070326471BAA85138501A982976FF0F1
:100D4000CFFFEFF24FFDB70700200395C71BEFA0C1
:100D5000C072B7C7000083A547BAEF90103F9387D2
:100D60008194370700200327470783A5C7162A86E3
:100D70001385871902976FF04FFCEFF2CFF9370711
:100D80000020B707002083A747070326C71AAA85B4
:100D90001385019582976FF04FFAEFF2CFF7B707FF
:100DA00000200395871BEFA0406DB7C7000083A507
:100DB00047BAEF9090399387819437070020032733
:100DC0004707CC572A861385870502976FF0EFF601
:100DD000EFF26FF437070020B707002083A747071B
:100DE0000326071BAA851385019F82976FF0EFF4F6
:100DF000EFF26FF2B70700200395A71BEFA0E067A3
:100E0000B7C7000083A547BAEF9030349387819429
:100E1000370700200327470783A5C70C2A861385B9
:100E2000870F02976FF06FF1EFF26FEC9387819469
:100E300083A787340547138481946394E7120325BD
:100E4000843393050000EF90A079E13DDD3D03255B
:100E5000443393050000EF90A0789D3F513F0C4034
:100E600003250433EF90C077093F053F0355443411
:100E7000EFA0A0608329C4112A8BCE85EF90407625
:100E80000329C41B645C2A8ACA85EF906075A68515
:100E9000EFA0E016EFA00059931A050193DA0A01BA
:100EA000CA85528523145433EFA06015A685EF90B0
:100EB0002073EFA02057131A0501135A0A01CE859B
:100EC0005A8523154433EFA08013AA852A8B4A85BF
:100ED000EF900071A685EF90A070EFA0A054931939
:100EE000050193D90901CA85231634335A85EFA029
:100EF0000011A685EFA0A010EFA0C05242054181CD
:100F000085672317A432938707B463F8571F231408
:100F1000F4328567938707B463F8471F2315F432CB
:100F20008567938707B463F8371F2316F432856704
:100F3000938707B463F8A71E2317F432035584324E
:100F40008545EF40A0450355A4328945EF40004553
:100F50000355C4328D45EF40604491450355E4325A
:100F60002DA209476393E7160325843393050000F8
:100F7000EF9000677D33F133032544339305000080
:100F8000EF900066B135AD350C4003250433EF908A
:100F90002065E5331935035B44345A85EFA0E04DF5
:100FA0008329C411AA8BCE85EF9080630329C41BCB
:100FB000645C2A8ACA85EF90A062A685EFA020040F
:100FC000EFA04046931A050193DA0A01CA855285BB
:100FD00023145433EFA0A002A685EF906060EFA029
:100FE0006044131A0501135A0A01CE855E85231544
:100FF0004433EFA0C000AA85AA8B4A85EF90405EDB
:10100000A685EF90E05DEFA0E0419319050193D92B
:101010000901CA85231634335E85EF90507EA6857C
:10102000EF90F07DEFA000404205418185672317D6
:10103000A432938707B463FE57052314F4328567FF
:10104000938707B463FE47052315F43285679387BA
:1010500007B463FE37052316F4328567938707B418
:1010600063FEA7042317F43285455A85EF40003309
:10107000035544348945EF406032035544348D456F
:10108000EF40C031035544349145EF4020316FF0BB
:101090008FC99307F059E3E457FB9307005A71BFD8
:1010A0009307F059E3E447FB9307005A71BF930796
:1010B000F059E3E437FB9307005A71BF9307F059E7
:1010C000E3E4A7FA9307005A71BF0D47E391E7FCE9
:1010D0000325843393050000EF9080508325C433AB
:1010E000EF9000503D39B13903254433930500009A
:1010F000EF90004F83250434B9BB9307F059E3EA1E
:1011000057E19307005A21B59307F059E3EA47E105
:101110009307005A21B59307F059E3EA37E19307A3
:10112000005A21B59307F059E3EAA7E09307005A64
:1011300021B5938781941307101093060000DAA35A
:10114000054794C32383070023A4073223A607324D
:1011500023A8D73223AAD73223ACD732239207341D
:1011600023A4E73423A6E7348280EFF2CFBA854583
:101170001305005AEF40802289451305005AEF40BD
:10118000E0218D451305005AEF404021914513059C
:10119000005AEF40A0206FF04FBAEFF22FB6138441
:1011A0008194B70400207137130984149384840652
:1011B00093098419130A840A930A840F130B840079
:1011C000EFF05FB20327C4348947630BF7005C205C
:1011D0009DEF035544349307306A63F7A700A931A4
:1011E0002145EF501008E9BF8545EF40201B03550E
:1011F00044348945EF40801A035544348D45EF400F
:10120000E019035544349145EF404019D1BFB13F37
:101210009C444A8582979C444E8582979C44528583
:1012200082979C44568582979C445A8582979C4419
:101230001305840582976DB7EFF26FAB370400207A
:10124000930704220547D8A3B7C7000083AA87BA2B
:10125000B7C7000003ABC7BA1304042237CA0000A3
:1012600037CC00005C20D9EF93848180984085477B
:101270006313F70A13050ABBEF702011894723A0F7
:1012800004002326F4348144930C401F2685EFA0EC
:10129000C01ED685EF90702DDA85EF9060341389EB
:1012A00041802320A900EFA0E01742058545418138
:1012B000EF40401B03250900EFA0C01642058945F9
:1012C0004181EF40201A03250900EFA0A015420537
:1012D0008D454181EF40001903250900EFA08014DE
:1012E000420591454181EF40E0175C200547639836
:1012F000E7022326F43413054CBCEF700009854740
:101300002326F4345C2005476397E70023A4F1808B
:101310002326F434993D2945EF50A074A1B7054523
:101320008504EF500074E39394F7F1B7EFF2AF9EAA
:10133000B7070020B7C50000371500009387471195
:101340000D47814613060010938545BD1305458C56
:10135000EF50A012B7070020B7C5000037150000F6
:101360009387071111478146130600109385C5BD69
:1013700013058523EF506010B7070020B7C50000A4
:1013800037150000938787100147814613060060D8
:10139000938545BE1305A519EF50200EB707002011
:1013A000B7C50000370500009387C710094781467D
:1013B000130600409385C5BE1305656BEF50E00B27
:1013C000EF50202E6FF06F977300203001A0EFF2E6
:1013D0008F9441118545114502C202C402C6EF0037
:1013E00090538D477C8237150140C1473EC64C0063
:1013F0008D47130505803EC4EF00A07D41016FF0CD
:10140000CF93EFF24F910945EF005032992AEF50F8
:10141000B05437F5030013050580EF50105E130537
:10142000500DEF40803083A5C18037C50000130503
:1014300005BFEF605073B7C5000037C50000938546
:1014400005C0130585C0EF6010725137EF40E067AB
:101450001305800CEF50D05637C40000C13D130572
:1014600084C2EF609072E5BFB71702409843B70699
:10147000FFF041111367170098C3D84337060200E5
:10148000758FD8C39843B706F7FEFD16758F98C3BE
:101490009843B706FCFFFD16758F98C3D843B7066F
:1014A00001FFFD16758FD8C39843B70600ECFD16F3
:1014B000758F98C33707FF0098C723A6070202C499
:1014C00002C69843C166558F98C3B7160240056798
:1014D0009C42F18F3EC6A24785073EC4B24781E7D2
:1014E000A247E397E7FEB71702409C431397E70034
:1014F0006357070685473EC632478547631FF70493
:10150000B7170240D843B706C1FFFD16D8C3D8436A
:10151000D8C3D84313670740D8C3D843758FD8C3FF
:10152000D843B7061D00558FD8C39843B7060001AE
:10153000558F98C3984393166700E3DD06FED843A2
:10154000B7160240719BD8C3D84313672700D8C38E
:101550002147DC42B18BE39EE7FE4101828002C657
:1015600061BFB7160240D8421146318B9387C180C4
:101570006305C70021466308C70237177A001307BF
:10158000072098C337170240584311839376F7001A
:101590003707002013070700369714239843335763
:1015A000D70098C38280D842D442416649833D8B9C
:1015B000F18E1306270015CF3D47630FE602414722
:1015C000630FE602454781456313E6004146A1E209
:1015D0003747024003270780418B0DC737177A0032
:1015E000130707203306C70290C3C9DD984305835C
:1015F00049BF81454946E1BF85453546C9BF81455B
:101600003D46F1B737173D0013070790E1BF371587
:10161000024058559316F700585563DF06041183AE
:101620003D8B9306170037177A00130707203357AF
:10163000D70298C35455A182BD8A8DE295463307DF
:10164000D702058398C337170240585794433D8B00
:10165000050733D7E60298C3984369B705456394F5
:10166000A600E546E9BF3D456396A600D14633870F
:10167000E602C9BF8906E5BF3D8B93061700371701
:101680007A00130707203357D702F1B701A097F16B
:10169000FF1F9381A124177100201301A19617B594
:1016A00000001305657497F5FF1F9385A5951386B4
:1016B000018363FAC5008322050023A055001105AC
:1016C0009105E3EAC5FE17F5FF1F130525A497351D
:1016D00000209385E5236377B500232005001105DD
:1016E000E36DB5FEFD42739002BCFD4273904280F3
:1016F000B7820000938202807390023097F2FFFF5E
:101700009382829093E2320073905230EFF0DFD5F3
:1017100097020000938222CF73901234730020301E
:10172000EFE27FDFB727014093870740631EF50094
:10173000854513050020EF00D021814513050020C9
:10174000EF0030216FE07FDFB737014093870780DC
:10175000E31AF5FE854513050040EF00901F814513
:1017600013050040F1BF5C413707F1E01307F7EFC5
:10177000944D7D8F9C41D58FD44DD58FD441A206F9
:10178000D58FD98F5CC11C4537F7F1FF1307D77F81
:10179000D4457D8F9C49D58F94458606D58FD98FAA
:1017A0001CC55C55370710FF7D177D8FDC29FD17A1
:1017B00093F7F70FD207D98F5CD582801C4589C576
:1017C00093E717001CC58280F99BEDBF1C4589C5B6
:1017D00093E707101CC5828093F7F7EFE5BF1C4520
:1017E00093E787001CC5828008450D8105898280AA
:1017F0001C4593E747001CC582800845098105897F
:1018000082801C4591C537075000D98F1CC5828046
:101810003707B0FF7D17F98FD5BFA54763F7B7042A
:101820008D47138765FF3307F7020328C5009D47DF
:10183000B397E70093C7F7FFB3F70701B396E60046
:10184000DD8E54C5994763E3C70495477D1633067B
:10185000F6025859FD47B397C70093C7F7FFF98FB2
:101860003396C5005D8E50D982800D473387E502DF
:10187000032805019D47B397E70093C7F7FFB3F728
:101880000701B396E600DD8E14C96DBFB14763E270
:10189000C702954765163306F6021859FD47B397F8
:1018A000C70093C7F7FFF98F3396C5005D8E10D937
:1018B000828095474D163306F6025855FD47B3977B
:1018C000C70093C7F7FFF98FB395C500DD8D4CD5E1
:1018D00082805C4191C537070004D98F5CC182804A
:1018E000370700FC7D17F98FD5BFEFE2DFC201118A
:1018F0002A8423040100A5441C8463F9F40423040E
:101900000100A54621461C8463FDF606231501004F
:101910002304010095461C8463FFF60C38853C8542
:1019200099460D46B3F7D702056513050580B3D771
:10193000C7023357D702BA97C207C1837C853C855B
:1019400005611D8D420541856FE03FBF1C4493E753
:1019500087001CC42285493D75FD1C4493E7470060
:101960001CC42285593D75FD78441C8414108607DB
:10197000B6972396E7FE1C84850793F7F70F5C84E0
:10198000A5BFA30401009C846378F6001C8485072E
:1019900093F7F70F5C8485BF98849C840C1006072E
:1019A000850786072E97AE970357C7FE83D7C7FED6
:1019B00063FDE7029C848607AE9783D7C7FE7C85CC
:1019C0009C84988485078607AE9783D5C7FE9317B6
:1019D00017001810BA972396B7FE9C8438850C1010
:1019E00085078607AE972396E7FE9C84850793F7C5
:1019F000F70FDC8449BF1C841010388589078607DF
:101A0000B29783D7C7FEBA97C207C1837C851C846F
:101A1000850793F7F70F5C84FDBD1C41416779177B
:101A2000F98F1CC123200500232205002324050073
:101A3000B707024023260500138787006317E500D8
:101A4000D8431367F700D8C382801387C701631692
:101A5000E500D8431367070FFDB713870703631823
:101A6000E500D8438566938606F0558FE9BF138756
:101A700047046315E500D843BD66C5BF13878705D6
:101A80006316E500D843B7060F00C5B71387C7062E
:101A90006316E500D843B706F000C1BF13870708F7
:101AA0006316E500D843B706000FC1B71387874018
:101AB0006319E50003A747401367F70023A2E74037
:101AC00082801387C7416317E50003A74740136768
:101AD000070FEDB793870743631BF500B707024075
:101AE00003A747408566938606F0558FC1BFB707A9
:101AF0000240138747446316E50003A74740BD66CD
:101B0000EDB7138787456317E50003A74740B7067E
:101B10000F00E1BF1387C7466317E50003A74740DF
:101B2000B706F000D9B7138707486317E50003A786
:101B30004740B706000F55BF138707496319E500F3
:101B400003A7474D1367F70023AAE74C828013874A
:101B5000074A6317E50003A7474D1367070FEDB763
:101B60001387074B6319E50003A7474D85669386E6
:101B700006F0558FD1BF1387074CE319E5FC03A787
:101B8000474DBD66FDB71C4161773D0794517D8F80
:101B90009C45D58F9449D58FD449D58F944DD58FF9
:101BA000D44DD58FD451D58F9455D58FD98F1CC195
:101BB000DC455CC19C411CC5DC415CC582801C418C
:101BC00089C593E717001CC1828041677917F98F97
:101BD000DDBF9C4513F7070113F8F70001C7D84193
:101BE0003368E8008E2113F7F50F39C31841814699
:101BF000854E3D4F930F800293028004214E339611
:101C0000DE00B3F8C5006311160393982600331362
:101C10001F011343F3FF3377E300B318180133E7D1
:101C2000E800639FF70550C98506E39AC6FD18C111
:101C30001307F00F6375B70454412146854E3D4F9D
:101C4000930F800293028004414EB398CE0033F785
:101C500015016392E8021317260001173313EF00F2
:101C60001343F3FFB376D3003317E800D98E639D97
:101C7000F701232A15010506E319C6FD54C1828028
:101C8000E39457FA10C94DB7E39757FE232815017F
:101C9000DDB708456D8D3335A00082800CC9828088
:101CA00019C20CC982804CC98280B70701406357B2
:101CB0000504DC4F135705019376F7001316050151
:101CC0003707300041823378E500635C050463190F
:101CD000E802138706018D46B396E60093C6F6FF29
:101CE000F58F89C91357550112073317E600D98FAD
:101CF00063570504370701405CCF8280DC435DBF3A
:101D00001317B500635607000D47B316D700F9B790
:101D10001357550112073317E6001347F7FFF98FE2
:101D2000C9B76312E8023708014083264800370725
:101D300000F17D17F98F758F2322E800C5F537076D
:101D400001405CC382801317B500635C07000D4738
:101D50003317D7001347F7FF7D8FB707000FD98FD1
:101D6000F1BF1357550112073317E600E5B7EFE24D
:101D70008FFA79712A84462168082EC69D2C9257C5
:101D800037470F001307072433D7E702C204C18087
:101D900093F404FCC204C180B24561651305056A71
:101DA000131607014182D18C46A01620C206C182BB
:101DB000F99AC206C18216A094416369D5048606C9
:101DC000B3D7D7029146139707014183BA8763734C
:101DD000D700914705064206C2074182C18312B06F
:101DE0005EAC1E20DA21B62593E717001EA01E2048
:101DF000558FC207C18393F757BFD98F1EA09A256D
:101E0000DE25D98F1EA445616FE02FF3EA213166EC
:101E10007D16631DC5020D46B386C602B3D7D70231
:101E2000C207C1839396470199E293E71700A16621
:101E3000D58F9306C0123307D7029306803E3347EF
:101E4000D7020507420741831AB059BF6546B386DA
:101E5000C602B3D7D7029166C207C183D58FD9B75F
:101E60001E2189C593E717001EA18280C207C18386
:101E7000F99BC207C183CDBF1E2189C593E7071017
:101E80001EA18280C207C18393F7F7EFC207C18307
:101E9000C5BF1E2189C593E707201EA18280C20706
:101EA000C18393F7F7DFC207C183C5BF1E2189C570
:101EB00093E707401EA18280C207C18393F7F7BF53
:101EC000C207C183C5BF0EA982800A291375F50F09
:101ED000828093F7E50F19C293E71500C207C1830B
:101EE0001EA982805E290A2D42055D8D6D8D220519
:101EF00021810D8D133515008280411102C402C667
:101F000093D7C5012AC63EC4A247A205A18199CB99
:101F1000B247D1073EC6B247884341016D8D333584
:101F2000A0008280B247C181E107EDB7B70700206A
:101F300023ACA7108280B7070020938787119443B2
:101F4000182181E63C21920721A894430546639F0E
:101F5000C6023C21103192076314D60093E707F8BC
:101F6000B7E600E093F7F70FBA962380F640854670
:101F7000935757003397E6005441A5C2938707044F
:101F80008A07B7E600E0B69798C382808C438946FB
:101F90006391D50214313C216365D6008A06B69759
:101FA0005DB79386E6038A06B69793F7F70F920715
:101FB00075B790438D46631CD60014313C21636491
:101FC000D6008606E9BF9386C6078606F1BF94430E
:101FD0009147E39EF6F81C31BDB7938707064DB7CE
:101FE000B7160240DC4251777D17F98F5D8DC8C26C
:101FF0008280371702405C439146B18B6385D700DE
:10200000A1466382D706B7177A00938707201CC1C1
:10201000371602405C4237070020130707019183FF
:10202000BD8BBA9794231C41B3D7D7005CC15442EF
:10203000A1829D8ABA969422B3D6D70014C5544281
:10204000AD829D8A36971823B3D7E7005CC5584206
:102050003983937637001387018136971823B3D7D6
:10206000E7021CC982805C4354434167C983F98EEF
:1020700037F7FF1F0327C770BD8B8907131617019A
:1020800063480600454601476392C702C94739A81D
:1020900009476389E7023D476388E7024147638850
:1020A000E702454601476393C700C14785E6B74647
:1020B000024083A60680C18A8DC6B7167A00938631
:1020C000062025A00147D9B70547B547C5B7014741
:1020D000BD47E9BFB7160240D4421396E600E35E5F
:1020E00006FCB7163D0093860690B387D7021CC145
:1020F00005D31C41858321BF99C5371702405C4B2E
:102100005D8D48CB8280B7170240D84B1345F5FF51
:10211000798DC8CB828099C5371702401C4F5D8DE1
:1021200008CF8280B7170240984F1345F5FF798D8D
:1021300088CF828099C5371702405C4F5D8D48CFAC
:102140008280B7170240D84F1345F5FF798DC8CF6D
:10215000828099C5371702405C475D8D48C78280F1
:10216000B7170240D8471345F5FF798DC8C782805D
:102170001E2137370140930607C0C207C1836300A1
:10218000D504B7060040630CD50293860640630869
:10219000D502B7160040138606806302C5029386F7
:1021A00006C0630ED50013070740630AE5003757E2
:1021B0000140930607C06304D5006316E500BA2109
:1021C00093F7F7F8D98F37170040630CE500130732
:1021D00007406308E50093F7F7CFFA21C207C183F0
:1021E000D98F1EA1DE215EB59E211EB5B7370140F5
:1021F000138707C0630EE50093870740630AF50065
:10220000B7570140138707C06304E5006314F50066
:102210009C251EB985475EA982801E31922103D874
:102220002500C207C183F99BC207C1831EB11E31BD
:1022300056211A2DC207C183420741831377C7F87D
:10224000518F9225F59BC20633660601D18F373632
:102250000140130806C0C182630E05011306064043
:10226000630AC50037560140130806C06304050120
:102270006310C502B225DD9B03D8E500D18FD221C2
:10228000ED9B93F6F6CFD18FD22533660601D18E22
:1022900056A11AADFA215AB91EB182801E31657756
:1022A0001307F7CFC207C183BD9BC207C1831EB10D
:1022B0001E31562103D88500C20713960601162D3C
:1022C000C18393F7F7FD758F96214182A206558F42
:1022D000B62142074183B3E606019206D58FB73691
:1022E0000140C207138806C0C183630E05019386AF
:1022F0000640630AD500B7560140138806C0630440
:102300000501631ED502B62593F7F7F703D8C5007C
:102310009206D58FD621C207C183920693F7F7FBA9
:10232000D58FFD769386F63FF18EF225C207C183E5
:10233000336606010A06D18E13960601418252A128
:102340001AADFA211ABD1EB182801E3103D8850054
:10235000C207C18393F7F7EFC207C1831EB11E31D5
:1023600056215A2DC2071396060142079621418332
:102370001377C7F8558FB621C18393F7F7DFB3E61C
:102380000601A206D58FB7360140C207138806C0E2
:102390004182C183630E050193860640630AD5001E
:1023A000B7560140138806C063040501631FD502B8
:1023B000FD769386F67FF58FB62503D8C500A20675
:1023C000D58FD621C207C183A20693F7F7BFD58F59
:1023D000F576FD16F18EF225C207C183336606013C
:1023E0001206D18E13960601418252A15AADFA21EE
:1023F0005ABD1EB182801A31FD77FD17F98F1EB1CB
:102400000358050256215E2D657713960601962125
:102410001307F7CF7D8FF977A206FD17558FB3F716
:102420000701B62103D8850042074182B3E60601C1
:10243000B206D58FB7360140C207138806C0418364
:10244000C183630E050193860640630AD500B75623
:102450000140138806C063040501631BD500F176B3
:10246000FD16F18ED2251A06D18E139606014182F1
:1024700052A15AADFA212310E5041EB182801E211B
:1024800089C593E717001EA18280C207C183F99B0B
:10249000C207C183CDBF8357450491C52167D98F3A
:1024A0002312F5048280C607C583DDBF1E2189C5BE
:1024B00093E707081EA18280C207C18393F7F7F74D
:1024C000C207C183C5BF1E2DC207C183DD9BDD8D41
:1024D0000EAD82801A2DFD779387F77FF98FA205C5
:1024E000CD8FC207C1831EAD82805E2DC207C1831E
:1024F000DD9BDD8D4EAD82805A2DFD779387F77F72
:10250000F98FA205CD8FC207C1835EAD82804EB91F
:1025100082800EBD82804EBD82802310B5048280F1
:102520004A3982800A3D82804A3D828003550504F3
:10253000828093C5F5FFC205C1810EA98280EFD2CA
:102540009FFD1629F577FD17F58FF621DA257971AC
:10255000D58F1EA95625FD779387379FF58FD621F6
:102560002A842EC6D58F9625D58FB625D58F5EA504
:102570005E29C207C18393F7F7CFD98F5EA9680898
:10258000EFF03FA7B747014093870780B245631A32
:10259000F404A25756246547B387E702C206C186F2
:1025A000984163D20604060752244206B3D7E702D5
:1025B000130740064186B3D6E702B3F7E702920657
:1025C000635506028E0793872703B3D7E70213F7F5
:1025D0007700B367D700C207C1831EA445616FD0DF
:1025E000DFF5925745BF0A07C1B7920793872703C4
:1025F000B3D7E702BD8BD58FF9BF91C55E250967BB
:10260000D98F5EA582805A25F977FD17F98FD5BF3E
:1026100013F7F50F85471583B395B7006319F700D6
:102620009307C500984301CED98D8CC3828089461B
:1026300093074501E318D7FE93070501E5B793C556
:10264000F5FFF98DDDB793F5F51F4EA182804A2184
:102650001375F51F82800A216D8D3335A0008280AD
:1026600093C5F5FFC205C1810EA1828013F7F50F56
:1026700085461583B397B6006311D7025A25F98FA3
:102680001A2101454207418381CB0545A181B3153C
:10269000B5006D8F3335E000828089466314D70022
:1026A0001A29F1BF5A29E1BFEFD25FE537040020B4
:1026B00041119304C402854798407C82DC40AA897A
:1026C0002E8988232C2B5400328A0946EF20E027DC
:1026D0001305800CEF40D02E9840DC40230201000F
:1026E0006C37882354000546EF2020269840DC40B4
:1026F00054004C33882305461304C402EF20E02421
:102700009840DC4054002C2B88230546EF20E02322
:102710009840DC4054006C3B88230546EF20E022C3
:102720009840DC4054004C2388230546EF20E021EC
:10273000B1475C829840DC4054004C238823054616
:10274000EF20A0203D45EF40B0279C549840540016
:102750009C3705465C82DC402C238823EF20E01E5A
:102760009C54984054009C2705465C82DC400C3306
:102770008823EF20801D1C54BC2763040A0093E7C4
:10278000070E5C8218405C4054006C238823054689
:10279000EF20A01BE14763060A001C54BC3793E7F7
:1027A000070E5C8218405C4054006C338823054659
:1027B000EF20A01963060A001305800CEF4050209B
:1027C000930700045C8218405C4054004C2388232B
:1027D00005468144EF206017930780075C8218400C
:1027E0005C4054004C3388230546EF200016130547
:1027F0002003EF40F01C18405C40230201004C33E2
:10280000882354000546EF2040145C4018405400D3
:1028100088232C270946EF204033034A41009C823D
:1028200023A40900220A336AFA00B147335AFA0294
:1028300023A2090023A00900232409002322090060
:1028400023200900137AFA0F6391441503A50900A8
:102850001306300881469357F541C2079355050189
:10286000DD8D4205EF50103726868146EF509036B9
:1028700023A0A90003A549001306300881469357F9
:10288000F541C20793550501DD8D4205EF509034A7
:1028900026868146EF50103423A2A90003A58900A3
:1028A0001306300881469357F541C2079355050139
:1028B000DD8D4205EF50103226868146EF50903173
:1028C00023A4A90003250900268681469355F541D6
:1028D00093570501139705015D8F9355F741420505
:1028E00093F5F57FB387A500B3B5B700BA95AD836F
:1028F000139555015D8DAD85EF50D02D2320A90096
:1029000003254900268681469355F54193570501D5
:10291000139705015D8F9355F741420593F5F57FB8
:10292000B387A500B3B5B700BA95AD83139555012C
:102930005D8DAD85EF50102A2322A9000325890063
:10294000268681469355F541935705011397050156
:102950005D8F9355F741420593F5F57FB387A50049
:10296000B3B5B700BA95AD83139555015D8DAD85AF
:10297000EF505026C1776343A000C1673E952324E2
:10298000A900014541016FD0BFBA18405C40540016
:102990002C37882331468504EF20201B18839C8325
:1029A000948422075D8F1C8490824207A207D58FF2
:1029B00014824187C207A206D18E03260900C206EF
:1029C000C186B2962320D90083264900C18790850D
:1029D00036972322E90003278900948793F4F40FA4
:1029E000BA9718862324F9009C8622075D8F1C87DE
:1029F00042074187A207D58F1485C207C187A20667
:102A0000D18E03A60900C206C186B29623A0D900C2
:102A100083A64900369723A2E90003A78900BA9745
:102A200023A4F90015B5EFD21FAF37040020930798
:102A3000C40283C7470241111304C40285C711C1F0
:102A40000945C8875C4018409306F10088236C371D
:102A50000546EF10906F9C871CB881473E85410169
:102A60006FD0BFAD3824FD5775DB19C518388147C5
:102A700075F78547DC87F9B7A3070100E1B7EFD207
:102A80009FA9370400209307C402BC2741117D553C
:102A9000C5CF1304C40218405C40A30701006C3783
:102AA00088239306F1000546EF10306A18405C4019
:102AB0009306F1004C3388230546EF1010695C4003
:102AC00018409306F10088234C230546EF10F06769
:102AD00083474402ADCFB147DC8718405C40930682
:102AE000F1004C2388230546EF10306613052003C0
:102AF000EF40006D930700FCDC873C24858B99C375
:102B00008157DC875C4018409306F10088234C23F2
:102B10000546EF1090631C3891C38947DC87184045
:102B20005C409306F1006C3788230546EF10F06196
:102B300018405C40A30701009306F10088234C3342
:102B40000546EF109060014541016FD01F9F9147EE
:102B5000DC8718405C409306F1004C23882305462F
:102B6000EF10B05E3C281307000491E73C24858BEE
:102B700099C3130700065C40D88718408823930642
:102B8000F1004C230546EF10505C13052003EF4085
:102B900020631C3818409306F100B337F000DC873F
:102BA0005C406C3705468823EF10305A18405C4073
:102BB0009306040161B7B707002083C747030547A1
:102BC0006381E70291CB09476380E7020D47638089
:102BD000E7022310050021A09307A00F1EA10145C5
:102BE00082809307401FDDBF9307803EC5BF9307D8
:102BF000007DEDB7EFD23F92370400209307C40267
:102C0000BC27411189CF9307401F1304C402630CF2
:102C1000F50463E8A7009307A00F630EF5007D5548
:102C200081A09307803E6303F5049307007DE318BA
:102C3000F5FEE14715A8A30701009C87182401456C
:102C40008D83630FF7005C4018409306F1008823E2
:102C50006C230546EF10704F9C8701458D831CA4A3
:102C600041016FD09F8DA147DC87C1BFC147EDBF38
:102C7000370700209306C70294360546AA87130734
:102C8000C7026384C60289CA09466382C6020D462A
:102C90006381C6027D558280894694A3383B0145F5
:102CA00001C79823060798A382809146FDB7A146E5
:102CB000EDB7C146DDB7EFD21F863704002093077A
:102CC000C402BC27411199CB91471304C402630984
:102CD000F50463E7A7008947630CF5007D5535A827
:102CE000A1476302F504C147E31AF5FEE14715A8C1
:102CF000A30701009C87183401458D83630FF700FB
:102D00005C4018409306F10088236C330546EF10B1
:102D1000D0439C8701458D831CB441016FD0FF8156
:102D2000A147DC87C1BFC147EDBFB707002083C7FC
:102D300077031547FD1793F7F70F636AF7023167BB
:102D40008A07130707C4BA979C4382879307C00B6F
:102D50001EA10145828093072006DDBF9307A002D4
:102D6000C5BFD147F5B7A947E5B79547D5B72310F4
:102D70000500C5B7EFD22FFA370400209307C4022D
:102D8000BC274111ADC79307B00B1304C40263F80D
:102D9000A7028547DC8738349C870145630EF7001E
:102DA0005C4018409306F10088232C230546EF1061
:102DB000D0399C8701453CB441016FD00FF893078F
:102DC000100663F4A7008947F1B79307900263F4F4
:102DD000A7008D47C1B7CD4763F4A70091475DBFFA
:102DE000A54763F4A700954775B7994765B77D5523
:102DF000E1B7B70700209387C70203C7470209E777
:102E0000FE271EA1014582807D558280B7070020E4
:102E100083C7470305476382E70289CB094763837A
:102E2000E7020D476385E7027D558280B7C7000042
:102E300083A7C7C81CC101458280B7C7000083A70C
:102E400007C9CDBFB7C7000083A747C9E5B7B7C754
:102E5000000083A787C9F9BF370700209306C70280
:102E600094360546AA871307C7026384C60289CA37
:102E700009466384C6020D466383C6027D5582807F
:102E8000916696A3383B014501C79A2305839AA30F
:102E9000828089669386C6F9EDB78566DDB785665B
:102EA00093860680F9BFEFD26FE537040020130444
:102EB000C402834744020149A1E33C247D598DCFDC
:102EC0009374E50FE58F834904011CA8858FB33700
:102ED000F0003309F0405C28C58F81CF0545EFF045
:102EE0009FB499C8EFF0BFB901C9230834017D59D7
:102EF00021A00145EFF03FB34A856FD06FE3EFD2D9
:102F0000EFDFB70900209384C90283C7440241114F
:102F10009DC7B824FD5731CBDC409840AE8A2A8942
:102F20002C278823328A74000946EF1010421C8631
:102F30008086A2075D8C6376240123000A00FD577A
:102F40002DA0D8409389C9023E23858363F387026D
:102F50009C40082374008C3B0546EF10103F1C86F4
:102F6000C18B81CBEFF0BFB1F9573E8541016FD0E6
:102F70002FDC83A7490003A70900D68688232C37B6
:102F80001376F90FEF10703C3354240381477D14FE
:102F900023008A00D9BFEFD20FD83704002093074F
:102FA000C402BC2B41116389A70A1304C4025C400C
:102FB000AA849306F10088231C400546CC23B9C09F
:102FC000EF10B0389C8718409306F10093F7F7FD97
:102FD000DC875C404C2305468823EF1010170D4515
:102FE000EF40001E8947DC878347240281C793078F
:102FF00020F8DC8783473402B1C79C8793E7070337
:10300000DC8789A0EF1070343C249487858B13F7FC
:10301000F60D99C313E706025C40D8871840882351
:103020009306F1004C230546EF1030120D45EF409A
:1030300020198347240299C39307000803473402E9
:10304000DC874DFF18405C409306F1004C2B882331
:103050000546EF10900F24A8014541016FD0EFCD38
:10306000EFD26FCB370400209307C40283C7370227
:1030700041116381A7041304C402814719C1930756
:1030800000033828DC8701C793E72700DC878347E4
:10309000240289C79C8793E707F8DC8718405C40C7
:1030A000AA844C2B88239306F1000546EF10F00903
:1030B000A3019402014541016FD02FC893078002FC
:1030C00063E1A70AEFD22FC5370400204111AA847B
:1030D0001304C4021DE16937930700707C86184011
:1030E0005C4074002C2B88230946EF101006230A3D
:1030F0000400014541016FD04FC405459537930742
:1031000000025C868547639EF402A3060100154514
:10311000EFF05FC69C86184074009A0793E777002B
:10312000DC865C402C2B09468823EF101002A14757
:103130003CA401458547230604005CA8EFF0BFD6F8
:103140004DBF154763649700DC86D1B7D14763E66E
:1031500097008947DC86294565BF8D47DC86514548
:1031600045BF7D558280EFD20FBB37040020930707
:10317000C402B827411159C303C74702AA847D5529
:103180000DE3DC2B1304C40295C39387F4FFC2073D
:10319000C183130770026369F70013F5F40F393F19
:1031A000014541016FD06FB90145093F1307803ECA
:1031B000A687637497009307803E139707014183A6
:1031C00091466373D7009147C2079304803EC18341
:1031D000B3C7F40218409306F10005460C33FD17FF
:1031E000DC875C408823EF1040768887050533C56F
:1031F000A4026AA40581EFF0FFB75DB77D5555B70E
:10320000EFD26FB19377050741112A8481C78547B3
:10321000DC8721A049CDA3070100B7040020138952
:10322000C40283274900032709009306F10088237D
:103230002C2B05469384C402EF1020719C8793F7D2
:10324000F7FB2306F90093770404ADC7A307010039
:103250009377040289E79C8793E72700DC879377BD
:10326000040189E79C8793E71700DC879377840044
:1032700089E79C8793E78703DC87DC4098409306C7
:10328000F10088232C3B0546EF10206C9377740FD8
:1032900081C70145EFF0DFDC13052003A0A4238ADA
:1032A0000400EF30F071014541016FD00FA9930781
:1032B0000004B9BF9147DC8761BFEFD2CFA53704C7
:1032C000002041119304C402930700F898405C84E5
:1032D000DC402C2B3400882305461304C402EF1075
:1032E000C06613054006EF30B06D9840DC40230403
:1032F00001002C2B882334000546EF100065984010
:10330000DC4034006C2B88231946EF1010049C8697
:1033100098858A070607098B918BD98F9884058B2E
:10332000D98FC1CB054793F5F70F6394E7003CB8FD
:1033300031A089476394F506A3090400FD577EA4D4
:103340001CA83CA8FD571CC4231A0400854731461D
:103350008145130564015CA4EFD0EF9E85473EB024
:10336000232204021305007DEFF0DF8815ED0945E7
:10337000EFF07F9415E91305A002EFF0BF9F0DE574
:1033800013052003EFF03FDE05E1EFF0DFB109EDBB
:10339000EFF07FC02A8409E9A53501A837C50000F0
:1033A0001305C5C9EF40307C7D54228541016FD0A3
:1033B000CF98DC409840340088232C330546EF102A
:1033C000C0781C84BD8B81EB37C50000130545CC4C
:1033D000EF40B07BD1BF1147E390E7F637C500005F
:1033E000130505D1EF40707A854791B719E67D55F1
:1033F00082807D5541016FD04F94EFD2CF91370439
:1034000000201304C4023C244111E5D71357850062
:1034100093178500D98F7C865C401375F50F2E9528
:10342000BA27E348A7FC18408823AE840C2F3289C2
:1034300074000946EF10605118405C40CA864C3B4E
:10344000882313F6F40FEF104050014565B719E6D5
:103450007D5582807D5541016FD02F8EEFD2AF8B8D
:10346000370400201304C4023C244111E5D713574C
:10347000850093178500D98F7C865C401375F50F06
:103480002E95BA27E348A7FC18408823AE840C2F5A
:10349000328974000946EF10404B18405C40CA86E0
:1034A0004C3B882313F6F40FEF10206A014565B7F3
:1034B000EFD2EF83B70400209387C40283C757027B
:1034C000011189C77D5505616FD0EF85E5DDC16BC1
:1034D0009384C402368B32892E8AAA890144C14C56
:1034E000FD1B6369340313168900DC4098401359AF
:1034F0008900336926012316210188232C2F7400AB
:103500000946EF1080448547A382F40223936403A5
:10351000014555BFB38A894063D35C01C14A139CFE
:103520000A01135C0C01330D8A006A86E28522854C
:10353000753D49F91008E2852285113F41F533F6C2
:103540007A010C086A85EF80403509E562944204EF
:10355000418041BF795585BFEFC2FFFB3704002092
:103560001304C4020347440241116303A70429C59D
:10357000834754027D5595CF0145EFF0CFCA0145F1
:10358000EFF07FA16A30EFF01FBE5C40A30701009F
:103590009306F1008823054693053002EF10E03AC8
:1035A000854705452302F402EFF0EFC7EFF02FCD7A
:1035B000014541016FC07FF8EFF0EFC61C2893066C
:1035C000F1000546DC875C40930530028823EF104C
:1035D000C03723020402D9BFEFC2FFF03704002036
:1035E0009307C40283CA470259712A8BAE8B130416
:1035F000C40263850A0001458537854A1305E10346
:10360000EFF06FDB1305D103EFF08FE61305210414
:10361000EFF0AFF18800EFF0CFFD1C280146DE850A
:103620005A85834DA4003EC4EFF00F88631B051E2E
:103630000546AC08E800EFF02F87631205245C40D4
:10364000B40011468823B545130A4106EF10E04F38
:103650008346B104034781049309410493D746404C
:103660000D878D8B718B5D8F2302E10403479104DD
:1036700093D726408D8B0D87718B5D8F8347A10477
:103680008D8AA302E1048D87F18BD58F2303F1048A
:1036900037C70000B7C7000003AD47D3032787D360
:1036A000930C0107D284528C03C909006310091ED0
:1036B000930700009CC091048509E3979CFEB7C75F
:1036C00000003EC6B7C7000083A747D4A4088149BD
:1036D0003EC8B7C7000083A787D40149854C3ECABE
:1036E000B7C7000083A787B83ECCB707008093C751
:1036F000F7FF3ECEB7C7000083A707D43ED093178D
:103700002900DE9788409C43898F13D5F741A98F04
:103710003385A740EF707056B7C7000083A5C7D3A5
:10372000EF70A06403270A002A8D930500003A85F4
:103730003AD2EF70A04C630D051612576A85BA8510
:10374000EF70A020E245EF70900BF24782557D8D1F
:10375000EF7080506356A000B3972C01B3E9F900D5
:1037600005098D479104110AE31BF9F893F7F90F46
:103770003E8D5C40E2860D468823B5459309C10421
:10378000EF10A03C83476106035741068966FD8B15
:103790002303F106B2479386F6F1758F83A7C7D34B
:1037A0002312E10681443EC6B7C7000083A747D570
:1037B0000149054A3EC8B7C7000083A787D53ECA5E
:1037C000B7C7000083A707D33ECCB7C7000083A7C5
:1037D000C7D43ECEB7C7000083A787B83ED0B7078F
:1037E000008093C7F7FF3ED2B7C7000083AC07D570
:1037F00093172900DA9703A509009C43898F13D5F5
:10380000F741A98F3385A740EF703047B245EF707D
:10381000C05533072C011C23AA8B63800710624517
:1038200045A80146DE855A85EFE01FE8E30205E082
:103830008144FD570355E1037EA41CA8FD571CC419
:1038400085475CA4EFF00FBB0345D103EFF0AFC693
:1038500003552104EFF00FD203550104EFF0BF90A0
:103860006E85EFF0FF992245EFF0EFE363850A00E4
:103870000545EFF07FCE268565616FC09FCA05467E
:10388000AC08E800EFE05FE245F555BB23A0A401DA
:103890007D191379F90F631509002380090021BDF3
:1038A0008840BA853AC6EF70404C88C03247CDB7E1
:1038B000C2456A85EF70A042E34005EAD2456A85B9
:1038C00041BDF2453AD63ED4EF70204AA257325756
:1038D000FD1793F7F70FF5F7AA85230007005E851C
:1038E000EF70A0068255EF7080719257E6857D8D4E
:1038F000EF7080366355A000B3172A01DD8C0509EF
:103900008D479109E316F9EE93F4F40F93B4140084
:10391000E3110DF293E4240029BFC245EF70203C6F
:10392000E34C05FCD2455E85E1B78280EFC2BFBEA5
:1039300001114C082800EFF03FCA0D478547631777
:10394000E5064800EFF08FCC22451244EF70F032CC
:10395000A285EF708041EF70D0262AC43245EF7007
:10396000D031A285EF706040EF70B0252AC6424585
:10397000EF70B030A285EF70403FEF7090242AC8FE
:1039800028002D2913052100EFF00FCD3881D247F3
:103990004808B387E7023ECAE247B387E7023ECC56
:1039A000F247B387E7023ECE312381473E8505616A
:1039B0006FC0BFB80307050081476343E00291472A
:1039C00005E3030715008547634CE000954709EBC5
:1039D0000307250089476345E000933717009907DF
:1039E0003E858280EFC23FB3AA84E9372A891385D6
:1039F0003400C9372A84138564006D3F931734005F
:103A00001A055D8D33652501420541816FC0FFB206
:103A1000EFC27FB0EFF07F8A294441E913058007A8
:103A2000EFF00FFE1375F50F054441E11305800714
:103A3000EFF06FC71375F50F094425E9130520034F
:103A4000EFF06FF21375F50F0D4425E1992C137506
:103A5000F50F114439E93705002013050502EFF091
:103A60007FF885241375F50F154421E113053017F0
:103A7000EF0090101375F50F194405E913052003A5
:103A8000052B1375F50F1D440DE1EFF03FEA2144BE
:103A900009ED0545EFF05FAC1374F50F11E837C57C
:103AA0000000130585C7EF40500E22856FC0FFA8A8
:103AB0002544E5BFEFC2BFA37971AA8B2E8BB28AD2
:103AC000930791001307A100740010102C08080838
:103AD000EF00F027631C05183C85094593F7071094
:103AE000638307180255B7C90000EF70101983A54A
:103AF00049C6EF7080272A891255EF70101883A5E8
:103B000049C6EF708026AA842255EF70101783A54E
:103B100049C6EF7080252A843255EF70101683A5B0
:103B200049C6EF708024B7C7000083A587C6AA895D
:103B30002685EF708023AA8CCA854A85EF60502ABB
:103B40002A8CCE856685EF7040222A8AA2856285FE
:103B5000EF70A021AA855285EF609028EF30607346
:103B6000EF70F02A37CA000003260AC783264AC727
:103B7000EF50B033EF70703423A0AB00A2852285E4
:103B8000EF601026AA8BA6856685EF70001EAA8CB2
:103B9000A2855E85EF70601DAA856685EF70204660
:103BA000B7C7000083A587B8EF609023AA8CCE85A5
:103BB0005E85EF70801BAA8BA6856285EF70E01A88
:103BC000AA855E85EF60D021E685EF306078EF70E2
:103BD000102403260AC783264AC7EF50102DEF7022
:103BE000D02D2320AB00CA854A85EF7000182A8BA0
:103BF000A6852685EF706017AA855A85EF60501E4E
:103C00002A8BA2852285EF704016AA855A85EF700F
:103C1000003F2A8BCE854E85EF702015AA855A85E8
:103C2000EF70E03DA2852A8B2685EF7000142A8470
:103C3000CE854A85EF706013AA852285EF60501A01
:103C4000AA85EF60F019DA85EF308070EF70301CD4
:103C500003260AC783264AC7EF503025EF70F025A8
:103C600023A0AA00014545616FC0FF8B0545E5BF54
:103C7000EFC27F8AB7B7B38D4111938787AB3EC23E
:103C8000B7A70D359387478B3EC450009307D005E7
:103C9000A5451305804B5C86EFF04FF541016FC0E1
:103CA000DF89EFC25F87B16505659306800C130657
:103CB0000040938505DA130565BFEFF06FFF6FC015
:103CC000DF87EFC25F85F57741111387C7D49387EC
:103CD000C7907C869307C00278845C871307C00670
:103CE000937635001C085885BE9683C786FF135708
:103CF00035000D8B5C801C083E97834787FF1008BA
:103D000083C6C6FFDC80935765008D8BB29703C6D0
:103D100087FF0347C7FF83C7C7FF2A8450818D45AC
:103D20000A86130560425482D8825C83EFF00FEC60
:103D300009C57D5541016FC05F8050008D45130559
:103D4000A042EFF0AFEA75F59567938767637C80D3
:103D5000930760075C819167938767627C82930712
:103D600060065C839377440099C7930770035C8077
:103D7000930770025C829377040299C793077005DA
:103D8000DC8093077004DC829377041099C7930753
:103D900070075C81930770065C830A868D45130566
:103DA0000044EFF0AFE451F550008D45130510438A
:103DB000EFF0CFE33DFD239081CAADBFEFC2AFF579
:103DC00083D701CA411113F737000A072A970C431A
:103DD00013F7470019C3B305B04013D71700318B51
:103DE0002A97104313F7070219C33306C04013D7AD
:103DF0004700318B3A9593F70710184199C3330761
:103E0000E040B7E6CA0293869630B387D502130521
:103E1000003DB395D502F9833304D7028A05CD8FCF
:103E200091453317D7027980B304D6020A07598C1B
:103E300013D78741588613D70741D8861397870031
:103E4000C207C1833316D602F980A183D98F7C873C
:103E50000A06D18C7000EFF06FD909C57D5541017C
:103E60006FC0AFED93D784415C8693D70441DC8665
:103E700093978400C204C180A180DD8C70009145BD
:103E80001305403D6487EFF06FD669F9935784417D
:103E90005C8693570441DC8693178400420441807A
:103EA00021805D8C700091451305803D6087EFF0A7
:103EB000EFD375B7EFC22FE641112A841305210015
:103EC000EFE09FF983D701CA308113F737000A0763
:103ED000229793F647003E06184399C23307E04005
:103EE00093D61700B18AA2968C4293F6070299C224
:103EF000B305B04093D64700B18A369493F70710C4
:103F0000084099C33305A0409357F741B306C70251
:103F1000B387C702F9823337C702BA978A07DD8EA3
:103F200093D7F5413387C502B387C7027983B3B509
:103F3000C502AE978A079355F5415D8FB385C502DB
:103F4000B307C5023336C502F983130540292E96FF
:103F50000A06D18F13D68641508213D60641D082ED
:103F600013968600C206C182A182D18E74839356B5
:103F70008741548493560741D4849316870042079F
:103F800041832183558F788513D78741588613D76E
:103F90000741D88613978700C207C183A183D98FB1
:103FA0005000B1457C87EFF06FC441016FC0EFD87E
:103FB000EFC26FD60111B1652A843146938505970A
:103FC0004808EF70D00F9307800C63F687007D558B
:103FD00005616FC08FD6B3C787027000894513058E
:103FE000602123060100FD17DC86EFF02FC065F18C
:103FF00005655008B145130515ACEFF02FBF61F909
:10400000239281CAF1B79377750099E37D55828039
:1040100093070064E3ECB7FEEFC2EFCF41112A84AF
:104020002E85EF70E051B7D7000083A58799EF6028
:10403000D011AA841305B100EFE09FC39C851147FE
:104040006383E70E6369F7000947638EE7027D55D6
:1040500041016FC08FCE21476389E70E4147E39846
:10406000E7FEB7D7000083A5479B2685EF60F04F9A
:10407000EF70403B13190501B7D700001359090130
:1040800083A5879B15A0B7D7000083A5C799268570
:10409000EF60B04DEF700039B7D7000083A5079AE5
:1040A00013190501135909012685EF60104CEF70B3
:1040B000603742059317890041811359890033E91C
:1040C00027019317850021815D8D231621016887C3
:1040D00093771400C9EF9377240085C37000894556
:1040E0001305801DEFF08FB03DF11306E100894507
:1040F00013058012EFF08FAF39F91188014529D8E7
:10410000700089451305C01DEFF04FAE29F113066D
:10411000E10089451305C012EFF04FAD3335A00023
:104120003305A04035B7B7D7000083A5479A268549
:10413000EF60B043EF70002F13190501B7D70000EF
:104140001359090183A5879A85B7B7D7000083A5BE
:10415000C79A2685EF607041EF70C02C13190501D6
:10416000B7D700001359090183A5079B35BF70001D
:1041700089451305401DEFF06FA7E31A05EC130600
:10418000E100894513054012EFF04FA629D5C1B5CE
:10419000EFC26FB893771500411195EBA3070100AB
:1041A0009377250089C79C8793E7C700DC8711892F
:1041B00009C59C8793E73700DC871306F100854526
:1041C00013058014EFF08FA241016FC00FB7930762
:1041D0000003DC87F1B7EFC20FB44111854719C561
:1041E00011479377F50F6373A7009147FD171306E7
:1041F000F10085451305F014DC87EFF02F9F410196
:104200006FC0AFB3EFC22FB195473355F5024111DF
:10421000700089459317850021815D8D688613059F
:10422000E01DEFF0AF9C41016FC02FB1EFC2AFAE08
:1042300095473355F5024111700089459317850064
:1042400021815D8D68861305A01DEFF02F9A410135
:104250006FC0AFAEEFC22FAC9307803E3345F5027F
:1042600041117000B305B5021305C01593D7854100
:104270005C8693D70541DC8693978500C205C18192
:10428000A181DD8D6C879145EFF04F9641016FC0A4
:10429000CFAAEFC24FA895473355F50241117000E0
:1042A00089459317850021815D8D68861305A015CA
:1042B000EFF0CF9341016FC04FA8EFC2CFA5954754
:1042C0003355F5024111700089459317850021810E
:1042D0005D8D688613058015EFF04F9141016FC029
:1042E000CFA5EFC24FA3411111C5EFF07F98410157
:1042F0006FC0AFA4B16525469385C5974800EF70A0
:10430000005C5000A5451305804BEFF02F8EC5B71C
:10431000EFC26FA0411115C1B7C7C4C69387072C60
:10432000056570009145130585A93EC6EFF00F8C19
:10433000EFE0EFF441016FC04FA0B7978B8B9387ED
:10434000B7B8F9BFEFC22F9D411115C1B73730384B
:10435000938707820565700091451305E5A93EC660
:10436000EFF0CF88EFE0AFF141016FC00F9DB7A72D
:10437000A3A39387373AF9BFEFC24F984111B7D73C
:10438000E309938727A02A845000914513058006EE
:104390003EC2EFF0AF85930730FA5C82137A0404D3
:1043A00063040A16930700FCDC82F1779387872C5D
:1043B0007C8313790418630E0914F577938747CC2F
:1043C0007C84930760FC5C85930730FADC85056587
:1043D000E9779387373A5000A945130575AA7C867B
:1043E00093793400EFF08F809307800D6384090088
:1043F00093070002056550008545130565AB5C8297
:10440000EFE0DFFE93770402638C0710EFF05F8626
:10441000630209029377041063880710B797B69B6D
:10442000938727BB056550009145130525AA3EC219
:10443000EFE0DFFB93771400638D070E0565E1570E
:10444000500085451305058B5C82EFE03FFA93052C
:10445000A00F1D45EFF03FBB1D45EFF07FD3054595
:10446000EFF07FD713054006EFF0DFD91305401FAB
:10447000EFF0DFDB37E5CA029305800C13059530BA
:10448000EFF05FDD13058002EFF0BFE02945EFF0AC
:10449000DFE293772400B337F0009387870D500055
:1044A00085451305D0735C82EFE05FF49377440099
:1044B000054591E30145EFF0BFE59377040105451C
:1044C00091E30145EFF01FE8938781C913678400EA
:1044D000BAA7EFE0CFDA938781C963170A0623876B
:1044E000070063050900F8271907F8A7518801C4D8
:1044F000F8274107F8A763850900F8271107F8A7EF
:10450000014541016FC0CF82DC82E9779387373A5A
:1045100045B5E9779387373A7C84930730FA65B5D8
:104520000145EFF01FDCEDB5B787B4909387070B1B
:10453000D5BD0565930780FD500085451305058BA6
:104540005C82EFE0BFEAB1B71947F8A759BFEFB2F5
:104550001FFA938B81C92A8903C5EB000111AE892B
:10456000328B231007003E868A85B6843A8AEFE0B4
:104570001F9945E503D7AB002A84938A81C99377B5
:104580004701638607181C8094809082E207C20668
:10459000D58F948142060C84D58F1481E2058886DC
:1045A000A206D58F14822320FB00C187E206D18E9C
:1045B0009083B387F7024205D18E10832206D18EF5
:1045C00090842322DB00C1864206D18D9085B3867C
:1045D000D602D18D10852206D18D10862324BB00F2
:1045E000C1856206498E8887BE96B387B502498E1B
:1045F00008872205498E2326CB0041863306C60252
:10460000B697B70600F1B297B697B706000263F8FF
:10461000F600EFE0CFC623100A007D54EDA08357CB
:104620000A0093E707102310FA00C14793760704A6
:10463000A1C61410BE9603C606FE83C516FE9907D2
:1046400022064D8E2390C90003C626FE83C536FE82
:1046500093F7F70F22064D8E2391C90003C646FE3D
:1046600083C656FE2206D18E2392D90083560A00B5
:1046700093E686002310DA0093760718A1C614107B
:10468000BE9603C606FE83C516FE990722064D8E0A
:104690002310C90003C626FE83C536FE93F7F70F25
:1046A00022064D8E2311C90003C646FE83C656FE60
:1046B0002206D18E2312D90083560A0093E60607FC
:1046C0002310DA000D8B0DCF3309F1008347190059
:1046D00083493900858B99CB83A70A0081CB93F559
:1046E000790013D5390085051D8982978347190004
:1046F000A18B99C783A74A0081C713D56900829708
:104700002685EFF08FA2228505616FB0DFE181473A
:1047100031BFEFB25FE041112A84EF00B001130511
:10472000C00EEF00D004EF00900B2285EF003004A4
:10473000EF00F00AEF0010001305D00EEF00300379
:10474000EF00F009EF00B0052AC6EF00B0003245D7
:1047500041016FB09FDEEFB21FDC41112EC62A84EB
:10476000EF00407D1305C00EEF007000EF00300732
:104770002285EF00C07FEF009006B2452E85EF0046
:10478000007FEF00D005EF00E07C41016FB0FFDA61
:10479000EFB27FD84C411C4196058A07DD8D1C4540
:1047A0001305400FDD8D93F5F50FEFF0DFFA6FB0D5
:1047B000DFD8EFB25FD60C415C4196058A07DD8DEC
:1047C0001C451305500FDD8D93F5F50FEFF0BFF885
:1047D0006FB0BFD6EFB23FD40111EF00E071130507
:1047E0008008EFF01FF3AA84130590081384418119
:1047F000EFF03FF21C40220526958AA31305A0087E
:10480000EFF03FF1AA841305B008EFF09FF01C40D1
:1048100022052695AAA31305C008EFF09FEFAA84EE
:104820001305D008EFF0FFEE1C4022052695CAA321
:104830001305E008EFF0FFEDAA841305F008EFF090
:104840005FED1C4022052695EAA313050009EFF051
:104850005FECAA8413051009EFF0BFEB1C402205A2
:1048600026958AA713052009EFF0BFEAAA8413054D
:104870003009EFF01FEA1C4022052695AAA7130570
:104880004009EFF01FE9AA8413055009EFF07FE813
:104890001C4022052695CAA713056009EFF07FE7A3
:1048A000AA8413057009EFF0DFE61C402205269567
:1048B000EAA713058009EFF0DFE5AA841305900944
:1048C000EFF03FE51C40220526958AAB1305A009B1
:1048D000EFF03FE4AA841305B009EFF09FE31C401A
:1048E00022052695AAAB1305C009EFF09FE2AA8422
:1048F0001305D009EFF0FFE11C4022052695CAAB55
:104900001305E009EFF0FFE0AA841305F009EFF0CA
:104910005FE01C40220526959305600BEAAB13056A
:10492000000EEFF05FE38D47054728003AC63EC40E
:104930003EC8EFF0FFE5914748083ECC02CA02CEE0
:10494000EFF03FE705616FB05FBFEFB23FBBB76409
:104950000040AA8A2E8A3289368493890480B7055A
:1049600002004E85EFD06FD97DF91385048085450F
:10497000B7040300B7690040EFD00FD08504138B54
:104980000980A6855A85EFD0EFD565DDD6851385DC
:1049900009800146B7040700B7690040EFD06FD324
:1049A00093842408938A0980A6855685EFD08FD3F7
:1049B00065DD13850980D285B7090700B76400401B
:1049C000EFD06FD09389490893840480CE852685E3
:1049D000EFD04FD165DDB7640040B70907002299D9
:1049E0009384048093894908631B890037650040DC
:1049F000854513050580EFD0CFC96FB07FB305049F
:104A00008345F4FF2685EFD00FCCCE852685EFD0E9
:104A10006FCD65DDD1BFEFB21FB04111CC879306DA
:104A2000F100AA8505461305000DEFF01FF24101C4
:104A30006FB0BFB0EFB23FAE011185453705400002
:104A400002C202C402C602C802CA02CC02CEEFD021
:104A50006FEE85452145EFD00FEC8567938707C042
:104A60007C8237150140F1473EC64C008D47130547
:104A700005C03EC4EFD0EF95B7270600938707A87F
:104A80003EC8B707FFBF376400403ECAB7070004FF
:104A90003ECC0C08916713050480FC86EFD02FAD47
:104AA000130504808545EFD0AFBB85451305048011
:104AB000EFD0CFBF13052003EF20807093050008CF
:104AC0001305B006EFF03FF513054006EF20406FE9
:104AD00081451305B006EFF01FF485456545EFF0FD
:104AE0009FF381456945EFF01FF381457145EFF074
:104AF0009FF2E1456D45EFF01FF2814513058003FC
:104B0000EFF07FF181451305A006EFF0DFF081455E
:104B100013053002EFF03FF0930500081305700312
:104B2000EFF07FEF85451305B006EFF0DFEEEFE025
:104B30003FEE2A84AA8537D500001305C59BEF30C8
:104B40009002228505616FB05F9FEFB23F9BB76413
:104B500000402A8AAE8A3284368993890480B70558
:104B600002004E85EFD06FB97DF91385048085452D
:104B7000B7040300B7690040EFD00FB08504138B72
:104B80000980A6855A85EFD0EFB565DD13850980CC
:104B90000146D285B7040700B7690040EFD06FB374
:104BA00093842408138B0980A6855A85EFD08FB390
:104BB00065DDD68513850980B7040700B769004015
:104BC000EFD06FB093844408938A0980A6855685F8
:104BD000EFD04FB165DD138509808545B70403002B
:104BE000B7690040EFD04FA98504938A0980A68554
:104BF0005685EFD02FAF65DD138509800546D28538
:104C0000B7090300B7640040EFD0AFAC89099384C3
:104C10000480CE852685EFD0EFAC65DDB76400401B
:104C2000B7090300130AF00F9384048093890904E1
:104C30007D141374F40F63104403376400401305AC
:104C400004808545EFD0EFA4854513050480EFD09F
:104C5000EFA56FB0FF8D09E481452685EFD00FA544
:104C6000CE852685EFD00FA865DD2685EFD0EFA590
:104C70002300A90005096DBFEFB2FF8941112A8405
:104C80009306E100AA8505461305000DEFF0FFEB42
:104C9000930514009306F100054693F5F50F1305EF
:104CA000000DEFF09FEA1C878887A2075D8D410108
:104CB0006FB0BF88EFB23F86411170002C004800F2
:104CC000EFE05FDFB24737040020AA84232CF418FA
:104CD000924713048419130570045CC0A2471CC4D6
:104CE000EFF09FF94AA413053004EFF0FFF86AA42F
:104CF00013055004EFF05FF831150AA8268541012D
:104D00006FB0BF83EFB23F8140315D71AA85190456
:104D10001374F40FAA8422862800EF60503A81476A
:104D2000014513F7F70F636B870083C76404616164
:104D30003385A740133515006FB03F8038003E978C
:104D4000182385073A951375F50FE1BF834775045E
:104D50001D476368F70835678A071307879DBA9769
:104D60009C4382879307F00E6384F500014582809F
:104D7000BD571CA18547A303F504CDBF0CB18947DE
:104D8000DDBF2CA18D47C5BF2CB19147EDB74CA11C
:104D90009547D5B74CB199E19D47F1BF9307000402
:104DA00063F5B700A3030504D1B79947E9B70347F3
:104DB00085049307170093F7F70F2A972304F50448
:104DC0006CA35831E314F7FA23040504F1B7EFB2EA
:104DD0008FF42303B504A3030504EFF0BFF26FB013
:104DE000CFF5A30305042304050449B7EFB2AFF2DE
:104DF0001384C1D34840EF60A074AA851385C1D045
:104E00009384C1D071260315C400EF600067AA85A2
:104E100013850401B52E0315E400EF600066AA8532
:104E200013850402B5266FB04FF1EFB2CFEE938435
:104E3000C1D01385C1D07526138401D5EF60805E83
:104E400048C013850402712EEF60A0574AA4138551
:104E50000401412EEF60E0566AA46FB00FEEEFB28E
:104E60008FEBAA85138501CC138401CCEFF01FEEE4
:104E70000DC13830930710056319F70050309305C2
:104E800064001385C1D3EF609023EFF03FF6EFF09D
:104E9000DFF96FB08FEAEFB20FE82A8637150140CD
:104EA00093050004130505C0EFC09FDF2945EF20DF
:104EB000802D6FB08FE8EFB20FE62A8637150140DC
:104EC00093050008130505C0EFC09FDD2945EF20BD
:104ED000802B6FB08FE6EFB20FE4371501409305DA
:104EE0000008130505C0EFC0DFDA2A842945EF204A
:104EF000802922856FB06FE4EFB2EFE14111854563
:104F00002145EFD04FA1D147371401403EC693074A
:104F1000000C7C824C008D47130504C03EC4EFC0DA
:104F20005FCB9305000C130504C0EFC03FD74101D0
:104F30006FB0AFE0EFB22FDE0545EFF0DFF70545CC
:104F4000EFF07FF50145EFF01FF70145EFF0BFF4FB
:104F50006FB0AFDEEFB22FDC0145EFF0DFF50545B6
:104F6000EFF07FF30545EFF01FF56FB00FDDEFB207
:104F7000EFD82A89014493090008A14433D5894018
:104F800033752501EFF03FF30545EFF0DFF0014504
:104F90000504EFF05FF0E31394FE6FB06FD9EFB24A
:104FA000EFD50545EFF03FF1814401449309000836
:104FB00021490545EFF03FEEEFF0FFF1854763171C
:104FC000F500B3D799405D8C1374F40F0145850447
:104FD000EFF07FECE39F24FD22856FB06FD5EFB239
:104FE0008FD30545EFF03FED0545EFF0DFEAEFF039
:104FF0009FEE2A840145EFF01FEA22856FB0EFD3C0
:10500000EFB26FD179711306000281450808EFB045
:105010008FD38545114502C202C402C6EFD0AF8FBF
:10502000854513050020EFD00F8F3165EFC05FFB82
:1050300037150140C1474C00130505803724014056
:105040007C8202C6EFC0FFB813050440EFC04FEDED
:1050500085473ECCB7070E003ECE0C08914713059E
:1050600004402302F10202C802CA02D0EFC0AFEF2F
:10507000854513050440EFC06FF5854513050440D1
:10508000EFC0CFF3814513050440EFC09F841305A3
:105090000440EFC0CFF4930404402685EFC0CFF462
:1050A0006DFD1305044037240140EFC06FF49304F5
:1050B00004402685EFC06FF46DFD13050440EFC07A
:1050C000DF82B7070020239EA71045616FB0EFC6AF
:1050D000EFB26FC439712A842E89B28481451306D8
:1050E000C002480836C6EFB00FC685450545EFD06B
:1050F000AF802285EFC07F92930700083ED49307CC
:105100000010B2463ED6930700403ED893070002F7
:105110003EDA4C088D6722854ACA26CC36D03EDC62
:1051200002CE02D202DEEFC01FA621616FB0EFC037
:10513000EFB26FBEEFF0DFECB70700208395C71129
:1051400037D500001305859FEF30E021372401405B
:10515000B704024037060020854613060612930561
:10516000C44413854404EFF0BFF613854404854519
:10517000EFC0FFA49D460546130504409145EFC0CE
:10518000CFE9854513050440EFC0AFE76FB0EFBA34
:10519000EFB26FB85C45AA842E890314E50089EF4D
:1051A000084193050000EF50702519E50A04269484
:1051B000232024016FB06FB805040D473364E40267
:1051C0008396C40093170401C1870A04FEA42694A1
:1051D00023202401E390D7FE8507B3E7E702DEA48E
:1051E000D1BFEFB24FB32A84084193050000EF50BE
:1051F000203F4C40EF50C03E0C44EF50603EB7D7CC
:10520000000083A507A1EF5040746FB00FB3EFB259
:105210008FB041118545114502C202C402C6EFC0DC
:105220009FEF93070010371401407C82C1473EC6B0
:105230004C008D47130504803EC4EFC09F9905467E
:105240009305001013050480EFC09FA541016FB0C6
:10525000CFAEEFB24FACAA843705080039712E8467
:1052600013051502854532C602D202D402D602D8F1
:1052700002DA02DC02DE02CC02CE23100102EFC011
:105280009FE93705138085454105EFC01FA2ED77E3
:10529000938707A02312F10237150140E1473ED65C
:1052A0004C108D47130505403ED4EFC09F92E0841B
:1052B000375401402C08130504C0E486231F010065
:1052C000231D0100EFC0DFEA3246C167938707065E
:1052D0000C18130504C03ED8231BC102231C010275
:1052E000EFC0BFF30C18130504C0EFC03FFB0C1850
:1052F000130504C0EFD06F850C18130504C0EFD060
:105300008F8F130504C08545EFD0EF98130504C0B7
:105310008145EFD04F9B130504C08145EFD08F9B93
:10532000130504C08145EFD04F9C130504C081458F
:10533000EFD08F9C130504C08545EFD02F9785458E
:10534000130504C0EFD0AF9321616FB00F9FEFB290
:105350008F9C09651306803E93051003130505C253
:10536000EFF03FEF37540140130504C09305005A96
:10537000EFD0EF99130504C09305005AEFD06F9951
:10538000130504C09305005AEFD0EF989305005A17
:10539000130504C0EFD06F986FB02F9A9307005A8F
:1053A00063FBA70085671387F7B36363A7069307BB
:1053B000206763E4A7001305005AB707002013878E
:1053C000072258239387072219EB930620672A8721
:1053D0006374D5001307206713150701418183A764
:1053E000C7340947FD15638EE706EFB2CF92939756
:1053F0002500B705002093858505BE959C416382F5
:10540000E704634AF70005476385E7026FB0EF9250
:10541000138507B45DB70D47638DE7021147E39726
:10542000E7FEAA8537550140130505C0EFD0EF8E82
:10543000F1BFAA8537550140130505C0EFD02F8D68
:10544000F1B7AA8537550140130505C0EFD06F8C21
:1054500075BFAA8537550140130505C0EFD0AF8B46
:1054600075B78280EFB22F8B8566938606B42E8740
:10547000B68763E3A600AA871396070141829306C5
:10548000005A6374D6009307005A939507017D175D
:10549000B70700200A0793878705BA979C430947F7
:1054A000C181638DE7026347F70005476381E70227
:1054B0006FB0AF880D47638AE7021147E39AE7FEB2
:1054C00037550140130505C0EFD02F85D5B73755A7
:1054D0000140130505C0EFD08F83D9BF3755014078
:1054E000130505C0EFD0EF82E1B737550140130532
:1054F00005C0EFD04F826DBF3705004085451305CD
:105500000540EFD00F8373002030371500408545EC
:1055100013050580EFD0EF8173002030EFA21FFE4E
:10552000397185453705020002CA02CC02CE02D08D
:1055300002D202D402D602D802DA02DC02DE02C6AD
:1055400002C8EFC03FBF85451145EFC0DFBC8545B0
:1055500037051000EFC01FBE854513051004EFC0CE
:105560009FBB3705328085452105EFC00FF4B71981
:10557000014091470D4961444C0813850980FC8224
:105580004ACC22CEEFC0EFE4A14791444C081385EA
:105590000980FC8226CEEFC0CFE322CE3724014023
:1055A000930700104C0813050480FC824ACCEFC01E
:1055B0004FE24C089307002013050480FC8226CE9E
:1055C000EFC02FE1B77706009387078A3ED0F167D7
:1055D0009387072037070C003ED885449307600364
:1055E00068003AD43ADC7C863744004026C802D2B0
:1055F0002316010202DA231E010223070100EFC075
:105600009F93130504408545EFC03FFF0C10130521
:105610000440EFC0DFF205469305505213050440E5
:10562000EFC01FFF930750247C86680089475C8782
:1056300026C8EFC05F90854537550040EFC0FFFB9F
:105640000C1837550040EFC09FEF054693055052A8
:1056500037550040EFC0DFFB21616FA07FEDEFA267
:105660009FEB2A84EFC0BFFEB706002003C72612B7
:10567000138601EB9307170093F7F70F329708A3F0
:105680002381F612130700046394E70023810612B6
:10569000B707002003A7870D85476313F700792418
:1056A000930550522285EFC0BFFB6FA01FE9411147
:1056B00022C6374400409305505213050440EFC002
:1056C000FFFA01CD9305000213050440EFC0BFF8B7
:1056D00009C513050440EFF09FF8324441017300FF
:1056E0002030EFA25FE32A84EFC07FF61375F50F39
:1056F000EFF0EFF6930550522285EFC07FF66FA0D2
:10570000DFE39305505237550040EFC03FF601CD1F
:105710009305000237550040EFC0FFF309C5375528
:105720000040EFF01FFC730020300147938641D604
:10573000130800109377F70F214693951700E2079F
:10574000E187FD87E98F93F5E50F7D16AD8F75F63F
:105750003386E6001CA20507E31E07FD8280AA959A
:105760008147138741D66314B5003E8582800505C5
:105770008346F5FFB58FBA979C23F5B7370700200E
:10578000130727121C236365F5002300070082809E
:10579000898F93F7F70F1CA3938601EB014733061C
:1057A000A70036960C223386E60005070CA2E31804
:1057B000F7FE8280582134311D8B2207938741E602
:1057C000558F98C358219356370058311377F703F4
:1057D0001607558FD8C35431782199820A07D98E7C
:1057E0007831058B2A07558F98C778319356170063
:1057F00018253D8B1E07558FD8C71825935647008F
:1058000018351377F7071207558F98CB14353825BD
:105810009D820607D98E38350D8B2607558FD8CB3C
:1058200038359356270058257D8B1A07558F98CF0A
:1058300058259356570058350E07558FD8CF7835D1
:1058400074251D8B2207558F98D3783593563700D2
:1058500018291377F7031607558FD8D31429183949
:1058600099820A07D98E3829058B2A07558F98D730
:1058700038299356170038393D8B1E07558FD8D7D6
:1058800038399356470058291377F7071207558F71
:1058900098DB542958399D820607D98E78290D8BBB
:1058A0002607558FD8DB78299356270078397D8BCA
:1058B0001A07558F98DF783993565700182D0E0721
:1058C000558FD8DF8280EFA21FC558213C3141118E
:1058D00022075D8F5C316C002946C2075D8F7C21F9
:1058E000138541EAE207D98F3EC6EF50507D410152
:1058F0006FA0BFC4938701EB94231307800C6396BA
:10590000E602EFA25FC1BC235147638BE700594712
:105910006396E700138501EBEFF0DFE96FA0FFC1AD
:10592000138501EBEFF03FFAD5BF8280EFA21FBDD8
:10593000938401EB370900208549130AB003938A49
:1059400024000347291263F4E90480309307D4FF4D
:1059500093F7F70F6376FA000545EFF03FE2D5B70E
:105960009307140063D5E702A69703CB07009305BE
:10597000F4FF93F5F50F5685EFF07FDEE31EABFCE9
:10598000EFF05FF7130524001375F50FF9B76FA05B
:105990003FBA930700001CC15CC11CC55CC51CC993
:1059A0001CCD5CC95CD11CD55CD51CD98280930709
:1059B00000003CC15CDD1CDD5CD11CD95CD51CD574
:1059C0007CC53CC57CC18280930700007CC53CC57A
:1059D0007CC13CC15CDD1CDD1CD95CD51CD55CD117
:1059E0005CCD1CD18280EFA27FB12A843C44832904
:1059F000440410D07CC42E85232434054CCCB285BD
:105A0000EF50E05F0C4068C0AA84EF5000364C4075
:105A100008D42A8A2685EF5040354C54EF40503C3C
:105A20005C5CCE852A893CC01C5C48D426855CDC45
:105A3000EF50E05C0C4408DCEF502033832A440133
:105A4000AA8908D8D6854A85EF5000216355A00061
:105A50002326540309A8832A84014A85D685EF505A
:105A60000028E34705FE4C545285EF407037CE8541
:105A7000EF4010370329C40048D0AA89CA85EF50E7
:105A8000A01D6355A0002322240309A803290401B3
:105A90004E85CA85EF50A024E34705FE0329440341
:105AA0002685CA85EF50A023634FA000B70500806C
:105AB000B3C525012685EF50201A634605009307DC
:105AC00000005CD05CD46FA0BFA6EFA2DFA4EFF013
:105AD000FFA4EFE03FF675FDEFF07F87EFE09FCF8B
:105AE000EFF00FE5EFA0FFDEEFF06FF237D500002B
:105AF000130545A1EF2070096FA03FA4B707002050
:105B00009387C7139843636FA702D043B386C70038
:105B10006316D50054413E85B296D4C35041B306B6
