:040000006F10003E3F
:1000040000000000000000001A1100001E11000092
:1000140000000000DE1300000000000000000000EB
:10002400DE130000DE1300000000000000000000EA
:100034002059000000000000000200000000000041
:10004400DE130000DE130000DE130000DE130000E8
:10005400DE130000DE130000DE130000DE130000D8
:10006400DE130000DE130000DE130000DE130000C8
:10007400DE130000DE130000DE130000DE130000B8
:10008400DE130000DE130000DE130000DE130000A8
:10009400DE130000DE130000DE130000DE13000098
:1000A400DE130000DE130000DE130000DE13000088
:1000B400DE130000A6500000B8500000DE1300005C
:1000C400DE130000DE130000DE130000DE13000068
:1000D400DE130000DE130000C6510000DE13000032
:1000E400DE130000DE130000DE130000DE13000048
:1000F400DE130000DE130000DE130000DE13000038
:1001040000000000DE130000DE130000DE13000018
:10011400DE130000DE130000DE130000DE13000017
:10012400DE130000DE130000DE130000DE13000007
:10013400DE130000DE130000DE130000DE130000F7
:10014400DE130000DE130000DE130000DE130000E7
:10015400DE130000DE130000DE130000DE130000D7
:10016400DE130000DE130000DE130000DE130000C7
:10017400DE130000DE130000DE130000DE130000B7
:10018400DE130000DE130000DE130000DE130000A7
:10019400DE130000DE130000DE130000DE13000097
:1001A400000000000000000000000000000000004B
:0C01B4000000000000000000000000003F
:10020000130181F806C216C41AC61EC822CA26CC1B
:100210002ACE2ED032D236D43AD63ED842DA46DC76
:100220004ADECEC0D2C2D6C4DAC6DEC8E2CAE6CC46
:10023000EACEEED0F2D2F6D4FAD6FED8F3220030CF
:1002400096DA9702002083A222F023A02200F32551
:1002500010342EC09305000273A0458003A1818253
:10026000EF60803317030020032303EE0321030014
:10027000824273901234D652739002309240A2425E
:100280003243C2435244E244724582551256A2564A
:100290003257C2575258E25872598649164AA64AEE
:1002A000364BC64B564CE64C764D865D165EA65ECA
:1002B000365FC65F13018107730020301300000012
:1002C00013000000130000001300000013000000E2
:1002D00013000000130000001300000013000000D2
:1002E00013000000130000001300000013000000C2
:1002F00013000000130000001300000013000000B2
:1003000083A28182938202E073900234170100205D
:10031000032181E3024182403243C2435244E2441A
:10032000724582551256A2563257C2575258E25859
:1003300072598649164AA64A364BC64B564CE64C6D
:10034000764D865D165EA65E365FC65FD652A1020A
:1003500073900230A24213018107828013000000D3
:100360001300000013000000130000001300000041
:100370001300000013000000130000001300000031
:100380001300000013000000130000001300000021
:100390001300000013000000130000001300000011
:1003A0001300000013000000130000001300000001
:1003B00013000000130000001300000013000000F1
:1003C00013000000130000001300000013000000E1
:1003D00013000000130000001300000013000000D1
:1003E00013000000130000001300000013000000C1
:1003F00013000000130000001300000013000000B1
:10040000F322003093F272FF130380781203B3E2F9
:100410006200711523205500130585FA10C12115BE
:10042000232005009302000063870200711523203A
:100430000500FD12D5BF71150CC1828000000000BF
:1004400000000000000000000000000000000000AC
:10045000000000000000000000000000000000009C
:10046000000000000000000000000000000000008C
:10047000000000000000000000000000000000007C
:10048000000000000000000000000000000000006C
:10049000000000000000000000000000000000005C
:1004A000000000000000000000000000000000004C
:1004B000000000000000000000000000000000003C
:1004C000000000000000000000000000000000002C
:1004D000000000000000000000000000000000001C
:1004E000000000000000397101436EC619A0397187
:1004F00041536AC866CA62CC5ECE19A039710153F5
:100500005AD056D252D44ED64AD826DA22DC06DE4B
:1005100033016140828241114AC026C222C406C60C
:100520008282B24D4101024D924C224CB24B4101AC
:10053000024B924A224AB249410102499244224462
:10054000B240410182803D432A876373C30293779F
:10055000F700BDEFADE5937606FF3D8ABA960CC372
:100560004CC30CC74CC74107E36BD7FE11E2828036
:10057000B306C3408A069702000096966780A600DD
:100580002307B700A306B7002306B700A305B700EB
:100590002305B700A304B7002304B700A303B700E3
:1005A0002303B700A302B7002302B700A301B700DB
:1005B0002301B700A300B7002300B700828093F5A2
:1005C000F50F93968500D58D93960501D58D61B76E
:1005D000939627009702000096968682E78086FA17
:1005E0009680C1171D8F3E96E374C3F8A5B7EFF24E
:1005F0009FF237040020130484190C4037050020B3
:100600009304051C1305051CEF40E0734C40138553
:10061000C400EF4040730C4413858401EF40A07286
:100620000315C400EFA07012AA8513854402EF40A1
:1006300080710315E400EFA05011AA85138504030F
:10064000EF40607003150401EFA03010AA851385F8
:10065000C403EF40406FD5B5EFF2FFEB3705002044
:100660009304051C370400201305051C1304C41A49
:10067000EF40607208C013858401EF40C07148C02C
:100680001385C400EF40207108C413854402EF4075
:100690008070EFA010004AA413850403EF40A06F00
:1006A000EFA0207F6AA41385C403EF40C06EEFA0C3
:1006B000407E0AA859B5EFF21FE63704002005492D
:1006C000232C040CEF4080339304840D19E105378B
:1006D0006137154523A02401EF50B065D5B7EFF27F
:1006E0009FE3EF50A016AA8537B500001305054714
:1006F000EF706074370400200325C41A1304C41A71
:1007000037590140EFA0B01D2A8637B50000AE86EC
:1007100013058549EF7020724840EFA0501C2A86CF
:1007200037B50000AE861305854AEF70C0700844E7
:10073000EFA0F01A2A8637B50000AE861305C54B28
:10074000EF70606F8315C40037B500001305054DC9
:10075000EF70606E8315E40037B500001305454E59
:10076000EF70606D8315040137B500003704002079
:100770001305C54FEF70206C93048420E85C1304CC
:100780008420EFA0D0152A8637B50000AE86130569
:100790000551EF70406A03A5C41BEFA050142A86D0
:1007A00037B50000AE8613050552EF70C06803A58B
:1007B000C411EFA0D0122A8637B50000AE8613050B
:1007C0000553EF704067130509C0EF10D02AAA85C2
:1007D00037B5000013054554EF70E065130509C0F7
:1007E000EF10B029AA8537B5000013050555EF7045
:1007F0008064130509C0EF10D027AA8537B5000023
:100800001305C555EF702063130509C0EF1030279D
:10081000AA8537B5000013058556EF70C061DC303E
:100820000947639CE70237B5000013054557EF7091
:10083000C0625C20A1E337B500001305055BEF70D3
:10084000C061832704200547639BE70237B500009A
:100850001305855DEF706060CDB105476397E700D4
:1008600037B5000013058558D9B737B50000130513
:10087000C55975BF37B500001305455CC9B70947B1
:10088000E39CE7FC37B500001305C55EE1B7EFF266
:100890009FC8B1351545EF50D049E5BFEFF2BFC451
:1008A000B70400201384019383A78406930A84006D
:1008B000411156858297B7B7000083A787611389D6
:1008C0008406130B00001CC4B7B7000083A7C761E0
:1008D0002328640156855CC4B7B7000083AC076267
:1008E000B7B7000003AC4762B7B7000003AA87623E
:1008F000B7B7000083A9C762B7B7000083AB07632F
:1009000083274900232E9401232E7403232084037C
:10091000232A4401232C3401829783A78406130DD4
:1009200084056A858297B7B7000083A74763232EA3
:100930006405232064073CCCB7B7000003AB876392
:10094000B7B7000083AAC763832749002326740929
:100950006A85232664072328540723224407232477
:100960003407829783A78406130D840A6A858297C9
:10097000B7B7000037B6000083A607640326C66435
:10098000B7B7000003A74764B7B7000083A7876421
:10099000232EC40C032649002324D40A2326E40A68
:1009A0002328F40A6A85232E940B2320840D232AFE
:1009B000440B232C340B36C63AC43EC2029603A61F
:1009C0008406930D840F6E85029637B600000326C9
:1009D000066593070000232EF40E232CC40E37B6B1
:1009E0000000032646656E85232664112320C4106B
:1009F00037B60000032D86650326490023285411CD
:100A000023224411232434112326A413029603A67F
:100A10008406930D84146E8502969247B24622474F
:100A20002328F414832749002324D4142326E41410
:100A3000232E74176E85232E941523208417232AC2
:100A40004415232C3415829783A78406930B8419AD
:100A50005E858297B7B7000083A7C7652326641B0E
:100A60002328541B232CF41893070000232EF4187A
:100A7000B7B7000083A707662322441B2324341B37
:100A80002320F41A832749002326A41D5E8582971C
:100A9000410141BCEFF23FA81307803EAA87635192
:100AA000A702130585C1EF906032B7B7000003A617
:100AB000076083A64760EF80406CEFA0006DB5BC77
:100AC0001307803D13050000E34BF7FE138577C243
:100AD000D9BF9307800C63FFA702EFF2DFA31305D2
:100AE00085F342054181EF90602EB7B7000003A661
:100AF000876083A6C760EF804068B7B7000003A691
:100B0000076183A64761EF70F068EF9060264205A9
:100B1000418125B413056054828083A701C7938760
:100B2000779093B7070193C71700238AF1928280C9
:100B300003A781C7BD46130677909387019363E5AA
:100B4000C6000947D8B38280130727C2D14663E4A1
:100B5000E6000547C5BFA38207008280EFF2BF9B76
:100B600013840193B707002003A6471B0325841FA6
:100B700041119305000032C6EF908053B707002063
:100B8000324683A74707AA8513058414829741013B
:100B90006DB2EFF25F98B70700200395C71BEFA077
:100BA000C03AB7B7000083A54766EF901007938758
:100BB0000193370700200327470783A5C7162A8616
:100BC00013858719029795BAEFF2FF941384019366
:100BD000B707002003A6C71A0C400325041F4111C4
:100BE00032C6EF90E04CB7070020324683A7470794
:100BF000AA8513058400829741016FF01F94EFF2DC
:100C00009F91B70700200395871BEFA00034B7B76B
:100C1000000083A54766EF90500093870193370744
:100C2000002003274707CC572A861385870502979C
:100C30006FF0BF90EFF23F8E13840193B70700204F
:100C400003A6071B0325441F41119305000032C66C
:100C5000EF900046B7070020324683A74707AA85D2
:100C60001305840A829741016FF03F8DEFF2BF8A2E
:100C7000B70700200395A71BEFA0202DB7B70000F2
:100C800083A54766EF90607993870193370700202B
:100C90000327470783A5C70C2A861385870F02976A
:100CA0006FF0BF8983A7C1C71307F00B6396E700F6
:100CB000054723A8E1B2828013070070E39DE7FE99
:100CC0000947C5BFEFF23F85938401C6C84413842A
:100CD0000193C9332328A41E03A501C6653B232C19
:100CE000A41EC840453BB70700803D8D232AA41EA3
:100CF0008844C533231EA41E0D351D3D65376FF096
:100D0000DF83EFF2CFFE93840193893D59351D3780
:100D1000B13F5D3DED3583DBC41F138401935E85D8
:100D2000EFA0A02203AAC4112A8CD285EF904038EC
:100D300083A9C41B03A9C407AA8ACE85EF904037B4
:100D4000CA85EF90D058EFA0E01A131B0501135B82
:100D50000B01CE8556852394641FEF905057CA85AA
:100D6000EF900035EFA00019931A050193DA0A01FC
:100D7000D28562852395541FEF907055AA852A8CE1
:100D80004E85EF90E032CA85EF908032EFA080165A
:100D9000131A0501135A0A01CE852396441F628552
:100DA000EF90F052CA85EF909052EFA0A014420548
:100DB000418185672397A41E938707B463F467076F
:100DC0002314F41E8567938707B463F4570723152C
:100DD000F41E8567938707B463F447072316F41E50
:100DE0008567938707B463F4A7062317F41E832748
:100DF000042005476394E7060355841E8545EF40AC
:100E0000C0140355A41E8945EF4020140355C41E89
:100E10008D45EF4080130355E41E9145EF40E012ED
:100E20006FF06FF09307F059E3EE67F99307005AFC
:100E300041BF9307F059E3EE57F99307005A41BFBA
:100E40009307F059E3EE47F99307005A41BF930720
:100E5000F059E3EEA7F89307005A41BF0947E39121
:100E6000E7FC85455E85EF40400E0355C41F89456C
:100E7000EF40A00D0355C41F8D45EF40000D914577
:100E80000355C41F61BF9387019313071010930686
:100E90000000DAA3054794C32383070023A4071E99
:100EA00023A6071E23A8D71E23AAD71E23ACD71E0E
:100EB000239E071E23A0E72023A2E7208280EFF2D3
:100EC0008FE585451305005AEF4020088945130535
:100ED000005AEF4080078D451305005AEF40E006A9
:100EE00091451305005AEF4040066FF00FE5EFF211
:100EF000EFE013840193B7040020713713098414C1
:100F00009384840693098419130A840A930A840F2C
:100F1000130B8400453B032744208947630BF700EC
:100F20005C209DEF0355C41F9307306A63F7A70049
:100F3000C93B1545EF50E05FF1BF8545EF40E0004C
:100F40000355C41F8945EF4040000355C41F8D451C
:100F5000EF30B07F0355C41F9145EF30107FD1BFF4
:100F6000B93F9C444A8582979C444E8582979C4415
:100F7000528582979C44568582979C445A858297D5
:100F80009C441305840582976DB7EFF24FD6370462
:100F90000020930784200547D8A3B7B7000083AA91
:100FA0008766B7B7000003ABC7661304842037BA5F
:100FB000000037BC00005C20D9EF9384818098400A
:100FC00085476313F70A13050A67EF6010698947BD
:100FD00023A004002322F4208144930C401F268583
:100FE000EF90B076D685EF905005DA85EF90400C03
:100FF000138941802320A900EF90D06F42058545D9
:101000004181EF40000103250900EF90B06E4205D9
:1010100089454181EF30F07F03250900EF90906D05
:1010200042058D454181EF30D07E03250900EF90C8
:10103000706C420591454181EF30B07D5C200547E1
:101040006398E7022322F42013054C68EF60F060F8
:1010500085472322F4205C2005476397E70023A4FB
:10106000F1802322F420A13D2945EF50804CA1B707
:1010700005458504EF50E04BE39394F7F1B7EFF2A9
:101080008FC9B7070020B7B5000037150000938758
:1010900047110D47814613060010938545691305D6
:1010A000E588EF40906AB7070020B7B50000371514
:1010B000000093870711114781461306001093859E
:1010C000C5691305A5F8EF405068B7070020B7B50C
:1010D00000003715000093878710014781461306EB
:1010E00000609385456A1305E5EEEF401066B7078B
:1010F0000020B7B50000370500009387C7100947E7
:101100008146130600409385C56A1305656BEF4061
:10111000D063EF5000066FF04FC27300203001A083
:10112000EFF26FBF41118545114502C202C402C6EC
:10113000EF0090538D477C8237150140C1473EC672
:101140004C008D47130505803EC4EF00A07D410192
:101150006FF0AFBEEFF22FBC0945EF005032992A75
:10116000EF50902C37F5030013050580EF50F03554
:101170001305500DEF40600883A5C18037B500000E
:101180001305056BEF60304BB7B5000037B50000B5
:101190009385056C1305856CEF60F0495137EF407E
:1011A000C03F1305800CEF50B02E37B40000C13D96
:1011B0001305846EEF60704AE5BFB717024098438D
:1011C000B706FFF041111367170098C3D8433706DD
:1011D0000200758FD8C39843B706F7FEFD16758FCA
:1011E00098C39843B706FCFFFD16758F98C3D84384
:1011F000B70601FFFD16758FD8C39843B70600ECFC
:10120000FD16758F98C33707FF0098C723A60702FE
:1012100002C402C69843C166558F98C3B7160240F0
:1012200005679C42F18F3EC6A24785073EC4B24780
:1012300081E7A247E397E7FEB71702409C43139765
:10124000E7006357070685473EC632478547631F59
:10125000F704B7170240D843B706C1FFFD16D8C33D
:10126000D843D8C3D84313670740D8C3D843758F32
:10127000D8C3D843B7061D00558FD8C39843B706C7
:101280000001558F98C3984393166700E3DD06FE6F
:10129000D843B7160240719BD8C3D84313672700C1
:1012A000D8C32147DC42B18BE39EE7FE4101828037
:1012B00002C661BFB7160240D8421146318B9387F0
:1012C000C1806305C70021466308C70237177A004B
:1012D0001307072098C337170240584311839376AA
:1012E000F7003707002013070700369714239843A9
:1012F0003357D70098C38280D842D442416649838D
:101300003D8BF18E1306270015CF3D47630FE60294
:101310004147630FE602454781456313E6004146B6
:10132000A1E23747024003270780418B0DC73717DB
:101330007A00130707203306C70290C3C9DD98431C
:10134000058349BF81454946E1BF85453546C9BF4B
:1013500081453D46F1B737173D0013070790E1BFC0
:101360003715024058559316F700585563DF0604A9
:1013700011833D8B9306170037177A001307072058
:101380003357D70298C35455A182BD8A8DE2954642
:101390003307D702058398C3371702405857944341
:1013A0003D8B050733D7E60298C3984369B70545D7
:1013B0006394A600E546E9BF3D456396A600D14685
:1013C0003387E602C9BF8906E5BF3D8B9306170048
:1013D00037177A00130707203357D702F1B701A058
:1013E00097F1FF1F9381814F17710020130181C175
:1013F00017B500001305454997F5FF1F938585C074
:101400001386018363FAC5008322050023A05500DB
:1014100011059105E3EAC5FE17F5FF1F130505CF7A
:10142000973500209385852E6377B500232005002E
:101430001105E36DB5FEFD42739002BCFD42739051
:101440004280B7820000938202807390023097F24C
:10145000FFFF938262BB93E2320073905230EFF051
:10146000DFD597020000938222CF7390123473006D
:101470002030EFF24F8AB727014093870740631E61
:10148000F500854513050020EF00D02181451305A7
:101490000020EF0030216FF04F8AB737014093876B
:1014A0000780E31AF5FE854513050040EF00901F05
:1014B000814513050040F1BF5C413707F1E0130798
:1014C000F7EF944D7D8F9C41D58FD44DD58FD4416E
:1014D000A206D58FD98F5CC11C4537F7F1FF1307E2
:1014E000D77FD4457D8F9C49D58F94458606D58F6F
:1014F000D98F1CC55C55370710FF7D177D8FDC2900
:10150000FD1793F7F70FD207D98F5CD582801C4562
:1015100089C593E717001CC58280F99BEDBF1C4568
:1015200089C593E707101CC5828093F7F7EFE5BFE5
:101530001C4593E787001CC5828008450D810589FD
:1015400082801C4593E747001CC5828008450981BD
:10155000058982801C4591C537075000D98F1CC56D
:1015600082803707B0FF7D17F98FD5BFA54763F796
:10157000B7048D47138765FF3307F7020328C500BB
:101580009D47B397E70093C7F7FFB3F70701B396FB
:10159000E600DD8E54C5994763E3C70495477D1681
:1015A0003306F6025859FD47B397C70093C7F7FFB4
:1015B000F98F3396C5005D8E50D982800D473387F1
:1015C000E502032805019D47B397E70093C7F7FF9E
:1015D000B3F70701B396E600DD8E14C96DBFB147BE
:1015E00063E2C702954765163306F6021859FD47B0
:1015F000B397C70093C7F7FFF98F3396C5005D8E89
:1016000010D9828095474D163306F6025855FD478E
:10161000B397C70093C7F7FFF98FB395C500DD8D6A
:101620004CD582805C4191C537070004D98F5CC1DD
:101630008280370700FC7D17F98FD5BFEFE2BFED41
:1016400001112A8423040100A5441C8463F9F404D5
:1016500023040100A54621461C8463FDF6062315DC
:1016600001002304010095461C8463FFF60C3885B5
:101670003C8599460D46B3F7D702056513050580ED
:10168000B3D7C7023357D702BA97C207C1837C8545
:101690003C8505611D8D420541856FE01FEA1C44B4
:1016A00093E787001CC42285493D75FD1C4493E7E0
:1016B00047001CC42285593D75FD78441C841410D4
:1016C0008607B6972396E7FE1C84850793F7F70FE6
:1016D0005C84A5BFA30401009C846378F6001C848D
:1016E000850793F7F70F5C8485BF98849C840C1062
:1016F0000607850786072E97AE970357C7FE83D741
:10170000C7FE63FDE7029C848607AE9783D7C7FEBA
:101710007C859C84988485078607AE9783D5C7FE11
:10172000931717001810BA972396B7FE9C84388534
:101730000C1085078607AE972396E7FE9C848507E5
:1017400093F7F70FDC8449BF1C8410103885890794
:101750008607B29783D7C7FEBA97C207C1837C8535
:101760001C84850793F7F70F5C84FDBD1C4141671E
:101770007917F98F1CC1232005002322050023249B
:101780000500B7070240232605001387870063176B
:10179000E500D8431367F700D8C382801387C701D9
:1017A0006316E500D8431367070FFDB713870703D8
:1017B0006318E500D8438566938606F0558FE9BF28
:1017C000138747046315E500D843BD66C5BF13877B
:1017D00087056316E500D843B7060F00C5B7138722
:1017E000C7066316E500D843B706F000C1BF1387EC
:1017F00007086316E500D843B706000FC1B7138783
:1018000087406319E50003A747401367F70023A249
:10181000E74082801387C7416317E50003A747406D
:101820001367070FEDB793870743631BF500B707EF
:10183000024003A747408566938606F0558FC1BFD7
:10184000B7070240138747446316E50003A74740E4
:10185000BD66EDB7138787456317E50003A74740CB
:10186000B7060F00E1BF1387C7466317E50003A75C
:101870004740B706F000D9B7138707486317E5005C
:1018800003A74740B706000F55BF138707496319E1
:10189000E50003A7474D1367F70023AAE74C8280B2
:1018A0001387074A6317E50003A7474D1367070F20
:1018B000EDB71387074B6319E50003A7474D85660E
:1018C000938606F0558FD1BF1387074CE319E5FCCB
:1018D00003A7474DBD66FDB71C4161773D07945195
:1018E0007D8F9C45D58F9449D58FD449D58F944D04
:1018F000D58FD44DD58FD451D58F9455D58FD98FC1
:101900001CC1DC455CC19C411CC5DC415CC58280BE
:101910001C4189C593E717001CC182804167791774
:10192000F98FDDBF9C4513F7070113F8F70001C7D6
:10193000D8413368E8008E2113F7F50F39C31841F9
:101940008146854E3D4F930F800293028004214EC5
:101950003396DE00B3F8C500631116039398260092
:1019600033131F011343F3FF3377E300B318180158
:1019700033E7E800639FF70550C98506E39AC6FD83
:1019800018C11307F00F6375B70454412146854E03
:101990003D4F930F800293028004414EB398CE00D6
:1019A00033F715016392E80213172600011733136A
:1019B000EF001343F3FFB376D3003317E800D98E5B
:1019C000639DF701232A15010506E319C6FD54C1DD
:1019D0008280E39457FA10C94DB7E39757FE232846
:1019E0001501DDB708456D8D3335A00082800CC927
:1019F000828019C20CC982804CC98280B70701401D
:101A000063570504DC4F135705019376F70013164F
:101A100005013707300041823378E500635C050437
:101A20006319E802138706018D46B396E60093C654
:101A3000F6FFF58F89C91357550112073317E600D2
:101A4000D98F63570504370701405CCF8280DC43A0
:101A50005DBF1317B500635607000D47B316D700D7
:101A6000F9B71357550112073317E6001347F7FF6D
:101A7000F98FC9B76312E80237080140832648008E
:101A8000370700F17D17F98F758F2322E800C5F520
:101A9000370701405CC382801317B500635C070001
:101AA0000D473317D7001347F7FF7D8FB707000F98
:101AB000D98FF1BF1357550112073317E600E5B769
:101AC000EFE27FA579712A84462168082EC69D2CF5
:101AD000925737470F001307072433D7E702C20492
:101AE000C18093F404FCC204C180B2456165130552
:101AF000056A131607014182D18C46A01620C20642
:101B0000C182F99AC206C18216A094416369D504C4
:101B10008606B3D7D7029146139707014183BA8748
:101B20006373D700914705064206C2074182C1830D
:101B300012B05EAC1E20DA21B62593E717001EA076
:101B40001E20558FC207C18393F757BFD98F1EA0A0
:101B50009A25DE25D98F1EA445616FE01F9EEA21DC
:101B600031667D16631DC5020D46B386C602B3D726
:101B7000D702C207C1839396470199E293E7170002
:101B8000A166D58F9306C0123307D7029306803E15
:101B90003347D7020507420741831AB059BF65464C
:101BA000B386C602B3D7D7029166C207C183D58F69
:101BB000D9B71E2189C593E717001EA18280C207ED
:101BC000C183F99BC207C183CDBF1E2189C593E79D
:101BD00007101EA18280C207C18393F7F7EFC207E7
:101BE000C183C5BF1E2189C593E707201EA182803E
:101BF000C207C18393F7F7DFC207C183C5BF1E21A8
:101C000089C593E707401EA18280C207C18393F76D
:101C1000F7BFC207C183C5BF0EA982800A29137509
:101C2000F50F828093F7E50F19C293E71500C207FD
:101C3000C1831EA982805E290A2D42055D8D6D8DAE
:101C4000220521810D8D133515008280411102C4BA
:101C500002C693D7C5012AC63EC4A247A205A181E8
:101C600099CBB247D1073EC6B247884341016D8D3B
:101C70003335A0008280B247C181E107EDB7B707D5
:101C8000002023ACA7108280B7070020938787111C
:101C90009443182181E63C21920721A894430546EC
:101CA000639FC6023C21103192076314D60093E76C
:101CB00007F8B7E600E093F7F70FBA962380F640EF
:101CC0008546935757003397E6005441A5C2938742
:101CD00007048A07B7E600E0B69798C382808C4372
:101CE00089466391D50214313C216365D6008A068A
:101CF000B6975DB79386E6038A06B69793F7F70F14
:101D0000920775B790438D46631CD60014313C2171
:101D10006364D6008606E9BF9386C6078606F1BFD0
:101D200094439147E39EF6F81C31BDB793870706AD
:101D30004DB7B7160240DC4251777D17F98F5D8DA4
:101D4000C8C28280371702405C439146B18B6385DD
:101D5000D700A1466382D706B7177A00938707207A
:101D60001CC1371602405C423707002013070701E9
:101D70009183BD8BBA9794231C41B3D7D7005CC124
:101D80005442A1829D8ABA969422B3D6D70014C534
:101D90005442AD829D8A36971823B3D7E7005CC5BD
:101DA0005842398393763700138701813697182379
:101DB000B3D7E7021CC982805C4354434167C9839F
:101DC000F98E37F7FF1F0327C770BD8B89071316DE
:101DD000170163480600454601476392C702C94799
:101DE00039A809476389E7023D476388E70241470D
:101DF0006388E702454601476393C700C14785E60C
:101E0000B746024083A60680C18A8DC6B7167A00FF
:101E10009386062025A00147D9B70547B547C5B722
:101E20000147BD47E9BFB7160240D4421396E6000A
:101E3000E35E06FCB7163D0093860690B387D70293
:101E40001CC105D31C41858321BF99C537170240AA
:101E50005C4B5D8D48CB8280B7170240D84B134551
:101E6000F5FF798DC8CB828099C5371702401C4F8A
:101E70005D8D08CF8280B7170240984F1345F5FF5C
:101E8000798D88CF828099C5371702405C4F5D8D70
:101E900048CF8280B7170240D84F1345F5FF798DA0
:101EA000C8CF828099C5371702405C475D8D48C70F
:101EB0008280B7170240D8471345F5FF798DC8C710
:101EC00082801E2137370140930607C0C207C183B5
:101ED0006300D504B7060040630CD5029386064024
:101EE0006308D502B7160040138606806302C50258
:101EF000938606C0630ED50013070740630AE5000A
:101F000037570140930607C06304D5006316E50008
:101F1000BA2193F7F7F8D98F37170040630CE50023
:101F2000130707406308E50093F7F7CFFA21C207CC
:101F3000C183D98F1EA1DE215EB59E211EB5B737A4
:101F40000140138707C0630EE50093870740630ACB
:101F5000F500B7570140138707C06304E500631419
:101F6000F5009C251EB985475EA982801E3192210D
:101F700003D82500C207C183F99BC207C1831EB1E4
:101F80001E3156211A2DC207C183420741831377A0
:101F9000C7F8518F9225F59BC20633660601D18F93
:101FA00037360140130806C0C182630E05011306CF
:101FB0000640630AC50037560140130806C0630493
:101FC00005016310C502B225DD9B03D8E500D18F62
:101FD000D221ED9B93F6F6CFD18FD2253366060141
:101FE000D18E56A11AADFA215AB91EB182801E3186
:101FF00065771307F7CFC207C183BD9BC207C183B3
:102000001EB11E31562103D88500C2071396060162
:10201000162DC18393F7F7FD758F96214182A20695
:10202000558FB62142074183B3E606019206D58F4C
:10203000B7360140C207138806C0C183630E05018D
:1020400093860640630AD500B7560140138806C040
:1020500063040501631ED502B62593F7F7F703D88D
:10206000C5009206D58FD621C207C183920693F789
:10207000F7FBD58FFD769386F63FF18EF225C207EA
:10208000C183336606010A06D18E1396060141828A
:1020900052A11AADFA211ABD1EB182801E3103D899
:1020A0008500C207C18393F7F7EFC207C1831EB152
:1020B0001E3156215A2DC20713960601420796215A
:1020C00041831377C7F8558FB621C18393F7F7DFA4
:1020D000B3E60601A206D58FB7360140C2071388C2
:1020E00006C04182C183630E050193860640630AE0
:1020F000D500B7560140138806C063040501631F6D
:10210000D502FD769386F67FF58FB62503D8C500F8
:10211000A206D58FD621C207C183A20693F7F7BFC7
:10212000D58FF576FD16F18EF225C207C183336691
:1021300006011206D18E13960601418252A15AADB4
:10214000FA215ABD1EB182801A31FD77FD17F98F31
:102150001EB10358050256215E2D657713960601C0
:1021600096211307F7CF7D8FF977A206FD17558FBC
:10217000B3F70701B62103D8850042074182B3E6D1
:102180000601B206D58FB7360140C207138806C0D4
:102190004183C183630E050193860640630AD5001F
:1021A000B7560140138806C063040501631BD500C0
:1021B000F176FD16F18ED2251A06D18E1396060100
:1021C000418252A15AADFA212310E5041EB182804A
:1021D0001E2189C593E717001EA18280C207C18313
:1021E000F99BC207C183CDBF8357450491C52167C1
:1021F000D98F2312F5048280C607C583DDBF1E2157
:1022000089C593E707081EA18280C207C18393F79F
:10221000F7F7C207C183C5BF1E2DC207C183DD9B6F
:10222000DD8D0EAD82801A2DFD779387F77FF98FB4
:10223000A205CD8FC207C1831EAD82805E2DC2076D
:10224000C183DD9BDD8D4EAD82805A2DFD77938756
:10225000F77FF98FA205CD8FC207C1835EAD828063
:102260004EB982800EBD82804EBD82802310B5049F
:1022700082804A3982800A3D82804A3D82800355AD
:102280000504828093C5F5FFC205C1810EA9828035
:10229000EFE26FA81629F577FD17F58FF621DA25FD
:1022A0007971D58F1EA95625FD779387379FF58FB6
:1022B000D6212A842EC6D58F9625D58FB625D58FC3
:1022C0005EA55E29C207C18393F7F7CFD98F5EA9B8
:1022D0006808EFF03FA7B747014093870780B245F2
:1022E000631AF404A25756246547B387E702C2066F
:1022F000C186984163D20604060752244206B3D72A
:10230000E702130740064186B3D6E702B3F7E702B8
:102310009206635506028E0793872703B3D7E70219
:1023200013F77700B367D700C207C1831EA44561C6
:102330006FE0AFA0925745BF0A07C1B792079387D6
:102340002703B3D7E702BD8BD58FF9BF91C55E25B3
:102350000967D98F5EA582805A25F977FD17F98F15
:10236000D5BF13F7F50F85471583B395B7006319EC
:10237000F7009307C500984301CED98D8CC38280A6
:10238000894693074501E318D7FE93070501E5B792
:1023900093C5F5FFF98DDDB793F5F51F4EA182804A
:1023A0004A211375F51F82800A216D8D3335A000F7
:1023B000828093C5F5FFC205C1810EA1828013F70B
:1023C000F50F85461583B397B6006311D7025A25DA
:1023D000F98F1A2101454207418381CB0545A1812F
:1023E000B315B5006D8F3335E000828089466314E4
:1023F000D7001A29F1BF5A29E1BFEFE22F90370425
:10240000002041119304C402854798407C82DC403F
:10241000AA892E8988232C2B5400328A0946EF2062
:1024200040271305800CEF40B0069840DC402302A3
:1024300001006C37882354000546EF208025984022
:10244000DC4054004C33882305461304C402EF20BB
:1024500040249840DC4054002C2B88230546EF2074
:1024600040239840DC4054006C3B88230546EF2015
:1024700040229840DC4054004C2388230546EF203E
:102480004021B1475C829840DC4054004C238823B3
:102490000546EF2000203D45EF40807F9C5498404A
:1024A00054009C3705465C82DC402C238823EF20B7
:1024B000401E9C54984054009C2705465C82DC409A
:1024C0000C338823EF20E01C1C54BC2763040A0053
:1024D00093E7070E5C8218405C4054006C2388230D
:1024E0000546EF20001BE14763060A001C54BC3779
:1024F00093E7070E5C8218405C4054006C338823DD
:102500000546EF20001963060A001305800CEF4012
:102510002078930700045C8218405C4054004C23F0
:10252000882305468144EF20C016930780075C820C
:1025300018405C4054004C3388230546EF2060155A
:1025400013052003EF40C07418405C4023020100D3
:102550004C33882354000546EF20A0135C401840FC
:10256000540088232C270946EF20A032034A41005B
:102570009C8223A40900220A336AFA00B147335A25
:10258000FA0223A2090023A0090023240900232220
:10259000090023200900137AFA0F6391441503A55B
:1025A00009001306300881469357F541C207935539
:1025B0000501DD8D4205EF50F00E26868146EF5075
:1025C000700E23A0A90003A5490013063008814618
:1025D0009357F541C20793550501DD8D4205EF5034
:1025E000700C26868146EF50F00B23A2A90003A5AC
:1025F00089001306300881469357F541C207935569
:102600000501DD8D4205EF50F00926868146EF5029
:10261000700923A4A9000325090026868146935545
:10262000F54193570501139705015D8F9355F741C8
:10263000420593F5F57FB387A500B3B5B700BA950A
:10264000AD83139555015D8DAD85EF50B005232009
:10265000A90003254900268681469355F5419357E5
:102660000501139705015D8F9355F741420593F5D9
:10267000F57FB387A500B3B5B700BA95AD831395C1
:1026800055015D8DAD85EF50F0012322A900032592
:102690008900268681469355F54193570501139786
:1026A00005015D8F9355F741420593F5F57FB3879B
:1026B000A500B3B5B700BA95AD83139555015D8DEF
:1026C000AD85EF50207EC1776343A000C1673E9582
:1026D0002324A900014541016FD09FE518405C40CB
:1026E00054002C37882331468504EF20801A188344
:1026F0009C83948422075D8F1C8490824207A207EA
:10270000D58F14824187C207A206D18E0326090005
:10271000C206C186B2962320D90083264900C1870C
:10272000908536972322E90003278900948793F444
:10273000F40FBA9718862324F9009C8622075D8F30
:102740001C8742074187A207D58F1485C207C1871E
:10275000A206D18E03A60900C206C186B29623A0A6
:10276000D90083A64900369723A2E90003A7890070
:10277000BA9723A4F90015B5EFD2FFD9370400208A
:102780009307C40283C7470241111304C40285C7DB
:1027900011C10945C8875C4018409306F1008823A1
:1027A0006C370546EF10F06E9C871CB881473E855C
:1027B00041016FD09FD83824FD5775DB19C51838F3
:1027C000814775F78547DC87F9B7A3070100E1B7B3
:1027D000EFD27FD4370400209307C402BC274111F5
:1027E0007D55C5CF1304C40218405C40A307010007
:1027F0006C3788239306F1000546EF109069184066
:102800005C409306F1004C3388230546EF10706856
:102810005C4018409306F10088234C230546EF10D6
:10282000506783474402ADCFB147DC8718405C4016
:102830009306F1004C2388230546EF10906513059D
:102840002003EF40E044930700FCDC873C24858BA9
:1028500099C38157DC875C4018409306F1008823B8
:102860004C230546EF10F0621C3891C38947DC8782
:1028700018405C409306F1006C3788230546EF1042
:10288000506118405C40A30701009306F1008823C3
:102890004C330546EF10F05F014541016FD0FFC991
:1028A0009147DC8718405C409306F1004C23882355
:1028B0000546EF10105E3C281307000491E73C2406
:1028C000858B99C3130700065C40D887184088237E
:1028D0009306F1004C230546EF10B05B130520036F
:1028E000EF40003B1C3818409306F100B337F0006E
:1028F000DC875C406C3705468823EF109059184000
:102900005C409306040161B7B707002083C7470303
:1029100005476381E70291CB09476380E7020D47D2
:102920006380E7022310050021A09307A00F1EA1DA
:10293000014582809307401FDDBF9307803EC5BFDE
:102940009307007DEDB7EFD21FBD3704002093073A
:10295000C402BC27411189CF9307401F1304C4024E
:10296000630CF50463E8A7009307A00F630EF5005E
:102970007D5581A09307803E6303F5049307007D96
:10298000E318F5FEE14715A8A30701009C8718246A
:1029900001458D83630FF7005C4018409306F100FA
:1029A00088236C230546EF10D04E9C8701458D830C
:1029B0001CA441016FD07FB8A147DC87C1BFC147CC
:1029C000EDBF370700209306C70294360546AA8755
:1029D0001307C7026384C60289CA09466382C60216
:1029E0000D466381C6027D558280894694A3383B9B
:1029F000014501C79823060798A382809146FDB739
:102A0000A146EDB7C146DDB7EFD2FFB037040020D5
:102A10009307C402BC27411199CB91471304C40208
:102A20006309F50463E7A7008947630CF5007D554A
:102A300035A8A1476302F504C147E31AF5FEE14753
:102A400015A8A30701009C87183401458D83630FE7
:102A5000F7005C4018409306F10088236C3305466C
:102A6000EF1030439C8701458D831CB441016FD02A
:102A7000DFACA147DC87C1BFC147EDBFB70700206E
:102A800083C777031547FD1793F7F70F636AF702BC
:102A90002D678A0713070770BA979C4382879307AD
:102AA000C00B1EA10145828093072006DDBF93075E
:102AB000A002C5BFD147F5B7A947E5B79547D5B738
:102AC00023100500C5B7EFD21FA5370400209307D8
:102AD000C402BC274111ADC79307B00B1304C40255
:102AE00063F8A7028547DC8738349C870145630E6D
:102AF000F7005C4018409306F10088232C2305461C
:102B0000EF1030399C8701453CB441016FD0FFA2E2
:102B10009307100663F4A7008947F1B79307900263
:102B200063F4A7008D47C1B7CD4763F4A700914771
:102B30005DBFA54763F4A700954775B7994765B78B
:102B40007D55E1B7B70700209387C70203C7470247
:102B500009E7FE271EA1014582807D558280B707C7
:102B6000002083C7470305476382E70289CB0947F3
:102B70006383E7020D476385E7027D558280B7B71F
:102B8000000083A7C7741CC101458280B7B700004D
:102B900083A70775CDBFB7B7000083A74775E5B713
:102BA000B7B7000083A78775F9BF370700209306E2
:102BB000C70294360546AA871307C7026384C60274
:102BC00089CA09466384C6020D466383C6027D55E1
:102BD0008280916696A3383B014501C79A230583FD
:102BE0009AA3828089669386C6F9EDB78566DDB7BC
:102BF000856693860680F9BFEFD25F903704002088
:102C00001304C402834744020149A1E33C247D59D3
:102C10008DCF9374E50FE58F834904011CA8858F40
:102C2000B337F0003309F0405C28C58F81CF0545EC
:102C3000EFF09FB499C8EFF0BFB901C92308340180
:102C40007D5921A00145EFF03FB34A856FD05F8EDB
:102C5000EFD2DF8AB70900209384C90283C74402F8
:102C600041119DC7B824FD5731CBDC409840AE8A56
:102C70002A892C278823328A74000946EF10704174
:102C80001C868086A2075D8C6376240123000A00DF
:102C9000FD572DA0D8409389C9023E23858363F355
:102CA00087029C40082374008C3B0546EF10703E61
:102CB0001C86C18B81CBEFF0BFB1F9573E85410136
:102CC0006FD01F8783A7490003A70900D6868823F2
:102CD0002C371376F90FEF10D03B33542403814780
:102CE0007D1423008A00D9BFEFD2FF823704002071
:102CF0009307C402BC2B41116389A70A1304C402C1
:102D00005C40AA849306F10088231C400546CC232E
:102D1000B9C0EF1010389C8718409306F10093F764
:102D2000F7FDDC875C404C2305468823EF107016C6
:102D30000D45EF30F0758947DC878347240281C752
:102D4000930720F8DC8783473402B1C79C8793E759
:102D50000703DC8789A0EF10D0333C249487858B50
:102D600013F7F60D99C313E706025C40D8871840A5
:102D700088239306F1004C230546EF1090110D4572
:102D8000EF3010718347240299C39307000803476B
:102D90003402DC874DFF18405C409306F1004C2B59
:102DA00088230546EF10F00E24A8014541016FD09D
:102DB000CFF8EFD24FF6370400209307C40283C741
:102DC000370241116381A7041304C402814719C16A
:102DD000930700033828DC8701C793E72700DC87C7
:102DE0008347240289C79C8793E707F8DC8718404C
:102DF0005C40AA844C2B88239306F1000546EF1013
:102E00005009A3019402014541016FD00FF39307CC
:102E1000800263E0A70AEFD20FF0370400204111CF
:102E2000AA841304C4021DE16937930700707C86ED
:102E300018405C4074002C2B88230946EF10700565
:102E4000230A0400014541016FD02FEF0545953756
:102E5000930700025C868547639DF402A306010088
:102E60001545EFF05FC69C86184074009A0793E7FB
:102E70007700DC865C402C2B09468823EF1070011C
:102E8000A1473CA401458547230604005CA8AD3357
:102E900055BF154763649700DC86D9B7D14763E611
:102EA00097008947DC8629456DBF8D47DC865145F3
:102EB0004DBF7D558280EFD20FE637040020930787
:102EC000C402B827411159C303C74702AA847D55DC
:102ED0000DE3DC2B1304C40295C39387F4FFC207F0
:102EE000C183130770026369F70013F5F40F053708
:102EF000014541016FD06FE40145113F1307803E4A
:102F0000A687637497009307803E13970701418358
:102F100091466373D7009147C2079304803EC183F3
:102F2000B3C7F40218409306F10005460C33FD17B1
:102F3000DC875C408823EF10C0758887050533C5A2
:102F4000A4026AA40581EFF01FB85DB77D5555B79F
:102F5000EFD26FDC9377050741112A8481C785473B
:102F6000DC8721A041CDA3070100B704002013890D
:102F7000C40283274900032709009306F100882330
:102F80002C2B05469384C402EF10A0709C8793F706
:102F9000F7FB2306F90093770404A5C7A3070100F4
:102FA0009377040289E79C8793E72700DC87937770
:102FB000040189E79C8793E71700DC8793778400F7
:102FC00089E79C8793E78703DC87DC40984093067A
:102FD000F10088232C3B0546EF10A06B9377740F0C
:102FE00099C30145F93313052003A0A4238A0400E3
:102FF000EF30104A014541016FD02FD493070004F0
:1030000085B79147DC8769BFEFD2EFD03704002046
:1030100041119304C402930700F898405C84DC409B
:103020002C2B3400882305461304C402EF1060667D
:1030300013054006EF30D0459840DC4023040100E2
:103040002C2B882334000546EF10A0649840DC4008
:1030500034006C2B88231946EF10B0039C869885AA
:103060008A070607098B918BD98F9884058BD98F96
:10307000D9C7054793F5F70F6394E7003CB831A033
:1030800089476393F506A3090400FD577EA41CA895
:103090003CA8FD571CC4231A0400854731468145CE
:1030A000130564015CA4EFD00FCA85473EB023220C
:1030B00004021305007DEFF01F890DED0945EFF0C7
:1030C000BF940DE91305A002EFF0FF9F05E513057E
:1030D0002003D53305E1EFF03FB209EDEFF0DFC09B
:1030E0002A8409E9B53501A837B500001305C5756F
:1030F000EF4070547D54228541016FD00FC4DC40F5
:103100009840340088232C330546EF1080781C84C7
:10311000BD8B81EB37B5000013054578EF40F053C8
:10312000D1BF1147E391E7F637B500001305057DE0
:10313000EF40B052854799B719E67D5582807D559D
:1031400041016FD08FBFEFD20FBD370400201304B1
:10315000C4023C244111E5D713578500931785001D
:10316000D98F7C865C401375F50F2E95BA27E348FE
:10317000A7FC18408823AE840C2F328974000946BE
:10318000EF10205118405C40CA864C3B882313F650
:10319000F40FEF100050014565B719E67D558280A8
:1031A0007D5541016FD06FB9EFD2EFB637040020E3
:1031B0001304C4023C244111E5D71357850093172B
:1031C0008500D98F7C865C401375F50F2E95BA2744
:1031D000E348A7FC18408823AE840C2F3289740082
:1031E0000946EF10004B18405C40CA864C3B8823D0
:1031F00013F6F40FEF10E069014565B7EFD22FAF7A
:10320000B70400209387C40283C75702011189C7FE
:103210007D5505616FD02FB1E5DDC16B9384C4028C
:10322000368B32892E8AAA890144C14CFD1B636901
:10323000340313168900DC40984013598900336920
:1032400026012316210188232C2F74000946EF1034
:1032500040448547A382F40223936403014555BF8C
:10326000B38A894063D35C01C14A139C0A01135C91
:103270000C01330D8A006A86E2852285753D49F985
:103280001008E2852285113F41F533F67A010C08DA
:103290006A85EF80800D09E562944204418041BF58
:1032A000795585BFEFD22FA7370400201304C4023D
:1032B0000347440241116303A70429C5834754020D
:1032C0007D5595CF0145EFF02FCB0145EFF0DFA104
:1032D0006A30EFF05FBE5C40A30701009306F10087
:1032E0008823054693053002EF10A03A854705452F
:1032F0002302F402EFF04FC8EFF08FCD01454101FA
:103300006FD0AFA3EFF04FC71C289306F10005461E
:10331000DC875C40930530028823EF10803723025E
:103320000402D9BFEFD22F9C370400209307C402B8
:1033300083CA470259712A8BAE8B1304C40263857A
:103340000A0001458537854A1305E103EFF0CFDB1D
:103350001305D103EFF0EFE613052104EFF00FF2B0
:103360008800EFF02FFE1C280146DE855A85834D2C
:10337000A4003EC4EFF06F88631B051E0546AC0831
:10338000E800EFF08F87631205245C40B40011461B
:103390008823B545130A4106EF10A04F8346B104B8
:1033A000034781049309410493D746400D878D8BD1
:1033B000718B5D8F2302E1040347910493D726406C
:1033C0008D8B0D87718B5D8F8347A1048D8AA3023E
:1033D000E1048D87F18BD58F2303F10437B700000B
:1033E000B7B7000003AD477F0327877F930C010722
:1033F000D284528C03C909006310091E9307000090
:103400009CC091048509E3979CFEB7B700003EC6B7
:10341000B7C7000083A74780A40881493EC8B7C743
:10342000000083A787800149854C3ECAB7B70000DA
:1034300083A787653ECCB707008093C7F7FF3ECED2
:10344000B7C7000083A707803ED093172900DE97F7
:1034500088409C43898F13D5F741A98F3385A740B6
:10346000EF70B02EB7B7000083A5C77FEF70E03CC8
:1034700003270A002A8D930500003A853AD2EF709F
:10348000E024630D051612576A85BA85EF60F0785F
:10349000E245EF70C063F24782557D8DEF70C02822
:1034A0006356A000B3972C01B3E9F90005098D47D5
:1034B0009104110AE31BF9F893F7F90F3E8D5C4074
:1034C000E2860D468823B5459309C104EF10603CA0
:1034D00083476106035741068966FD8B2303F10686
:1034E000B2479386F6F1758F83A7C77F2312E10653
:1034F00081443EC6B7C7000083A747810149054AFA
:103500003EC8B7C7000083A787813ECAB7B700008F
:1035100083A7077F3ECCB7C7000083A7C7803ECEF6
:10352000B7B7000083A787653ED0B707008093C771
:10353000F7FF3ED2B7C7000083AC0781931729007D
:10354000DA9703A509009C43898F13D5F741A98F0A
:103550003385A740EF70701FB245EF70002E330720
:103560002C011C23AA8B63800710624545A80146E5
:10357000DE855A85EFE07FE8E30205E08144FD57F0
:103580000355E1037EA41CA8FD571CC485475CA419
:10359000EFF06FBB0345D103EFF00FC703552104D4
:1035A000EFF06FD203550104EFF0FF906E85EFF05E
:1035B0003F9A2245EFF04FE463850A000545EFF09E
:1035C0007FCE268565616FC0DFF50546AC08E80053
:1035D000EFE0BFE245F555BB23A0A4017D191379A7
:1035E000F90F631509002380090021BD8840BA85C1
:1035F0003AC6EF70802488C03247CDB7C2456A858D
:10360000EF70E01AE34005EAD2456A8541BDF24514
:103610003AD63ED4EF706022A2573257FD1793F787
:10362000F70FF5F7AA85230007005E85EF60F05ECF
:103630008255EF70C0499257E6857D8DEF70C00EC0
:103640006355A000B3172A01DD8C05098D47910948
:10365000E316F9EE93F4F40F93B41400E3110DF2B2
:1036600093E4240029BFC245EF706014E34C05FCCD
:10367000D2455E85E1B78280EFC2FFE901114C08B7
:103680002800EFF03FCA0D4785476317E50648005D
:10369000EFF0EFCC22451244EF70300BA285EF70B3
:1036A000C019EF70007F2AC43245EF70100AA2855E
:1036B000EF70A018EF70E07D2AC64245EF70F00869
:1036C000A285EF708017EF70C07C2AC828002529DA
:1036D00013052100EFF06FCD3881D2474808B3873A
:1036E000E7023ECAE247B387E7023ECCF247B38720
:1036F000E7023ECE292381473E8505616FC0FFE387
:103700000307050081476343E002914705E3030790
:1037100015008547634CE000954709EB030725003A
:1037200089476345E0009337170099073E858280FB
:10373000EFC27FDEAA84E9372A8913853400C937AE
:103740002A84138564006D3F931734001A055D8D3C
:1037500033652501420541816FC03FDEEFC2BFDB0B
:10376000EFF09F8A294459E513058007EFF04FFEDB
:103770001375F50F05443DED13058007EFF0CFC736
:103780001375F50F09443DE513052003EFF0AFF283
:103790001375F50F0D4439ED912C1375F50F114488
:1037A00031E93705002013050502593785241375C3
:1037B000F50F154421E113053017EF009010137534
:1037C000F50F194405E913052003052B1375F50FB3
:1037D0001D440DE1EFF05FEA214409ED0545EFF0EE
:1037E0007FAC1374F50F11E837B50000130585732E
:1037F000EF40A06622856FC05FD42544E5BFEFC2CD
:103800001FCF7971AA8B2E8BB28A93079100130771
:10381000A100740010102C080808EF00F027631CAA
:1038200005183C85094593F707106383071802556F
:10383000B7B90000EF70607183A54972EF60F07F47
:103840002A891255EF70607083A54972EF60F07E8F
:10385000AA842255EF70606F83A54972EF60F07DF6
:103860002A843255EF70606E83A54972EF60F07C58
:10387000B7B7000083A58772AA892685EF60F07B21
:10388000AA8CCA854A85EF60B0022A8CCE856685EF
:10389000EF60B07A2A8AA2856285EF60107AAA85E5
:1038A0005285EF60F000EF30C04BEF70500337BA35
:1038B000000003260A7383264A73EF50100CEF7042
:1038C000D00C23A0AB00A2852285EF60607EAA8B7E
:1038D000A6856685EF607076AA8CA2855E85EF600E
:1038E000D075AA856685EF70801EB7B7000083A5E6
:1038F0008765EF60E07BAA8CCE855E85EF60F07314
:10390000AA8BA6856285EF605073AA855E85EF60FD
:10391000207AE685EF30C050EF70607C03260A7392
:1039200083264A73EF507005EF7030062320AB00FA
:10393000CA854A85EF6070702A8BA6852685EF6060
:10394000D06FAA855A85EF60A0762A8BA285228542
:10395000EF60B06EAA855A85EF7060172A8BCE850E
:103960004E85EF60906DAA855A85EF704016A2854E
:103970002A8B2685EF60706C2A84CE854A85EF609D
:10398000D06BAA852285EF60A072AA85EF60407295
:10399000DA85EF30E048EF70807403260A738326DF
:1039A0004A73EF50807DEF70407E23A0AA0001454E
:1039B00045616FC05FB70545E5BFEFC2DFB5B7B77B
:1039C000B38D4111938787AB3EC2B7A70D3593875F
:1039D000478B3EC450009307D005A5451305804B87
:1039E0005C86EFF06FF541016FC03FB5EFC2BFB22B
:1039F000B16505659306800C130600409385058626
:103A0000130565BFEFF08FFF6FC03FB3EFC2BFB0CC
:103A1000F57741111387C7D49387C7907C869307A6
:103A2000C00278845C871307C006937635001C08B3
:103A30005885BE9683C786FF135735000D8B5C8073
:103A40001C083E97834787FF100883C6C6FFDC80AB
:103A5000935765008D8BB29703C687FF0347C7FF57
:103A600083C7C7FF2A8450818D450A8613056042AB
:103A70005482D8825C83EFF02FEC09C57D5541015B
:103A80006FC0BFAB50008D451305A042EFF0CFEAE9
:103A900075F59567938767637C80930760075C8102
:103AA0009167938767627C82930760065C83937754
:103AB000440099C7930770035C80930770025C828F
:103AC0009377040299C793077005DC80930770040D
:103AD000DC829377041099C7930770075C81930782
:103AE00070065C830A868D4513050044EFF0CFE431
:103AF00051F550008D4513051043EFF0EFE33DFD08
:103B0000239081B4ADBFEFC21FA183D701B441118F
:103B100013F737000A072A970C4313F7470019C316
:103B2000B305B04013D71700318B2A97104313F712
:103B3000070219C33306C04013D74700318B3A95AB
:103B400093F70710184199C33307E040B7E6CA025C
:103B500093869630B387D5021305003DB395D50201
:103B6000F9833304D7028A05CD8F91453317D702E5
:103B70007980B304D6020A07598C13D78741588637
:103B800013D70741D88613978700C207C18333161E
:103B9000D602F980A183D98F7C870A06D18C700068
:103BA000EFF08FD909C57D5541016FC01F9993D79B
:103BB00084415C8693D70441DC8693978400C204D9
:103BC000C180A180DD8C700091451305403D648764
:103BD000EFF08FD669F9935784415C86935704417F
:103BE000DC86931784004204418021805D8C700044
:103BF00091451305803D6087EFF00FD475B7EFC294
:103C00009F9141112A8413052100EFE01FFA83D709
:103C100001B4308113F737000A07229793F6470063
:103C20003E06184399C23307E04093D61700B18A85
:103C3000A2968C4293F6070299C2B305B04093D680
:103C40004700B18A369493F70710084099C33305AB
:103C5000A0409357F741B306C702B387C702F98262
:103C60003337C702BA978A07DD8E93D7F54133877A
:103C7000C502B387C7027983B3B5C502AE978A0779
:103C80009355F5415D8FB385C502B307C502333641
:103C9000C502F983130540292E960A06D18F13D643
:103CA0008641508213D60641D08213968600C20602
:103CB000C182A182D18E74839356874154849356D6
:103CC0000741D48493168700420741832183558F8F
:103CD000788513D78741588613D70741D88613971D
:103CE0008700C207C183A183D98F5000B1457C876B
:103CF000EFF08FC441016FC05F84EFC2DF8101111B
:103D0000AD652A843146938505444808EF702068E4
:103D10009307800C63F687007D5505616FC0FF81B6
:103D2000B3C787027000894513056021230601008F
:103D3000FD17DC86EFF04FC065F105655008B14511
:103D4000130515ACEFF04FBF61F9239281B4F1B7C1
:103D50009377750099E37D55828093070064E3ECC7
:103D6000B7FEEFC24FFB41112A842E85EF70402A27
:103D7000B7C7000083A58745EF60206AAA841305B2
:103D8000B100EFE01FC49C8511476383E70E6369B0
:103D9000F7000947638EE7027D5541016FC0EFF9D7
:103DA00021476389E70E4147E398E7FEB7C7000064
:103DB00083A547472685EF605028EF70A01313199D
:103DC0000501B7C700001359090183A5874715A04E
:103DD000B7C7000083A5C7452685EF601026EF70A2
:103DE0006011B7C7000083A50746131905011359D1
:103DF00009012685EF607024EF70C00F420593170C
:103E0000890041811359890033E9270193178500FF
:103E100021815D8D23162101688793771400C9EFF6
:103E20009377240085C3700089451305801DEFF04A
:103E3000AFB03DF11306E100894513058012EFF0A4
:103E4000AFAF39F91188014529D8700089451305AC
:103E5000C01DEFF06FAE29F11306E100894513058F
:103E6000C012EFF06FAD3335A0003305A04035B779
:103E7000B7C7000083A547462685EF60101CEF708A
:103E8000600713190501B7C700001359090183A57D
:103E9000874685B7B7C7000083A5C7462685EF606C
:103EA000D019EF70200513190501B7C70000135989
:103EB000090183A5074735BF700089451305401DDB
:103EC000EFF08FA7E31A05EC1306E100894513050F
:103ED0004012EFF06FA629D5C1B5EFC2CFE39377BB
:103EE0001500411195EBA30701009377250089C7C1
:103EF0009C8793E7C700DC87118909C59C8793E7F6
:103F00003700DC871306F100854513058014EFF0B8
:103F1000AFA241016FC06FE293070003DC87F1B7E6
:103F2000EFC26FDF4111854719C511479377F50F30
:103F30006373A7009147FD171306F100854513052C
:103F4000F014DC87EFF04F9F41016FC00FDFEFC22D
:103F50008FDC95473355F502411170008945931761
:103F6000850021815D8D68861305E01DEFF0CF9CF3
:103F700041016FC08FDCEFC20FDA95473355F50270
:103F80004111700089459317850021815D8D6886F8
:103F90001305A01DEFF04F9A41016FC00FDAEFC279
:103FA0008FD79307803E3345F50241117000B3056A
:103FB000B5021305C01593D785415C8693D705419B
:103FC000DC8693978500C205C181A181DD8D6C8758
:103FD0009145EFF06F9641016FC02FD6EFC2AFD37E
:103FE00095473355F50241117000894593178500B7
:103FF00021815D8D68861305A015EFF0EF934101D7
:104000006FC0AFD3EFC22FD195473355F5024111A1
:10401000700089459317850021815D8D68861305A1
:104020008015EFF06F9141016FC02FD1EFC2AFCE7D
:10403000411111C5EFF07F9841016FC00FD0AD6500
:1040400025469385C5444800EF7060345000A5456F
:104050001305804BEFF04F8EC5B7EFC2CFCB4111A8
:1040600015C1B7C7C4C69387072C05657000914575
:10407000130585A93EC6EFF02F8CEFE06FF54101E7
:104080006FC0AFCBB7978B8B9387B7B8F9BFEFC231
:104090008FC8411115C1B73730389387078205653E
:1040A000700091451305E5A93EC6EFF0EF88EFE0FB
:1040B0002FF241016FC06FC8B7A7A3A39387373A08
:1040C000F9BFEFC2AFC34111B7D7E309938727A068
:1040D0002A8450009145130580063EC2EFF0CF853B
:1040E000930730FA5C82137A040463040A16930778
:1040F00000FCDC82F1779387872C7C83137904188A
:10410000630E0914F577938747CC7C84930760FC92
:104110005C85930730FADC850565E9779387373A44
:104120005000A945130575AA7C8693793400EFF0F9
:10413000AF809307800D6384090093070002056533
:1041400050008545130565AB5C82EFE0FFFE937779
:104150000402638C0710EFF05F8663020902937715
:10416000041063880710B797B69B938727BB056534
:1041700050009145130525AA3EC2EFE0FFFB93775F
:104180001400638D070E0565E15750008545130542
:10419000058B5C82EFE05FFA9305A00F1D45EFF001
:1041A0003FBB1D45EFF07FD30545EFF07FD71305EB
:1041B0004006EFF0DFD91305401FEFF0DFDB37E5F6
:1041C000CA029305800C13059530EFF05FDD1305EF
:1041D0008002EFF0BFE02945EFF0DFE293772400A3
:1041E000B337F0009387870D500085451305D073D2
:1041F0005C82EFE07FF493774400054591E301454D
:10420000EFF0BFE593770401054591E30145EFF039
:104210001FE8938781B313678400BAA7EFE04FDBF1
:10422000938781B363170A06238707006305090094
:10423000F8271907F8A7518801C4F8274107F8A7FC
:1042400063850900F8271107F8A7014541016FC0F0
:104250002FAEDC82E9779387373A45B5E9779387C4
:10426000373A7C84930730FA65B50145EFF01FDCDF
:10427000EDB5B787B4909387070BD5BD0565930758
:1042800080FD500085451305058B5C82EFE0DFEA79
:10429000B1B71947F8A759BFEFC26FA5938B81B388
:1042A0002A8903C5EB000111AE89328B2310070068
:1042B0003E868A85B6843A8AEFE09F9945E503D722
:1042C000AB002A84938A81B39377470163860718EA
:1042D0001C8094809082E207C206D58F94814206AA
:1042E0000C84D58F1481E2058886A206D58F1482AE
:1042F0002320FB00C187E206D18E9083B387F702AB
:104300004205D18E10832206D18E90842322DB00B9
:10431000C1864206D18D9085B386D602D18D108597
:104320002206D18D10862324BB00C1856206498EEA
:104330008887BE96B387B502498E08872205498EC5
:104340002326CB0041863306C602B697B70600F196
:10435000B297B697B706000263F8F600EFE04FC7D2
:1043600023100A007D54EDA083570A0093E707103D
:104370002310FA00C14793760704A1C61410BE9615
:1043800003C606FE83C516FE990722064D8E2390AE
:10439000C90003C626FE83C536FE93F7F70F220633
:1043A0004D8E2391C90003C646FE83C656FE2206E3
:1043B000D18E2392D90083560A0093E686002310FB
:1043C000DA0093760718A1C61410BE9603C606FE3F
:1043D00083C516FE990722064D8E2310C90003C619
:1043E00026FE83C536FE93F7F70F22064D8E231166
:1043F000C90003C646FE83C656FE2206D18E23128E
:10440000D90083560A0093E606072310DA000D8BC5
:104410000DCF3309F1008347190083493900858B9B
:1044200099CB83A70A0081CB93F5790013D5390086
:1044300085051D89829783471900A18B99C783A79A
:104440004A0081C713D5690082972685EFF0AFA295
:10445000228505616FC02F8D814731BFEFC2AF8BC1
:1044600041112A84EF0060681305C00EEF00806BD5
:10447000EF0040722285EF00E06AEF00A071EF00CC
:10448000C0661305D00EEF00E069EF00A070EF00EA
:10449000606C2AC6EF006067324541016FC0EF894A
:1044A000EFC26F8741112EC62A84EF000064130506
:1044B000C00EEF002067EF00E06D2285EF00806600
:1044C000EF00406DB2452E85EF00C065EF00806CB7
:1044D000EF00A06341016FC04F86EFC2CF834C4114
:1044E0001C4196058A07DD8D1C451305400FDD8DA7
:1044F00093F5F50FEFF0DFFA6FC02F84EFC2AF81B5
:104500000C415C4196058A07DD8D1C451305500F53
:10451000DD8D93F5F50FEFF0BFF86FC00F82EFB2AE
:104520009FFF0111692313058008EFF03FF3AA8470
:104530001305900813844181EFF05FF21C402205BF
:1045400026958AA31305A008EFF05FF1AA8413054E
:10455000B008EFF0BFF01C4022052695AAA3130572
:10456000C008EFF0BFEFAA841305D008EFF01FEFEB
:104570001C4022052695CAA31305E008EFF01FEEA4
:10458000AA841305F008EFF07FED1C402205269564
:10459000EAA313050009EFF07FECAA8413051009C4
:1045A000EFF0DFEB1C40220526958AA713052009B2
:1045B000EFF0DFEAAA8413053009EFF03FEA1C4070
:1045C00022052695AAA713054009EFF03FE9AA8422
:1045D00013055009EFF09FE81C4022052695CAA755
:1045E00013056009EFF09FE7AA8413057009EFF047
:1045F000FFE61C4022052695EAA713058009EFF087
:10460000FFE5AA8413059009EFF05FE51C40220541
:1046100026958AAB1305A009EFF05FE4AA84130581
:10462000B009EFF0BFE31C4022052695AAAB1305A5
:10463000C009EFF0BFE2AA841305D009EFF01FE232
:104640001C4022052695CAAB1305E009EFF01FE1D7
:10465000AA841305F009EFF07FE01C40220526959F
:104660009305600BEAAB1305000EEFF07FE38D4777
:10467000054728003AC63EC43EC8EFF01FE6914702
:1046800048083ECC02CA02CEEFF05FE705616FB08A
:10469000DFEAEFB2BFE6B7640040AA8A2E8A328909
:1046A000368493890480B70502004E85EFD00FDA77
:1046B0007DF9138504808545B7040300B769004080
:1046C000EFD0AFD08504138B0980A6855A85EFD033
:1046D0008FD665DDD685138509800146B7040700AE
:1046E000B7690040EFD00FD493842408938A0980DF
:1046F000A6855685EFD02FD465DD13850980D28538
:10470000B7090700B7640040EFD00FD1938949087B
:1047100093840480CE852685EFD0EFD165DDB76424
:104720000040B709070022999384048093894908BF
:10473000631B890037650040854513050580EFD070
:104740006FCA6FB0FFDE05048345F4FF2685EFD006
:10475000AFCCCE852685EFD00FCE65DDD1BFEFB2D1
:104760009FDB4111CC879306F100AA85054613050E
:10477000000DEFF01FF241016FB03FDCEFB2BFD987
:10478000011185453705400002C202C402C602C8B5
:1047900002CA02CC02CEEFD00FEF85452145EFD003
:1047A000AFEC8567938707C07C8237150140F147DE
:1047B0003EC64C008D47130505C03EC4EFD08F9612
:1047C000B7270600938707A83EC8B707FFBF37641F
:1047D00000403ECAB70700043ECC0C0891671305A1
:1047E0000480FC86EFD0CFAD130504808545EFD063
:1047F0004FBC854513050480EFD06FC0130520031F
:10480000EF200049930500081305B006EFF03FF5CF
:1048100013054006EF20C04781451305B006EFF0B1
:104820001FF485456545EFF09FF381456945EFF03D
:104830001FF381457145EFF09FF2E1456D45EFF0C3
:104840001FF2814513058003EFF07FF181451305C9
:10485000A006EFF0DFF0814513053002EFF03FF0E6
:104860009305000813057003EFF07FEF85451305EE
:10487000B006EFF0DFEEEFE07FEE2A84AA8537C5C1
:1048800000001305C547EF30005B228505616FB05E
:10489000DFCAEFB2BFC6B76400402A8AAE8A32844C
:1048A000368993890480B70502004E85EFD00FBA90
:1048B0007DF9138504808545B7040300B76900407E
:1048C000EFD0AFB08504138B0980A6855A85EFD051
:1048D0008FB665DD138509800146D285B7040700D0
:1048E000B7690040EFD00FB493842408138B09807C
:1048F000A6855A85EFD02FB465DDD685138509804E
:10490000B7040700B7690040EFD00FB193844408A3
:10491000938A0980A6855685EFD0EFB165DD1385B2
:1049200009808545B7040300B7690040EFD0EFA9BF
:104930008504938A0980A6855685EFD0CFAF65DDC3
:10494000138509800546D285B7090300B764004086
:10495000EFD04FAD890993840480CE852685EFD0B2
:104960008FAD65DDB7640040B7090300130AF00F8F
:1049700093840480938909047D141374F40F6310E5
:10498000440337640040130504808545EFD08FA5AC
:10499000854513050480EFD08FA66FB07FB909E479
:1049A00081452685EFD0AFA5CE852685EFD0AFA86F
:1049B00065DD2685EFD08FA62300A90005096DBF10
:1049C000EFB27FB541112A849306E100AA8505461E
:1049D0001305000DEFF0FFEB930514009306F100B3
:1049E000054693F5F50F1305000DEFF09FEA1C87C0
:1049F0008887A2075D8D41016FB03FB4EFB2BFB1B0
:104A0000411170002C004800EFE07FDFB24737040F
:104A10000020AA84232CF418924713048419130548
:104A200070045CC0A2471CC4EFF09FF94AA41305B0
:104A30003004EFF0FFF86AA413055004EFF05FF8BC
:104A400031150AA8268541016FB03FAFEFB2BFAC68
:104A50002A863715014093050004130505C0EFC0F1
:104A60005FF92945EF20201F6FB03FADEFB2BFAA1D
:104A70002A863715014093050008130505C0EFC0CD
:104A80005FF72945EF20201D6FB03FABEFB2BFA805
:104A90003715014093050008130505C0EFC09FF4CA
:104AA0002A842945EF20201B22856FB01FA9EFB271
:104AB0009FA6411185452145EFD00FBBD147371443
:104AC00001403EC69307000C7C824C008D471305C5
:104AD00004C03EC4EFC01FE59305000C130504C0DD
:104AE000EFC0FFF041016FB05FA5EFB2DFA2054557
:104AF000EFF0DFF70545EFF07FF50145EFF01FF729
:104B00000145EFF0BFF46FB05FA3EFB2DFA0014546
:104B1000EFF0DFF50545EFF07FF30545EFF01FF50A
:104B20006FB0BFA1EFB29F9D2A890144930900088D
:104B3000A14433D5894033752501EFF03FF3054596
:104B4000EFF0DFF001450504EFF05FF0E31394FEB2
:104B50006FB01F9EEFB29F9A0545EFF03FF1814481
:104B600001449309000821490545EFF03FEEEFF0BD
:104B7000FFF185476317F500B3D799405D8C137437
:104B8000F40F01458504EFF07FECE39F24FD2285BF
:104B90006FB01F9AEFB23F980545EFF03FED054526
:104BA000EFF0DFEAEFF09FEE2A840145EFF01FEA15
:104BB00022856FB09F98EFB21F967971130600029D
:104BC00081450808EFB03F988545114502C202C4EF
:104BD00002C6EFD06FA9854513050020EFD0CFA8FE
:104BE0003165EFD00F9537150140C1474C001305D3
:104BF0000580372401407C8202C6EFC0BFD2130576
:104C00000440EFC01F8785473ECCB7070E003ECE5D
:104C10000C089147130504402302F10202C802CA9E
:104C200002D0EFC07F89854513050440EFC03F8F58
:104C3000854513050440EFC09F8D81451305044051
:104C4000EFC05F9E13050440EFC09F8E93040440A5
:104C50002685EFC09F8E6DFD13050440372401406B
:104C6000EFC03F8E930404402685EFC03F8E6DFD5C
:104C700013050440EFC09F9CB7070020239EA71098
:104C800045616FB09F8BEFB21F8939712A842E89DD
:104C9000B28481451306C002480836C6EFB0BF8A09
:104CA00085450545EFD06F9A2285EFC03FAC93074D
:104CB00000083ED493070010B2463ED6930700404A
:104CC0003ED8930700023EDA4C088D6722854ACA17
:104CD00026CC36D03EDC02CE02D202DEEFC0DFBFF1
:104CE00021616FB09F85EFB21F83EFF0DFECB70754
:104CF00000208395C71137C5000013058549EF30A3
:104D0000801337240140B70402403706002085464F
:104D1000130606129305C44413854404EFF0BFF64E
:104D2000138544048545EFC0BFBE9D460546130567
:104D300004409145EFC09F83854513050440EFC0B3
:104D40007F816FB08FFFEFB20FFD1C45AA842E89C3
:104D50000314A50089EF084193050000EF501017D8
:104D600019E50A042694232024016FB00FFD89471A
:104D700005043364F4020397840093170401C18788
:104D80000A04BEA4269423202401E390E7FE8507AD
:104D9000858B9EA4D9BFEFB20FF82A8408419305F2
:104DA0000000EF50E0304C40EF508030B7C70000BB
:104DB00083A5074BEF5070286FB02FF8EFB2AFF517
:104DC00041118545114502C202C402C6EFD0CF8908
:104DD00093070010371401407C82C1473EC64C0047
:104DE0008D47130504803EC4EFC0DFB3054693052D
:104DF000001013050480EFC0DFBF41016FB0EFF377
:104E0000EFB26FF1AA843705080039712E841305BB
:104E10001502854532C602D202D402D602D802DA81
:104E200002DC02DE02CC02CE23100102EFD0CF83DF
:104E30003705138085454105EFC05FBCED7793874B
:104E400007A02312F10237150140E1473ED64C106E
:104E50008D47130505403ED4EFC0DFACE0843754E6
:104E600001402C08130504C0E486231F0100231D04
:104E70000100EFD00F853246C167938707060C18F3
:104E8000130504C03ED8231BC102231C0102EFD02E
:104E9000EF8D0C18130504C0EFD06F950C18130597
:104EA00004C0EFD0AF9F0C18130504C0EFD0CFA9FA
:104EB000130504C08545EFD02FB3130504C0814509
:104EC000EFD08FB5130504C08145EFD0CFB51305E2
:104ED00004C08145EFD08FB6130504C08145EFD0E3
:104EE000CFB6130504C08545EFD06FB185451305D6
:104EF00004C0EFD0EFAD21616FB02FE4EFB2AFE1AE
:104F000009651306803E93051003130505C2EFF0F3
:104F10003FEF37540140130504C09305005AEFD00A
:104F20002FB4130504C09305005AEFD0AFB3130597
:104F300004C09305005AEFD02FB39305005A130510
:104F400004C0EFD0AFB26FB04FDF9307005A63FBDE
:104F5000A70085671387F7B36363A70693072067E6
:104F600063E4A7001305005AB707002013878720C2
:104F700058239387872019EB930620672A87637449
:104F8000D5001307206713150701418183A7472028
:104F90000947FD15638EE706EFB2EFD7939725001B
:104FA000B705002093858505BE959C416382E70483
:104FB000634AF70005476385E7026FB00FD8138592
:104FC00007B45DB70D47638DE7021147E397E7FE2E
:104FD000AA8537550140130505C0EFD02FA9F1BFB1
:104FE000AA8537550140130505C0EFD06FA7F1B76B
:104FF000AA8537550140130505C0EFD0AFA675BF90
:10500000AA8537550140130505C0EFD0EFA575B748
:105010008280EFB24FD08566938606B42E87B6871E
:1050200063E3A600AA871396070141829306005AFC
:105030006374D6009307005A939507017D17B7074D
:1050400000200A0793878705BA979C430947C181C7
:10505000638DE7026347F70005476381E7026FB09E
:10506000CFCD0D47638AE7021147E39AE7FE375534
:105070000140130505C0EFD06F9FD5B737550140EC
:10508000130505C0EFD0CF9DD9BF3755014013059B
:1050900005C0EFD02F9DE1B737550140130505C07E
:1050A000EFD08F9C6DBF3705004085451305054047
:1050B000EFD04F9D73002030371500408545130514
:1050C0000580EFD02F9C73002030EFB2CFC47971F0
:1050D00085453705020002CA02CC02CE02D002D2B8
:1050E00002D402D602C602C8EFC0FFD985451145D9
:1050F000EFC09FD79147FC82371401408D473ECCCB
:105100004C08E147130504803ECEEFC0BF81A147A4
:105110004C08FC821305048091473ECEEFC09F806F
:10512000B77706009387078A3ED0B7070C003ED4B6
:10513000930760037C86680085473EC8374400407B
:1051400002D22316010223070100EFC0FFB31305AB
:1051500004408545EFD08F9F0C1013050440EFD01D
:105160002F9305469305505213050440EFD06F9FCF
:1051700045616FB08FBCEFB20FBA2A84EFD04FA257
:10518000B706002003C726121386C1CA930717006B
:1051900093F7F70F329708A32381F6121307000441
:1051A0006394E70023810612B707002003A7870D49
:1051B00085476313F7009924930550522285EFD059
:1051C0004F9F6FB08FB7411122C6374400409305FF
:1051D000505213050440EFD08F9E01CD930500027D
:1051E00013050440EFD04F9C09C513050440EFF0B0
:1051F0009FF832444101730020300147938601B685
:10520000130800109377F70F214693951700E207D4
:10521000E187FD87E98F93F5E50F7D16AD8F75F674
:105220003386E6001CA20507E31E07FD8280AA95CF
:105230008147138701B66314B5003E85828005055A
:105240008346F5FFB58FBA979C23F5B73707002043
:10525000130727121C236365F500230007008280D3
:10526000898F93F7F70F1CA39386C1CA01473306B2
:10527000A70036960C223386E60005070CA2E31839
:10528000F7FE8280582134311D8B2207938701C697
:10529000558F98C358219356370058311377F70329
:1052A0001607558FD8C35431782199820A07D98EB1
:1052B0007831058B2A07558F98C778319356170098
:1052C00018253D8B1E07558FD8C7182593564700C4
:1052D00018351377F7071207558F98CB14353825F3
:1052E0009D820607D98E38350D8B2607558FD8CB72
:1052F00038359356270058257D8B1A07558F98CF40
:1053000058259356570058350E07558FD8CF783506
:1053100074251D8B2207558F98D378359356370007
:1053200018291377F7031607558FD8D3142918397E
:1053300099820A07D98E3829058B2A07558F98D765
:1053400038299356170038393D8B1E07558FD8D70B
:1053500038399356470058291377F7071207558FA6
:1053600098DB542958399D820607D98E78290D8BF0
:105370002607558FD8DB78299356270078397D8BFF
:105380001A07558F98DF783993565700182D0E0756
:10539000558FD8DF8280EFB20F9858213C314111F0
:1053A00022075D8F5C316C002946C2075D8F7C212E
:1053B000138501CAE207D98F3EC6EF50507D4101E7
:1053C0006FB0AF979387C1CA94231307800C63967D
:1053D000E602EFB24F94BC235147638BE700594775
:1053E0006396E7001385C1CAEFF0DFE96FB0EF9471
:1053F0001385C1CAEFF03FFAD5BF8280EFB20F909C
:105400009384C1CA370900208549130AB003938ADF
:1054100024000347291263F4E90480309307D4FF82
:1054200093F7F70F6376FA000545EFF03FE2D5B743
:105430009307140063D5E702A69703CB07009305F3
:10544000F4FF93F5F50F5685EFF07FDEE31EABFC1E
:10545000EFF05FF7130524001375F50FF9B76FB080
:105460002F8D930700001CC15CC11CC55CC51CC905
:105470001CCD5CC95CD11CD55CD51CD9828093073E
:1054800000003CC15CDD1CDD5CD11CD95CD51CD5A9
:105490007CC53CC57CC18280930700007CC53CC5AF
:1054A0007CC13CC15CDD1CDD1CD95CD51CD55CD14C
:1054B0005CCD1CD18280EFB26F842A843C44832966
:1054C000440410D07CC42E85232434054CCCB285F2
:1054D000EF50E05F0C4068C0AA84EF5000364C40AB
:1054E00008D42A8A2685EF5040354C54EF40503C72
:1054F0005C5CCE852A893CC01C5C48D426855CDC7B
:10550000EF50E05C0C4408DCEF502033832A440168
:10551000AA8908D8D6854A85EF5000216355A00096
:105520002326540309A8832A84014A85D685EF508F
:105530000028E34705FE4C545285EF407037CE8576
:10554000EF4010370329C40048D0AA89CA85EF501C
:10555000A01D6355A0002322240309A803290401E8
:105560004E85CA85EF50A024E34705FE0329440376
:105570002685CA85EF50A023634FA000B7050080A1
:10558000B3C525012685EF50201A63460500930711
:1055900000005CD05CD46FA0BFF9EFA2DFF7EFF0A2
:1055A000DFB2EFF0AF9D75FDEFF05F95EFE03FF7F5
:1055B000EFF06FF3EFB08FAEEFF05F8037C5000014
:1055C0001305454BEF2070096FA03FF7B707002088
:1055D0009387C7139843636FA702D043B386C7006E
:1055E0006316D50054413E85B296D4C35041B306EC
:1055F000C500631CD700B706002083A646126306C9
:10560000D70054431843B29654C118C16303F50040
:1056100088C38280BA877DBFEFA25FEE41112AC6A0
:10562000EF00503EB706002083A746123706002041
:1056300093864612130686123245A1EF37070020E3
:105640009307475C93F5F7001307475C81C5138701
:10565000F700419BB70500209385C51323A20500E1
:1056600098C19165C115AE97C19B23A2070023A0E5
:105670000700B385E7409CC21CC3B707002023A8DE
:10568000B712B707002023A6B712B70700804CC394
:105690001CC2032A0600B377AA0085E39307F5FF2F
:1056A0003957636CF7009307050113F7F70049C3F7
:1056B00013F707FF410763ECE706814491A02287B7
:1056C0002E8469A058C15CC0EFF05FF05840B70667
:1056D0000020938606139042B307E94023A0F90007
:1056E00063F3C7009CC2B70700203367EA009387C3
:1056F000471358C09843C10423200400050798C3EA
:10570000EF00B04C93F7F400D1CBA16793870780EB
:105710007390073037C6000037C500001306864C6B
:10572000930500111305054FEF20E07001A0BA8723
:10573000370700200329C7129309C712E36FF9F650
:10574000370700200324C7131307C713504063749F
:10575000F6000C40ADF59442E38186F61440044314
:1057600014C33307F64093060002E3F1E6F633056F
:10577000F4009376F500B9D6A167938707807390FC
:10578000073037C6000037C500001306864C930566
:10579000F00C1305054FEF20006A01A0268541019A
:1057A0006FA01FD95DC1EFA21FD7B7070020032745
:1057B00045FF83A787122A84B376F7009DE2A1678D
:1057C000938707807390073037C6000037C5000005
:1057D0001306864C930540121305054FEF20A06574
:1057E00001A0832605FF9DC2A16793870780739060
:1057F000073037C6000037C500001306864C9305F6
:1058000050121305054FEF20006301A093C7F7FF67
:10581000F98F232AF5FEEF00F01EB70700209387CB
:10582000C7129443032744FF130504FF369798C318
:10583000EFF0DFD9B7070020938787139843050758
:1058400098C3EF0090386FA05FCF8280B707002029
:1058500003A507138280B7E700E041572387E7409D
:105860002386E740B7F700E023A0070023A2070044
:10587000814694C70147D8C783A5C1801307803EDE
:10588000814633D6E5023D4790CBD4CB98C3828086
:10589000EFA27FC8411102C6F32750303EC6B2477F
:1058A0000D478D8B6384E702A16793870780739010
:1058B000073037C6000037C5000013064651930570
:1058C000600B1305054FEF20005701A0B78700209C
:1058D00093870700BD8B9DC3A16793870780739053
:1058E000073037C6000037C5000013064651930540
:1058F000B00B1305054FEF20005401A0EFF0BFF5EA
:10590000B7E700E0056723A0E710116723A0E710C1
:1059100023AC0180EFA0DF9E014541016FA0FFC1D4
:1059200073110134A1679387078073900730B7F72D
:1059300000E023A20700EF00900E11C5B7E700E0DA
:10594000116723A0E720A1679387878873900730AA
:105950007311013473002030A1679387078073901F
:105960000730938781819843050798C38280138706
:1059700081811C438DE7EFA21FBAA167938707803F
:105980007390073037C6000037C500001306465134
:10599000930520101305054FEF20E04901A0FD17E6
:1059A0001CC391E7A1679387878873900730828033
:1059B000930785007D575CC118C55CC51CC92320B1
:1059C000050082802328050082809841FD569307B8
:1059D0008500631ED7001C49D843D8C10CC79CC59D
:1059E000CCC31C4188C985071CC18280B687D443BB
:1059F0009042E37DC7FECDB7544118451C4998C677
:105A000054C3D4436393A600D8C398432328050006
:105A10007D1798C388438280EFA2FFAF41112AC649
:105A2000EFF09FF33245005DEFF07FF41335140083
:105A300041016FA09FB0304115C2EFA2DFAD5845C4
:105A40001445AA87329758C56364D700184158C5D2
:105A50002E85CC47EF50B0136FA03FAE8280EFA2EF
:105A60009FAB2A84EFF05FEF834454041309440290
:105A7000E204E18463489002FD57A302F404EFF0CE
:105A80001FEFEFF07FED8344440413090401E204A7
:105A9000E18463459002FD572302F404EFF03FEDEB
:105AA0006FA0BFA95C50E9DB4A85EF00704419C1C3
:105AB000EF00D060FD14E204E1846DBF1C48E1DF1B
:105AC0004A85EF00F04219C1EF00505FFD14E20477
:105AD000E184C1B7EFA23FA441111DE1A167938703
:105AE00007807390073037C6000037C500001306E3
:105AF000C653930500111305054FEF20C03301A0D5
:105B00005C5D2EC62A84BDC73841B3B7E702BDE34A
:105B1000EFF09FE43040585C1440232C0402B3079C
