:040000006F10A03F9E
:10000400000000000000000024110000281100007E
:1000140000000000F81300000000000000000000D1
:10002400F8130000F81300000000000000000000B6
:10003400565900000000000000020000000000000B
:10004400F8130000F8130000F8130000F813000080
:10005400F8130000F8130000F8130000F813000070
:10006400F8130000F8130000F8130000F813000060
:10007400F8130000F8130000F8130000F813000050
:10008400F8130000F8130000F8130000F813000040
:10009400F8130000F8130000F8130000F813000030
:1000A400F8130000F8130000F8130000F813000020
:1000B400F8130000DC500000EE500000F8130000BC
:1000C400F8130000F8130000F8130000F813000000
:1000D400F8130000F8130000FC510000F8130000AE
:1000E400F8130000F8130000F8130000F8130000E0
:1000F400F8130000F8130000F8130000F8130000D0
:1001040000000000F8130000F8130000F8130000CA
:10011400F8130000F8130000F8130000F8130000AF
:10012400F8130000F8130000F8130000F81300009F
:10013400F8130000F8130000F8130000F81300008F
:10014400F8130000F8130000F8130000F81300007F
:10015400F8130000F8130000F8130000F81300006F
:10016400F8130000F8130000F8130000F81300005F
:10017400F8130000F8130000F8130000F81300004F
:10018400F8130000F8130000F8130000F81300003F
:10019400F8130000F8130000F8130000F81300002F
:1001A400000000000000000000000000000000004B
:0C01B4000000000000000000000000003F
:10020000130181F806C216C41AC61EC822CA26CC1B
:100210002ACE2ED032D236D43AD63ED842DA46DC76
:100220004ADECEC0D2C2D6C4DAC6DEC8E2CAE6CC46
:10023000EACEEED0F2D2F6D4FAD6FED8F3220030CF
:1002400096DA9702002083A222F023A02200F32551
:1002500010342EC09305000273A0458003A1818253
:10026000EF60E03617030020032303EE03210300B1
:10027000824273901234D652739002309240A2425E
:100280003243C2435244E244724582551256A2564A
:100290003257C2575258E25872598649164AA64AEE
:1002A000364BC64B564CE64C764D865D165EA65ECA
:1002B000365FC65F13018107730020301300000012
:1002C00013000000130000001300000013000000E2
:1002D00013000000130000001300000013000000D2
:1002E00013000000130000001300000013000000C2
:1002F00013000000130000001300000013000000B2
:1003000083A28182938202E073900234170100205D
:10031000032181E3024182403243C2435244E2441A
:10032000724582551256A2563257C2575258E25859
:1003300072598649164AA64A364BC64B564CE64C6D
:10034000764D865D165EA65E365FC65FD652A1020A
:1003500073900230A24213018107828013000000D3
:100360001300000013000000130000001300000041
:100370001300000013000000130000001300000031
:100380001300000013000000130000001300000021
:100390001300000013000000130000001300000011
:1003A0001300000013000000130000001300000001
:1003B00013000000130000001300000013000000F1
:1003C00013000000130000001300000013000000E1
:1003D00013000000130000001300000013000000D1
:1003E00013000000130000001300000013000000C1
:1003F00013000000130000001300000013000000B1
:10040000F322003093F272FF130380781203B3E2F9
:100410006200711523205500130585FA10C12115BE
:10042000232005009302000063870200711523203A
:100430000500FD12D5BF71150CC1828000000000BF
:1004400000000000000000000000000000000000AC
:10045000000000000000000000000000000000009C
:10046000000000000000000000000000000000008C
:10047000000000000000000000000000000000007C
:10048000000000000000000000000000000000006C
:10049000000000000000000000000000000000005C
:1004A000000000000000000000000000000000004C
:1004B000000000000000000000000000000000003C
:1004C000000000000000000000000000000000002C
:1004D000000000000000000000000000000000001C
:1004E000000000000000397101436EC619A0397187
:1004F00041536AC866CA62CC5ECE19A039710153F5
:100500005AD056D252D44ED64AD826DA22DC06DE4B
:1005100033016140828241114AC026C222C406C60C
:100520008282B24D4101024D924C224CB24B4101AC
:10053000024B924A224AB249410102499244224462
:10054000B240410182803D432A876373C30293779F
:10055000F700BDEFADE5937606FF3D8ABA960CC372
:100560004CC30CC74CC74107E36BD7FE11E2828036
:10057000B306C3408A069702000096966780A600DD
:100580002307B700A306B7002306B700A305B700EB
:100590002305B700A304B7002304B700A303B700E3
:1005A0002303B700A302B7002302B700A301B700DB
:1005B0002301B700A300B7002300B700828093F5A2
:1005C000F50F93968500D58D93960501D58D61B76E
:1005D000939627009702000096968682E78086FA17
:1005E0009680C1171D8F3E96E374C3F8A5B7EFF24E
:1005F0009FF237040020130484190C4037050020B3
:100600009304051C1305051CEF40C0764C40138570
:100610000401EF4020760C4413850402EF408075FE
:100620000315C400EFA0D015AA8513850403EF407D
:1006300060740315E400EFA0B014AA8513850404C8
:10064000EF40407303150401EFA09013AA851385B2
:100650000405EF402072D5B5EFF2FFEB370500201F
:100660009304051C370400201305051C1304C41A49
:10067000EF40607508C013850402EF40C07448C0A5
:1006800013850401EF40207408C413850403EF4070
:100690008073EFA070034AA413850404EF40A07296
:1006A000EFA090026AA413850405EF40C071EFA08B
:1006B000B0010AA859B5EFF21FE63704002005493A
:1006C000232C040CEF4060369304840D19E10537A8
:1006D0006137294523A02401EF501069D5B7EFF207
:1006E0009FE3EF50001AAA8537B500001305854A2D
:1006F000EF70C077370400200325C41A1304C41A0E
:1007000037590140EFA010212A8637B50000AE8688
:100710001305054DEF7080754840EFA0B01F2A8685
:1007200037B50000AE861305054EEF7020740844FF
:10073000EFA0501E2A8637B50000AE861305454F40
:10074000EF70C0728315C40037B5000013058550E3
:10075000EF70C0718315E40037B500001305C55173
:10076000EF70C0708315040137B500003704002016
:1007700013054553EF70806F93040422E85C130463
:100780000422EFA030192A8637B50000AE86130583
:100790008554EF70A06D03A5C41BEFA0B0172A8687
:1007A00037B50000AE8613058555EF70206C03A5A4
:1007B000C411EFA030162A8637B50000AE861305A7
:1007C0008556EF70A06A130509C0EF107030AA8536
:1007D00037B500001305C557EF704069130509C010
:1007E000EF10502FAA8537B5000013058558EF701C
:1007F000E067130509C0EF10702DAA8537B500001A
:1008000013054559EF708066130509C0EF10D02C11
:10081000AA8537B500001305055AEF702065DC3056
:100820000947639CE70237B500001305C55AEF700E
:1008300020665C20A1E337B500001305855EEF70EC
:100840002065832704200547639BE70237B5000036
:1008500013050561EF70C063CDB105476397E700ED
:1008600037B500001305055CD9B737B5000013058F
:10087000455D75BF37B500001305C55FC9B70947AA
:10088000E39CE7FC37B5000013054562E1B7EFF2E2
:100890009FC8B1351545EF50304DE5BFEFF2BFC4ED
:1008A000B70400201384819483A78406930A8400EC
:1008B000411156858297B7B7000083A70765138952
:1008C0008406130B00001CC4B7B7000083AC476557
:1008D000B7B7000003AC8765B7B7000003AAC765C8
:1008E000B7B7000083A90766B7B7000083AB4766B8
:1008F000832749002326640123286401232E7403DF
:100900005685232E940123208403232A4401232C7B
:100910003401829783A78406130D84056A85829724
:10092000B7B7000083A78766232E640523206407DA
:100930003CCCB7B7000003ABC766B7B7000083AACB
:10094000076783274900232674096A8523266407DD
:10095000232854072322440723243407829783A79C
:100960008406130D840A6A85829737B7000003272F
:100970008767B7B7000083A747672326E40A37B71E
:1009800000000327C7672324F40A6A852328E40AA2
:1009900037B7000003270768232E940B2320840D0C
:1009A000232EE40C03274900232A440B232C340B69
:1009B0003EC6029703A78406930D840F6E850297A7
:1009C00037B700000327476893070000232EF40E73
:1009D000232CE40E37B70000032787686E85232693
:1009E00064112320E41037B70000032DC7680327E4
:1009F000490023285411232244112324341123268F
:100A0000A413029703A78406930D84146E8502979E
:100A1000B247232E74176E852324F414B7B7000051
:100A200083A70769232E9415232084172326F41403
:100A3000B7B7000083A74769232A4415232C341530
:100A40002328F41483274900930B8419829783A7E2
:100A500084065E858297B7B7000083A7876923263F
:100A6000641B2328541B232CF41893070000232E07
:100A7000F418B7B7000083A7C7692322441B2324B7
:100A8000341B2320F41A832749002326A41D5E85E6
:100A90008297410179B4EFF21FA81307803EAA871D
:100AA0006351A702130585C1EF90A035B7B70000C9
:100AB00003A6876383A6C763EF80806FEFA04070B3
:100AC000ADBC1307803D13050000E34BF7FE138513
:100AD00077C2D9BF9307800C63FFA702EFF2BFA3D1
:100AE000130585F342054181EF90A031B7B70000AF
:100AF00003A6076483A64764EF80806BB7B7000046
:100B000003A6876483A6C764EF70306CEF90A029BA
:100B1000420541811DB413056054828083A781C8BA
:100B20009387779093B7070193C717002386F194B3
:100B3000828003A701C9BD461306779093878194ED
:100B400063E5C6000947D8B38280130727C2D146A0
:100B500063E4E6000547C5BFA38207008280EFF289
:100B60009F9B13848194B707002003A6471B03258E
:100B7000841F41119305000032C6EF90C056B7079D
:100B80000020324683A74707AA851305841482975D
:100B9000410165B2EFF23F98B70700200395C71BEC
:100BA000EFA0003EB7B7000083A5076AEF90500A98
:100BB00093878194370700200327470783A5C7162B
:100BC0002A861385871902978DBAEFF2DF94138472
:100BD0008194B707002003A6C71A0C400325041F01
:100BE000411132C6EF902050B7070020324683A74C
:100BF0004707AA8513058400829741016FF0FF9390
:100C0000EFF27F91B70700200395871B3305A040C3
:100C1000EFA00037B7B7000083A5076AEF90500335
:100C2000938781943707002003274707CC572A86EC
:100C30001385870502976FF05F90EFF2DF8D1384C5
:100C40008194B707002003A6071B0325441F411109
:100C50009305000032C6EF900049B70700203246E6
:100C600083A74707AA851305840A829741016FF07D
:100C7000DF8CEFF25F8AB70700200395A71BEFA078
:100C80002030B7B7000083A5076AEF90607C938798
:100C90008194370700200327470783A5C70C2A86BE
:100CA0001385870F02976FF05F8983A741C91307E8
:100CB000F00B6396E700054723A4E1B48280130795
:100CC0000070E39DE7FE0947C5BFEFF2DF84938420
:100CD00081C7C844138481947D3B2328A41E03A5A7
:100CE00081C7553B232CA41EC8407533232AA41E5C
:100CF0008844CD33231EA41E1535253D7D376FF066
:100D0000DF83EFF2CFFEA13D7135053F9D37753D85
:100D1000C53D93848194B707002083A7C71A83DB5E
:100D2000C41F138481949CC05E85EFA0602503AA34
:100D3000C4112A8CD285EF90003B83A9C41B03A960
:100D4000C407AA8ACE85EF90003ACA85EF90A039F1
:100D5000EFA0A01D131B0501135B0B01CE8556856B
:100D60002394641FEF90105ACA85EF90B059EFA0FA
:100D7000C01B931A050193DA0A01D2856285239577
:100D8000541FEF903058AA852A8C4E85EF90A035DD
:100D9000CA85EF904035EFA04019131A0501135A88
:100DA0000A01CE852396441F6285EF90B055CA850F
:100DB000EF905055EFA0601742054181856723975A
:100DC000A41E938707B463F467072314F41E856792
:100DD000938707B463F457072315F41E8567938739
:100DE00007B463F447072316F41E8567938707B497
:100DF00063F4A7062317F41E832704200547639492
:100E0000E7060355841E8545EF4080170355A41E51
:100E10008945EF40E0160355C41E8D45EF4040164E
:100E20000355E41E9145EF40A0156FF0CFEF9307F7
:100E3000F059E3EE67F99307005A41BF9307F05961
:100E4000E3EE57F99307005A41BF9307F059E3EED9
:100E500047F99307005A41BF9307F059E3EEA7F80B
:100E60009307005A41BF0947E391E7FC85455E853A
:100E7000EF4000110355C41F8945EF406010035532
:100E8000C41F8D45EF40C00F91450355C41F61BF7E
:100E9000938781941307101093060000DAA3054787
:100EA00094C32383070023A4071E23A6071E23A899
:100EB000D71E23AAD71E23ACD71E239E071E23A00E
:100EC000E72023A2E7208280EFF2EFE485451305B7
:100ED000005AEF40E00A89451305005AEF40400AE6
:100EE0008D451305005AEF40A00991451305005A9E
:100EF000EF4000096FF06FE4EFF24FE0138481944C
:100F0000B70400207137130984149384840693096D
:100F10008419130A840A930A840F130B840075330F
:100F2000032744208947630BF7005C209DEF03559E
:100F3000C41F9307306A63F7A700E1335145EF50B0
:100F4000A062F1BF8545EF40A0030355C41F89454A
:100F5000EF4000030355C41F8D45EF406002035569
:100F6000C41F9145EF40C001D1BFB93F9C444A85A1
:100F700082979C444E8582979C44528582979C44DC
:100F8000568582979C445A8582979C441305840514
:100F900082976DB7EFF2AFD5370400209307042294
:100FA0000547D8A3B7B7000083AA476AB7B70000C0
:100FB00003AB876A1304042237BA000037BC000071
:100FC0005C20D9EF93848180984085476313F70AAA
:100FD0001305CA6AEF60D06B894723A0040023225F
:100FE000F4208144930C803E2685EF907079D6855D
:100FF000EF901008DA85EF90000F138941802320CD
:10100000A900EF909072420585454181EF40C003F1
:1010100003250900EF907071420589454181EF4039
:10102000A00203250900EF90507042058D454181D3
:10103000EF40800103250900EF90306F4205914594
:101040004181EF4060005C2005476398E70223225E
:10105000F42013050C6CEF60B06385472322F42065
:101060005C2005476397E70023A4F1802322F42046
:10107000A13D2945EF50404FA1B705458504EF50EC
:10108000A04EE39394F7F1B7EFF2EFC8B707002053
:10109000B7B5000037150000938747110D4781460B
:1010A000130600109385056D1305E588EF40506D1C
:1010B000B7070020B7B50000371500009387071168
:1010C00011478146130600109385856D130545F978
:1010D000EF40106BB7070020B7B5000037150000D0
:1010E0009387871001478146130600609385056E3C
:1010F000130585EFEF40D068B7070020B7B50000B3
:10110000370500009387C710094781461306004042
:101110009385856E1305656BEF409066EF50C008B0
:101120006FF0AFC17300203001A0EFF2CFBE4111CC
:101130008545114502C202C402C6EF0090588D4792
:101140007C8237150140C1473EC64C008D471305D0
:1011500005803EC4EF00407F41016FF00FBEEFF20B
:101160008FBB0945EF00D0359D22EF50502F37F54A
:10117000030013050580EF50B0381305500DEF4004
:10118000200B83A5C18037B500001305C56EEF6045
:10119000F04DD52BAA8537B500001305C56FEF605C
:1011A000F04CB7B5000037B500009385C570130546
:1011B0004571EF60B04B953FEF4080411305800CC7
:1011C000EF50703037B40000C13513054473EF6041
:1011D000304CE5BFB71702409843B706FFF0411106
:1011E0001367170098C3D84337060200758FD8C31A
:1011F0009843B706F7FEFD16758F98C39843B70658
:10120000FCFFFD16758F98C3D843B70601FFFD1686
:10121000758FD8C39843B70600ECFD16758F98C339
:101220003707FF0098C723A6070202C402C69843E7
:10123000C166558F98C3B716024005679C42F18F6F
:101240003EC6A24785073EC4B24781E7A247E3975F
:10125000E7FEB71702409C431397E7006357070662
:1012600085473EC632478547631FF704B7170240DC
:10127000D843B706C1FFFD16D8C3D843D8C3D84357
:1012800013670740D8C3D843758FD8C3D843B70670
:101290001D00558FD8C39843B7060001558F98C3DA
:1012A000984393166700E3DD06FED843B716024065
:1012B000719BD8C3D84313672700D8C32147DC42AA
:1012C000B18BE39EE7FE4101828002C661BFB71683
:1012D0000240D8421146318B9387C1806305C70015
:1012E00021466308C70237177A001307072098C3FF
:1012F00037170240584311839376F70037070020D1
:10130000130707003697142398433357D70098C321
:101310008280D842D442416649833D8BF18E1306C8
:10132000270015CF3D47630FE6024147630FE602F2
:10133000454781456313E6004146A1E23747024035
:1013400003270780418B0DC737177A001307072043
:101350003306C70290C3C9DD9843058349BF814561
:101360004946E1BF85453546C9BF81453D46F1B790
:1013700037173D0013070790E1BF37150240585556
:101380009316F700585563DF060411833D8B9306CF
:10139000170037177A00130707203357D70298C36F
:1013A0005455A182BD8A8DE295463307D702058345
:1013B00098C337170240585794433D8B050733D7DE
:1013C000E60298C3984369B705456394A600E546CD
:1013D000E9BF3D456396A600D1463387E602C9BF03
:1013E0008906E5BF3D8B9306170037177A00130770
:1013F00007203357D702F1B701A097F1FF1F938160
:10140000E14D177100201301E1BF17B5000013056E
:10141000654C97F5FF1F9385E5BE1386018363FA3C
:10142000C5008322050023A0550011059105E3EABC
:10143000C5FE17F5FF1F130565CD97350020938571
:10144000652E6377B500232005001105E36DB5FE19
:10145000FD42739002BCFD4273904280B78200004F
:10146000938202807390023097F2FFFF9382C2B999
:1014700093E2320073905230EFF0DFD59702000014
:10148000938222CE7390123473002030EFF2AF8833
:10149000B727014093870740631EF5008545130574
:1014A0000020EF00D025814513050020EF003025F6
:1014B0006FF0AF88B737014093870780E31AF5FED6
:1014C000854513050040EF0090238145130500403A
:1014D000F1BF5C413707F1E01307F7EF944D7D8FC3
:1014E0009C41D58FD44DD58FD441A206D58FD98FAD
:1014F0005CC11C4537F7F1FF1307D77FD4457D8FBB
:101500009C49D58F94458606D58FD98F1CC55C55CF
:10151000370710FF7D177D8FDC29FD1793F7F70F35
:10152000D207D98F5CD582801C4589C593E7170007
:101530001CC58280F99BEDBF1C4589C593E7071048
:101540001CC5828093F7F7EFE5BF1C4593E7870042
:101550001CC5828008450D81058982801C4593E762
:1015600047001CC5828008450981058982801C4589
:1015700091C537075000D98F1CC582803707B0FF4F
:101580007D17F98FD5BFA54763F7B7048D4713873C
:1015900065FF3307F7020328C5009D47B397E700AF
:1015A00093C7F7FFB3F70701B396E600DD8E54C586
:1015B000994763E3C70495477D163306F6025859E9
:1015C000FD47B397C70093C7F7FFF98F3396C50060
:1015D0005D8E50D982800D473387E50203280501CF
:1015E0009D47B397E70093C7F7FFB3F70701B3969B
:1015F000E600DD8E14C96DBFB14763E2C7029547AF
:1016000065163306F6021859FD47B397C70093C70E
:10161000F7FFF98F3396C5005D8E10D9828095470C
:101620004D163306F6025855FD47B397C70093C7CA
:10163000F7FFF98FB395C500DD8D4CD582805C41F5
:1016400091C537070004D98F5CC18280370700FC41
:101650007D17F98FD5BFEFE21FEC01112A84230417
:101660000100A5441C8463F9F40423040100A54689
:1016700021461C8463FDF6062315010023040100A6
:1016800095461C8463FFF60C38853C8599460D46CB
:10169000B3F7D702056513050580B3D7C7023357E3
:1016A000D702BA97C207C1837C853C8505611D8D31
:1016B000420541856FE07FE81C4493E787001CC426
:1016C0002285493D75FD1C4493E747001CC42285D3
:1016D000593D75FD78441C8414108607B6972396EF
:1016E000E7FE1C84850793F7F70F5C84A5BFA3046E
:1016F00001009C846378F6001C84850793F7F70F3C
:101700005C8485BF98849C840C1006078507860737
:101710002E97AE970357C7FE83D7C7FE63FDE70238
:101720009C848607AE9783D7C7FE7C859C8498846B
:1017300085078607AE9783D5C7FE93171700181045
:10174000BA972396B7FE9C8438850C1085078607C8
:10175000AE972396E7FE9C84850793F7F70FDC840A
:1017600049BF1C841010388589078607B29783D734
:10177000C7FEBA97C207C1837C851C84850793F78F
:10178000F70F5C84FDBDB7F7FF1F03A5477082808C
:101790001C4141677917F98F1CC1232005002322C2
:1017A000050023240500B707024023260500138700
:1017B00087006317E500D8431367F700D8C382801A
:1017C0001387C7016316E500D8431367070FFDB7FA
:1017D000138707036318E500D8438566938606F0F0
:1017E000558FE9BF138747046315E500D843BD66ED
:1017F000C5BF138787056316E500D843B7060F00FA
:10180000C5B71387C7066316E500D843B706F000CF
:10181000C1BF138707086316E500D843B706000F5A
:10182000C1B7138787406319E50003A747401367D3
:10183000F70023A2E74082801387C7416317E500C2
:1018400003A747401367070FEDB793870743631B51
:10185000F500B707024003A747408566938606F068
:10186000558FC1BFB7070240138747446316E50091
:1018700003A74740BD66EDB7138787456317E500AB
:1018800003A74740B7060F00E1BF1387C74663179A
:10189000E50003A74740B706F000D9B7138707480C
:1018A0006317E50003A74740B706000F55BF13872E
:1018B00007496319E50003A7474D1367F70023AAFB
:1018C000E74C82801387074A6317E50003A7474D5B
:1018D0001367070FEDB71387074B6319E50003A7DD
:1018E000474D8566938606F0558FD1BF1387074C09
:1018F000E319E5FC03A7474DBD66FDB71C416177C1
:101900003D0794517D8F9C45D58F9449D58FD449FF
:10191000D58F944DD58FD44DD58FD451D58F945527
:10192000D58FD98F1CC1DC455CC19C411CC5DC41F5
:101930005CC582801C4189C593E717001CC1828069
:1019400041677917F98FDDBF9C4513F7070113F83D
:10195000F70001C7D8413368E8008E2113F7F50F6F
:1019600039C318418146854E3D4F930F8002930243
:101970008004214E3396DE00B3F8C50063111603D0
:101980009398260033131F011343F3FF3377E300CB
:10199000B318180133E7E800639FF70550C98506BF
:1019A000E39AC6FD18C11307F00F6375B7045441DD
:1019B0002146854E3D4F930F800293028004414E95
:1019C000B398CE0033F715016392E802131726008F
:1019D00001173313EF001343F3FFB376D30033172C
:1019E000E800D98E639DF701232A15010506E31946
:1019F000C6FD54C18280E39457FA10C94DB7E397EE
:101A000057FE23281501DDB708456D8D3335A0003D
:101A100082800CC9828019C20CC982804CC9828024
:101A2000B7070140635A0504DC4F935605011318AC
:101A300005013707300013F6F60013580801B37696
:101A4000E50063500506639BE602930606010D461A
:101A5000B316D60093C6F6FFF58F99C913575501F3
:101A60001377F73F12073317E800D98F6357050440
:101A7000370701405CCF8280DC4345BF1317B500B8
:101A8000635607008D46B396C600E9B71357550154
:101A90001377F73F12073317E8001347F7FFF98F63
:101AA0006DBF6390E602370601405442370700F1EC
:101AB0007D17F98F758F58C2D5F1370701405CC388
:101AC00082801317B500635C07008D46B396C6008D
:101AD00093C6F6FFFD8EB707000FD58FF1BF1357E2
:101AE000550112073317E8001347F7FF7D8FB7073B
:101AF000000FD98FD1B7EFE21FA2797146212A8456
:101B000068082EC62D24925737470F001307072465
:101B100033D7E702C204C18093F404FCC2049306E5
:101B2000C003C180B24563F4E6001307C003131677
:101B300007014182D18C46A0162061651305056A14
:101B4000C206C182F99AC206C18216A09441636995
:101B5000D5048606B3D7D702914613970701418370
:101B6000BA876373D700914705064206C2074182D0
:101B7000C18312B05EAC1E20DA21B62593E71700B0
:101B80001EA01E20558FC207C18393F757BFD98F60
:101B90001EA09A25DE25D98F1EA445616FE0FF990E
:101BA000EA2131667D16631DC5020D46B386C60265
:101BB000B3D7D702C207C1839396470199E293E74F
:101BC0001700A166D58F9306C0123307D70293067C
:101BD000803E3347D7020507420741831AB059BFF9
:101BE0006546B386C602B3D7D7029166C207C183E2
:101BF000D58FD9B71E2189C593E717001EA1828012
:101C0000C207C183F99BC207C183CDBF1E2189C50D
:101C100093E707101EA18280C207C18393F7F7EFF5
:101C2000C207C183C5BF1E2189C593E707201EA136
:101C30008280C207C18393F7F7DFC207C183C5BFA4
:101C40001E2189C593E707401EA18280C207C18378
:101C500093F7F7BFC207C183C5BF0EA982800A29C7
:101C60001375F50F828093F7E50F19C293E71500FE
:101C7000C207C1831EA982805E290A2D42055D8D9F
:101C80006D8D220521810D8D133515008280411146
:101C900002C402C693D7C5012AC63EC4A247A20504
:101CA000A18199CBB247D1073EC6B24788434101D3
:101CB0006D8D3335A0008280B247C181E107EDB759
:101CC000B707002023ACA7108280B707002003A726
:101CD0008711894710216311F70214318D4763ED95
:101CE000D7003C219A0637E700E09607D58F93F797
:101CF000F70F32972300F74054410547935756009A
:101D00003317C70089CA938707048A07B7E600E03C
:101D1000B69798C3828093870706C5BFB71602405F
:101D2000DC4251777D17F98F5D8DC8C282803717ED
:101D300002405C439146B18B6385D700A146638224
:101D4000D706B7177A00938707201CC137160240C1
:101D50005C4237070020130707019183BD8BBA97B8
:101D600094231C41B3D7D7005CC15442A1829D8A01
:101D7000BA969422B3D6D70014C55442AD829D8A38
:101D800036971823B3D7E7005CC55842398393765A
:101D900037001387018136971823B3D7E7021CC990
:101DA00082805C435843C166C983758FB7F6FF1FB5
:101DB00083A6C670BD8B890713961601634806007B
:101DC000C54601466392D702C94739A88946638F41
:101DD000D702BD46638ED702C146638ED702C54681
:101DE00001466393D700C1471DEF374702400327E1
:101DF0000780418B05C737177A0013070720B30701
:101E0000F7021CC121D61C41858381B701466DBFF5
:101E10000546B547D1BF0146BD47F9B737173D0065
:101E200013070790E9BFB7150240D8559316F7007E
:101E3000D85563DF060411833D8B930617003717CF
:101E40007A00130707203357D70218C1D455A1824F
:101E5000BD8A8DE295463307D702058318C137172F
:101E60000240585714413D8B050733D7E60218C18D
:101E7000184171B785456394B600E546E9BFBD4595
:101E80006396B600D1463387E602C9BF8906E5BF2F
:101E90003D8B9306170037177A0013070720335737
:101EA000D702F1B799C5371702405C4B5D8D48CB1F
:101EB0008280B7170240D84B1345F5FF798DC8CB08
:101EC000828099C5371702401C4F5D8D08CF8280F4
:101ED000B7170240984F1345F5FF798D88CF828060
:101EE00099C5371702405C4F5D8D48CF8280B71788
:101EF0000240D84F1345F5FF798DC8CF828099C530
:101F0000371702405C475D8D48C78280B717024093
:101F1000D8471345F5FF798DC8C782801E21373712
:101F20000140930607C0C207C1836300D504B7060A
:101F30000040630CD502938606406308D502B716AD
:101F40000040138606806302C502938606C0630EB6
:101F5000D50013070740630AE50037570140930691
:101F600007C06304D5006316E500BA2193F7F7F8BC
:101F7000D98F37170040630CE5001307074063084B
:101F8000E50093F7F7CFFA21C207C183D98F1EA1CD
:101F9000DE215EB59E211EB5B7370140138707C00D
:101FA000630EE50093870740630AF500B7570140C9
:101FB000138707C06304E5006314F5009C251EB970
:101FC00085475EA982801E31922103D82500C20771
:101FD000C183F99BC207C1831EB11E3156211A2D40
:101FE000C207C183420741831377C7F8518F9225F7
:101FF000F59BC20633660601D18F373601401308C0
:1020000006C0C182630E050113060640630AC500BF
:1020100037560140130806C0630405016310C5026A
:10202000B225DD9B03D8E500D18FD221ED9B93F63D
:10203000F6CFD18FD22533660601D18E56A11AADC7
:10204000FA215AB91EB182801E3165771307F7CF86
:10205000C207C183BD9BC207C1831EB11E31562179
:1020600003D88500C20713960601162DC18393F786
:10207000F7FD758F96214182A206558FB621420742
:102080004183B3E606019206D58FB7360140C207F9
:10209000138806C0C183630E050193860640630A58
:1020A000D500B7560140138806C063040501631EBE
:1020B000D502B62593F7F7F703D8C5009206D58F5A
:1020C000D621C207C183920693F7F7FBD58FFD7621
:1020D0009386F63FF18EF225C207C183336606016F
:1020E0000A06D18E13960601418252A11AADFA2139
:1020F0001ABD1EB182801E3103D88500C207C1837C
:1021000093F7F7EFC207C1831EB11E3156215A2D36
:10211000C207139606014207962141831377C7F839
:10212000558FB621C18393F7F7DFB3E60601A20608
:10213000D58FB7360140C207138806C04182C183DC
:10214000630E050193860640630AD500B756014029
:10215000138806C063040501631FD502FD769386CC
:10216000F67FF58FB62503D8C500A206D58FD621F8
:10217000C207C183A20693F7F7BFD58FF576FD1688
:10218000F18EF225C207C183336606011206D18E95
:1021900013960601418252A15AADFA215ABD1EB1D1
:1021A00082801A31FD77FD17F98F1EB103580502A1
:1021B00056215E2D65771396060196211307F7CFFA
:1021C0007D8FF977A206FD17558FB3F70701B6216A
:1021D00003D8850042074182B3E60601B206D58FD7
:1021E000B7360140C207138806C04183C183630E1E
:1021F000050193860640630AD500B756014013884F
:1022000006C063040501631BD500F176FD16F18E4F
:10221000D2251A06D18E13960601418252A15AADDB
:10222000FA212310E5041EB182801E2189C593E79F
:1022300017001EA18280C207C183F99BC207C18318
:10224000CDBF8357450491C52167D98F2312F5046B
:102250008280C607C583DDBF1E2189C593E70708B5
:102260001EA18280C207C18393F7F7F7C207C1831B
:10227000C5BF1E2DC207C183DD9BDD8D0EAD8280E3
:102280001A2DFD779387F77FF98FA205CD8FC207AF
:10229000C1831EAD82805E2DC207C183DD9BDD8DB3
:1022A0004EAD82805A2DFD779387F77FF98FA20577
:1022B000CD8FC207C1835EAD82804EB982800EBDD4
:1022C00082804EBD82802310B50482804A3982808C
:1022D0000A3D82804A3D828003550504828093C571
:1022E000F5FFC205C1810EA98280EFE2CFA21629B7
:1022F000F577FD17F58FF621DA257971D58F1EA9AF
:102300005625FD779387379FF58FD6212A842EC6D1
:10231000D58F9625D58FB625D58F5EA55E29C207A8
:10232000C18393F7F7CFD98F5EA96808EFF03FA07C
:10233000B747014093870780B245631EF402A25756
:102340006547B387E7029841930640060A07B3D76B
:10235000E70233D7D702B3F7D70212079207938762
:102360002703B3D7D702BD8BD98FC207C1831EA461
:1023700045616FE08F9C9257E1B791C55E25096773
:10238000D98F5EA582805A25F977FD17F98FD5BFC1
:1023900013F7F50F85471583B395B7006319F70059
:1023A0009307C500984301CED98D8CC3828089469E
:1023B00093074501E318D7FE93070501E5B793C5D9
:1023C000F5FFF98DDDB793F5F51F4EA182804A2107
:1023D0001375F51F82800A216D8D3335A000828030
:1023E00093C5F5FFC205C1810EA1828013F7F50FD9
:1023F00085461583B397B6006311D7025A25F98F26
:102400001A2101454207418381CB0545A181B315BE
:10241000B5006D8F3335E000828089466314D700A4
:102420001A29F1BF5A29E1BFEFE24F8D370400208E
:1024300041119304C402854798407C82DC40AA89FC
:102440002E8988232C2B5400328A0946EF204027FE
:102450001305800CEF4030079840DC402302010058
:102460006C37882354000546EF2080259840DC40D7
:1024700054004C33882305461304C402EF20402443
:102480009840DC4054002C2B88230546EF20402345
:102490009840DC4054006C3B88230546EF204022E6
:1024A0009840DC4054004C2388230546EF2040210F
:1024B000B1475C829840DC4054004C238823054699
:1024C000EF2000203D45EF4010009C549840540000
:1024D0009C3705465C82DC402C238823EF20401E7D
:1024E0009C54984054009C2705465C82DC400C3389
:1024F0008823EF20E01C1C54BC2763040A0093E7E8
:10250000070E5C8218405C4054006C23882305460B
:10251000EF20001BE14763060A001C54BC3793E719
:10252000070E5C8218405C4054006C3388230546DB
:10253000EF20001963060A001305800CEF40A07815
:10254000930700045C8218405C4054004C238823AD
:1025500005468144EF20C016930780075C8218402F
:102560005C4054004C3388230546EF20601513056A
:102570002003EF40407518405C40230201004C33BB
:10258000882354000546EF20A0135C4018405400F7
:1025900088232C270946EF20A032034A41009C8261
:1025A00023A40900220A336AFA00B147335AFA0217
:1025B00023A2090023A009002324090023220900E3
:1025C00023200900137AFA0F6391441503A509002B
:1025D0001306300881469357F541C207935505010C
:1025E000DD8D4205EF50700F26868146EF50F00ECC
:1025F00023A0A90003A5490013063008814693577C
:10260000F541C20793550501DD8D4205EF50F00CF1
:1026100026868146EF50700C23A2A90003A58900ED
:102620001306300881469357F541C20793550501BB
:10263000DD8D4205EF50700A26868146EF50F00985
:1026400023A4A90003250900268681469355F54158
:1026500093570501139705015D8F9355F741420587
:1026600093F5F57FB387A500B3B5B700BA95AD83F1
:10267000139555015D8DAD85EF5030062320A900DF
:1026800003254900268681469355F5419357050158
:10269000139705015D8F9355F741420593F5F57F3B
:1026A000B387A500B3B5B700BA95AD8313955501AF
:1026B0005D8DAD85EF5070022322A90003258900AE
:1026C000268681469355F5419357050113970501D9
:1026D0005D8F9355F741420593F5F57FB387A500CC
:1026E000B3B5B700BA95AD83139555015D8DAD8532
:1026F000EF50A07EC1776343A000C1673E952324BD
:10270000A900014541016FD0BFE218405C40540070
:102710002C37882331468504EF20801A18839C8348
:10272000948422075D8F1C8490824207A207D58F74
:1027300014824187C207A206D18E03260900C20671
:10274000C186B2962320D90083264900C18790858F
:1027500036972322E90003278900948793F4F40F26
:10276000BA9718862324F9009C8622075D8F1C8760
:1027700042074187A207D58F1485C207C187A206E9
:10278000D18E03A60900C206C186B29623A0D90045
:1027900083A64900369723A2E90003A78900BA97C8
:1027A00023A4F90015B5EFD21FD7370400209307F3
:1027B000C40283C7470241111304C40285C711C173
:1027C0000945C8875C4018409306F10088236C37A0
:1027D0000546EF10F06E9C871CB881473E8541018D
:1027E0006FD0BFD53824FD5775DB19C51838814720
:1027F00075F78547DC87F9B7A3070100E1B7EFD28A
:102800009FD1370400209307C402BC2741117D5596
:10281000C5CF1304C40218405C40A30701006C3705
:1028200088239306F1000546EF10906918405C403C
:102830009306F1004C3388230546EF1070685C4026
:1028400018409306F10088234C230546EF1050678B
:1028500083474402ADCFB147DC8718405C40930604
:10286000F1004C2388230546EF10906513052003E3
:10287000EF406045930700FCDC873C24858B99C3BF
:102880008157DC875C4018409306F10088234C2375
:102890000546EF10F0621C3891C38947DC87184069
:1028A0005C409306F1006C3788230546EF105061B9
:1028B00018405C40A30701009306F10088234C33C5
:1028C0000546EF10F05F014541016FD01FC79147EA
:1028D000DC8718405C409306F1004C2388230546B2
:1028E000EF10105E3C281307000491E73C24858B11
:1028F00099C3130700065C40D887184088239306C5
:10290000F1004C230546EF10B05B13052003EF40A8
:10291000803B1C3818409306F100B337F000DC8789
:102920005C406C3705468823EF10905918405C4096
:102930009306040161B7B707002083C74703054723
:102940006381E70291CB09476380E7020D4763800B
:10295000E7022310050021A09307A00F1EA1014547
:1029600082809307401FDDBF9307803EC5BF93075A
:10297000007DEDB7EFD23FBA370400209307C402C1
:10298000BC27411189CF9307401F1304C402630C75
:10299000F50463E8A7009307A00F630EF5007D55CB
:1029A00081A09307803E6303F5049307007DE3183D
:1029B000F5FEE14715A8A30701009C8718240145EF
:1029C0008D83630FF7005C4018409306F100882365
:1029D0006C230546EF10D04E9C8701458D831CA4C7
:1029E00041016FD09FB5A147DC87C1BFC147EDBF93
:1029F000370700209306C70294360546AA871307B7
:102A0000C7026384C60289CA09466382C6020D46AC
:102A10006381C6027D558280894694A3383B014577
:102A200001C79823060798A382809146FDB7A14667
:102A3000EDB7C146DDB7EFD21FAE370400209307D4
:102A4000C402BC27411199CB91471304C402630906
:102A5000F50463E7A7008947630CF5007D5535A8A9
:102A6000A1476302F504C147E31AF5FEE14715A843
:102A7000A30701009C87183401458D83630FF7007D
:102A80005C4018409306F10088236C330546EF1034
:102A900030439C8701458D831CB441016FD0FFA951
:102AA000A147DC87C1BFC147EDBFB707002083C77F
:102AB00077031547FD1793F7F70F636AF7022D6742
:102AC0008A071307C774BA979C4382879307C00B82
:102AD0001EA10145828093072006DDBF9307A00257
:102AE000C5BFD147F5B7A947E5B79547D5B7231077
:102AF0000500C5B7EFD23FA2370400209307C402F8
:102B0000BC274111ADC79307B00B1304C40263F88F
:102B1000A7028547DC8738349C870145630EF700A0
:102B20005C4018409306F10088232C230546EF10E3
:102B300030399C8701453CB441016FD01FA09307F9
:102B4000100663F4A7008947F1B79307900263F476
:102B5000A7008D47C1B7CD4763F4A70091475DBF7C
:102B6000A54763F4A700954775B7994765B77D55A5
:102B7000E1B7B70700209387C70203C7470209E7F9
:102B8000FE271EA1014582807D558280B707002067
:102B900083C7470305476382E70289CB09476383FD
:102BA000E7020D476385E7027D558280B7B70000D5
:102BB00083A747791CC101458280B7B7000083A76E
:102BC0008779CDBFB7B7000083A7C779E5B7B7B797
:102BD000000083A7077AF9BF370700209306C702D2
:102BE00094360546AA871307C7026384C60289CABA
:102BF00009466384C6020D466383C6027D55828002
:102C0000916696A3383B014501C79A2305839AA391
:102C1000828089669386C6F9EDB78566DDB78566DD
:102C200093860680F9BFEFD27F8D3704002013040E
:102C3000C402834744020149A1E33C247D598DCF5E
:102C40009374E50FE58F834904011CA8858FB33782
:102C5000F0003309F0405C28C58F81CF0545EFF0C7
:102C60009FB499C8EFF0BFB901C9230834017D5959
:102C700021A00145EFF03FB34A856FD07F8BEFD2A3
:102C8000FF87B70900209384C90283C7440241111A
:102C90009DC7B824FD5731CBDC409840AE8A2A89C5
:102CA0002C278823328A74000946EF1070411C8655
:102CB0008086A2075D8C6376240123000A00FD57FD
:102CC0002DA0D8409389C9023E23858363F38702F0
:102CD0009C40082374008C3B0546EF10703E1C8618
:102CE000C18B81CBEFF0BFB1F9573E8541016FD069
:102CF0003F8483A7490003A70900D68688232C3781
:102D00001376F90FEF10D03B3354240381477D1421
:102D100023008A00D9BFEFD21F8037040020930719
:102D2000C402BC2B41116389A70A1304C4025C408E
:102D3000AA849306F10088231C400546CC23B9C021
:102D4000EF1010389C8718409306F10093F7F7FDB9
:102D5000DC875C404C2305468823EF1070160D4538
:102D6000EF3070768947DC878347240281C7930759
:102D700020F8DC8783473402B1C79C8793E70703B9
:102D8000DC8789A0EF10D0333C249487858B13F720
:102D9000F60D99C313E706025C40D88718408823D4
:102DA0009306F1004C230546EF1090110D45EF30CE
:102DB00090718347240299C39307000803473402A4
:102DC000DC874DFF18405C409306F1004C2B8823B4
:102DD0000546EF10F00E24A8014541016FD0EFF534
:102DE000EFD26FF3370400209307C40283C7370282
:102DF00041116381A7041304C402814719C19307D9
:102E000000033828DC8701C793E72700DC87834766
:102E1000240289C79C8793E707F8DC8718405C4049
:102E2000AA844C2B88239306F1000546EF10500925
:102E3000A3019402014541016FD02FF09307800256
:102E400063E0A70AEFD22FED370400204111AA84D6
:102E50001304C4021DE16937930700707C86184093
:102E60005C4074002C2B88230946EF107005230A60
:102E70000400014541016FD04FEC0545953793079C
:102E800000025C868547639DF402A3060100154598
:102E9000EFF05FC69C86184074009A0793E77700AE
:102EA000DC865C402C2B09468823EF107001A1477B
:102EB0003CA401458547230604005CA8AD3355BFFB
:102EC000154763649700DC86D9B7D14763E697005E
:102ED0008947DC8629456DBF8D47DC8651454DBF4E
:102EE0007D558280EFD22FE3370400209307C40280
:102EF000B827411159C303C74702AA847D550DE382
:102F0000DC2B1304C40295C39387F4FFC207C1836B
:102F1000130770026369F70013F5F40F05370145D5
:102F200041016FD08FE10145113F1307803EA68715
:102F3000637497009307803E13970701418391467E
:102F40006373D7009147C2079304803EC183B3C720
:102F5000F40218409306F10005460C33FD17DC8798
:102F60005C408823EF10C0758887050533C5A4022F
:102F70006AA40581EFF01FB85DB77D5555B7EFD254
:102F80008FD99377050741112A8481C78547DC874C
:102F900021A041CDA3070100B70400201389C4027A
:102FA00083274900032709009306F10088232C2B6F
:102FB00005469384C402EF10A0709C8793F7F7FB3B
:102FC0002306F90093770404A5C7A30701009377AC
:102FD000040289E79C8793E72700DC879377040145
:102FE00089E79C8793E71700DC879377840089E75C
:102FF0009C8793E78703DC87DC4098409306F100C9
:1030000088232C3B0546EF10A06B9377740F99C370
:103010000145F93313052003A0A4238A0400EF30EF
:10302000904A014541016FD04FD19307000485B705
:103030009147DC8769BFEFD20FCE370400204111E2
:103040009304C402930700F898405C84DC402C2B66
:103050003400882305461304C402EF10606613058C
:103060004006EF3050469840DC40230401002C2BF2
:10307000882334000546EF10A0649840DC403400FB
:103080006C2B88231946EF10B0039C8698858A071D
:103090000607098B918BD98F9884058BD98FD9C757
:1030A000054793F5F70F6394E7003CB831A08947D3
:1030B0006393F506A3090400FD577EA41CA83CA851
:1030C000FD571CC4231A040085473146814513056A
:1030D00064015CA4EFD02FC785473EB023220402D1
:1030E0001305007DEFF01F890DED0945EFF0BF944A
:1030F0000DE91305A002EFF0FF9F05E5130520037E
:10310000D53305E1EFF03FB209EDEFF0DFC02A84DF
:1031100009E9B53501A837B500001305457AEF4038
:10312000F0547D54228541016FD02FC1DC4098407E
:10313000340088232C330546EF1080781C84BD8B27
:1031400081EB37B500001305C57CEF407054D1BF4B
:103150001147E391E7F637C5000013058581EF407D
:103160003053854799B719E67D5582807D554101D9
:103170006FD0AFBCEFD22FBA370400201304C402C3
:103180003C244111E5D71357850093178500D98F4B
:103190007C865C401375F50F2E95BA27E348A7FC93
:1031A00018408823AE840C2F328974000946EF1032
:1031B000205118405C40CA864C3B882313F6F40F1C
:1031C000EF100050014565B719E67D5582807D55A9
:1031D00041016FD08FB6EFD20FB437040020130433
:1031E000C4023C244111E5D713578500931785008D
:1031F000D98F7C865C401375F50F2E95BA27E3486E
:10320000A7FC18408823AE840C2F3289740009462D
:10321000EF10004B18405C40CA864C3B882313F6E5
:10322000F40FEF10E069014565B7EFD24FACB7047A
:1032300000209387C40283C75702011189C77D55B7
:1032400005616FD04FAEE5DDC16B9384C402368B50
:1032500032892E8AAA890144C14CFD1B636934035B
:1032600013168900DC409840135989003369260100
:103270002316210188232C2F74000946EF104044A7
:103280008547A382F40223936403014555BFB38AA3
:10329000894063D35C01C14A139C0A01135C0C0191
:1032A000330D8A006A86E2852285753D49F910084A
:1032B000E2852285113F41F533F67A010C086A85D3
:1032C000EF80000E09E562944204418041BF7955C8
:1032D00085BFEFD24FA4370400201304C402034774
:1032E000440241116303A70429C5834754027D5555
:1032F00095CF0145EFF02FCB0145EFF0DFA16A300C
:10330000EFF05FBE5C40A30701009306F100882345
:10331000054693053002EF10A03A85470545230284
:10332000F402EFF04FC8EFF08FCD014541016FD0AF
:10333000CFA0EFF04FC71C289306F1000546DC87AD
:103340005C40930530028823EF108037230204028B
:10335000D9BFEFD24F99370400209307C40283CA24
:10336000470259712A8BAE8B1304C40263850A008D
:1033700001458537854A1305E103EFF0CFDB1305DF
:10338000D103EFF0EFE613052104EFF00FF2880010
:10339000EFF02FFE1C280146DE855A85834DA400E0
:1033A0003EC4EFF06F88631B051E0546AC08E800BD
:1033B000EFF08F87631205245C40B4001146882328
:1033C000B545130A4106EF10A04F8346B1040347E9
:1033D00081049309410493D746400D878D8B718BEF
:1033E0005D8F2302E1040347910493D726408D8B20
:1033F0000D87718B5D8F8347A1048D8AA302E10441
:103400008D87F18BD58F2303F10437C70000B7C731
:10341000000003ADC78303270784930C0107D28400
:10342000528C03C909006310091E930700009CC059
:1034300091048509E3979CFEB7C700003EC6B7C755
:10344000000083A7C784A40881493EC8B7C700000D
:1034500083A707850149854C3ECAB7B7000083A7FB
:10346000C7683ECCB707008093C7F7FF3ECEB7C70B
:10347000000083A787843ED093172900DE978840F9
:103480009C43898F13D5F741A98F3385A740EF70EF
:10349000302FB7C7000083A54784EF70603D032736
:1034A0000A002A8D930500003A853AD2EF70602514
:1034B000630D051612576A85BA85EF607079E2458B
:1034C000EF704064F24782557D8DEF70402963565E
:1034D000A000B3972C01B3E9F90005098D479104C9
:1034E000110AE31BF9F893F7F90F3E8D5C40E28671
:1034F0000D468823B5459309C104EF10603C83470E
:103500006106035741068966FD8B2303F106B24726
:103510009386F6F1758F83A747842312E1068144D1
:103520003EC6B7C7000083A7C7850149054A3EC804
:10353000B7C7000083A707863ECAB7C7000083A7A6
:1035400087833ECCB7C7000083A747853ECEB7B779
:10355000000083A7C7683ED0B707008093C7F7FF76
:103560003ED2B7C7000083AC878593172900DA974E
:1035700003A509009C43898F13D5F741A98F338593
:10358000A740EF70F01FB245EF70802E33072C017B
:103590001C23AA8B63800710624545A80146DE857F
:1035A0005A85EFE07FE8E30205E08144FD570355CB
:1035B000E1037EA41CA8FD571CC485475CA4EFF062
:1035C0006FBB0345D103EFF00FC703552104EFF0A4
:1035D0006FD203550104EFF0FF906E85EFF03F9A34
:1035E0002245EFF04FE463850A000545EFF07FCEFA
:1035F000268565616FC0FFF20546AC08E800EFE084
:10360000BFE245F555BB23A0A4017D191379F90F3D
:10361000631509002380090021BD8840BA853AC698
:10362000EF70002588C03247CDB7C2456A85EF707C
:10363000601BE34005EAD2456A8541BDF2453AD6B2
:103640003ED4EF70E022A2573257FD1793F7F70FE1
:10365000F5F7AA85230007005E85EF60705F82554D
:10366000EF70404A9257E6857D8DEF70400F6355AD
:10367000A000B3172A01DD8C05098D479109E316D7
:10368000F9EE93F4F40F93B41400E3110DF293E404
:10369000240029BFC245EF70E014E34C05FCD2457D
:1036A0005E85E1B78280EFC21FE701114C08280058
:1036B000EFF03FCA0D4785476317E5064800EFF076
:1036C000EFCC22451244EF70B00BA285EF70401A88
:1036D000EF70807F2AC43245EF70900AA285EF70A8
:1036E0002019EF70607E2AC64245EF707009A285EE
:1036F000EF700018EF70407D2AC8280025291305B7
:103700002100EFF06FCD3881D2474808B387E70238
:103710003ECAE247B387E7023ECCF247B387E702EF
:103720003ECE292381473E8505616FC01FE1030717
:10373000050081476343E002914705E30307150055
:103740008547634CE000954709EB0307250089474F
:103750006345E0009337170099073E858280EFC2EA
:103760009FDBAA84E9372A8913853400C9372A8464
:10377000138564006D3F931734001A055D8D336522
:103780002501420541816FC05FDBEFC2DFD8EFF05A
:103790009F8A294459E513058007EFF04FFE137502
:1037A000F50F05443DED13058007EFF0CFC7137506
:1037B000F50F09443DE513052003EFF0AFF2137553
:1037C000F50F0D4439ED912C1375F50F114431E9C6
:1037D0003705002013050502593785241375F50FA9
:1037E000154421E113053017EF0090101375F50F04
:1037F000194405E913052003052B1375F50F1D4426
:103800000DE1EFF05FEA214409ED0545EFF07FACF3
:103810001374F50F11E837B5000013050578EF4074
:10382000206722856FC07FD12544E5BFEFC23FCC22
:103830007971AA8B2E8BB28A930791001307A1008E
:10384000740010102C080808EF00F027631C0518FE
:103850003C85094593F70710638307180255B7B9EC
:103860000000EF70E07183A50977EF7060002A898E
:103870001255EF70E07083A50977EF60707FAA841E
:103880002255EF70E06F83A50977EF60707E2A8480
:103890003255EF70E06E83A50977EF60707DB7B7A2
:1038A000000083A54777AA892685EF60707CAA8CE3
:1038B000CA854A85EF6030032A8CCE856685EF6025
:1038C000307B2A8AA2856285EF60907AAA8552852C
:1038D000EF607001EF30404CEF70D00337BA00005A
:1038E00003268A778326CA77EF50900CEF70500D2D
:1038F00023A0AB00A2852285EF60E07EAA8BA6857F
:103900006685EF60F076AA8CA2855E85EF605076C2
:10391000AA856685EF70001FB7B7000083A5C7684A
:10392000EF60607CAA8CCE855E85EF607074AA8B98
:10393000A6856285EF60D073AA855E85EF60A07A68
:10394000E685EF304051EF70E07C03268A778326CE
:10395000CA77EF50F005EF70B0062320AB00CA85A0
:103960004A85EF60F0702A8BA6852685EF6050703F
:10397000AA855A85EF6020772A8BA2852285EF6081
:10398000306FAA855A85EF70E0172A8BCE854E8559
:10399000EF60106EAA855A85EF70C016A2852A8B3B
:1039A0002685EF60F06C2A84CE854A85EF60506CE6
:1039B000AA852285EF602073AA85EF60C072DA8540
:1039C000EF306049EF70007503268A778326CA7747
:1039D000EF50007EEF70C07E23A0AA000145456134
:1039E0006FC07FB40545E5BFEFC2FFB2B7B7B38D77
:1039F0004111938787AB3EC2B7A70D359387478B9D
:103A00003EC450009307D005A5451305804B5C8646
:103A1000EFF06FF541016FC05FB2EFC2DFAFB1658C
:103A200005659306800C130600409385858A13056F
:103A300065BFEFF08FFF6FC05FB0EFC2DFADF5770E
:103A400041111387C7D49387C7907C869307C00220
:103A500078845C871307C006937635001C08588568
:103A6000BE9683C786FF135735000D8B5C801C08FC
:103A70003E97834787FF100883C6C6FFDC809357B5
:103A800065008D8BB29703C687FF0347C7FF83C7C7
:103A9000C7FF2A8450818D450A86130560425482EF
:103AA000D8825C83EFF02FEC09C57D5541016FC0D2
:103AB000DFA850008D451305A042EFF0CFEA75F561
:103AC0009567938767637C80930760075C81916744
:103AD000938767627C82930760065C8393774400D8
:103AE00099C7930770035C80930770025C82937799
:103AF000040299C793077005DC8093077004DC8289
:103B00009377041099C7930770075C819307700639
:103B10005C830A868D4513050044EFF0CFE451F530
:103B200050008D4513051043EFF0EFE33DFD239C5E
:103B300081B4ADBFEFC23F9E83D781B5411113F76A
:103B400037000A072A970C4313F7470019C3B30538
:103B5000B04013D71700318B2A97104313F7070291
:103B600019C33306C04013D74700318B3A9593F7FA
:103B70000710184199C33307E040B7E6CA0293869D
:103B80009630B387D5021305003DB395D502F9836E
:103B90003304D7028A05CD8F91453317D702798038
:103BA000B304D6020A07598C13D78741588613D716
:103BB0000741D88613978700C207C1833316D60200
:103BC000F980A183D98F7C870A06D18C7000EFF031
:103BD0008FD909C57D5541016FC03F9693D7844168
:103BE0005C8693D70441DC8693978400C204C1802D
:103BF000A180DD8C700091451305403D6487EFF096
:103C00008FD669F9935784415C8693570441DC86CB
:103C1000931784004204418021805D8C700091459F
:103C20001305803D6087EFF00FD475B7EFC2BF8EEC
:103C300041112A8413052100EFE01FFA83D781B5D3
:103C4000308113F737000A07229793F647003E06A4
:103C5000184399C23307E04093D61700B18AA29661
:103C60008C4293F6070299C2B305B04093D6470041
:103C7000B18A369493F70710084099C33305A040E2
:103C80009357F741B306C702B387C702F9823337A8
:103C9000C702BA978A07DD8E93D7F5413387C502ED
:103CA000B387C7027983B3B5C502AE978A07935528
:103CB000F5415D8FB385C502B307C5023336C50232
:103CC000F983130540292E960A06D18F13D6864113
:103CD000508213D60641D08213968600C206C18256
:103CE000A182D18E748393568741548493560741A1
:103CF000D48493168700420741832183558F7885AA
:103D000013D78741588613D70741D8861397870062
:103D1000C207C183A183D98F5000B1457C87EFF0E2
:103D20008FC441016FC07F81EFC2EFFE0111AD650D
:103D30002A843146938585474808EF70A068930729
:103D4000800C63F687007D5505616FC00FFFB3C718
:103D50008702700089451305602123060100FD17C5
:103D6000DC86EFF04FC065F105655008B1451305DD
:103D700015ACEFF04FBF61F9239E81B4F1B7937793
:103D8000750099E37D55828093070064E3ECB7FEEC
:103D9000EFC26FF841112A842E85EF70C02AB7C791
:103DA000000083A5074AEF60A06AAA841305B1004A
:103DB000EFE01FC49C8511476383E70E6369F7003A
:103DC0000947638EE7027D5541016FC00FF7214718
:103DD0006389E70E4147E398E7FEB7C7000083A574
:103DE000C74B2685EF60D028EF702014131905010A
:103DF000B7C700001359090183A5074C15A0B7C721
:103E0000000083A5474A2685EF609026EF70E011F9
:103E1000B7C7000083A5874A131905011359090183
:103E20002685EF60F024EF7040104205931789005B
:103E300041811359890033E92701931785002181B6
:103E40005D8D23162101688793771400C9EF93775E
:103E5000240085C3700089451305801DEFF0AFB0C5
:103E60003DF11306E100894513058012EFF0AFAF75
:103E700039F91188014529D8700089451305C01DFD
:103E8000EFF06FAE29F11306E10089451305C0126A
:103E9000EFF06FAD3335A0003305A04035B7B7C79D
:103EA000000083A5C74A2685EF60901CEF70E007ED
:103EB00013190501B7C700001359090183A5074B62
:103EC00085B7B7C7000083A5474B2685EF60501A1A
:103ED000EF70A00513190501B7C7000013590901B8
:103EE00083A5874B35BF700089451305401DEFF052
:103EF0008FA7E31A05EC1306E1008945130540126C
:103F0000EFF06FA629D5C1B5EFC2EFE093771500AA
:103F1000411195EBA30701009377250089C79C8782
:103F200093E7C700DC87118909C59C8793E73700B1
:103F3000DC871306F100854513058014EFF0AFA26E
:103F400041016FC08FDF93070003DC87F1B7EFC239
:103F50008FDC4111854719C511479377F50F6373BE
:103F6000A7009147FD171306F10085451305F014CE
:103F7000DC87EFF04F9F41016FC02FDCEFC2AFD95C
:103F800095473355F5024111700089459317850017
:103F900021815D8D68861305E01DEFF0CF9C410106
:103FA0006FC0AFD9EFC22FD795473355F5024111F6
:103FB000700089459317850021815D8D6886130502
:103FC000A01DEFF04F9A41016FC02FD7EFC2AFD4C1
:103FD0009307803E3345F50241117000B305B502E9
:103FE0001305C01593D785415C8693D70541DC86C0
:103FF00093978500C205C181A181DD8D6C879145B4
:10400000EFF06F9641016FC04FD3EFC2CFD095470D
:104010003355F502411170008945931785002181C0
:104020005D8D68861305A015EFF0EF9341016FC019
:10403000CFD0EFC24FCE95473355F50241117000F6
:1040400089459317850021815D8D6886130580154C
:10405000EFF06F9141016FC04FCEEFC2CFCB411156
:1040600011C5EFF07F9841016FC02FCDAD6525469A
:10407000938545484800EF70E0345000A54513058E
:10408000804BEFF04F8EC5B7EFC2EFC8411115C19D
:10409000B7C7C4C69387072C056570009145130503
:1040A00085A93EC6EFF02F8CEFE06FF541016FC0A0
:1040B000CFC8B7978B8B9387B7B8F9BFEFC2AFC59F
:1040C000411115C1B73730389387078205657000F5
:1040D00091451305E5A93EC6EFF0EF88EFE02FF21A
:1040E00041016FC08FC5B7A7A3A39387373AF9BF24
:1040F000EFC2CFC04111B7D7E309938727A02A8425
:1041000050009145130580063EC2EFF0CF8593071E
:1041100030FA5C82137A040463040A16930700FCE5
:10412000DC82F1779387872C7C8313790418630EE4
:104130000914F577938747CC7C84930760FC5C85F2
:10414000930730FADC850565E9779387373A5000A5
:10415000A945130575AA7C8693793400EFF0AF80EA
:104160009307800D638409009307000205655000E2
:104170008545130565AB5C82EFE0FFFE9377040293
:10418000638C0710EFF05F866302090293770410D7
:1041900063880710B797B69B938727BB05655000C8
:1041A0009145130525AA3EC2EFE0FFFB937714006B
:1041B000638D070E0565E157500085451305058B96
:1041C0005C82EFE05FFA9305A00F1D45EFF03FBB67
:1041D0001D45EFF07FD30545EFF07FD7130540066F
:1041E000EFF0DFD91305401FEFF0DFDB37E5CA0240
:1041F0009305800C13059530EFF05FDD1305800209
:10420000EFF0BFE02945EFF0DFE293772400B3370A
:10421000F0009387870D500085451305D0735C82AD
:10422000EFE07FF493774400054591E30145EFF01B
:10423000BFE593770401054591E30145EFF01FE8E1
:10424000938701B513678400BAA7EFE04FDB93872C
:1042500001B563170A062387070063050900F827DD
:104260001907F8A7518801C4F8274107F8A7638503
:104270000900F8271107F8A7014541016FC04FABAE
:10428000DC82E9779387373A45B5E9779387373A00
:104290007C84930730FA65B50145EFF01FDCEDB57E
:1042A000B787B4909387070BD5BD0565930780FD4D
:1042B000500085451305058B5C82EFE0DFEAB1B75E
:1042C0001947F8A759BFEFC28FA2938B01B52A896E
:1042D00003C5EB000111AE89328B231007003E8627
:1042E0008A85B6843A8AEFE09F9945E503D7AB000B
:1042F0002A84938A01B593774701638607181C8047
:1043000094809082E207C206D58F948142060C8485
:10431000D58F1481E2058886A206D58F14822320CA
:10432000FB00C187E206D18E9083B387F702420576
:10433000D18E10832206D18E90842322DB00C18689
:104340004206D18D9085B386D602D18D1085220686
:10435000D18D10862324BB00C1856206498E8887D3
:10436000BE96B387B502498E08872205498E23265B
:10437000CB0041863306C602B697B70600F1B29766
:10438000B697B706000263F8F600EFE04FC72310B8
:104390000A007D54EDA083570A0093E7071023100D
:1043A000FA00C14793760704A1C61410BE9603C64F
:1043B00006FE83C516FE990722064D8E2390C9007E
:1043C00003C626FE83C536FE93F7F70F22064D8EF1
:1043D0002391C90003C646FE83C656FE2206D18E2F
:1043E0002392D90083560A0093E686002310DA0050
:1043F00093760718A1C61410BE9603C606FE83C5A1
:1044000016FE990722064D8E2310C90003C626FE0C
:1044100083C536FE93F7F70F22064D8E2311C90090
:1044200003C646FE83C656FE2206D18E2312D9004D
:1044300083560A0093E606072310DA000D8B0DCF92
:104440003309F1008347190083493900858B99CBE3
:1044500083A70A0081CB93F5790013D53900850530
:104460001D89829783471900A18B99C783A74A00AA
:1044700081C713D5690082972685EFF0AFA2228508
:1044800005616FC04F8A814731BFEFC2CF884111AC
:104490002A84EF0060681305C00EEF00806BEF0008
:1044A00040722285EF00E06AEF00A071EF00C06665
:1044B0001305D00EEF00E069EF00A070EF00606C14
:1044C0002AC6EF006067324541016FC00F87EFC217
:1044D0008F8441112EC62A84EF0000641305C00E9C
:1044E000EF002067EF00E06D2285EF008066EF00AF
:1044F000406DB2452E85EF00C065EF00806CEF0087
:10450000A06341016FC06F83EFC2EF804C411C413B
:1045100096058A07DD8D1C451305400FDD8D93F54B
:10452000F50FEFF0DFFA6FC04F81EFB2DFFE0C4105
:104530005C4196058A07DD8D1C451305500FDD8D06
:1045400093F5F50FEFF0BFF86FB03FFFEFB2BFFC90
:104550000111692313058008EFF03FF3AA841305C6
:10456000900813844181EFF05FF21C4022052695EC
:104570008AA31305A008EFF05FF1AA841305B00821
:10458000EFF0BFF01C4022052695AAA31305C00832
:10459000EFF0BFEFAA841305D008EFF01FEF1C4027
:1045A00022052695CAA31305E008EFF01FEEAA84A2
:1045B0001305F008EFF07FED1C4022052695EAA3D5
:1045C00013050009EFF07FECAA8413051009EFF042
:1045D000DFEB1C40220526958AA713052009EFF082
:1045E000DFEAAA8413053009EFF03FEA1C402205F8
:1045F0002695AAA713054009EFF03FE9AA84130501
:104600005009EFF09FE81C4022052695CAA7130524
:104610006009EFF09FE7AA8413057009EFF0FFE649
:104620001C4022052695EAA713058009EFF0FFE557
:10463000AA8413059009EFF05FE51C40220526953A
:104640008AAB1305A009EFF05FE4AA841305B00953
:10465000EFF0BFE31C4022052695AAAB1305C00965
:10466000EFF0BFE2AA841305D009EFF01FE21C406F
:1046700022052695CAAB1305E009EFF01FE1AA84D5
:104680001305F009EFF07FE01C4022052695930505
:10469000600BEAAB1305000EEFF07FE38D47054793
:1046A00028003AC63EC43EC8EFF01FE691474808CE
:1046B0003ECC02CA02CEEFF05FE705616FB0FFE7C4
:1046C000EFB2DFE3B7640040AA8A2E8A32893684CB
:1046D00093890480B70502004E85EFD04FDB7DF94A
:1046E000138504808545B7040300B7690040EFD007
:1046F000EFD18504138B0980A6855A85EFD0CFD7DB
:1047000065DDD685138509800146B7040700B769C2
:104710000040EFD04FD593842408938A0980A68562
:104720005685EFD06FD565DD13850980D285B70931
:104730000700B7640040EFD04FD2938949089384B3
:104740000480CE852685EFD02FD365DDB764004089
:10475000B709070022999384048093894908631B51
:10476000890037650040854513050580EFD0AFCB44
:104770006FB01FDC05048345F4FF2685EFD0EFCD35
:10478000CE852685EFD04FCF65DDD1BFEFB2BFD844
:104790004111CC879306F100AA8505461305000D4B
:1047A000EFF01FF241016FB05FD9EFB2DFD6011118
:1047B00085453705400002C202C402C602C802CACB
:1047C00002CC02CEEFD0CFF185452145EFD06FEF7F
:1047D0008567938707C07C8237150140F1473EC645
:1047E0004C008D47130505C03EC4EFD0EF95B727A9
:1047F0000600938707A83EC8B707FFBF376400408D
:104800003ECAB70700043ECC0C089167130504802C
:10481000FC86EFD04FAE130504808545EFD08FBDE9
:10482000854513050480EFD0AFC113052003EF20A9
:104830008049930500081305B006EFF03FF5130516
:104840004006EF20404881451305B006EFF01FF405
:104850008D456545EFF09FF389456945EFF01FF3FE
:1048600081457145EFF09FF2E1456D45EFF01FF294
:10487000814513058003EFF07FF181451305A00604
:10488000EFF0DFF0814513053002EFF03FF09305C4
:10489000000813057003EFF07FEF85451305B006A0
:1048A000EFF0DFEEEFE07FEE2A84AA8537C5000047
:1048B0001305454CEF30805B228505616FB0FFC763
:1048C000EFB2DFC3B76400402A8AAE8A32843689E9
:1048D00093890480B70502004E85EFD04FBB7DF968
:1048E000138504808545B7040300B7690040EFD005
:1048F000EFB18504138B0980A6855A85EFD0CFB719
:1049000065DD138509800146D285B7040700B769C4
:104910000040EFD04FB593842408138B0980A685FF
:104920005A85EFD06FB565DDD68513850980B7044C
:104930000700B7690040EFD04FB293844408938AD0
:104940000980A6855685EFD02FB365DD13850980D4
:104950008545B7040300B7690040EFD02FAB85044D
:10496000938A0980A6855685EFD00FB165DD138542
:1049700009800546D285B7090300B7640040EFD02F
:104980008FAE890993840480CE852685EFD0CFAE83
:1049900065DDB7640040B7090300130AF00F938484
:1049A0000480938909047D141374F40F6310440385
:1049B00037640040130504808545EFD0CFA68545B8
:1049C00013050480EFD0CFA76FB09FB609E48145EF
:1049D0002685EFD0EFA6CE852685EFD0EFA965DD41
:1049E0002685EFD0CFA72300A90005096DBFEFB240
:1049F0009FB241112A849306E100AA85054613055A
:104A0000000DEFF0FFEB930514009306F10005464F
:104A100093F5F50F1305000DEFF09FEA1C878887CB
:104A2000A2075D8D41016FB05FB1EFB2DFAE411102
:104A300070002C004800EFE07FDFB2473704002011
:104A4000AA84232CF41892471304841913057004C4
:104A50005CC0A2471CC4EFF09FF94AA413053004C0
:104A6000EFF0FFF86AA413055004EFF05FF831157A
:104A70000AA8268541016FB05FACEFB2DFA92A8694
:104A80003715014093050004130505C0EFC0BFF8BA
:104A90002945EF20A01F6FB05FAAEFB2DFA72A86DB
:104AA0003715014093050008130505C0EFC0BFF698
:104AB0002945EF20A01D6FB05FA8EFB2DFA5371525
:104AC000014093050008130505C0EFC0FFF32A84D9
:104AD0002945EF20A01B22856FB03FA6EFB2BFA3F0
:104AE000411185452145EFD0CFBDD1473714014055
:104AF0003EC69307000C7C824C008D47130504C012
:104B00003EC4EFC07FE49305000C130504C0EFC062
:104B10005FF041016FB07FA2EFB2FF9F0545EFF05C
:104B2000DFF70545EFF07FF50145EFF01FF7014591
:104B3000EFF0BFF46FB07FA0EFB2FF9D0145EFF043
:104B4000DFF50545EFF07FF30545EFF01FF56FB09A
:104B5000DF9EEFB2BF9A2A89014493090008A1445D
:104B600033D5894033752501EFF03FF30545EFF06C
:104B7000DFF001450504EFF05FF0E31394FE6FB042
:104B80003F9BEFB2BF970545EFF03FF181440144F1
:104B90009309000821490545EFF03FEEEFF0FFF1E2
:104BA00085476317F500B3D799405D8C1374F40FF4
:104BB00001458504EFF07FECE39F24FD22856FB073
:104BC0003F97EFB25F950545EFF03FED0545EFF0FC
:104BD000DFEAEFF09FEE2A840145EFF01FEA22851D
:104BE0006FB0BF95EFB23F93797113060002814514
:104BF0000808EFB05F958545114502C202C402C6A0
:104C0000EFD02FAC854513050020EFD08FAB316579
:104C1000EFD0CF9037150140C1474C0013050580F8
:104C2000372401407C8202C6EFC01FD21305044026
:104C3000EFC0DF8585473ECCB7070E003ECE0C089F
:104C40009147130504402302F10202C802CA02D0B0
:104C5000EFC03F88854513050440EFC0FF8D8545B3
:104C600013050440EFC05F8C814513050440EFC07D
:104C70001F9D13050440EFC05F8D930404402685FB
:104C8000EFC05F8D6DFD1305044037240140EFC078
:104C9000FF8C930404402685EFC0FF8C6DFD130547
:104CA0000440EFC05F9BB7070020239EA71045611B
:104CB0006FB0BF88EFB23F8639712A842E89B284E3
:104CC00081451306C002480836C6EFB0DF87854528
:104CD0000545EFD02F9D2285EFC09FAB93070008BD
:104CE0003ED493070010B2463ED6930700403ED80C
:104CF000930700023EDA4C088D6722854ACA26CC0B
:104D000036D03EDC02CE02D202DEEFC03FBF2161D0
:104D10006FB0BF82EFB23F80EFF0DFECB70700204B
:104D20008395C71137C500001305054EEF300014F9
:104D300037240140B7040240370600208546130699
:104D400006129305C44413854404EFF0BFF613859F
:104D500044048545EFC01FBE9D460546130504402B
:104D60009145EFC05F82854513050440EFC03F8049
:104D70006FB0AFFCEFB22FFA5C45AA842E89031402
:104D8000E50089EF084193050000EF50901719E501
:104D90000A042694232024016FB02FFA05040D473E
:104DA0003364E4028396C40093170401C1870A04A4
:104DB000FEA4269423202401E390D7FE8507B3E7C1
:104DC000E702DEA4D1BFEFB20FF52A8408419305B4
:104DD0000000EF5040314C40EF50E0300C44EF50B9
:104DE0008030B7B7000083A5C767EF5060666FB02B
:104DF000CFF4EFB24FF241118545114502C202C412
:104E000002C6EFD00F8C93070010371401407C824C
:104E1000C1473EC64C008D47130504803EC4EFC019
:104E2000BFB205469305001013050480EFC0BFBE56
:104E300041016FB08FF0EFB20FEEAA843705080082
:104E400039712E8413051502854532C602D202D46B
:104E500002D602D802DA02DC02DE02CC02CE231035
:104E60000102EFD00F863705138085454105EFC05D
:104E70003FBBED77938707A02312F102371501405E
:104E8000E1473ED64C108D47130505403ED4EFC098
:104E9000BFABE084375401402C08130504C0E486FE
:104EA000231F0100231D0100EFD04F873246C16749
:104EB000938707060C18130504C03ED8231BC102B4
:104EC000231C0102EFD02F900C18130504C0EFD063
:104ED000AF970C18130504C0EFD0EFA10C18130501
:104EE00004C0EFD00FAC130504C08545EFD06FB5FB
:104EF000130504C08145EFD0CFB7130504C0814529
:104F0000EFD00FB8130504C08145EFD0CFB813051B
:104F100004C08145EFD00FB9130504C08545EFD01B
:104F2000AFB38545130504C0EFD02FB021616FB03A
:104F3000CFE0EFB24FDE09651306803E9305100304
:104F4000130505C2EFF03FEF37540140130504C0CD
:104F50009305005AEFD06FB6130504C09305005AAD
:104F6000EFD0EFB5130504C09305005AEFD06FB52D
:104F70009305005A130504C0EFD0EFB46FB0EFDB18
:104F80009307005A63FBA70085671387F7B3636332
:104F9000A7069307206763E4A7001305005AB70725
:104FA00000201387072258239387072219EB9306C3
:104FB00020672A876374D50013072067131507013C
:104FC000418183A747200947FD15638EE706EFB2AD
:104FD0008FD493972500B705002093858505BE954E
:104FE0009C416382E704634AF70005476385E70253
:104FF0006FB0AFD4138507B45DB70D47638DE7027B
:105000001147E397E7FEAA8537550140130505C010
:10501000EFD06FABF1BFAA8537550140130505C02E
:10502000EFD0AFA9F1B7AA8537550140130505C0E8
:10503000EFD0EFA875BFAA8537550140130505C00D
:10504000EFD02FA875B78280EFB2EFCC856693863C
:1050500006B42E87B68763E3A600AA8713960701D6
:1050600041829306005A6374D6009307005A9395C1
:1050700007017D17B70700200A0793878705BA97AE
:105080009C430947C181638DE7026347F7000547E9
:105090006381E7026FB06FCA0D47638AE702114769
:1050A000E39AE7FE37550140130505C0EFD0AFA1E5
:1050B000D5B737550140130505C0EFD00FA0D9BFB4
:1050C00037550140130505C0EFD06F9FE1B7375545
:1050D0000140130505C0EFD0CF9E6DBF37050040DE
:1050E000854513050540EFD08F9F7300203037159D
:1050F0000040854513050580EFD06F9E730020307A
:10510000EFB26FC1797185453705020002CA02CC42
:1051100002CE02D002D202D402D602C602C8EFC02A
:105120003FDC85451145EFC0DFD99147FC8237143C
:1051300001408D473ECC4C08E147130504803ECE2C
:10514000EFC09F80A1474C08FC8213050480914763
:105150003ECEEFC06FFFB77706009387078A3ED039
:10516000B7070C003ED4930760037C866800854730
:105170003EC83744004002D2231601022307010033
:10518000EFC0BFB4130504408545EFD00F9F0C104E
:1051900013050440EFD06F95054693055052130553
:1051A0000440EFD0EF9E45616FB02FB9EFB2AFB6BC
:1051B0002A84EFD0CFA1B706002003C7261213869A
:1051C00041CC9307170093F7F70F329708A3238179
:1051D000F612130700046394E70023810612B70751
:1051E000002003A7870D85476313F70099249305D3
:1051F00050522285EFD0CF9E6FB02FB4411122C6FE
:10520000374400409305505213050440EFD00F9EE1
:1052100001CD9305000213050440EFD0CF9B09C5D3
:1052200013050440EFF09FF8324441017300203031
:105230000147938681B7130800109377F70F214633
:1052400093951700E207E187FD87E98F93F5E50F56
:105250007D16AD8F75F63386E6001CA20507E31EAA
:1052600007FD8280AA958147138781B76314B50033
:105270003E85828005058346F5FFB58FBA979C234E
:10528000F5B737070020130727121C236365F500C5
:10529000230007008280898F93F7F70F1CA3938662
:1052A00041CC01473306A70036960C223386E60030
:1052B00005070CA2E318F7FE8280582134311D8BBC
:1052C0002207938781C7558F98C35821935637007B
:1052D00058311377F7031607558FD8C35431782107
:1052E00099820A07D98E7831058B2A07558F98C77E
:1052F00078319356170018253D8B1E07558FD8C758
:1053000018259356470018351377F7071207558F5E
:1053100098CB143538259D820607D98E38350D8BEC
:105320002607558FD8CB38359356270058257D8BC7
:105330001A07558F98CF58259356570058350E07A2
:10534000558FD8CF783574251D8B2207558F98D36C
:1053500078359356370018291377F7031607558FBA
:10536000D8D31429183999820A07D98E3829058B80
:105370002A07558F98D738299356170038393D8B0F
:105380001E07558FD8D738399356470058291377B9
:10539000F7071207558F98DB542958399D82060765
:1053A000D98E78290D8B2607558FD8DB782993560F
:1053B000270078397D8B1A07558F98DF78399356F7
:1053C0005700182D0E07558FD8DF8280EFB2AF94AB
:1053D00058213C31411122075D8F5C316C00294618
:1053E000C2075D8F7C21138581CBE207D98F3EC632
:1053F000EF50507D41016FB04F94938741CC94237F
:105400001307800C6396E602EFB2EF90BC2351477E
:10541000638BE70059476396E700138541CCEFF0B3
:10542000DFE96FB08F91138541CCEFF03FFAD5BF24
:105430008280EFB2AF8C938441CC3709002085493C
:10544000130AB003938A24000347291263F4E90482
:1054500080309307D4FF93F7F70F6376FA00054582
:10546000EFF03FE2D5B79307140063D5E702A697A4
:1054700003CB07009305F4FF93F5F50F5685EFF086
:105480007FDEE31EABFCEFF05FF71305240013751E
:10549000F50FF9B76FB0CF89930700001CC15CC14D
:1054A0001CC55CC51CC91CCD5CC95CD11CD55CD5B8
:1054B0001CD98280930700003CC15CDD1CDD5CD1FF
:1054C0001CD95CD51CD57CC53CC57CC182809307AA
:1054D00000007CC53CC57CC13CC15CDD1CDD1CD929
:1054E0005CD51CD55CD15CCD1CD18280EFB20F8124
:1054F0002A843C448329440410D07CC42E85232470
:1055000034054CCCB285EF50E05F0C4068C0AA84F3
:10551000EF5000364C4008D42A8A2685EF5040359B
:105520004C54EF40503C5C5CCE852A893CC01C5CEE
:1055300048D426855CDCEF50E05C0C4408DCEF507E
:105540002033832A4401AA8908D8D6854A85EF509A
:1055500000216355A0002326540309A8832A84014F
:105560004A85D685EF500028E34705FE4C54528506
:10557000EF407037CE85EF4010370329C40048D084
:10558000AA89CA85EF50A01D6355A00023222403D9
:1055900009A8032904014E85CA85EF50A024E347DA
:1055A00005FE032944032685CA85EF50A023634FD7
:1055B000A000B7050080B3C525012685EF50201A4D
:1055C00063460500930700005CD05CD46FA05FF6D3
:1055D000EFA27FF4EFF0DFB2EFF02F9D75FDEFF05B
:1055E0005F95EFE0BFF6EFF0EFF2EFB02FABEFF02B
:1055F0005F8037C500001305854FEF2070096FA04D
:10560000DFF3B70700209387C7139843636FA702A0
:10561000D043B386C7006316D50054413E85B29689
:10562000D4C35041B306C500631CD700B7060020A1
:1056300083A646126306D70054431843B29654C15A
:1056400018C16303F50088C38280BA877DBFEFA2CB
:10565000FFEA41112AC6EF00503EB706002083A79B
:1056600046123706002093864612130686123245EC
:10567000A1EF370700209307C75D93F5F7001307E5
:10568000C75D81C51387F700419BB705002093854F
:10569000C51323A2050098C19165C115AE97C19BA2
:1056A00023A2070023A00700B385E7409CC21CC3C8
:1056B000B707002023A8B712B707002023A6B71208
:1056C000B70700804CC31CC2032A0600B377AA00A8
:1056D00085E39307F5FF3957636CF70093070501DE
:1056E00013F7F70049C313F707FF410763ECE70619
:1056F000814491A022872E8469A058C15CC0EFF03C
:105700005FF05840B7060020938606139042B30717
:10571000E94023A0F90063F3C7009CC2B70700204B
:105720003367EA009387471358C09843C104232086
:105730000400050798C3EF00B04C93F7F400D1CBF9
:10574000A167938707807390073037C6000037C57D
:1057500000001306C6509305001113054553EF20B2
:10576000E07001A0BA87370700200329C712930908
:10577000C712E36FF9F6370700200324C713130796
:10578000C71350406374F6000C40ADF59442E381BA
:1057900086F61440044314C33307F6409306000210
:1057A000E3F1E6F63305F4009376F500B9D6A16788
:1057B000938707807390073037C6000037C5000015
:1057C0001306C6509305F00C13054553EF20006AED
:1057D00001A0268541016FA0BFD55DC1EFA2BFD357
:1057E000B7070020032745FF83A787122A84B376D3
:1057F000F7009DE2A167938707807390073037C653
:10580000000037C500001306C6509305401213056B
:105810004553EF20A06501A0832605FF9DC2A16727
:10582000938707807390073037C6000037C50000A4
:105830001306C6509305501213054553EF2000631D
:1058400001A093C7F7FFF98F232AF5FEEF00F01EA2
:10585000B70700209387C7129443032744FF13051B
:1058600004FF369798C3EFF0DFD9B707002093877E
:1058700087139843050798C3EF0090386FA0FFCBBC
:105880008280B707002003A507138280B7E700E0F6
:1058900041572387E7402386E740B7F700E023A07E
:1058A000070023A20700814694C70147D8C783A5F4
:1058B000C1801307803E814633D6E5023D4790CB39
:1058C000D4CB98C38280EFA21FC5411102C6F32733
:1058D00050303EC6B2470D478D8B6384E702A16707
:1058E000938707807390073037C6000037C50000E4
:1058F000130686559305600B13054553EF2000579B
:1059000001A0B787002093870700BD8B9DC3A167C7
:10591000938707807390073037C6000037C50000B3
:10592000130686559305B00B13054553EF2000541D
:1059300001A0EFF0BFF5B7E700E0056723A0E7108F
:10594000116723A0E71023AC0180EFA07F9B0145E6
:1059500041016FA09FBE73110134A1679387078037
:1059600073900730B7F700E023A20700EF00900E16
:1059700011C5B7E700E0116723A0E720A16793876F
:105980008788739007307311013473002030A1674A
:105990009387078073900730938781819843050729
:1059A00098C38280138781811C438DE7EFA2BFB625
:1059B000A167938707807390073037C6000037C50B
:1059C0000000130686559305201013054553EF205C
:1059D000E04901A0FD171CC391E7A1679387878861
:1059E000739007308280930785007D575CC118C58E
:1059F0005CC51CC923200500828023280500828005
:105A00009841FD5693078500631ED7001C49D84373
:105A1000D8C10CC79CC5CCC31C4188C985071CC113
:105A20008280B687D4439042E37DC7FECDB7544110
:105A300018451C4998C654C3D4436393A600D8C3E1
:105A40009843232805007D1798C388438280EFA2DE
:105A50009FAC41112AC6EFF09FF33245005DEFF095
:105A60007FF41335140041016FA03FAD304115C2E2
:105A7000EFA27FAA58451445AA87329758C5636498
:105A8000D700184158C52E85CC47EF50B0136FA0F2
:105A9000DFAA8280EFA23FA82A84EFF05FEF834461
:105AA000540413094402E204E18463489002FD5760
:105AB000A302F404EFF01FEFEFF07FED8344440402
:105AC00013090401E204E18463459002FD572302B7
:105AD000F404EFF03FED6FA05FA65C50E9DB4A8570
:105AE000EF00704419C1EF00D060FD14E204E184BE
:105AF0006DBF1C48E1DF4A85EF00F04219C1EF009D
:105B0000505FFD14E204E184C1B7EFA2DFA04111B0
:105B10001DE1A167938707807390073037C60000A7
