:100000006F00604A1300000013000000130000009E
:100010001300000013000000130000001300000094
:100020001300000013000000130000001300000084
:08003000130000007300100032
:100038000000000000000000A8020000AC02000060
:1000480000000000EC0300000000000000000000B9
:10005800EE030000F00300000000000000000000B4
:10006800F203000000000000F4030000000000009C
:10007800F6030000F8030000FA030000FC03000088
:10008800FE03000000040000020400000404000055
:1000980006040000080400000A0400000C04000024
:1000A8000E040000100400001204000014040000F4
:1000B80016040000180400001A0400001C040000C4
:1000C8001E04000020040000220400002404000094
:1000D80026040000280400002A0400002C04000064
:1000E8002E04000030040000320400003404000034
:1000F80036040000380400003A0400003C04000004
:100108003E040000400400004204000044040000D3
:1001180046040000480400004A0400004C040000A3
:100128004E04000050040000520400005404000073
:1001380056040000580400005A0400005C04000043
:100148005E04000060040000620400006404000013
:1001580066040000680400006A0400006C040000E3
:100168006E040000700400007204000074040000B3
:1001780076040000780400007A0400007C04000083
:100188007E04000080040000820400008404000053
:1001980086040000880400008A0400008C04000023
:1001A8008E040000900400009204000094040000F3
:1001B80096040000980400009A0400009C040000C3
:1001C8009E040000A0040000A2040000A404000093
:1001D8000000000000000000000000000000000017
:1001E8000000000000000000000000000000000007
:0801F8000000000000000000FF
:100200003D432A876373C3029377F700BDEFADE5E3
:10021000937606FF3D8ABA960CC34CC30CC74CC7F5
:100220004107E36BD7FE11E28280B306C3408A0622
:100230009702000096966780A6002307B700A306E2
:10024000B7002306B700A305B7002305B700A30432
:10025000B7002304B700A303B7002303B700A3022A
:10026000B7002302B700A301B7002301B700A30022
:10027000B7002300B700828093F5F50F93968500B1
:10028000D58D93960501D58D61B79396270097027A
:10029000000096968682E78086FA9680C1171D8FA9
:1002A0003E96E374C3F8A5B77300203001A0411156
:1002B000094506C6B123EF30F07D716513050520B1
:1002C000EF404003B707002083A5870A3785000069
:1002D0001305C58EEF50C002378500001305C58F8A
:1002E000EF504004EF30B069EF305070F5BFB717F2
:1002F00002409843B706FFF841111367170098C3EF
:10030000D84337060200758FD8C39843B706F7FE67
:10031000FD16758F98C39843B706FCFFFD16758FC1
:1003200098C3D843B70681FFFD16758FD8C398438D
:10033000B70600ECFD16758F98C33707FF0098C706
:1003400023A6070202C402C69843C166558F98C30C
:10035000B716024005679C42F18F3EC6A24785074B
:100360003EC4B24781E7A247E397E7FEB7170240D2
:100370009C431397E7006357070685473EC63247FD
:100380008547631FF704B7170240D843B706C1FF7C
:10039000FD16D8C3D843D8C3D84313670740D8C382
:1003A000D843758FD8C3D843B7061D00558FD8C31F
:1003B0009843B7060001558F98C39843931667007A
:1003C000E3DD06FED843B7160240719BD8C3D8437D
:1003D00013672700D8C32147DC42B18BE39EE7FEB9
:1003E0004101828002C661BF01A001A001A001A05D
:1003F00001A001A001A001A001A001A001A001A0F5
:1004000001A001A001A001A001A001A001A001A0E4
:1004100001A001A001A001A001A001A001A001A0D4
:1004200001A001A001A001A001A001A001A001A0C4
:1004300001A001A001A001A001A001A001A001A0B4
:1004400001A001A001A001A001A001A001A001A0A4
:1004500001A001A001A001A001A001A001A001A094
:1004600001A001A001A001A001A001A001A001A084
:1004700001A001A001A001A001A001A001A001A074
:1004800001A001A001A001A001A001A001A001A064
:1004900001A001A001A001A001A001A001A001A054
:1004A00001A001A001A097010020938121401781A4
:1004B0000020130121B5178500001305654A970533
:1004C0000020938525B41386018163FAC500832239
:1004D000050023A0550011059105E3EAC5FE13852B
:1004E00001819385C1836377B50023200500110541
:1004F000E36DB5FEFD42739002BCED427390428005
:10050000B76200009382820873A002309702000055
:100510009382C2B293E2320073905230EFF03FDD2B
:10052000970200009382E2D8739012347300203057
:100530009C4513F7070113F8F70001C7D84133684A
:10054000E80083D5050013F7F50F39C3184181463C
:10055000854E3D4F930F800293028004214E3396C7
:10056000DE00B3F8C5006311160393982600331319
:100570001F011343F3FF3377E300B318180133E788
:10058000E800639FF70550C98506E39AC6FD18C1C8
:100590001307F00F6375B70454412146854E3D4F54
:1005A000930F800293028004414EB398CE0033F73C
:1005B00015016392E8021317260001173313EF00A9
:1005C0001343F3FFB376D3003317E800D98E639D4E
:1005D000F701232A15010506E319C6FD54C18280DF
:1005E000E39457FA10C94DB7E39757FE2328150136
:1005F000DDB74CC9828019C20CC982804CC9828087
:10060000397122DC26DA2A848354450068082EC614
:1006100006DED52A925737470F001307072433D732
:10062000E702C204C18093F404FCC204C180B24555
:1006300061651305056A131607014182D18C2312E7
:10064000940083560400C206C182F99AC206C18290
:100650002310D40094416366D5068606B3D7D7022B
:100660009146139707014183BA876373D700914777
:1006700005064206C2074182C1832310C402231E1D
:10068000F4008357040003D7450083D6A50093E701
:1006900017002310F40083570400558FF250C2074F
:1006A000C18393F757BFD98F2310F40003D7850078
:1006B00083D7C500D254D98F2314F400625421612A
:1006C000828003D5650031667D16631EC5020D4626
:1006D000B386C602B3D7D702C207C1839396470138
:1006E00099E293E71700A166D58F9306C0123307EE
:1006F000D7029306803E3347D7020507420741835E
:100700002310E402ADBF6546B386C602B3D7D70255
:100710009166C207C183D58FD1B78357050091C5B4
:1007200093E717002310F5008280C207C183F99B6D
:10073000C207C183C5BF8357050091C593E7071062
:100740002310F5008280C207C18393F7F7EFC20739
:10075000C183FDB78357050091C593E70720231098
:10076000F5008280C207C18393F7F7DFC207C18318
:10077000FDB78357050091C593E707402310F500A7
:100780008280C207C18393F7F7BFC207C183FDB759
:100790002318B5008280035505011375F50F82807B
:1007A00093F7E50F19C293E71500C207C183231819
:1007B000F5008280835745010355850142055D8D13
:1007C0006D8D220521810D8D13351500828041111B
:1007D00002C402C693D7C5012AC63EC4A247A205D9
:1007E000A18199CBB247D1073EC6B24788434101A8
:1007F0006D8D3335A0008280B247C181E107EDB72E
:1008000023A8A1808280371702405C439146B18BB8
:100810006385D700A1466386D706B7177A0093870A
:1008200007201CC1371602405C423707002013071F
:1008300007009183BD8BBA9783C607001C41B3D7CD
:10084000D7005CC15442A1829D8ABA9683C6060035
:10085000B3D6D70014C55442AD829D8A369703475C
:100860000700B3D7E7005CC5584239839376370059
:1008700013874180369703470700B3D7E7021CC9A7
:1008800082805C4354434167C983F98E37F7FF1F69
:100890000327C770BD8B890713161701634806002D
:1008A000454601476392C702C94739A8094763898A
:1008B000E7023D476388E70241476388E702454610
:1008C00001476393C700C14785E6B746024083A648
:1008D0000680C18A8DC6B7167A009386062025A0A9
:1008E0000147D9B70547B547C5B70147BD47E9BF78
:1008F000B7160240D4421396E600E35E06FCB71634
:100900003D0093860690B387D7021CC101DF1C41CE
:10091000858301BF99C5371702401C4F5D8D08CFF5
:100920008280B7170240984F1345F5FF798D88CF25
:10093000828099C5371702405C4F5D8D48CF828019
:10094000B7170240D84F1345F5FF798DC8CF828085
:10095000035705008D679387070483D625007D8F95
:1009600083D70500D58F83D64500D58F83D6650004
:10097000D58F83D68500D58F83D6A500D58F83D616
:10098000C500D58F83D6E500D58FD98F2310F5000C
:100990000357C501FD779387F77FF98F231EF50075
:1009A00083D705012318F50082808357050091C580
:1009B00093E707042310F5008280C207C18393F7F1
:1009C000F7FBC207C183FDB72316B500828003552C
:1009D000C5008280035585006D8D3335A00082806F
:1009E00083560501F577FD17F58F83D665003971BC
:1009F00022DC06DED58F03D7C5002318F500835609
:100A0000C500FD779387379FF58F83D645002A84ED
:100A10002EC6D58F83D68500D58F83D6A500D58FDA
:100A20002316F50083574501C207C18393F7F7CF1B
:100A3000D98F231AF5006808F933B7470140938727
:100A40000780B245631EF404A2578356C40065476D
:100A5000B387E702C206C186984163D5060406073C
:100A60000356C4004206B3D7E70213074006418687
:100A7000B3D6E702B3F7E7029206635706028E0782
:100A800093872703B3D7E70213F77700B367D7003D
:100A9000C207C1832314F400F250625421618280A2
:100AA000925765B70A076DBF920793872703B3D79D
:100AB000E702BD8BD58FE9BF81C98357C5000967A0
:100AC000D98F2316F50082800357C500F977FD17EB
:100AD000F98FC5BF93F5F51F2312B500828003552A
:100AE00005006D8D3335A0008280797122D43704E2
:100AF000002026D285479304C40198402312F100B8
:100B0000DC4006D64AD04ECE52CCAA892E8903C5E7
:100B10000700834527015400328A0946EF208026CA
:100B20001305800CEF30A0799840DC4023020100CF
:100B30008345F70003C5070054000546EF208024D5
:100B40009840DC4054008345570003C50700054624
:100B50001304C401EF2000239840DC405400834577
:100B6000270103C507000546EF20C0219840DC405F
:100B700054008345770103C507000546EF20802018
:100B80009840DC4054008345470003C507000546F4
:100B9000EF20401FB1472302F1009840DC40540091
:100BA0008345470003C507000546EF20A01D3D45CE
:100BB000EF30E0709C549840540083C7970005467E
:100BC0002302F100DC408345270003C50700EF2026
:100BD000601B9C549840540083C78700054623023D
:100BE000F100DC408345170003C50700EF208019A2
:100BF0001C5483C7A70063040A0093E7070E23026F
:100C0000F10018405C4054008345670003C50700AD
:100C10000546EF202017E14763070A001C5483C7ED
:100C2000B70093E7070E2302F10018405C40540020
:100C30008345770003C507000546EF20A01463062F
:100C40000A001305800CEF3080679307000423022D
:100C5000F10018405C4054008345470003C507007D
:100C600005468144EF200012930780072302F1001C
:100C700018405C4054008345570003C507000546F3
:100C8000EF20401013052003EF30606318405C40F4
:100C9000230201008345570003C5070054000546A1
:100CA000EF20400E5C401840540003C50700834508
:100CB000A7000946EF20A02D034A410083475100B9
:100CC00023A40900220A336AFA00B147335AFA0210
:100CD00023A2090023A009002324090023220900DC
:100CE00023200900137AFA0F6396441503A509001F
:100CF0001306300881469357F541C2079355050105
:100D0000DD8D4205EF40406726868146EF40C06694
:100D100023A0A90003A54900130630088146935774
:100D2000F541C20793550501DD8D4205EF40C064D2
:100D300026868146EF40406423A2A90003A58900CE
:100D40001306300881469357F541C20793550501B4
:100D5000DD8D4205EF40406226868146EF40C0614E
:100D600023A4A90003250900268681469355F54151
:100D700093570501139705015D8F9355F741420580
:100D800093F5F57FB387A500B3B5B700BA95AD83EA
:100D9000139555015D8DAD85EF40005E2320A900C0
:100DA00003254900268681469355F5419357050151
:100DB000139705015D8F9355F741420593F5F57F34
:100DC000B387A500B3B5B700BA95AD8313955501A8
:100DD0005D8DAD85EF40405A2322A900032589008F
:100DE000268681469355F5419357050113970501D2
:100DF0005D8F9355F741420593F5F57FB387A500C5
:100E0000B3B5B700BA95AD83139555015D8DAD852A
:100E1000EF408056C1776343A000C167B2502254AF
:100E20003E952324A90092540259F249624A014591
:100E30004561828018405C4054008345B70003C57B
:100E4000070031468504EF20801403476100834783
:100E500071008346910022075D8F8347810003461E
:100E600051004207A207D58F834641004187C20740
:100E7000A206D18E03260900C206C186B29623209F
:100E8000D90083264900C1870346B1003697232243
:100E9000E900032789008346F10093F4F40FBA9721
:100EA0000347C1002324F9008347D10022075D8F47
:100EB0008347E10042074187A207D58F8346A100FF
:100EC000C207C187A206D18E03A60900C206C18649
:100ED000B29623A0D90083A64900369723A2E90041
:100EE00003A78900BA9723A4F900FDBB011122CC06
:100EF000370400209307C40106CE83C747021304BA
:100F0000C40195CB11C10945A307A1005C4018405D
:100F10009306F10003C507008345F7000546EF106F
:100F200070668347F100A308F4008147F2406244F1
:100F30003E85056182800347A400FD5765DB09C932
:100F40000347140181477DF38547A307F1007DBF67
:100F5000A307010065BF011122CC3704002006CE93
:100F60009307C40183C7A7007D556381070E13044F
:100F7000C40118405C40A30701008345F70003C586
:100F800007009306F1000546EF10D05F18405C4063
:100F90009306F1008345570003C507000546EF108F
:100FA000705E5C4018409306F10003C5070083455E
:100FB00047000546EF10105D83474402C1CFB1479B
:100FC000A307F10018405C409306F10083454700F9
:100FD00003C507000546EF10F05A13052003EF3054
:100FE000002E930700FCA307F1008347A400858B24
:100FF00081C78157A307F1005C4018409306F100B8
:1010000003C50700834547000546EF10B0578347E7
:10101000140191C38947A307F10018405C4093066F
:10102000F1008345F70003C507000546EF10905512
:1010300018405C40A30701009306F10003C50700B8
:10104000834557000546EF10F0530145F2406244D6
:10105000056182809147A307F10018405C40930628
:10106000F1008345470003C507000546EF10905186
:10107000834724011307000499E78347A400858B65
:1010800099C3130700065C40A307E100184003C59D
:1010900007009306F100834547000546EF10904E88
:1010A00013052003EF30A021834714011840930655
:1010B000F100B337F000A307F1005C408345F7006F
:1010C000054603C50700EF10F04B18405C4093063F
:1010D0000401ADB7B707002083C747020547638205
:1010E000E70291CB09476381E7020D476381E7027D
:1010F0002310050029A09307A00F2310F500014538
:1011000082809307401FD5BF9307803EFDB79307AA
:10111000007DE5B7011122CC3704002006CE9307ED
:10112000C40183C7A70089CF9307401F1304C401DC
:101130006303F50663E8A7009307A00F630EF500AD
:101140007D55B1A09307803E630BF5049307007DA6
:10115000E318F5FEE14789A0A30701008347F100EA
:101160000347840001458D836303F7025C40184008
:101170009306F10003C50700834567000546EF109D
:1011800070408347F10001458D832304F400F24051
:10119000624405618280A147A307F100C1B7C1473E
:1011A000E5BF370700209306C70183C696000546B2
:1011B000AA871307C7016388C60289CA09466386DE
:1011C000C6020D466385C6027D558280894623800E
:1011D000D70003473701014511C703C707000607BA
:1011E0002380E70082809146DDB7A146CDB7C14696
:1011F000F9BF011122CC3704002006CE9307C401A9
:1012000083C7A70099CB91471304C4016300F50677
:1012100063E7A7008947630CF5007D55A1A0A147AE
:10122000630AF504C147E31AF5FEE14789A0A30765
:1012300001008347F1000347940001458D83630358
:10124000F7025C4018409306F10003C50700834590
:1012500077000546EF1010338347F10001458D8379
:10126000A304F400F240624405618280A147A30711
:10127000F100C1B7C147E5BFB707002083C77702B8
:101280001547FD1793F7F70F636BF70221678A077E
:1012900013074791BA979C4382879307C00B23108B
:1012A000F5000145828093072006D5BF9307A00271
:1012B000FDB7D147EDB7A947DDB79547CDB72310A7
:1012C0000500C5B7011122CC3704002006CE9307D4
:1012D000C40183C7A700ADCF9307B00B1304C401AB
:1012E00063F0A7048547A307F1000347B4008347D1
:1012F000F10001456302F7025C4018409306F100DB
:1013000003C50700834527000546EF10B027834734
:10131000F1000145A305F400F240624405618280BA
:101320009307100663F4A700894775BF93079002DF
:1013300063F4A7008D4745BFCD4763F4A7009147ED
:101340005DB7A54763F4A700954771BF994761BF93
:101350007D55D9B7B70700209387C70103C7470258
:1013600019E783D7E7002310F500014582807D55FA
:101370008280B707002083C7470205476382E702E0
:1013800089CB09476383E7020D476385E7027D55F3
:101390008280B787000087A787951CE1014582807E
:1013A000B787000087A7C795CDBFB787000087A77D
:1013B0000796E5B7B787000087A74796F9BF3707B5
:1013C00000209306C70183C696000546AA87130727
:1013D000C7016388C60289CA09466388C6020D46EA
:1013E0006387C6027D55828091662390D7000347AC
:1013F0003701014511C703D7070005832390E70094
:10140000828089669386C6F9CDB78566F9BF856601
:1014100093860680D9BF011122CC37040020130423
:10142000C401834744024AC806CE26CA4EC60149B3
:10143000A1E38347A4007D5985CF9374E50FE58F21
:10144000834904012308F400858FB337F000330982
:10145000F04083474401C58F91CB0545413C89C885
:10146000DD3C19C5230834017D5919A00145BD3C57
:10147000F24062444A85D2444249B24905618280C1
:1014800079714ECEB709002026D29384C90183C753
:10149000440206D622D44AD052CC56CA85CF03C7BE
:1014A000A400FD572DC3DC409840AE8A2A898345AD
:1014B000A70003C50700328A74000946EF10302DDB
:1014C0008347C1000344D100A2075D8C63762401E9
:1014D00023000A00FD5705A8D8409389C901835706
:1014E0002700858363FB87029C4003450700740047
:1014F00083C517010546EF1090298347C100C18BB2
:1015000089CF913CF957B250225492540259F24972
:10151000624AD24A3E854561828083A7490003A77B
:101520000900D68603C507008345B7001376F90F77
:10153000EF10F0253354240381477D1423008A00E3
:10154000D9B7011122CC3704002006CE26CA930752
:10155000C40183C72701638CA70C1304C4015C403A
:10156000AA849306F10003C507001C40054683C505
:101570004700B9C8EF10B0218347F1001840930627
:10158000F10093F7F7FDA307F1005C4083454700A6
:10159000054603C50700EF10E07E0D45EF203052F1
:1015A0008947A307F1008347240289C7930720F8DE
:1015B000A307F10083473402B1CF8347F10093E7DB
:1015C0000703A307F100B9A0EF10701C8347A40024
:1015D0008346F100858B13F7F60D99C313E70602D6
:1015E0005C40A307E100184003C507009306F10023
:1015F000834547000546EF10E0780D45EF20304C5D
:101600008347240299C39307000803473402A307C2
:10161000F10055F718405C409306F10083454701FF
:1016200003C507000546EF10E07523099400F2405A
:101630006244D244014505618280011122CC370405
:10164000002006CE26CA9307C40183C737026388E9
:10165000A7041304C401814719C19307000303477A
:101660002401A307F10009C793E72700A307F100AE
:101670008347240299C78347F10093E707F8A3073C
:10168000F10018405C40AA848345470103C5070068
:101690009306F1000546EF10E06EA3019402F240BC
:1016A0006244D2440145056182809307800263EF62
:1016B000A70A011122CC26CA3704002006CEAA842C
:1016C0001304C40105E9953F930700702316F10048
:1016D00018405C4074008345270103C50700094694
:1016E000EF10406A230A0400F2406244D2440145EC
:1016F0000561828005459137930700022306F100BA
:1017000085476392F404A30601001545653E8347AF
:10171000D100184074009A0793E77700A306F10000
:101720005C4083452701094603C50700EF1080652B
:10173000A1472305F4000145854723060400230A39
:10174000F400D13955B7154763659700A306F1003A
:101750006DBFD14763E797008947A306F10029458C
:1017600075B78D47A306F10051454DB77D55828071
:10177000011122CC3704002006CE26CA9307C401EB
:1017800003C7A70051CB03C74702AA847D5515E3C1
:1017900083C747011304C40185C79387F4FFC207B9
:1017A000C18313077002636BF70013F5F40FF53D67
:1017B0000145F2406244D244056182800145F5351D
:1017C0001307803EA687637497009307803E1397A4
:1017D0000701418391466373D7009147C207930481
:1017E000803EC183B3C7F40218409306F10005465A
:1017F00083451700FD17A307F1005C4003C50700F0
:10180000EF1040580345F100050533C5A402231726
:10181000A4000581453C69BF7D5561BF011122CC03
:1018200006CE26CA4AC8937705072A8489C7854702
:10183000A307F10021A05DC9A3070100B7040020A0
:101840001389C40183274900032709009306F10087
:1018500003C507008345270105469384C401EF10A3
:1018600060528347F10093F7F7FB2306F900937763
:101870000404C1C3A30701009377040299E78347D7
:10188000F10093E72700A307F1009377040199E79C
:101890008347F10093E71700A307F10093778400D3
:1018A00099E78347F10093E78703A307F100DC4042
:1018B00098409306F10003C50700834537010546AC
:1018C000EF10404C9377740F99C30145BD33130556
:1018D000200323858400238A0400EF20501EF24059
:1018E0006244D24442490145056182809307000465
:1018F00081B79147A307F10041B7011122CC37040A
:10190000002026CA930700F89304C40198402304DA
:10191000F100DC4006CE8345270103C507003400F3
:101920000546EF10204613054006EF205019984059
:10193000DC40230401008345270103C50700340070
:101940000546EF1020449840DC4034008345670191
:1019500003C5070019461304C401EF104063834711
:10196000D1000347B1008A070607098B918BD98FF5
:1019700003479100058BD98FC9CF054793F5F70F22
:101980006395E700A309F40031A089476396F50643
:10199000A3090400FD572317F4002308F4002309CA
:1019A000F400FD571CC4231A0400854731468145C5
:1019B000130564012306F400EFE09F84854723119B
:1019C000F402232204021305007DEFF0AFF41DE9B9
:1019D0000945EFF01F821DE51305A002EFF09F8E71
:1019E00015E113052003693311ED353401ED913E06
:1019F0002A8409E9253501A8378500001305859655
:101A0000EF3010107D542285F2406244D2440561CB
:101A10008280DC409840340003C5070083453700CE
:101A20000546EF10C05683478100BD8B81EB37859B
:101A3000000013050599EF30F00EE9B71147E3995F
:101A4000E7F4378500001305C59DEF30B00D8547DD
:101A500015BF11EA7D5582807D55F2406244D24423
:101A6000424905618280011122CC37040020130411
:101A7000C4018347A40006CE26CA4AC8F1DF135723
:101A8000850093178500D98F2316F1005C401375EC
:101A9000F50F2E9503D7A700E340A7FC184003C518
:101AA0000700AE8483458701328974000946EF1030
:101AB000602D18405C40CA868345570103C5070066
:101AC00013F6F40FEF10002C014541BF11EA7D55CC
:101AD00082807D55F2406244D24442490561828051
:101AE000011122CC370400201304C4018347A40051
:101AF00006CE26CA4AC8F1DF135785009317850022
:101B0000D98F2316F1005C401375F50F2E9503D77E
:101B1000A700E340A7FC184003C50700AE84834537
:101B20008701328974000946EF10C02518405C40D7
:101B3000CA868345570103C5070013F6F40FEF105B
:101B40000045014541BF5D71A6C2B704002086C6AD
:101B5000A2C4CAC04EDE52DC56DA5AD85ED662D46F
:101B600066D26AD09387C40183C7570285C37D5567
:101B7000B640264496440649F259625AD25A425B0C
:101B8000B25B225C925C025D61618280EDD1C16BCF
:101B90009384C401368B32892E8AAA890144C14CB0
:101BA000FD1B636B340313168900DC409840135906
:101BB0008900336926012316210103C507008345E7
:101BC000A70174000946EF10E01B8547A382F402C9
:101BD00023936403014569BFB38A894063D35C01E1
:101BE000C14A139C0A01135C0C01330D8A006A86FA
:101BF000E2852285B93D25FD1008E2852285F9356B
:101C00003DF533F67A010C086A85EF50503D09E541
:101C100062944204418071B7795599BF011122CC79
:101C2000370400201304C4010347440206CE6304B2
:101C3000A70439C5834754027D559DCF0145EFF078
:101C4000EFAA0145EFF0FF8F0355640215365C40A3
:101C5000A30701009306F10003C50700054693059D
:101C60003002EF102012854705452302F402EFF001
:101C7000EFA7EFF04FAE0145F2406244056182806C
:101C8000EFF0CFA6834704019306F1000546A307B2
:101C9000F1005C409305300203C50700EF10800E91
:101CA00023020402F9B75971A2D437040020CAD024
:101CB000D6CA9307C40186D6A6D2CECED2CCDAC875
:101CC000DEC683C447022A89AE8A1304C40181C4D4
:101CD0000145A93785441305E100EFF0AFBF1305B7
:101CE000D100EFF00FCC13052101EFF0EFD8080879
:101CF000EFF04FE60146D6854A85034AA4008349A2
:101D00000401EFE09FDE6314051A05462C106808F5
:101D1000EFE0BFDD631405205C403408114603C5C5
:101D20000700B545EF10A0268346B10103478101A6
:101D30004C1893D746400D878D8B718B5D8F230A8E
:101D4000E1000347910193D726408D8B0D87718B5E
:101D50005D8F8347A101A30AE100378700008D87CB
:101D6000072707A0378700008D8AF18B872647A0B9
:101D7000D58F230BF10054089000AE872E8B03C73C
:101D800006006314071A23A0070091078506E318CD
:101D9000F6FEB787000087A547A1B787000007A513
:101DA00087A1B7870000B78B000007A0C7A0B7873F
:101DB000000087A68BA0530600F087A007A138106B
:101DC0000146814605450D4893972600D6978328FE
:101DD00007009C439861B387174193D8F741B3C775
:101DE000F800B3871741D3F707D0D327C7A0D3F79D
:101DF000D71063990714D3F7E718D3F70708D3A7C9
:101E0000F720D397F0A081C7B317D5005D8E850664
:101E100011079105E39A06FB5C40DA86B54503C5D8
:101E20000700937AF60F0D46EF10601683476103A3
:101E3000035741038966FD8B230BF102B78700002E
:101E400007A647A2B787000087A587A2B78700002B
:101E500007A5C7A1B787000007A0C7A0B7870000E4
:101E60009386F6F187A68BA087A007A2758F231A09
:101E7000E1027408014501478545B78800000D4817
:101E800093172700CA9790429C43918F13D6F7412E
:101E9000B18F918FD3F707D0B307EB0003C60700CC
:101EA000D3F7D7106308060E07A7C89F6DA0014699
:101EB000D6854A85EFE07FC3E30905E40149FD5774
:101EC0000355E1002317F4002308F400FD571CC458
:101ED00085472306F400EFF0EFA30345D100EFF0B0
:101EE0004FB103552101EFF0EFBD03550101EFF0B4
:101EF0003F885285EFF09F924E85EFF0CFD199C089
:101F00000545293BB65026544A8596540659F6494C
:101F1000664AD64A464BB64B6561828005462C1010
:101F20006808EFE09FBC59F9C5BB98E37D171377AC
:101F3000F70F01E72380060089BD9C63D3F7D71014
:101F40009CE3EDB7D397B7A0E39007ECD317F5A0C8
:101F50005DBD5377A7107D161376F60F7DFAD3F784
:101F6000E71823800700D3F70708D3A7F720D397F4
:101F7000F0A081C7B397E5005D8D05079106E311D9
:101F800007F11375F50F13391500E39A0AF2136977
:101F9000290035B7D397C7A0F1FFD397F5A0D1BFDC
:101FA000828079714C08280006D6F5390D4785479F
:101FB0006315E5064800EFF0CFBBA2479266280004
:101FC00053F707D05377D710D31707C03EC4B24793
:101FD00053F707D05377D710D31707C03EC6C24771
:101FE000D3F707D0D3F7D710D39707C03EC8752EC5
:101FF00013052100EFF0AFBC03572100D24748087A
:10200000B387E7023ECAE247B387E7023ECCF24716
:10201000B387E7023ECE55218147B2503E854561E8
:1020200082800307050081476343E002914705E38F
:10203000030715008547634CE000954709EB03074C
:10204000250089476345E0009337170099073E85CF
:102050008280411106C622C426C24AC0AA84D13752
:102060002A8913853400753F2A8413856400553FFF
:10207000931734001A05B24022445D8D3365250163
:10208000420592440249418141018280411122C4AA
:1020900006C6EFF09F86294449E513058007EFF057
:1020A000EFF71375F50F05442DED13058007EFF0DD
:1020B0008FB61375F50F09442DE513052003EFF0D6
:1020C0002FEB1375F50F0D4429ED55221375F50F00
:1020D000114421E937050020130505019D3F6522C4
:1020E0001375F50F154415ED13053017EF00B00902
:1020F0001375F50F194415E513052003C129137550
:10210000F50F1D4419ED713D214401ED05453936AA
:102110001374F50F01EC3785000013054594EF307B
:1021200060202285B2402244410182802544D5BFEF
:102130001D71A2CCA6CACAC8AE842A89328493076C
:1021400091001307A100740010102C08080886CE17
:10215000A2E6A6E4CAE2CEE052FE56FC5AFAEF002E
:10216000502279E98357A100094593F70710C5CBA1
:102170008257D3F407D0B787000087A78793925779
:10218000D3F4F41053F407D0A2575374F41053F956
:1021900007D0B25753FB94005379F910D3F907D005
:1021A000B787000007AAC793D3F9F91053752B110D
:1021B000537A441143753A51EF20A01EB7870000AF
:1021C00087AA0794537B8B10B7870000537555116E
:1021D0002720A90053752901D3752511437535B101
:1021E000477A8A5887A5C7A0D375BA00EF20402741
:1021F00053755511D375841088E0C3F5945853F581
:102200003411CB75295943752451CBF53959537580
:10221000A500EF20E02453755511014508E0F64074
:102220006644D64446493664A66416698669727A5D
:10223000E27A527B256182800545D5B7B7B7B38D69
:102240000111938787AB3EC2B7A70D359387478BA4
:102250003EC450009307D005A5451305804B06CE1C
:102260002306F100EFF0EFFEF24005618280A165E8
:1022700005659306800C13060040938505A713059A
:1022800065BF6FF05F8CF57701111387C7D4938713
:10229000C7902316F1009307C0022314E10023071F
:1022A000F1001307C006937635001C0822CC06CE39
:1022B0002305E100BE9683C786FF135735000D8BBB
:1022C0002300F1001C083E97834787FF100883C650
:1022D000C6FFA300F100935765008D8BB29703C62C
:1022E00087FF0347C7FF83C7C7FF2A842301C100B5
:1022F0008D450A86130560422302D100A302E10046
:102300002303F100EFF0EFF411C57D55F240624474
:102310000561828050008D451305A042EFF06FF3F8
:102320006DF59567938767632310F1009307600746
:102330002301F1009167938767622312F1009307ED
:1023400060062303F1009377440089CB9307700361
:102350002300F100930770022302F1009377040237
:1023600089CB93077005A300F10093077004A302C3
:10237000F1009377041089CB930770072301F100D4
:10238000930770062303F1000A868D451305004468
:10239000EFF02FEC3DF950008D4513051043EFF0A1
:1023A0004FEB25F52390818295B783D701820111E8
:1023B00006CE13F737000A072A970C4322CC26CA09
:1023C00013F7470019C3B305B04013D71700318B7B
:1023D0002A97104313F7070219C33306C04013D7D7
:1023E0004700318B3A9593F70710184199C333078B
:1023F000E040B7E6CA0293869630B387D50213054C
:10240000003DB395D502F9833304D7028A05CD8FF9
:1024100091453317D7027980B304D6020A07598C45
:1024200013D787412306E10013D70741A306E10034
:1024300013978700C207C1833316D602F980A183A0
:10244000D98F2317F1000A06D18C7000EFF06FE0EE
:1024500019C57D55F2406244D2440561828093D70C
:1024600084412306F10093D70441A306F10093971A
:102470008400C204C180A180DD8C700091451305E9
:10248000403D23179100EFF0CFDC61F59357844175
:102490002306F10093570441A306F100931784002B
:1024A0004204418021805D8C700091451305803D80
:1024B00023178100EFF0EFD971BF011122CC2A84DC
:1024C0001305210006CEEFE09FEF83D7018203566C
:1024D000210013F737000A07229793F647003E06BC
:1024E000184399C23307E04093D61700B18AA296E9
:1024F0008C4293F6070299C2B305B04093D64700C9
:10250000B18A369493F70710084099C33305A04069
:102510009357F741B306C702B387C702F98233372F
:10252000C702BA978A07DD8E93D7F5413387C50274
:10253000B387C7027983B3B5C502AE978A079355AF
:10254000F5415D8FB385C502B307C5023336C502B9
:10255000F983130540292E960A06D18F13D686419A
:102560002302C10013D60641A302C10013968600C0
:10257000C206C182A182D18E2313D1009356874116
:102580002304D10093560741A304D100931687007A
:10259000420741832183558F2315E10013D78741DB
:1025A0002306E10013D70741A306E1001397870034
:1025B000C207C183A183D98F5000B1452317F10011
:1025C000EFF02FC9F2406244056182807971A16504
:1025D00022D431462A849385C58B480806D6EF500D
:1025E00060229307800C63F787007D55B250225418
:1025F00045618280B3C78702700089451305602159
:1026000023060100FD17A306F100EFF08FC471FD52
:1026100005655008B145130515ACEFF08FC371F592
:1026200023928182E1B79377750099E37D5582808B
:1026300093070064E3ECB7FE7971B787000087A7C2
:10264000876622EE53F415D022D42A841305B100F4
:1026500006D65374F418EFE0DFB48347B100114796
:10266000638DE70C636BF7000947638DE7027D55C7
:10267000B25022547264456182802147638EE70C18
:102680004147E396E7FEB787000087A74768B7870B
:102690000000D377F410539717C087A787684207C5
:1026A000418339A8B787000087A7C766B7870000AE
:1026B000D377F410539717C087A707674207418362
:1026C0005374F410931687002183558F2316E1006D
:1026D000D31714C0C207C18313978700A183D98F72
:1026E0002317F10093771400D9E79377240085C36B
:1026F000700089451305801DEFF0AFB52DF9130665
:10270000E100894513058012EFF0AFB42DF1118877
:10271000014539DC700089451305C01DEFF06FB32A
:1027200039F51306E10089451305C012EFF06FB2C9
:102730003335A0003305A04025BFB787000087A729
:102740004767B7870000D377F410539717C087A760
:10275000876742074183ADB7B787000087A7C76780
:10276000B7870000D377F410539717C087A707687F
:1027700042074183B1B7700089451305401DEFF052
:102780004FADE31605EE1306E1008945130540122F
:10279000EFF02FAC39D9E1BD011106CE93771500CA
:1027A00095EFA30701009377250099C78347F100B0
:1027B00093E7C700A307F100118919C58347F1000A
:1027C00093E73700A307F1001306F10085451305D1
:1027D0008014EFF00FA8F240056182809307000398
:1027E000A307F100C9B7011106CE854719C51147E6
:1027F0009377F50F6373A7009147FD171306F10058
:1028000085451305F014A307F100EFF08FA4F24003
:102810000561828095473355F502011170008945A5
:1028200006CE9317850021815D8D2316A100130527
:10283000E01DEFF00FA2F24005618280954733550D
:10284000F50201117000894506CE9317850021819C
:102850005D8D2316A1001305A01DEFF08F9FF240A0
:10286000056182809307803E3345F50201117000B7
:1028700006CEB305B5021305C01593D785412306CF
:10288000F10093D70541A306F10093978500C20597
:10289000C181A181DD8D2317B1009145EFF06F9BC0
:1028A000F2400561828095473355F50201117000B1
:1028B000894506CE9317850021815D8D2316A100E1
:1028C0001305A015EFF0EF98F2400561828095475F
:1028D0003355F50201117000894506CE9317850026
:1028E00021815D8D2316A10013058015EFF06F96F1
:1028F000F24005618280011106CE11C5EFF01F94F0
:10290000F24005618280A16525469385858C48004B
:10291000EF40506F5000A5451305804BEFF06F93CB
:10292000C5B7011106CE15C1B7C7C4C69387072C1A
:10293000056570009145130585A93EC6EFF06F91BE
:10294000EFE06FE1F24005618280B7978B8B938750
:10295000B7B8F9BF011106CE15C1B7373038938724
:1029600007820565700091451305E5A93EC6EFF0A5
:102970004F8EEFE04FDEF24005618280B7A7A3A340
:102980009387373AF9BF7971B7D7E309938727A0BF
:1029900022D450002A8491451305800652CC3EC2B1
:1029A00006D626D24AD04ECEEFF0AF8A930730FA41
:1029B0002302F100137A0404630F0A16930700FC44
:1029C000A302F100F1779387872C2313F100137989
:1029D000041863080916F577938747CC2314F10090
:1029E000930760FC2305F100930730FAA305F1007B
:1029F0000565E9779387373A5000A945130575AA0D
:102A00002316F10093793400EFF0AF849307800D23
:102A1000638409009307000205655000854513058E
:102A200065AB2302F100EFF0CF829377040263825B
:102A30000712EFF0BF806302090293770410638DE1
:102A40000710B797B69B938727BB05655000914544
:102A5000130525AA3EC2EFE0DFFF937714006382DF
:102A600007100565E157500085451305058B2302C6
:102A7000F100EFE01FFE9305A00F1D456D361D45CB
:102A8000213B05458D331305400669331305401F6F
:102A9000753337E5CA029305800C13059530D93399
:102AA00013058002093529451D3593772400B33776
:102AB000F0009387870D500085451305D0732302DE
:102AC000F100EFE01FF993774400054591E30145DC
:102AD000893D93770401054591E30145A53D938721
:102AE0008181136784002395E700EFE0CFC69387C9
:102AF000818163140A08238707006307090003C75D
:102B0000E70019072387E700518811C403C7E700CE
:102B100041072387E7006387090003C7E700110720
:102B20002387E700B250225492540259F249624A74
:102B3000014545618280A302F100E9779387373A26
:102B400069B5E9779387373A2314F100930730FA90
:102B500051BD01454D33C5B5B787B4909387070B79
:102B6000EDB50565930780FD500085451305058B80
:102B70002302F100EFE0FFED0DBF19472387E700C7
:102B8000ADBF5D7156DA5ED6938B8181CAC02A894A
:102B900003C5EB00A6C24EDE52DC5AD886C6A2C4DC
:102BA000AE89328B231007003E868A85B6843A8A26
:102BB000EFE01F8D61E503D7AB002A84938A818102
:102BC00093774701638E071A8347010083461100FC
:102BD00003465100E207C206D58F83463100420604
:102BE00083458100D58F83462100E2050345D1004E
:102BF000A206D58F834641002320FB00C187E20651
:102C0000D18E03467100B387F7024205D18E034689
:102C100061002206D18E034691002322DB00C1868B
:102C20004206D18D0346B100B386D602D18D03464C
:102C3000A1002206D18D0346C1002324BB00C1851B
:102C40006206498E0345F100BE96B387B502498EF0
:102C50000345E1002205498E2326CB004186330639
:102C6000C602B697B70600F1B297B697B70600024C
:102C700063F8F600EFE02FAE23100A007D54EDA0BC
:102C800083570A0093E707102310FA00C147937691
:102C90000704A1C61410BE9603C606FE83C516FE21
:102CA000990722064D8E2390C90003C626FE83C5D0
:102CB00036FE93F7F70F22064D8E2391C90003C607
:102CC00046FE83C656FE2206D18E2392D900835635
:102CD0000A0093E686002310DA0093760718A1C64F
:102CE0001410BE9603C606FE83C516FE990722067B
:102CF0004D8E2310C90003C626FE83C536FE93F70A
:102D0000F70F22064D8E2311C90003C646FE83C667
:102D100056FE2206D18E2312D90083560A0093E66E
:102D200006072310DA000D8B0DCF3309F10083471E
:102D3000190083493900858B99CB83A70A0081CB81
:102D400093F5790013D5390085051D89829783474E
:102D50001900A18B99C783A74A0081C713D56900C1
:102D600082972685EFF0CFA32285B640264496446D
:102D70000649F259625AD25A425BB25B6161828063
:102D8000814731B7011126CAB764004022CC4AC836
:102D90004EC652C456C206CE5AC0AA8A2E8A32895C
:102DA000368493890480B70502004E85EFD03FA298
:102DB0007DF9138504808545B7040300B769004099
:102DC000EFD07F978504138B0980A6855A85EFD0B5
:102DD0007F9E65DDD685138509800146B70407000F
:102DE000B7690040EFD0DF9B93842408938A098061
:102DF000A6855685EFD01F9C65DD13850980D28599
:102E0000B7090700B7640040EFD09F98938949083D
:102E100093840480CE852685EFD0DF9965DDB76485
:102E20000040B709070022999384048093894908D8
:102E3000631289026244F240D2444249B249224AB2
:102E4000924A024B376500408545130505800561B0
:102E50006FD05F9005048345F4FF2685EFD05F9324
:102E6000CE852685EFD01F9565DDD9B70111A30763
:102E7000B1009306F100AA8505461305000D06CEA4
:102E80001137F24005618280797185453705400030
:102E900006D622D402C202C402C602C802CA02CCAA
:102EA00002CEEFD01FA985452145EFD0BFA685678B
:102EB000938707C02312F10037150140F1473EC642
:102EC0004C008D47130505C03EC4EFD06FE6B72711
:102ED0000600938707A83EC8B707FFBF37640040C6
:102EE0003ECAB70700043ECC0C0891671305048066
:102EF000231EF100EFD0CFF0130504808545EFD0FD
:102F0000DF81854513050480EFD0BF8613052003BC
:102F1000EF10E03A930500081305B006813F130552
:102F20004006EF10C03981451305B0068137CD4505
:102F300065452D3F91456945153F814571453D37B3
:102F4000E1456D45253781451305800305378145EA
:102F50001305A006213F814513053002013F93056B
:102F6000000813057003193785451305B006FD3DAC
:102F7000EFF0CF912A84AA853785000013054569B3
:102F8000EF2000382285B250225445618280011121
:102F900026CAB764004022CC4AC84EC652C456C2A4
:102FA00006CE5AC02A8AAE8A328436899389048032
:102FB000B70502004E85EFD09F817DF9138504800F
:102FC0008545B7040300B7690040EFD0CFF685040C
:102FD000138B0980A6855A85EFD0CFFD65DD13855B
:102FE00009800146D285B7040700B7690040EFD0D9
:102FF0002FFB93842408138B0980A6855A85EFD074
:103000006FFB65DDD68513850980B7040700B769B6
:103010000040EFD0EFF793844408938A0980A68597
:103020005685EFD02FF965DD138509808545B704F6
:103030000300B7690040EFD00FF08504938A098040
:10304000A6855685EFD00FF765DD13850980054607
:10305000D285B7090300B7640040EFD06FF4890947
:1030600093840480CE852685EFD0CFF465DDB764E8
:103070000040B7090300130AF00F9384048093897A
:1030800009047D141374F40F63174403376400407C
:10309000130504808545EFD0EFEB130504806244EF
:1030A000F240D2444249B249224A924A024B8545F3
:1030B00005616FD00FEC09E481452685EFD06FEBF9
:1030C000CE852685EFD00FEF65DD2685EFD0AFECFE
:1030D0002300A900050975B7011122CC9306E10070
:1030E0002A84AA8505461305000D06CE4D359305A5
:1030F00014009306F1001305000D054693F5F50F36
:1031000079358347E1000345F100F2406244A207AC
:103110005D8D0561828041111305100406C66D3F67
:103120004205B7870000418507A5C768D37705D05A
:10313000B7870000B240D3F7A71807A50769410178
:1031400053F5A7008280011170002C00480006CEC4
:1031500022CC26CAEFE0DFFDB267138481821CE037
:103160009267AA84130570045CE0A2671CE4AD3783
:103170002316A4001305300485372317A400130574
:103180005004993F2318A400F24062442685D2449B
:1031900005618280411126C2AA843715014022C4EC
:1031A00001462E8413050580A16506C64AC0EFD0EE
:1031B0008FC4372501402286914513050580374489
:1031C0000040EFD04FC3130904C089454A85EFD0B2
:1031D0007F8065DD130504C0A68537440040EFD02D
:1031E000AFFE130404C0930500082285EFD08FFEC4
:1031F0007DF92244B2409244024937150140054608
:10320000A1651305058041016FD0EFBE411122C4B5
:103210002A84218185451375F50F06C6A53F1375D0
:10322000F40F2244B24085454101ADB7011122CCD3
:1032300026CA2E84AA8481451305A00206CE36C470
:1032400032C6893F2685D93732467D16330596002A
:10325000753F81451305B002353F130524027D37C4
:10326000A24693861602338586004D376244F240AB
:10327000D24481451305C002056129BF011126CA48
:103280004AC84EC61359050193548500B7490040FA
:1032900022CC52C406CE1379F90F93F4F40F1374B1
:1032A000F50F138A09C089455285EFD0AFF265DD6D
:1032B000138509C0AD45B7490040EFD0EFF0138A40
:1032C00009C089455285EFD0EFF065DDCA851385C9
:1032D00009C037490040EFD02FEF930909C0894555
:1032E0004E85EFD02FEF65DDA685130509C0B744E5
:1032F0000040EFD06FED138904C089454A85EFD0B7
:103300006FED65DDA285138504C037440040EFD022
:10331000AFEB930404C089452685EFD0AFEB65DDA4
:10332000130504C06244F240D2444249B249224AE1
:103330009305F00F05616FD02FE9411122C4374486
:10334000004026C206C6930404C089452685EFD0F6
:103350006FE865DD130504C09305F00F37440040A6
:10336000EFD08FE6130404C0930500082285EFD048
:103370006FE67DF937440040930404C085452685F7
:10338000EFD04FE565DD130504C0EFD04FE4B24048
:10339000224492441375F50F410182807971B7E799
:1033A0001D0026D24AD052CC06D622D44ECE56CAC2
:1033B0005AC85EC6138707282A8AAE84328983CA10
:1033C000060083C916006307E500938707F80144E8
:1033D0006312F504938704FE93F6F70F1307E005D5
:1033E00001446365D7001394370052943725014098
:1033F0000146894513050580EFD0EF9F2285BD3D2D
:10340000014BA14B1D3FB30769012380A700050BAA
:10341000E31A7BFFB7C71D00938707E06314FA0A1E
:10342000811413F7F40F9307E00563E7E7003144D5
:10343000B384840233844401372501400146894521
:1034400013050580EFD02F9B22850D3D8144314B24
:10345000ED35B30799002380A7008504E39A64FF44
:10346000B7D702009387079D631CFA0E9387FA056E
:1034700093F7F70F21476367F72C9307000A63FD63
:1034800037011304E0059387FAF5B38787021384A5
:10349000F9F53E94160452943725014001468945BA
:1034A00013050580EFD02F952285C93B0144930475
:1034B00000026135B30789002380A7000504E31AE1
:1034C00094FE39ACB7D71D00938707786311FA04CF
:1034D000811413F7F40F9307E00563E5E700920406
:1034E0003384440137250140014689451305058091
:1034F000EFD06F90228559338144414B3D3DB30756
:1035000099002380A7008504E39A64FF91BFB70761
:103510001E00938707F0631BFA0A811413F7F40F58
:103520009307E00563E8E70013040003B384840213
:103530003384440137250140014689451305058040
:10354000EFD06F8B2285EFF07FD38144130B000304
:10355000ED33B30799002380A7008504E39A64FF45
:10356000B7870600938707196319FA0A9387FA0544
:1035700093F7F70F2147636EF71E9307000A63F076
:1035800037031304E0059387FAF5B38787021384A2
:10359000F9F5930980043E9433043403529437259B
:1035A00001400146894513050580EFD0CF8422856F
:1035B000EFF0DFCC0144930480044133B30789006A
:1035C0002380A7000504E31A94FE19AAB7671E001A
:1035D000938707A56317FA0A811413F7F40F93076B
:1035E000E00563E5E7009A04338444013725014090
:1035F0000146894513050580EFC0FFFF2285EFF0E6
:10360000FFC78144130B0004EFF03FD3B3079900C9
:103610002380A7008504E39964FFB7E70E00938732
:1036200007F0631FFA0A9387FA0593F7F70F21470C
:10363000636CF7169307000A63FD37011304E00576
:103640009387FAF5B38787021384F9F53E941E0435
:103650005294372501400146894513050580EFC086
:103660009FF92285EFF09FC1014493040008EFF019
:10367000DFCCB30789002380A7000504E31994FE7B
:1036800085A0E31F0ADC9387FA0593F7F70F21471C
:103690006364F7089307000A63FE37011304E0052B
:1036A0009387FAF5B38787021384F9F53E94E147CF
:1036B0003304F4023725014001468945130505808E
:1036C000EFC07FF32285EFF07FBB0144E144EFF0D0
:1036D000DFC6B30789002380A7000504E31994FE21
:1036E00037440040130404C0930500082285EFD03E
:1036F0006FAE7DF92254B25092540259F249624A97
:10370000D24A424BB24B3725014005468945130545
:10371000058045616FC03FEE93870A0593F7F70F69
:1037200013077004E368F7F89307000AE3F437F926
:1037300093870AF51304E005338487024E9413043B
:10374000D42AB5B793870A0593F7F70F13077004C8
:10375000E364F7D49307000AE3F037D51304E005D8
:1037600093870AF5B38787023384F9001304D42AB8
:1037700015B393870A0593F7F70F13077004E360F7
:10378000F7E29307000AE3FC37E11304E0059387AF
:103790000AF5B38787023384F9001304D42A930708
:1037A00080043304F402DDBB93870A0593F7F70F17
:1037B00013077004E36FF7E89307000AE3FB37E9A8
:1037C0001304E00593870AF5B38787023384F90071
:1037D0001304D42AADBD011122CC4AC84EC652C42E
:1037E00056C206CE26CAAA892E84328A3689BA8A59
:1037F000EFF0DFA363632403F2406244D244424902
:10380000B249224A924A056182805685EFF01FA094
:103810008504E3EC44FF0504F1BFCE84DDBF3971BC
:1038200085451305C00406DE22DC26DA4AD84ED6CA
:1038300002C002C202C402C602C802CA02CC231ECF
:103840000100EFD02F8D85452165EFD08F8EB71900
:1038500001408D444149E1778A8513850980231011
:10386000F1004AC426C2EFC0BFCC054613850980CB
:10387000A165EFC05FD83724014089478A851305C9
:1038800004802310F1004AC426C2EFC07FCA054657
:10389000130504808945EFC01FD691478A8513051B
:1038A00004802310F1004AC426C2EFC07FC89307EA
:1038B00080022310F1008A85E147138509C03EC4C8
:1038C00026C2EFC0FFC691478A85138509C0231021
:1038D00021013EC426C2EFC0BFC5B70704013EC6E2
:1038E000B7490040B70700023ECA6C009D471385E8
:1038F00009C0231EF10002C802CCEFD06F851385EA
:1039000009C08545EFD06F8A81454545EFF09F8816
:103910007945EF00D01A814513056003EFF09F87CA
:10392000854513050007EFF0FF8681451305A003C9
:10393000EFF05F8685451545EFF0DF85814513057E
:10394000200BEFF03F8585453145EFF0BF8485457D
:103950003145EFF03F8485450145EFF0BF83854554
:1039600013053003EFF01F83854513053003EFF097
:103970007F8281451305700BEFF0DF8185451305CC
:103980005003EFF03F8181451305B00BEFF09F80AE
:10399000854513055003EFF0EFFF81451305000C3B
:1039A000EFF04FFF85451305C002EFF0AFFE8145F4
:1039B0001305200CEFF00FFE85450545EFF08FFD58
:1039C00081451305300CEFF0EFFC85454D45EFF0D8
:1039D0006FFC81451305400CEFF0CFFB85451305C7
:1039E0000002EFF02FFB81451305600CEFF08FFA1A
:1039F00085453D45EFF00FFA81451305000DEFF0C9
:103A00006FF985451305400AEFF0CFF8854513059A
:103A1000100AEFF02FF881451305600DEFF08FF7D6
:103A200085451305100AEFF0EFF681451305000EEA
:103A3000EFF04FF685451305000FEFF0AFF5854524
:103A40000145EFF02FF585451145EFF0AFF48545C1
:103A50001145EFF02FF485451145EFF0AFF38545A3
:103A60001545EFF02FF3854513059002EFF08FF227
:103A7000854513053003EFF0EFF185451305E003AD
:103A8000EFF04FF1854513058003EFF0AFF085456A
:103A90004945EFF02FF085454945EFF0AFEF8545FB
:103AA00013058002EFF00FEF854513050003EFF0DB
:103AB0006FEE81451305100EEFF0CFED8545130530
:103AC000000FEFF02FED85451D45EFF0AFEC85457C
:103AD0002945EFF02FEC85453545EFF0AFEB8545F7
:103AE0002D45EFF02FEB85451D45EFF0AFEA8545FD
:103AF00013058002EFF00FEA854513053003EFF060
:103B00006FE985451305E003EFF0CFE88545130520
:103B10006003EFF02FE885455145EFF0AFE78545AD
:103B20005145EFF02FE7854513059002EFF08FE642
:103B3000854513052003EFF0EFE5814513051002DD
:103B4000EFF04FE581454545EFF0CFE413058007E1
:103B5000EF00E076814513059002EFF0AFE3416797
:103B60007D179306C00A1306001481450145EFF046
:103B70009FC685451305000402C602C802CAEFC0ED
:103B80007FD9A1476C00130504802316F1004ACAAF
:103B900026C8EFC0FF99130504808545EFC07FA5B7
:103BA000130504800546A145EFC0FFA4F2506254FE
:103BB000D2544259B2592161828055714EDFBE897B
:103BC000B7D70200A2C5A6C3CAC152DD56DB5AD977
:103BD00086C75ED762D566D36AD16ECF9387079DBD
:103BE0002A842E89B284B68A3A8B414A6382F902CA
:103BF000B787060093870719614A638BF900B7E717
:103C00000E00938707F0314A6394F900130A00020B
:103C1000B7DB020093870B9D378C0600B7EC0E00D4
:103C20003EC6130C0C19938C0CF05DA83547639AB3
:103C3000E70003C71400A9476315F70052998904E8
:103C40000144B3074401130700146374F700529949
:103C50000144B30749011307C00A6374F70001491F
:103C600001446391090AA686100881450145EFF0D9
:103C7000EFF2B1463146CA852285EFF02FDB130DF6
:103C80000101930D8102A14B83060D005A8563C388
:103C900006005685EFF08FD783460D001387FBFF94
:103CA000937BF70F86062300DD00E39F0BFC914B0F
:103CB00083061D005A8563C306005685EFF00FD5B5
:103CC00083461D001387FBFF937BF70F8606A30037
:103CD000DD00E39F0BFC090DE397ADFB3104890484
:103CE00083C70400A1F7BE402E449E440E49FA59F2
:103CF0006A5ADA5A4A5BBA5B2A5C9A5C0A5DFA4DE8
:103D000069618280B247639BF904A68610088145E9
:103D10004E85EFF0AFE8C1464146CA852285EFF0F7
:103D2000EFD0130D0101930D0103A14B83060D008C
:103D30005A8563C306005685EFF04FCD83460D00CC
:103D40001387FBFF937BF70F86062300DD00E39FBD
:103D50000BFC050DE39BADFD410451B7639A89054A
:103D6000A686100881454E85EFF04FE3E146614697
:103D7000CA852285EFF08FCB930D0101A14B0387FC
:103D80000D005A85634307005685EFF02FC803C71F
:103D90000D009387FBFF93FBF70F06072380ED00D1
:103DA000E39F0BFC850DBC08E39AFDFC610405BF95
:103DB000E39799F3A686100881454E85EFF00FDE54
:103DC0009306000213060002CA852285EFF00FC693
:103DD000014D814D1C09B38BA70103860BF85A8551
:103DE000634306005685EFF06FC203C60BF81387D6
:103DF0001D00937DF70F06062380CBF8A147E39BB8
:103E0000FDFC93071D0013FDF70F13178D0161874C
:103E1000E35107FC13040402D9B55971A2D43E84BE
:103E2000B7E71D00CAD0CECED2CCD6CADAC8BA897E
:103E300086D6A6D2DEC6E2C4138707F82A8AAE8ADF
:103E4000328B36896313E40A81460A86DA85228535
:103E5000EFF0CFD49D461546D6855285EFF00FBDC5
:103E60008A84130C7100954B838704004E8563C3CD
:103E700007004A85EFF08FB983C70400FD1B93FB51
:103E8000FB0F86072380F400E3900BFE8504E31C00
:103E90009CFCB7671E00938707A5631CF40E228560
:103EA00081460A86DA85EFF06FCF528593060002CD
:103EB0004146D685EFF08FB70A84130A0104A14466
:103EC000830704004E8563C307004A85EFF00FB4F3
:103ED00083470400FD1493F4F40F86072300F400D5
:103EE000E5F00504E31D8AFC6DA09387072863189D
:103EF000F40481460A86DA852285EFF02FCAA146AE
:103F00001D46D6855285EFF06FB28A84130C81006E
:103F10009D4B838704004E8563C307004A85EFF0FD
:103F2000EFAE83C70400FD1B93FBFB0F86072380C6
:103F3000F400E3900BFE8504E39C84FD99BFB7C7B2
:103F40001D00938707E06312F406228581460A86E6
:103F5000DA85EFF0AFC45285B1461946D685EFF049
:103F6000EFAC0A84130AC1009944830704004E850C
:103F700063C307004A85EFF06FA983470400FD146F
:103F800093F4F40F86072300F400E5F00504E31D25
:103F900044FDB650265496540659F649664AD64A08
:103FA000464BB64B264C65618280B7D71D00938780
:103FB00007786317F404228581460A86DA85EFF0D4
:103FC000EFBD5285C1462146D685EFF02FA60A8463
:103FD000130A0101A144830704004E8563C307004F
:103FE0004A85EFF0AFA283470400FD1493F4F40F69
:103FF00086072300F400E5F00504E31D8AFC51BFA9
:10400000B7071E00938707F0E315F4E82285814681
:104010000A86DA85EFF08FB85285E1463146D685BB
:10402000EFF0CFA00A84130A0103A1448307040020
:104030004E8563C307004A85EFF04F9D8347040018
:10404000FD1493F4F40F86072300F400E5F0914487
:10405000830714004E8563C307004A85EFF00F9B6A
:1040600083471400FD1493F4F40F8607A300F400B3
:10407000E5F00904E31B44FB29BF39714AD83E89A6
:10408000B7E71D0022DC26DA4ED652D45ECE62CCD3
:1040900006DE56D25AD066CA6AC86EC6938707280B
:1040A0002A8A2E84B289B68B3A8C9D44630FF9021A
:1040B000B7C71D00938707E099446308F902B7D793
:1040C0001D0093870778A1446301F902B7071E001A
:1040D000938707F0B144630AF900B7671E0093871E
:1040E00007A5C1446303F9009544B70A1E00376B66
:1040F0001E00939C1400354DA94D938A0AF0130BB2
:104100000BA599A0639BA701838719006397B7014B
:104110006312590761048909014AB3079A0063745D
:10412000F8006694014AB307940163F4F80001446F
:10413000014A03C609005285CA876287DE86A285C6
:10414000EFF0BFCD8509269A838709001308001474
:104150009308C00AC5FBF2506254D2544259B25976
:10416000225A925A025BF24B624CD24C424DB24DF3
:1041700021618280E31169FB1304040269BF4111CC
:1041800006C622C426C2EFF08FE9B1644164B76766
:104190001E0037860000938707A5138704C4930683
:1041A000F4FF1306066BA9450145EFF01FEDB7E7D5
:1041B0000E0037860000938707F0138704C4930628
:1041C000F4FF1306466D9305A0061305800EEFF06D
:1041D000DF9EEFE07FCB75FD2244B24092443785ED
:1041E00000001305856D41016F10C013411106C613
:1041F00022C4EFE05FF549E907A58182138481823B
:10420000EF30A0152A8637850000AE861305C56EEF
:10421000EF10000F4860EF3040142A863785000009
:10422000AE861305856FEF10A00D0864EF30E01225
:104230002A8637850000AE8613054570EF10400CC6
:104240008355C4003785000013050571EF10400B3E
:104250008355E400378500001305C571EF10400A4F
:1042600083550401378500001305C572EF1040091E
:10427000EFE07FEAEF30600E2A8637850000AE86D9
:104280001305C573EF10C0072244B2401305200385
:10429000410135A0B707002083A7870A37177A00A6
:1042A00013070720B3D7E70293F7F70F238BF180AB
:1042B0001307803EB387E702239AF1808280B7F725
:1042C00000E0D8438146799BD8C303D741813306A8
:1042D000A70290CBD4CB98431367070198C39843A8
:1042E0001367170298C3D843058B75DF9843799BF2
:1042F00098C38280797122D42A841165854511057D
:1043000006D6EFC02FE1930700202312F1003715E6
:1043100001408D473EC44C00E147130505803EC671
:10432000EFC00FA122C837440140B70708000C08AE
:10433000130504803ECC02CA231E0100EFC04FEAE1
:10434000130504808545EFC02FF7B2502254456114
:104350008280011126CAB744014022CC4AC84EC609
:1043600006CEAE893289014493840480634A2401D5
:10437000F24062444A85D2444249B2490561828092
:10438000930500042685EFC08FF57DD9B38789009A
:104390008385070026850504C205C181EFC08FF320
:1043A000F1B75D71A2C422FE26FC86C6138481800B
:1043B0005304A5207D201840FD57D304A520630F8A
:1043C000F700D32784A099CB530584206127973722
:1043D000000087A7E763D397A7A089EBB6402644E0
:1043E000538594207274E274616182805305842045
:1043F00085473EC497470000938747353EC602D4A1
:10440000EF20B0752A8717450000130525333ACCF5
:104410003AC82ECE2ECA352318402AD02ED289472C
:104420006305F7022800212B0DC1A2578DE7025525
:104430009255EF300001D304A520B64026445385A1
:1044400094207274E27461618280EF30C038930707
:1044500010021CC1D9BFEF300038A2571CC1C1BF28
:1044600091ACD30705E0011122CC1394170006CEBE
:1044700026CA22E626E44AE24EE03707803F05805E
:104480006304E412634D87103707003FBE84635E08
:10449000E412370700326356E418174700008727F5
:1044A000E72BD377F5001737000087296756539716
:1044B000F9A069EF538507F0712D53F5A9089747C7
:1044C000000007A4672C9747000007A6A729974775
:1044D000000087A7E7289747000087A4E7285374C0
:1044E00085109747000007A767299747000087A511
:1044F000E7279747000007A927289747000007A547
:104500002728C377F460437924719747000087A672
:1045100027269747000007A7E7259747000007A62B
:104520006726C3F487484379895053058420C3F430
:10453000845843798960C3F4846843798998C3F4C3
:104540008470052E37A7793F13079799D30705E0A5
:10455000D3F4841063508708D3F42419D38607F06A
:1045600017470000072787221747000087274722A1
:10457000174700000725471EC3F49668C3F4E47884
:1045800053759508634490005315A520F24062448A
:10459000D2443264A26412698269056182805375D3
:1045A000A5085375A518DDB7D38707F01747000096
:1045B0000725471A538707F053F5A7101747000040
:1045C000872787194375F750D1B717370000872918
:1045D0002744CDB57D777D8FD30707F0530707F0CC
:1045E000D3F424194BF4F740D375E5009746000047
:1045F00087A6C6199746000007A6C615D377A5005B
:104600009747000007A507194B77D7505374B41884
:104610004B74D460C7F49740D3F4E40853759508FD
:1046200095B75377A510174700008725A71317479D
:1046300000008727E712174700008726E712174771
:1046400000000726A712C377F75817470000072571
:10465000A71217470000872567124375A758174709
:1046600000000720E711C3F7E76817470000872518
:104670002710174700008726E70F4375E500174707
:10468000000007202710C3F7E76017370000072650
:1046900027384375E500C3F7E7584375E560C3F76E
:1046A000E768D3F7E71053F5A718D38707F043F56A
:1046B000A778E9BD538705E0B707008093C7F7FFE8
:1046C000B3F5E7003706807FD30605E06349B604FB
:1046D000F58FB6886345F6043708803F63090711F4
:1046E000411122C41354E741098813D8F60106C6C4
:1046F0003364040195EF89476300F40C8D4753063A
:1047000005E06318F4009747000087A72709538640
:1047100007E0B2402244530506F041018280D307EE
:1047200007F0538706F0D3F7E7005385F720828020
:10473000ADC5638AC5086382C7068D8FDD87130602
:10474000C0036347F60A63580700930540FC13064D
:10475000000063CCB700538506F0D30707F053750C
:10476000F518CD2EF522530605E08547630AF40CB3
:1047700089476306F40A51DC530706F097470000A7
:1047800087A74703D377F7009747000007A7C7001D
:10479000D3F7E708538607E0ADBF9747000087A728
:1047A000A7FB538607E0E3D608F69747000087A7E4
:1047B00067FF538607E0B1BF9747000087A7C7FD93
:1047C000538607E0B9B7638CB7028947E306F4FE66
:1047D0008D47E30AF4F2854713060000E31BF4F269
:1047E0009747000087A7C7FB538607E01DB78DA238
:1047F0009747000087A747F6538607E0BDB789476C
:104800006302F4068D476308F4048547630EF402DF
:104810009747000087A707F8538607E0DDBD5307D9
:1048200006F09747000087A7E7F8D377F700974788
:10483000000007A767F6D377F708538607E0D1BDD6
:10484000B70700803D8EF1B59747000087A747F670
:10485000538607E07DBD9747000087A727F553865D
:1048600007E045BD9747000087A707F4538607E098
:104870004DB5D30605E03707807F939716008583F3
:1048800063F9E708530505E0D1C3B68763CD060891
:104890003376D70013D7764105E213968600634D31
:1048A0000608814611A0B286860793958700138675
:1048B0001600E3DA05FE158FB70680001386F6FFB3
:1048C000F18F130717F8DD8E1376170093971600F4
:1048D00021EA13581740E546014581453707000195
:1048E0003386E500FD1663C6C700B305E600918F69
:1048F0003A9586070583EDF699C3050579990585EF
:10490000B707003F3E95131778013A95530505F018
:104910008280C377A550538507E0530505F0828058
:10492000939726007DB7D377A508D3F7F71853855B
:1049300007E0530505F08280FD56158FB5BF014590
:10494000828097470000938767E78843CC43828043
:10495000D30705E0411122C41394170026C206C6EE
:10496000370780500580BE846341E4023707807FAB
:10497000634387109747000007A507DE6353901233
:10498000B24022449244410182803707E03E635A9C
:10499000E412370700316347E40E7D57538707F071
:1049A0009746000087A5C6E29746000007A6C6E323
:1049B000D376E7109746000007A546E1974600002A
:1049C00087A746E29746000007A2C6E09746000088
:1049D00087A1C6E153F7D6109746000007A1C6DFAE
:1049E0009746000087A0C6E09746000007A006DFB4
:1049F0004375A758C377F7609746000087A586DF01
:104A00009746000007A6C6DDFD564375E520C3F7AF
:104A1000E7184375E510C3F7E7084375E500C3F7EA
:104A2000E7584375E560D3F7E7104375D578D3872A
:104A300007F05375F510630FD7060A079746000075
:104A4000938686DCBA969C62538707F097460000EF
:104A5000938686DA5375F50836971C635375E50817
:104A600053F5A708E3DE04F0B24022449244531504
:104A7000A52041018280B240224492445375A50092
:104A80004101828017470000872747CDD377F50083
:104A9000173700000727C7F75317F7A0E30F07EEF4
:104AA000C5B5B24022449747000007A5A7CF92445E
:104AB00041018280B2402244924453F5A70841014B
:104AC00082804928B707983F6358F402B707303F00
:104AD0006354F4069747000007A747CB97470000A9
:104AE00087A747CEC377E5785375E5000147D3F72D
:104AF000A718D38707E05DB5B7071C406354F402DD
:104B00009747000087A747CC9737000087A647F054
:104B10005377F5084375F5680947D377A718D38706
:104B200007E0ADBD9747000087A7C7C9D3F7A7180F
:104B30000D47D38707E09DB59737000087A747ED5E
:104B40005377F5085375F5000547D377A718D38732
:104B500007E0A9B5D30705E086078583538507F0ED
:104B60008280011106CE2EC615CD1841AA8705C335
:104B700058417D5511CB8546631BD70098472300CC
:104B8000070023A207000545F2400561828098478F
:104B9000B2462300D7009847050798C7D8437D172A
:104BA000D8C3D5B705466C00EFF0AFFAE9BF79710D
:104BB00022D426D24ECE52CC56CA06D64AD05AC895
:104BC0002A8AAE8A32848144930900026344060231
:104BD000B3879A00838707009DE363D6840263D27C
:104BE000E402198C93F726009309000281C719E3A8
:104BF00093090003858A014985EA228931A8850441
:104C0000C1BF058CC5B70144F1BFCE8552853AC6F8
:104C1000EFF03FF532477D19E34920FF22896353C6
:104C2000040001493304244163CBE402CA84B387FE
:104C30002441D69783850700A1E12289634320059B
:104C400063530400014433059400B250225492543B
:104C50000259F249624AD24A424B45618280B3040A
:104C60009740268B9305000352857D1BEFF07FEF65
:104C7000E31A0BFE26995DBF5285EFF09FEE850487
:104C80007DB7CE855285EFF0DFED7D1945BF5D71B3
:104C9000A6C252DC86C6A2C4CAC04EDE56DABA84A8
:104CA0003E8A85E5930700030147D28626862C08B5
:104CB000231CF100EFF0BFEFB640264496440649AE
:104CC000F259625AD25A616182802A893684C68A30
:104CD00091CAA94701446317F60063D50500B305DF
:104CE000B0400544A30701029307F102A54613054E
:104CF00068FC33F7C50263D3E6002A97130707035E
:104D0000A38FE7FE9389F7FF33D7C50263FBC50482
:104D100009CCB9C813772A0021CB9305D0024A8564
:104D200042C6EFF01FE43248FD1493774A008DC36A
:104D300093071006930500034A85631FF802EFF0FE
:104D40005FE2930580074A85EFF0BFE10904F9149B
:104D50005687D2862686CE854A85EFF05FE5229576
:104D6000A1BFBA85CE8771B71307D002A38FE9FE22
:104D700001449389E7FF55BFEFF0BFDE930580053F
:104D8000D9B71D71CAC8CEC6D6C2DAC03A8986CE96
:104D9000A2CCA6CAD2C45EDE62DC66DA6AD86ED65F
:104DA00033E7C500BE89AA8A428B8347010621E703
:104DB00095CF8D679387D7022314F1002305010057
:104DC0000147DA864E862C005685EFF05FDEF6400E
:104DD0006644D6444649B649264A964A064BF25B93
:104DE000625CD25C425DB25D256182809307000304
:104DF0002314F100F1B7368AAE84328463000902CD
:104E0000A9470149639CF600635A0600B304B04009
:104E1000B33790003304C0401D8C0549A30F010037
:104E2000130DF101935DFA41A54C138C68FC528679
:104E3000EE862685A285EF00304B63D3AC006295E9
:104E400013050503A30FADFE5286EE862685A285C7
:104E5000930BFDFFEF00D00F6366B401639A8D02E0
:104E600063F84403630D09006388090293772B00FC
:104E700085C79305D0025685EFF0BFCEFD190147D7
:104E8000DA864E86DE855685EFF07FD24A9581B769
:104E9000AA842E845E8D61BF9307D002A38FFBFE90
:104EA0000149930BEDFFE1BF5D71A6C2CAC0AA84A0
:104EB0002E892E85B28586C63ACE42CCA2C44EDE5D
:104EC00052DCB289368A56DA5AD8BE8A5ED662D4A5
:104ED00066D2468C6AD0EF2080132A8BAE8B0146B7
:104EE0008146CE854A85EF001079724762487D8100
:104EF000BA872AC00547E288D286DA855E8626858B
:104F0000EFF03FE82A8D9305E0022685EFF07FC59C
:104F1000050D8147854C0144294763CE57075A85C3
:104F2000DE85EF20C0212A86AE864A85CE85EF1029
:104F300040652A89AE896685A285EF2040202A86B1
:104F4000AE864A85CE85EF00707EEF20400C13D6EA
:104F5000F541318DB347B600B305C5403335B500D3
:104F60003386C74002C0E288D687D286098E0948B8
:104F700026850547EFF0FFE0B64026446A95964443
:104F80000649F259625AD25A425BB25B225C925C89
:104F9000025D61618280B30687028507333497031F
:104FA000B30C9703369495BF5D715AD8379B0000B8
:104FB000A2C4A6C2CAC04EDE52DC56DA5ED662D4A5
:104FC00086C666D2AA892E893284014A8144930B0F
:104FD0005002930AB002294C130B4B818305090040
:104FE0008DE56386090081454E85EFF09FB7B64099
:104FF0002644268506499644F259625AD25A425BA3
:10500000B25B225C925C61618280638875014E852F
:10501000EFF03FB585040509D1B783071900930C5C
:105020001900639A7701930550024E85EFF07FB324
:1050300085046689CDB7D5D76387570563C8FA005D
:10504000130730026384E704814705A01307D002E9
:10505000638AE70013070003E398E7FE930C290037
:10506000894721A0930C2900854703870C0063031F
:10507000570563C1EA0293063002630BD7026689C3
:105080000145A54535A8930C29007DBF930C290047
:105090009147E1BF9306D0026309D700930600034E
:1050A000E31FD7FC93E7270031A0850C8547C1BFDC
:1050B00093E74700850CE1B733058503050936956D
:1050C00003070900930607FD13F6F60FE3F6C5FE86
:1050D0001306E0029946631EC7000509814625466E
:1050E00003070900130707FD9375F70F6375B602F1
:1050F000368A030709001306A0066309C70A63413D
:10510000E6021306C0046303C70A13068006630899
:10511000C70801461DA8B38686030509BA96C9B714
:10512000130640076304C7081306A0076300C708F7
:105130009305C0060146631AB700830519000D46A2
:105140006394E50005091146050903070900930565
:1051500000061308100663C4E50013081004930545
:10516000700663C2E506930550066359B7169305AA
:10517000700463CFE502130650046351C71693060B
:105180003004E31AD7E81840930C4400A30E010042
:10519000230EE100BE8601472A866C0871A08305B4
:1051A00019000146E393E5FA090945B7050995B7E2
:1051B00093063006E309D7FC63CEE6069306800526
:1051C0006303D70289BD930630076306D70463CD16
:1051D000E6029306F006630BD70C9306000793E7ED
:1051E0004700E31AD7E21147631BE60A1D04137751
:1051F00084FF0C43504313048700C28802C03E88DA
:105200000147AA87C146B9A0930650076303D70692
:105210009306800775B71840930C4400DA8511C3D4
:10522000BA855287BE862A864E85EFF05F98AA948B
:105230006684D5B311476314E6021D04137784FF17
:105240000C43504313048700C28802C03E880547C0
:10525000AA87A9464E85EFF0DFB2AA946DBB0C4039
:10526000D28811042A87854629464E85EFF03FA251
:10527000EDB71147631FE6001D04137784FF0C434D
:10528000504313048700C28802C03E880147AA87A2
:10529000C9B70C40D28811042A878146F1B70C4067
:1052A000D28811042A8781464146C1B7114763104D
:1052B000E6021D04137784FF0C4350431304870058
:1052C000C28802C03E880147AA87A14661B70C4048
:1052D000D28811042A878146214641BF1D041376D6
:1052E00084FF130486000C4250423307D540C28825
:1052F0007D173E884E85B687A946EFF0FFBAB1BF4D
:1053000039712ED232D4AA855010014506CE36D638
:105310003AD83EDA42DC46DE32C6EFF0FFC8F24051
:1053200021618280011122CC26CA06CE8347050066
:10533000AA840144A307F1008307F100050485E373
:10534000A9479305F10005460145A307F100EFF0D9
:105350004F802285F2406244D24405618280054636
:105360009305F1000145EFE0DFFEB387840083C7BA
:105370000700A307F100C9B7014863C6050E63DB48
:1053800006003306C040B337C000B306D040134810
:10539000F8FF9D8EB6873283AA8EAE886391061879
:1053A00063FCC50C41676361E61EB70700016365D6
:1053B000F63693568601E147173700001307474A30
:1053C000369703470700BA97130700021D8F19CBC2
:1053D000B395E500B357F5003313E600B3E8B70023
:1053E000B31EE50013560301B3D7C8029316030199
:1053F000C18213D70E01B3F5C8023385F602C20588
:10540000B3E8E50063FAA8009A981387F7FF63E40E
:10541000680063E9A832BA87B388A840B3D5C80248
:10542000C20E93DE0E01B3F8C802B386B602C208FC
:10543000B3E8D80163FBD8009A981387F5FF63E5BA
:105440006800F91563E3D800BA85139507014D8DFF
:105450008145630908003305A040B337A000B305B8
:10546000B0409D8D82803305A040B337A000B305C6
:10547000B0409D8D7D5821B701E605433353D302DB
:105480004167636AE30EB7070001636BF328935625
:105490008301E147173700001307873C369703471E
:1054A0000700BA97130700021D8F65EB93180301DD
:1054B000B3866540135F030193D80801854513D770
:1054C0000E01B3D7E603B3F6E60333861703C2062D
:1054D000558F637AC7001A979386F7FF6364670056
:1054E0006365C726B687118FB356E703C20E93DEF6
:1054F0000E013377E703B388160342073367D701FA
:10550000637B17011A971386F6FF63656700F91628
:1055100063631701B28613950701558D1DBF63E1C3
:10552000D504C16763E1F604B707000163E2F61E24
:1055300093D8860161479737000093876732C697F3
:1055400003C30700930700023A93B3876740E9EB70
:1055500063ECB61C3335C500134515008145D5BD38
:1055600081450145FDB59307F00F63F2D71C93D831
:1055700086002147C9B71307F00F9A86E37C67F0CE
:1055800093568300A14739B71307F00FB286E3752E
:10559000C7E293568600A14705B53313E30033D61F
:1055A000F500135F0301335EE603B396E500B357DE
:1055B000F500DD8E9318030193D80801B31EE500B2
:1055C00093D50601B377E6033387C803C207CD8FAF
:1055D00063FBE7009A971306FEFF63E3671663F128
:1055E000E716791E9A97998F33D6E703139706012A
:1055F0004183B3F7E7033385C80293960701D98E39
:1056000063FBA6009A969307F6FF63E7661263F5BD
:10561000A61279169A9693150E01898ED18D45B5ED
:1056200033576600B396F600D98EB3D8650013DF02
:105630000601B3DEE803139E060133536500135ED3
:105640000E01B395F500B365B30013D7050133160A
:10565000F600B3F8E8033303DE03C20833E7E800DB
:10566000637B670036979388FEFF6369D70C637787
:10567000670CF91E3697330767403353E703C205BB
:10568000C1813377E703B3086E024207D98D63FB0C
:105690001501B6951307F3FF63EED50863FC1509F2
:1056A0007913B695C20E416FB3EE6E001307FFFF7C
:1056B000B3F6EE0013D30E01718F4182338EE602F2
:1056C000B3851541B386C60293580E013307E30232
:1056D000BA96C6963306C30263F3E6007A9613D3EE
:1056E00006011A9663E2C5026385C5007685814589
:1056F0008DB341677D17F98EC206337EEE00B31776
:10570000F500F296E3F4D7FE1385FEFF814591B3D1
:1057100093D80601414705B593560601C14769B9BB
:1057200093560301C147BDB3814505451DB3B688F6
:10573000014711B53A83BDB73E86F1BDC68E25BF80
:10574000328E55B5F9179A98C1B9F9171A9761BBF6
:10575000B687B2882A832E88639D061463F9C50A2A
:105760004167636EE61AB70700016363F634935628
:105770008601E147173700001307870E3697034766
:105780000700BA97130700021D8F19CB3398E50065
:10579000B357F500B318E60033E807013313E5000B
:1057A00013D608013355C80293960801C182935756
:1057B00003013377C802B385A60242073368F700B6
:1057C000637AB80046989307F5FF6364180163672E
:1057D000B8303E853308B8403357C80242031353EC
:1057E00003013378C802B386E602420833686800D2
:1057F000637BD80046989307F7FF63651801791714
:105800006363D8003E874205598D8145828001E659
:105810000547B358C702416763EAE80EB7070001BE
:1058200063ECF82893D68801E14717370000130787
:105830002703369783460700BE9693070002958F8D
:10584000E5EB939E08013387154113DF080193DED2
:105850000E018545935703013355E7033377E7037B
:10586000B306D5034207D98F63FAD700C69713074B
:10587000F5FF63E4170163E6D7263A85958F33D7A2
:10588000E703420313530301B3F7E703B30ED70350
:10589000C207B3E7670063FBD701C6979306F7FF1C
:1058A00063E51701791763E3D70136874205598D00
:1058B000828063E2D504C16763E2F604B7070001A2
:1058C00063E4F61E13D7860161489737000093877B
:1058D00027F9BA9703C70700130E00024297330E49
:1058E000EE40631A0E0C63EDB61C3335C50013454C
:1058F0001500814582808145014582809307F00F24
:1059000063F3D71C13D786002148C1B71307F00FE4
:10591000C686E37C17F193D68800A14739B71307F1
:10592000F00FB286E378C7E493568600A14799B595
:10593000B398F80033D6D50013DF0801335EE603D1
:105940003397F500B356D500558F939E080193DE2B
:105950000E013313F50093550701B376E603B387C1
:10596000CE03C206CD8E63FBF600C6961306FEFF7D
:1059700063E4161763F2F616791EC6969D8E33D62B
:10598000E60393170701C183B3F6E6033385CE021E
:10599000139706015D8F637BA70046979307F6FF79
:1059A000636817136376A7127916469793150E014D
:1059B000098FD18D45B5B357E600B396C601DD8E8C
:1059C00033D3E50013DF0601B357E303939E0601CB
:1059D00093DE0E013398C5013357E50033680701A4
:1059E000935808013316C6013373E303B385FE02EF
:1059F0004203B368130163FBB800B6981387F7FF3F
:105A000063EAD80C63F8B80CF917B698B388B840B5
:105A100033D7E803420813580801B3F8E803338387
:105A2000EE02C208B3E5080163FB6500B6951308F2
:105A3000F7FF63EDD50863FB65087917B695C207D4
:105A4000416FD98F1307FFFFB3F6E70093D8070123
:105A5000718F4182B38EE602B3856540B386C6027C
:105A600013D80E013387E802BA96C2963386C8026D
:105A700063F3E6007A9693D80601469663E2C50280
:105A80006385C5003E858145828041677D17F98E1B
:105A9000C206B3FEEE003315C501F696E374D5FEDB
:105AA0001385F7FF8145828013D70601414831BD38
:105AB00093560601C1477DB993D60801C147B5B3D6
:105AC0008145054582803687014801B5428785BFFB
:105AD0003E86E9BDBA871DBF328E4DB57915469811
